{
	"contracts/Marketplace.sol": {
		"Marketplace": {
			"abi": [
				{
					"inputs": [
						{
							"internalType": "address",
							"name": "_owner",
							"type": "address"
						}
					],
					"name": "getItemsByOwner",
					"outputs": [
						{
							"internalType": "uint256[]",
							"name": "",
							"type": "uint256[]"
						}
					],
					"stateMutability": "view",
					"type": "function"
				},
				{
					"inputs": [],
					"name": "itemCount",
					"outputs": [
						{
							"internalType": "uint256",
							"name": "",
							"type": "uint256"
						}
					],
					"stateMutability": "view",
					"type": "function"
				},
				{
					"inputs": [
						{
							"internalType": "uint256",
							"name": "",
							"type": "uint256"
						}
					],
					"name": "items",
					"outputs": [
						{
							"internalType": "uint256",
							"name": "id",
							"type": "uint256"
						},
						{
							"internalType": "string",
							"name": "name",
							"type": "string"
						},
						{
							"internalType": "uint256",
							"name": "price",
							"type": "uint256"
						},
						{
							"internalType": "address payable",
							"name": "seller",
							"type": "address"
						},
						{
							"internalType": "address",
							"name": "owner",
							"type": "address"
						},
						{
							"internalType": "bool",
							"name": "isSold",
							"type": "bool"
						}
					],
					"stateMutability": "view",
					"type": "function"
				},
				{
					"inputs": [
						{
							"internalType": "string",
							"name": "_name",
							"type": "string"
						},
						{
							"internalType": "uint256",
							"name": "_price",
							"type": "uint256"
						}
					],
					"name": "listItem",
					"outputs": [],
					"stateMutability": "nonpayable",
					"type": "function"
				},
				{
					"inputs": [
						{
							"internalType": "address",
							"name": "",
							"type": "address"
						},
						{
							"internalType": "uint256",
							"name": "",
							"type": "uint256"
						}
					],
					"name": "ownedItems",
					"outputs": [
						{
							"internalType": "uint256",
							"name": "",
							"type": "uint256"
						}
					],
					"stateMutability": "view",
					"type": "function"
				},
				{
					"inputs": [
						{
							"internalType": "uint256",
							"name": "_id",
							"type": "uint256"
						}
					],
					"name": "purchaseItem",
					"outputs": [],
					"stateMutability": "payable",
					"type": "function"
				},
				{
					"inputs": [
						{
							"internalType": "uint256",
							"name": "_id",
							"type": "uint256"
						},
						{
							"internalType": "address",
							"name": "_to",
							"type": "address"
						}
					],
					"name": "transferItem",
					"outputs": [],
					"stateMutability": "nonpayable",
					"type": "function"
				}
			],
			"devdoc": {
				"kind": "dev",
				"methods": {},
				"version": 1
			},
			"evm": {
				"assembly": "    /* \"contracts/Marketplace.sol\":57:2190  contract Marketplace {... */\n  mstore(0x40, 0x80)\n    /* \"contracts/Marketplace.sol\":267:268  0 */\n  0x00\n    /* \"contracts/Marketplace.sol\":243:268  uint public itemCount = 0 */\n  dup1\n  sstore\n    /* \"contracts/Marketplace.sol\":57:2190  contract Marketplace {... */\n  callvalue\n  dup1\n  iszero\n  tag_1\n  jumpi\n  0x00\n  dup1\n  revert\ntag_1:\n  pop\n  dataSize(sub_0)\n  dup1\n  dataOffset(sub_0)\n  0x00\n  codecopy\n  0x00\n  return\nstop\n\nsub_0: assembly {\n        /* \"contracts/Marketplace.sol\":57:2190  contract Marketplace {... */\n      mstore(0x40, 0x80)\n      jumpi(tag_1, lt(calldatasize, 0x04))\n      shr(0xe0, calldataload(0x00))\n      dup1\n      0x8511c937\n      gt\n      tag_9\n      jumpi\n      dup1\n      0x8511c937\n      eq\n      tag_5\n      jumpi\n      dup1\n      0xa4229101\n      eq\n      tag_6\n      jumpi\n      dup1\n      0xbfb231d2\n      eq\n      tag_7\n      jumpi\n      dup1\n      0xd38ea5bf\n      eq\n      tag_8\n      jumpi\n      jump(tag_1)\n    tag_9:\n      dup1\n      0x2c67a8e5\n      eq\n      tag_2\n      jumpi\n      dup1\n      0x42846534\n      eq\n      tag_3\n      jumpi\n      dup1\n      0x6bfb0d01\n      eq\n      tag_4\n      jumpi\n    tag_1:\n      0x00\n      dup1\n      revert\n        /* \"contracts/Marketplace.sol\":2069:2188  function getItemsByOwner(address _owner) public view returns (uint[] memory) {... */\n    tag_2:\n      callvalue\n      dup1\n      iszero\n      tag_10\n      jumpi\n      0x00\n      dup1\n      revert\n    tag_10:\n      pop\n      tag_11\n      0x04\n      dup1\n      calldatasize\n      sub\n      dup2\n      add\n      swap1\n      tag_12\n      swap2\n      swap1\n      tag_13\n      jump\t// in\n    tag_12:\n      tag_14\n      jump\t// in\n    tag_11:\n      mload(0x40)\n      tag_15\n      swap2\n      swap1\n      tag_16\n      jump\t// in\n    tag_15:\n      mload(0x40)\n      dup1\n      swap2\n      sub\n      swap1\n      return\n        /* \"contracts/Marketplace.sol\":314:358  mapping(address => uint[]) public ownedItems */\n    tag_3:\n      callvalue\n      dup1\n      iszero\n      tag_17\n      jumpi\n      0x00\n      dup1\n      revert\n    tag_17:\n      pop\n      tag_18\n      0x04\n      dup1\n      calldatasize\n      sub\n      dup2\n      add\n      swap1\n      tag_19\n      swap2\n      swap1\n      tag_20\n      jump\t// in\n    tag_19:\n      tag_21\n      jump\t// in\n    tag_18:\n      mload(0x40)\n      tag_22\n      swap2\n      swap1\n      tag_23\n      jump\t// in\n    tag_22:\n      mload(0x40)\n      dup1\n      swap2\n      sub\n      swap1\n      return\n        /* \"contracts/Marketplace.sol\":243:268  uint public itemCount = 0 */\n    tag_4:\n      callvalue\n      dup1\n      iszero\n      tag_24\n      jumpi\n      0x00\n      dup1\n      revert\n    tag_24:\n      pop\n      tag_25\n      tag_26\n      jump\t// in\n    tag_25:\n      mload(0x40)\n      tag_27\n      swap2\n      swap1\n      tag_23\n      jump\t// in\n    tag_27:\n      mload(0x40)\n      dup1\n      swap2\n      sub\n      swap1\n      return\n        /* \"contracts/Marketplace.sol\":365:665  function listItem(string memory _name, uint _price) public {... */\n    tag_5:\n      callvalue\n      dup1\n      iszero\n      tag_28\n      jumpi\n      0x00\n      dup1\n      revert\n    tag_28:\n      pop\n      tag_29\n      0x04\n      dup1\n      calldatasize\n      sub\n      dup2\n      add\n      swap1\n      tag_30\n      swap2\n      swap1\n      tag_31\n      jump\t// in\n    tag_30:\n      tag_32\n      jump\t// in\n    tag_29:\n      stop\n        /* \"contracts/Marketplace.sol\":1773:2063  function transferItem(uint _id, address _to) public {... */\n    tag_6:\n      callvalue\n      dup1\n      iszero\n      tag_33\n      jumpi\n      0x00\n      dup1\n      revert\n    tag_33:\n      pop\n      tag_34\n      0x04\n      dup1\n      calldatasize\n      sub\n      dup2\n      add\n      swap1\n      tag_35\n      swap2\n      swap1\n      tag_36\n      jump\t// in\n    tag_35:\n      tag_37\n      jump\t// in\n    tag_34:\n      stop\n        /* \"contracts/Marketplace.sol\":274:308  mapping(uint => Item) public items */\n    tag_7:\n      callvalue\n      dup1\n      iszero\n      tag_38\n      jumpi\n      0x00\n      dup1\n      revert\n    tag_38:\n      pop\n      tag_39\n      0x04\n      dup1\n      calldatasize\n      sub\n      dup2\n      add\n      swap1\n      tag_40\n      swap2\n      swap1\n      tag_41\n      jump\t// in\n    tag_40:\n      tag_42\n      jump\t// in\n    tag_39:\n      mload(0x40)\n      tag_43\n      swap7\n      swap6\n      swap5\n      swap4\n      swap3\n      swap2\n      swap1\n      tag_44\n      jump\t// in\n    tag_43:\n      mload(0x40)\n      dup1\n      swap2\n      sub\n      swap1\n      return\n        /* \"contracts/Marketplace.sol\":671:1187  function purchaseItem(uint _id) public payable {... */\n    tag_8:\n      tag_45\n      0x04\n      dup1\n      calldatasize\n      sub\n      dup2\n      add\n      swap1\n      tag_46\n      swap2\n      swap1\n      tag_41\n      jump\t// in\n    tag_46:\n      tag_47\n      jump\t// in\n    tag_45:\n      stop\n        /* \"contracts/Marketplace.sol\":2069:2188  function getItemsByOwner(address _owner) public view returns (uint[] memory) {... */\n    tag_14:\n        /* \"contracts/Marketplace.sol\":2131:2144  uint[] memory */\n      0x60\n        /* \"contracts/Marketplace.sol\":2163:2173  ownedItems */\n      0x02\n        /* \"contracts/Marketplace.sol\":2163:2181  ownedItems[_owner] */\n      0x00\n        /* \"contracts/Marketplace.sol\":2174:2180  _owner */\n      dup4\n        /* \"contracts/Marketplace.sol\":2163:2181  ownedItems[_owner] */\n      0xffffffffffffffffffffffffffffffffffffffff\n      and\n      0xffffffffffffffffffffffffffffffffffffffff\n      and\n      dup2\n      mstore\n      0x20\n      add\n      swap1\n      dup2\n      mstore\n      0x20\n      add\n      0x00\n      keccak256\n        /* \"contracts/Marketplace.sol\":2156:2181  return ownedItems[_owner] */\n      dup1\n      sload\n      dup1\n      0x20\n      mul\n      0x20\n      add\n      mload(0x40)\n      swap1\n      dup2\n      add\n      0x40\n      mstore\n      dup1\n      swap3\n      swap2\n      swap1\n      dup2\n      dup2\n      mstore\n      0x20\n      add\n      dup3\n      dup1\n      sload\n      dup1\n      iszero\n      tag_49\n      jumpi\n      0x20\n      mul\n      dup3\n      add\n      swap2\n      swap1\n      0x00\n      mstore\n      keccak256(0x00, 0x20)\n      swap1\n    tag_50:\n      dup2\n      sload\n      dup2\n      mstore\n      0x20\n      add\n      swap1\n      0x01\n      add\n      swap1\n      dup1\n      dup4\n      gt\n      tag_50\n      jumpi\n    tag_49:\n      pop\n      pop\n      pop\n      pop\n      pop\n      swap1\n      pop\n        /* \"contracts/Marketplace.sol\":2069:2188  function getItemsByOwner(address _owner) public view returns (uint[] memory) {... */\n      swap2\n      swap1\n      pop\n      jump\t// out\n        /* \"contracts/Marketplace.sol\":314:358  mapping(address => uint[]) public ownedItems */\n    tag_21:\n      mstore(0x20, 0x02)\n      dup2\n      0x00\n      mstore\n      keccak256(0x00, 0x40)\n      dup2\n      dup2\n      sload\n      dup2\n      lt\n      tag_51\n      jumpi\n      0x00\n      dup1\n      revert\n    tag_51:\n      swap1\n      0x00\n      mstore\n      keccak256(0x00, 0x20)\n      add\n      0x00\n      swap2\n      pop\n      swap2\n      pop\n      pop\n      sload\n      dup2\n      jump\t// out\n        /* \"contracts/Marketplace.sol\":243:268  uint public itemCount = 0 */\n    tag_26:\n      sload(0x00)\n      dup2\n      jump\t// out\n        /* \"contracts/Marketplace.sol\":365:665  function listItem(string memory _name, uint _price) public {... */\n    tag_32:\n        /* \"contracts/Marketplace.sol\":451:452  0 */\n      0x00\n        /* \"contracts/Marketplace.sol\":442:448  _price */\n      dup2\n        /* \"contracts/Marketplace.sol\":442:452  _price > 0 */\n      gt\n        /* \"contracts/Marketplace.sol\":434:488  require(_price > 0, \"Price must be greater than zero\") */\n      tag_54\n      jumpi\n      mload(0x40)\n      0x08c379a000000000000000000000000000000000000000000000000000000000\n      dup2\n      mstore\n      0x04\n      add\n      tag_55\n      swap1\n      tag_56\n      jump\t// in\n    tag_55:\n      mload(0x40)\n      dup1\n      swap2\n      sub\n      swap1\n      revert\n    tag_54:\n        /* \"contracts/Marketplace.sol\":499:508  itemCount */\n      0x00\n      dup1\n        /* \"contracts/Marketplace.sol\":499:510  itemCount++ */\n      dup2\n      sload\n      dup1\n      swap3\n      swap2\n      swap1\n      tag_57\n      swap1\n      tag_58\n      jump\t// in\n    tag_57:\n      swap2\n      swap1\n      pop\n      sstore\n      pop\n        /* \"contracts/Marketplace.sol\":539:609  Item(itemCount, _name, _price, payable(msg.sender), msg.sender, false) */\n      mload(0x40)\n      dup1\n      0xc0\n      add\n      0x40\n      mstore\n      dup1\n        /* \"contracts/Marketplace.sol\":544:553  itemCount */\n      sload(0x00)\n        /* \"contracts/Marketplace.sol\":539:609  Item(itemCount, _name, _price, payable(msg.sender), msg.sender, false) */\n      dup2\n      mstore\n      0x20\n      add\n        /* \"contracts/Marketplace.sol\":555:560  _name */\n      dup4\n        /* \"contracts/Marketplace.sol\":539:609  Item(itemCount, _name, _price, payable(msg.sender), msg.sender, false) */\n      dup2\n      mstore\n      0x20\n      add\n        /* \"contracts/Marketplace.sol\":562:568  _price */\n      dup3\n        /* \"contracts/Marketplace.sol\":539:609  Item(itemCount, _name, _price, payable(msg.sender), msg.sender, false) */\n      dup2\n      mstore\n      0x20\n      add\n        /* \"contracts/Marketplace.sol\":578:588  msg.sender */\n      caller\n        /* \"contracts/Marketplace.sol\":539:609  Item(itemCount, _name, _price, payable(msg.sender), msg.sender, false) */\n      0xffffffffffffffffffffffffffffffffffffffff\n      and\n      dup2\n      mstore\n      0x20\n      add\n        /* \"contracts/Marketplace.sol\":591:601  msg.sender */\n      caller\n        /* \"contracts/Marketplace.sol\":539:609  Item(itemCount, _name, _price, payable(msg.sender), msg.sender, false) */\n      0xffffffffffffffffffffffffffffffffffffffff\n      and\n      dup2\n      mstore\n      0x20\n      add\n        /* \"contracts/Marketplace.sol\":603:608  false */\n      0x00\n        /* \"contracts/Marketplace.sol\":539:609  Item(itemCount, _name, _price, payable(msg.sender), msg.sender, false) */\n      iszero\n      iszero\n      dup2\n      mstore\n      pop\n        /* \"contracts/Marketplace.sol\":520:525  items */\n      0x01\n        /* \"contracts/Marketplace.sol\":520:536  items[itemCount] */\n      0x00\n        /* \"contracts/Marketplace.sol\":526:535  itemCount */\n      dup1\n      sload\n        /* \"contracts/Marketplace.sol\":520:536  items[itemCount] */\n      dup2\n      mstore\n      0x20\n      add\n      swap1\n      dup2\n      mstore\n      0x20\n      add\n      0x00\n      keccak256\n        /* \"contracts/Marketplace.sol\":520:609  items[itemCount] = Item(itemCount, _name, _price, payable(msg.sender), msg.sender, false) */\n      0x00\n      dup3\n      add\n      mload\n      dup2\n      0x00\n      add\n      sstore\n      0x20\n      dup3\n      add\n      mload\n      dup2\n      0x01\n      add\n      swap1\n      dup2\n      tag_59\n      swap2\n      swap1\n      tag_60\n      jump\t// in\n    tag_59:\n      pop\n      0x40\n      dup3\n      add\n      mload\n      dup2\n      0x02\n      add\n      sstore\n      0x60\n      dup3\n      add\n      mload\n      dup2\n      0x03\n      add\n      exp(0x0100, 0x00)\n      dup2\n      sload\n      dup2\n      0xffffffffffffffffffffffffffffffffffffffff\n      mul\n      not\n      and\n      swap1\n      dup4\n      0xffffffffffffffffffffffffffffffffffffffff\n      and\n      mul\n      or\n      swap1\n      sstore\n      pop\n      0x80\n      dup3\n      add\n      mload\n      dup2\n      0x04\n      add\n      exp(0x0100, 0x00)\n      dup2\n      sload\n      dup2\n      0xffffffffffffffffffffffffffffffffffffffff\n      mul\n      not\n      and\n      swap1\n      dup4\n      0xffffffffffffffffffffffffffffffffffffffff\n      and\n      mul\n      or\n      swap1\n      sstore\n      pop\n      0xa0\n      dup3\n      add\n      mload\n      dup2\n      0x04\n      add\n      exp(0x0100, 0x14)\n      dup2\n      sload\n      dup2\n      0xff\n      mul\n      not\n      and\n      swap1\n      dup4\n      iszero\n      iszero\n      mul\n      or\n      swap1\n      sstore\n      pop\n      swap1\n      pop\n      pop\n        /* \"contracts/Marketplace.sol\":619:629  ownedItems */\n      0x02\n        /* \"contracts/Marketplace.sol\":619:641  ownedItems[msg.sender] */\n      0x00\n        /* \"contracts/Marketplace.sol\":630:640  msg.sender */\n      caller\n        /* \"contracts/Marketplace.sol\":619:641  ownedItems[msg.sender] */\n      0xffffffffffffffffffffffffffffffffffffffff\n      and\n      0xffffffffffffffffffffffffffffffffffffffff\n      and\n      dup2\n      mstore\n      0x20\n      add\n      swap1\n      dup2\n      mstore\n      0x20\n      add\n      0x00\n      keccak256\n        /* \"contracts/Marketplace.sol\":647:656  itemCount */\n      sload(0x00)\n        /* \"contracts/Marketplace.sol\":619:657  ownedItems[msg.sender].push(itemCount) */\n      swap1\n      dup1\n      0x01\n      dup2\n      sload\n      add\n      dup1\n      dup3\n      sstore\n      dup1\n      swap2\n      pop\n      pop\n      0x01\n      swap1\n      sub\n      swap1\n      0x00\n      mstore\n      keccak256(0x00, 0x20)\n      add\n      0x00\n      swap1\n      swap2\n      swap1\n      swap2\n      swap1\n      swap2\n      pop\n      sstore\n        /* \"contracts/Marketplace.sol\":365:665  function listItem(string memory _name, uint _price) public {... */\n      pop\n      pop\n      jump\t// out\n        /* \"contracts/Marketplace.sol\":1773:2063  function transferItem(uint _id, address _to) public {... */\n    tag_37:\n        /* \"contracts/Marketplace.sol\":1835:1852  Item storage item */\n      0x00\n        /* \"contracts/Marketplace.sol\":1855:1860  items */\n      0x01\n        /* \"contracts/Marketplace.sol\":1855:1865  items[_id] */\n      0x00\n        /* \"contracts/Marketplace.sol\":1861:1864  _id */\n      dup5\n        /* \"contracts/Marketplace.sol\":1855:1865  items[_id] */\n      dup2\n      mstore\n      0x20\n      add\n      swap1\n      dup2\n      mstore\n      0x20\n      add\n      0x00\n      keccak256\n        /* \"contracts/Marketplace.sol\":1835:1865  Item storage item = items[_id] */\n      swap1\n      pop\n        /* \"contracts/Marketplace.sol\":1889:1890  0 */\n      0x00\n        /* \"contracts/Marketplace.sol\":1883:1886  _id */\n      dup4\n        /* \"contracts/Marketplace.sol\":1883:1890  _id > 0 */\n      gt\n        /* \"contracts/Marketplace.sol\":1883:1910  _id > 0 && _id <= itemCount */\n      dup1\n      iszero\n      tag_63\n      jumpi\n      pop\n        /* \"contracts/Marketplace.sol\":1901:1910  itemCount */\n      sload(0x00)\n        /* \"contracts/Marketplace.sol\":1894:1897  _id */\n      dup4\n        /* \"contracts/Marketplace.sol\":1894:1910  _id <= itemCount */\n      gt\n      iszero\n        /* \"contracts/Marketplace.sol\":1883:1910  _id > 0 && _id <= itemCount */\n    tag_63:\n        /* \"contracts/Marketplace.sol\":1875:1934  require(_id > 0 && _id <= itemCount, \"Item does not exist\") */\n      tag_64\n      jumpi\n      mload(0x40)\n      0x08c379a000000000000000000000000000000000000000000000000000000000\n      dup2\n      mstore\n      0x04\n      add\n      tag_65\n      swap1\n      tag_66\n      jump\t// in\n    tag_65:\n      mload(0x40)\n      dup1\n      swap2\n      sub\n      swap1\n      revert\n    tag_64:\n        /* \"contracts/Marketplace.sol\":1966:1970  item */\n      dup1\n        /* \"contracts/Marketplace.sol\":1966:1976  item.owner */\n      0x04\n      add\n      0x00\n      swap1\n      sload\n      swap1\n      0x0100\n      exp\n      swap1\n      div\n      0xffffffffffffffffffffffffffffffffffffffff\n      and\n        /* \"contracts/Marketplace.sol\":1952:1976  msg.sender == item.owner */\n      0xffffffffffffffffffffffffffffffffffffffff\n      and\n        /* \"contracts/Marketplace.sol\":1952:1962  msg.sender */\n      caller\n        /* \"contracts/Marketplace.sol\":1952:1976  msg.sender == item.owner */\n      0xffffffffffffffffffffffffffffffffffffffff\n      and\n      eq\n        /* \"contracts/Marketplace.sol\":1944:2005  require(msg.sender == item.owner, \"You do not own this item\") */\n      tag_67\n      jumpi\n      mload(0x40)\n      0x08c379a000000000000000000000000000000000000000000000000000000000\n      dup2\n      mstore\n      0x04\n      add\n      tag_68\n      swap1\n      tag_69\n      jump\t// in\n    tag_68:\n      mload(0x40)\n      dup1\n      swap2\n      sub\n      swap1\n      revert\n    tag_67:\n        /* \"contracts/Marketplace.sol\":2016:2056  _transferOwnership(_id, msg.sender, _to) */\n      tag_70\n        /* \"contracts/Marketplace.sol\":2035:2038  _id */\n      dup4\n        /* \"contracts/Marketplace.sol\":2040:2050  msg.sender */\n      caller\n        /* \"contracts/Marketplace.sol\":2052:2055  _to */\n      dup5\n        /* \"contracts/Marketplace.sol\":2016:2034  _transferOwnership */\n      tag_71\n        /* \"contracts/Marketplace.sol\":2016:2056  _transferOwnership(_id, msg.sender, _to) */\n      jump\t// in\n    tag_70:\n        /* \"contracts/Marketplace.sol\":1825:2063  {... */\n      pop\n        /* \"contracts/Marketplace.sol\":1773:2063  function transferItem(uint _id, address _to) public {... */\n      pop\n      pop\n      jump\t// out\n        /* \"contracts/Marketplace.sol\":274:308  mapping(uint => Item) public items */\n    tag_42:\n      mstore(0x20, 0x01)\n      dup1\n      0x00\n      mstore\n      keccak256(0x00, 0x40)\n      0x00\n      swap2\n      pop\n      swap1\n      pop\n      dup1\n      0x00\n      add\n      sload\n      swap1\n      dup1\n      0x01\n      add\n      dup1\n      sload\n      tag_72\n      swap1\n      tag_73\n      jump\t// in\n    tag_72:\n      dup1\n      0x1f\n      add\n      0x20\n      dup1\n      swap2\n      div\n      mul\n      0x20\n      add\n      mload(0x40)\n      swap1\n      dup2\n      add\n      0x40\n      mstore\n      dup1\n      swap3\n      swap2\n      swap1\n      dup2\n      dup2\n      mstore\n      0x20\n      add\n      dup3\n      dup1\n      sload\n      tag_74\n      swap1\n      tag_73\n      jump\t// in\n    tag_74:\n      dup1\n      iszero\n      tag_75\n      jumpi\n      dup1\n      0x1f\n      lt\n      tag_76\n      jumpi\n      0x0100\n      dup1\n      dup4\n      sload\n      div\n      mul\n      dup4\n      mstore\n      swap2\n      0x20\n      add\n      swap2\n      jump(tag_75)\n    tag_76:\n      dup3\n      add\n      swap2\n      swap1\n      0x00\n      mstore\n      keccak256(0x00, 0x20)\n      swap1\n    tag_77:\n      dup2\n      sload\n      dup2\n      mstore\n      swap1\n      0x01\n      add\n      swap1\n      0x20\n      add\n      dup1\n      dup4\n      gt\n      tag_77\n      jumpi\n      dup3\n      swap1\n      sub\n      0x1f\n      and\n      dup3\n      add\n      swap2\n    tag_75:\n      pop\n      pop\n      pop\n      pop\n      pop\n      swap1\n      dup1\n      0x02\n      add\n      sload\n      swap1\n      dup1\n      0x03\n      add\n      0x00\n      swap1\n      sload\n      swap1\n      0x0100\n      exp\n      swap1\n      div\n      0xffffffffffffffffffffffffffffffffffffffff\n      and\n      swap1\n      dup1\n      0x04\n      add\n      0x00\n      swap1\n      sload\n      swap1\n      0x0100\n      exp\n      swap1\n      div\n      0xffffffffffffffffffffffffffffffffffffffff\n      and\n      swap1\n      dup1\n      0x04\n      add\n      0x14\n      swap1\n      sload\n      swap1\n      0x0100\n      exp\n      swap1\n      div\n      0xff\n      and\n      swap1\n      pop\n      dup7\n      jump\t// out\n        /* \"contracts/Marketplace.sol\":671:1187  function purchaseItem(uint _id) public payable {... */\n    tag_47:\n        /* \"contracts/Marketplace.sol\":728:745  Item storage item */\n      0x00\n        /* \"contracts/Marketplace.sol\":748:753  items */\n      0x01\n        /* \"contracts/Marketplace.sol\":748:758  items[_id] */\n      0x00\n        /* \"contracts/Marketplace.sol\":754:757  _id */\n      dup4\n        /* \"contracts/Marketplace.sol\":748:758  items[_id] */\n      dup2\n      mstore\n      0x20\n      add\n      swap1\n      dup2\n      mstore\n      0x20\n      add\n      0x00\n      keccak256\n        /* \"contracts/Marketplace.sol\":728:758  Item storage item = items[_id] */\n      swap1\n      pop\n        /* \"contracts/Marketplace.sol\":782:783  0 */\n      0x00\n        /* \"contracts/Marketplace.sol\":776:779  _id */\n      dup3\n        /* \"contracts/Marketplace.sol\":776:783  _id > 0 */\n      gt\n        /* \"contracts/Marketplace.sol\":776:803  _id > 0 && _id <= itemCount */\n      dup1\n      iszero\n      tag_79\n      jumpi\n      pop\n        /* \"contracts/Marketplace.sol\":794:803  itemCount */\n      sload(0x00)\n        /* \"contracts/Marketplace.sol\":787:790  _id */\n      dup3\n        /* \"contracts/Marketplace.sol\":787:803  _id <= itemCount */\n      gt\n      iszero\n        /* \"contracts/Marketplace.sol\":776:803  _id > 0 && _id <= itemCount */\n    tag_79:\n        /* \"contracts/Marketplace.sol\":768:827  require(_id > 0 && _id <= itemCount, \"Item does not exist\") */\n      tag_80\n      jumpi\n      mload(0x40)\n      0x08c379a000000000000000000000000000000000000000000000000000000000\n      dup2\n      mstore\n      0x04\n      add\n      tag_81\n      swap1\n      tag_66\n      jump\t// in\n    tag_81:\n      mload(0x40)\n      dup1\n      swap2\n      sub\n      swap1\n      revert\n    tag_80:\n        /* \"contracts/Marketplace.sol\":858:862  item */\n      dup1\n        /* \"contracts/Marketplace.sol\":858:868  item.price */\n      0x02\n      add\n      sload\n        /* \"contracts/Marketplace.sol\":845:854  msg.value */\n      callvalue\n        /* \"contracts/Marketplace.sol\":845:868  msg.value == item.price */\n      eq\n        /* \"contracts/Marketplace.sol\":837:888  require(msg.value == item.price, \"Incorrect price\") */\n      tag_82\n      jumpi\n      mload(0x40)\n      0x08c379a000000000000000000000000000000000000000000000000000000000\n      dup2\n      mstore\n      0x04\n      add\n      tag_83\n      swap1\n      tag_84\n      jump\t// in\n    tag_83:\n      mload(0x40)\n      dup1\n      swap2\n      sub\n      swap1\n      revert\n    tag_82:\n        /* \"contracts/Marketplace.sol\":907:911  item */\n      dup1\n        /* \"contracts/Marketplace.sol\":907:918  item.isSold */\n      0x04\n      add\n      0x14\n      swap1\n      sload\n      swap1\n      0x0100\n      exp\n      swap1\n      div\n      0xff\n      and\n        /* \"contracts/Marketplace.sol\":906:918  !item.isSold */\n      iszero\n        /* \"contracts/Marketplace.sol\":898:940  require(!item.isSold, \"Item already sold\") */\n      tag_85\n      jumpi\n      mload(0x40)\n      0x08c379a000000000000000000000000000000000000000000000000000000000\n      dup2\n      mstore\n      0x04\n      add\n      tag_86\n      swap1\n      tag_87\n      jump\t// in\n    tag_86:\n      mload(0x40)\n      dup1\n      swap2\n      sub\n      swap1\n      revert\n    tag_85:\n        /* \"contracts/Marketplace.sol\":972:976  item */\n      dup1\n        /* \"contracts/Marketplace.sol\":972:983  item.seller */\n      0x03\n      add\n      0x00\n      swap1\n      sload\n      swap1\n      0x0100\n      exp\n      swap1\n      div\n      0xffffffffffffffffffffffffffffffffffffffff\n      and\n        /* \"contracts/Marketplace.sol\":958:983  msg.sender != item.seller */\n      0xffffffffffffffffffffffffffffffffffffffff\n      and\n        /* \"contracts/Marketplace.sol\":958:968  msg.sender */\n      caller\n        /* \"contracts/Marketplace.sol\":958:983  msg.sender != item.seller */\n      0xffffffffffffffffffffffffffffffffffffffff\n      and\n      sub\n        /* \"contracts/Marketplace.sol\":950:1020  require(msg.sender != item.seller, \"Seller cannot buy their own item\") */\n      tag_88\n      jumpi\n      mload(0x40)\n      0x08c379a000000000000000000000000000000000000000000000000000000000\n      dup2\n      mstore\n      0x04\n      add\n      tag_89\n      swap1\n      tag_90\n      jump\t// in\n    tag_89:\n      mload(0x40)\n      dup1\n      swap2\n      sub\n      swap1\n      revert\n    tag_88:\n        /* \"contracts/Marketplace.sol\":1045:1049  true */\n      0x01\n        /* \"contracts/Marketplace.sol\":1031:1035  item */\n      dup2\n        /* \"contracts/Marketplace.sol\":1031:1042  item.isSold */\n      0x04\n      add\n      0x14\n        /* \"contracts/Marketplace.sol\":1031:1049  item.isSold = true */\n      0x0100\n      exp\n      dup2\n      sload\n      dup2\n      0xff\n      mul\n      not\n      and\n      swap1\n      dup4\n      iszero\n      iszero\n      mul\n      or\n      swap1\n      sstore\n      pop\n        /* \"contracts/Marketplace.sol\":1059:1063  item */\n      dup1\n        /* \"contracts/Marketplace.sol\":1059:1070  item.seller */\n      0x03\n      add\n      0x00\n      swap1\n      sload\n      swap1\n      0x0100\n      exp\n      swap1\n      div\n      0xffffffffffffffffffffffffffffffffffffffff\n      and\n        /* \"contracts/Marketplace.sol\":1059:1079  item.seller.transfer */\n      0xffffffffffffffffffffffffffffffffffffffff\n      and\n        /* \"contracts/Marketplace.sol\":1059:1090  item.seller.transfer(msg.value) */\n      0x08fc\n        /* \"contracts/Marketplace.sol\":1080:1089  msg.value */\n      callvalue\n        /* \"contracts/Marketplace.sol\":1059:1090  item.seller.transfer(msg.value) */\n      swap1\n      dup2\n      iszero\n      mul\n      swap1\n      mload(0x40)\n      0x00\n      mload(0x40)\n      dup1\n      dup4\n      sub\n      dup2\n      dup6\n      dup9\n      dup9\n      call\n      swap4\n      pop\n      pop\n      pop\n      pop\n      iszero\n      dup1\n      iszero\n      tag_92\n      jumpi\n      returndatasize\n      0x00\n      dup1\n      returndatacopy\n      revert(0x00, returndatasize)\n    tag_92:\n      pop\n        /* \"contracts/Marketplace.sol\":1131:1179  _transferOwnership(_id, item.seller, msg.sender) */\n      tag_93\n        /* \"contracts/Marketplace.sol\":1150:1153  _id */\n      dup3\n        /* \"contracts/Marketplace.sol\":1155:1159  item */\n      dup3\n        /* \"contracts/Marketplace.sol\":1155:1166  item.seller */\n      0x03\n      add\n      0x00\n      swap1\n      sload\n      swap1\n      0x0100\n      exp\n      swap1\n      div\n      0xffffffffffffffffffffffffffffffffffffffff\n      and\n        /* \"contracts/Marketplace.sol\":1168:1178  msg.sender */\n      caller\n        /* \"contracts/Marketplace.sol\":1131:1149  _transferOwnership */\n      tag_71\n        /* \"contracts/Marketplace.sol\":1131:1179  _transferOwnership(_id, item.seller, msg.sender) */\n      jump\t// in\n    tag_93:\n        /* \"contracts/Marketplace.sol\":718:1187  {... */\n      pop\n        /* \"contracts/Marketplace.sol\":671:1187  function purchaseItem(uint _id) public payable {... */\n      pop\n      jump\t// out\n        /* \"contracts/Marketplace.sol\":1193:1767  function _transferOwnership(uint _id, address _from, address _to) internal {... */\n    tag_71:\n        /* \"contracts/Marketplace.sol\":1278:1295  Item storage item */\n      0x00\n        /* \"contracts/Marketplace.sol\":1298:1303  items */\n      0x01\n        /* \"contracts/Marketplace.sol\":1298:1308  items[_id] */\n      0x00\n        /* \"contracts/Marketplace.sol\":1304:1307  _id */\n      dup6\n        /* \"contracts/Marketplace.sol\":1298:1308  items[_id] */\n      dup2\n      mstore\n      0x20\n      add\n      swap1\n      dup2\n      mstore\n      0x20\n      add\n      0x00\n      keccak256\n        /* \"contracts/Marketplace.sol\":1278:1308  Item storage item = items[_id] */\n      swap1\n      pop\n        /* \"contracts/Marketplace.sol\":1331:1334  _to */\n      dup2\n        /* \"contracts/Marketplace.sol\":1318:1322  item */\n      dup2\n        /* \"contracts/Marketplace.sol\":1318:1328  item.owner */\n      0x04\n      add\n      0x00\n        /* \"contracts/Marketplace.sol\":1318:1334  item.owner = _to */\n      0x0100\n      exp\n      dup2\n      sload\n      dup2\n      0xffffffffffffffffffffffffffffffffffffffff\n      mul\n      not\n      and\n      swap1\n      dup4\n      0xffffffffffffffffffffffffffffffffffffffff\n      and\n      mul\n      or\n      swap1\n      sstore\n      pop\n        /* \"contracts/Marketplace.sol\":1399:1423  uint[] storage fromItems */\n      0x00\n        /* \"contracts/Marketplace.sol\":1426:1436  ownedItems */\n      0x02\n        /* \"contracts/Marketplace.sol\":1426:1443  ownedItems[_from] */\n      0x00\n        /* \"contracts/Marketplace.sol\":1437:1442  _from */\n      dup6\n        /* \"contracts/Marketplace.sol\":1426:1443  ownedItems[_from] */\n      0xffffffffffffffffffffffffffffffffffffffff\n      and\n      0xffffffffffffffffffffffffffffffffffffffff\n      and\n      dup2\n      mstore\n      0x20\n      add\n      swap1\n      dup2\n      mstore\n      0x20\n      add\n      0x00\n      keccak256\n        /* \"contracts/Marketplace.sol\":1399:1443  uint[] storage fromItems = ownedItems[_from] */\n      swap1\n      pop\n        /* \"contracts/Marketplace.sol\":1458:1464  uint i */\n      0x00\n        /* \"contracts/Marketplace.sol\":1453:1681  for (uint i = 0; i < fromItems.length; i++) {... */\n    tag_95:\n        /* \"contracts/Marketplace.sol\":1474:1483  fromItems */\n      dup2\n        /* \"contracts/Marketplace.sol\":1474:1490  fromItems.length */\n      dup1\n      sload\n      swap1\n      pop\n        /* \"contracts/Marketplace.sol\":1470:1471  i */\n      dup2\n        /* \"contracts/Marketplace.sol\":1470:1490  i < fromItems.length */\n      lt\n        /* \"contracts/Marketplace.sol\":1453:1681  for (uint i = 0; i < fromItems.length; i++) {... */\n      iszero\n      tag_96\n      jumpi\n        /* \"contracts/Marketplace.sol\":1531:1534  _id */\n      dup6\n        /* \"contracts/Marketplace.sol\":1515:1524  fromItems */\n      dup3\n        /* \"contracts/Marketplace.sol\":1525:1526  i */\n      dup3\n        /* \"contracts/Marketplace.sol\":1515:1527  fromItems[i] */\n      dup2\n      sload\n      dup2\n      lt\n      tag_98\n      jumpi\n      tag_99\n      tag_100\n      jump\t// in\n    tag_99:\n    tag_98:\n      swap1\n      0x00\n      mstore\n      keccak256(0x00, 0x20)\n      add\n      sload\n        /* \"contracts/Marketplace.sol\":1515:1534  fromItems[i] == _id */\n      sub\n        /* \"contracts/Marketplace.sol\":1511:1671  if (fromItems[i] == _id) {... */\n      tag_102\n      jumpi\n        /* \"contracts/Marketplace.sol\":1569:1578  fromItems */\n      dup2\n        /* \"contracts/Marketplace.sol\":1598:1599  1 */\n      0x01\n        /* \"contracts/Marketplace.sol\":1579:1588  fromItems */\n      dup4\n        /* \"contracts/Marketplace.sol\":1579:1595  fromItems.length */\n      dup1\n      sload\n      swap1\n      pop\n        /* \"contracts/Marketplace.sol\":1579:1599  fromItems.length - 1 */\n      tag_103\n      swap2\n      swap1\n      tag_104\n      jump\t// in\n    tag_103:\n        /* \"contracts/Marketplace.sol\":1569:1600  fromItems[fromItems.length - 1] */\n      dup2\n      sload\n      dup2\n      lt\n      tag_105\n      jumpi\n      tag_106\n      tag_100\n      jump\t// in\n    tag_106:\n    tag_105:\n      swap1\n      0x00\n      mstore\n      keccak256(0x00, 0x20)\n      add\n      sload\n        /* \"contracts/Marketplace.sol\":1554:1563  fromItems */\n      dup3\n        /* \"contracts/Marketplace.sol\":1564:1565  i */\n      dup3\n        /* \"contracts/Marketplace.sol\":1554:1566  fromItems[i] */\n      dup2\n      sload\n      dup2\n      lt\n      tag_108\n      jumpi\n      tag_109\n      tag_100\n      jump\t// in\n    tag_109:\n    tag_108:\n      swap1\n      0x00\n      mstore\n      keccak256(0x00, 0x20)\n      add\n        /* \"contracts/Marketplace.sol\":1554:1600  fromItems[i] = fromItems[fromItems.length - 1] */\n      dup2\n      swap1\n      sstore\n      pop\n        /* \"contracts/Marketplace.sol\":1618:1627  fromItems */\n      dup2\n        /* \"contracts/Marketplace.sol\":1618:1633  fromItems.pop() */\n      dup1\n      sload\n      dup1\n      tag_111\n      jumpi\n      tag_112\n      tag_113\n      jump\t// in\n    tag_112:\n    tag_111:\n      0x01\n      swap1\n      sub\n      dup2\n      dup2\n      swap1\n      0x00\n      mstore\n      keccak256(0x00, 0x20)\n      add\n      0x00\n      swap1\n      sstore\n      swap1\n      sstore\n        /* \"contracts/Marketplace.sol\":1651:1656  break */\n      jump(tag_96)\n        /* \"contracts/Marketplace.sol\":1511:1671  if (fromItems[i] == _id) {... */\n    tag_102:\n        /* \"contracts/Marketplace.sol\":1492:1495  i++ */\n      dup1\n      dup1\n      0x01\n      add\n      swap2\n      pop\n      pop\n        /* \"contracts/Marketplace.sol\":1453:1681  for (uint i = 0; i < fromItems.length; i++) {... */\n      jump(tag_95)\n    tag_96:\n      pop\n        /* \"contracts/Marketplace.sol\":1735:1745  ownedItems */\n      0x02\n        /* \"contracts/Marketplace.sol\":1735:1750  ownedItems[_to] */\n      0x00\n        /* \"contracts/Marketplace.sol\":1746:1749  _to */\n      dup5\n        /* \"contracts/Marketplace.sol\":1735:1750  ownedItems[_to] */\n      0xffffffffffffffffffffffffffffffffffffffff\n      and\n      0xffffffffffffffffffffffffffffffffffffffff\n      and\n      dup2\n      mstore\n      0x20\n      add\n      swap1\n      dup2\n      mstore\n      0x20\n      add\n      0x00\n      keccak256\n        /* \"contracts/Marketplace.sol\":1756:1759  _id */\n      dup6\n        /* \"contracts/Marketplace.sol\":1735:1760  ownedItems[_to].push(_id) */\n      swap1\n      dup1\n      0x01\n      dup2\n      sload\n      add\n      dup1\n      dup3\n      sstore\n      dup1\n      swap2\n      pop\n      pop\n      0x01\n      swap1\n      sub\n      swap1\n      0x00\n      mstore\n      keccak256(0x00, 0x20)\n      add\n      0x00\n      swap1\n      swap2\n      swap1\n      swap2\n      swap1\n      swap2\n      pop\n      sstore\n        /* \"contracts/Marketplace.sol\":1268:1767  {... */\n      pop\n      pop\n        /* \"contracts/Marketplace.sol\":1193:1767  function _transferOwnership(uint _id, address _from, address _to) internal {... */\n      pop\n      pop\n      pop\n      jump\t// out\n        /* \"#utility.yul\":7:82   */\n    tag_116:\n        /* \"#utility.yul\":40:46   */\n      0x00\n        /* \"#utility.yul\":73:75   */\n      0x40\n        /* \"#utility.yul\":67:76   */\n      mload\n        /* \"#utility.yul\":57:76   */\n      swap1\n      pop\n        /* \"#utility.yul\":7:82   */\n      swap1\n      jump\t// out\n        /* \"#utility.yul\":88:205   */\n    tag_117:\n        /* \"#utility.yul\":197:198   */\n      0x00\n        /* \"#utility.yul\":194:195   */\n      dup1\n        /* \"#utility.yul\":187:199   */\n      revert\n        /* \"#utility.yul\":211:328   */\n    tag_118:\n        /* \"#utility.yul\":320:321   */\n      0x00\n        /* \"#utility.yul\":317:318   */\n      dup1\n        /* \"#utility.yul\":310:322   */\n      revert\n        /* \"#utility.yul\":334:460   */\n    tag_119:\n        /* \"#utility.yul\":371:378   */\n      0x00\n        /* \"#utility.yul\":411:453   */\n      0xffffffffffffffffffffffffffffffffffffffff\n        /* \"#utility.yul\":404:409   */\n      dup3\n        /* \"#utility.yul\":400:454   */\n      and\n        /* \"#utility.yul\":389:454   */\n      swap1\n      pop\n        /* \"#utility.yul\":334:460   */\n      swap2\n      swap1\n      pop\n      jump\t// out\n        /* \"#utility.yul\":466:562   */\n    tag_120:\n        /* \"#utility.yul\":503:510   */\n      0x00\n        /* \"#utility.yul\":532:556   */\n      tag_188\n        /* \"#utility.yul\":550:555   */\n      dup3\n        /* \"#utility.yul\":532:556   */\n      tag_119\n      jump\t// in\n    tag_188:\n        /* \"#utility.yul\":521:556   */\n      swap1\n      pop\n        /* \"#utility.yul\":466:562   */\n      swap2\n      swap1\n      pop\n      jump\t// out\n        /* \"#utility.yul\":568:690   */\n    tag_121:\n        /* \"#utility.yul\":641:665   */\n      tag_190\n        /* \"#utility.yul\":659:664   */\n      dup2\n        /* \"#utility.yul\":641:665   */\n      tag_120\n      jump\t// in\n    tag_190:\n        /* \"#utility.yul\":634:639   */\n      dup2\n        /* \"#utility.yul\":631:666   */\n      eq\n        /* \"#utility.yul\":621:684   */\n      tag_191\n      jumpi\n        /* \"#utility.yul\":680:681   */\n      0x00\n        /* \"#utility.yul\":677:678   */\n      dup1\n        /* \"#utility.yul\":670:682   */\n      revert\n        /* \"#utility.yul\":621:684   */\n    tag_191:\n        /* \"#utility.yul\":568:690   */\n      pop\n      jump\t// out\n        /* \"#utility.yul\":696:835   */\n    tag_122:\n        /* \"#utility.yul\":742:747   */\n      0x00\n        /* \"#utility.yul\":780:786   */\n      dup2\n        /* \"#utility.yul\":767:787   */\n      calldataload\n        /* \"#utility.yul\":758:787   */\n      swap1\n      pop\n        /* \"#utility.yul\":796:829   */\n      tag_193\n        /* \"#utility.yul\":823:828   */\n      dup2\n        /* \"#utility.yul\":796:829   */\n      tag_121\n      jump\t// in\n    tag_193:\n        /* \"#utility.yul\":696:835   */\n      swap3\n      swap2\n      pop\n      pop\n      jump\t// out\n        /* \"#utility.yul\":841:1170   */\n    tag_13:\n        /* \"#utility.yul\":900:906   */\n      0x00\n        /* \"#utility.yul\":949:951   */\n      0x20\n        /* \"#utility.yul\":937:946   */\n      dup3\n        /* \"#utility.yul\":928:935   */\n      dup5\n        /* \"#utility.yul\":924:947   */\n      sub\n        /* \"#utility.yul\":920:952   */\n      slt\n        /* \"#utility.yul\":917:1036   */\n      iszero\n      tag_195\n      jumpi\n        /* \"#utility.yul\":955:1034   */\n      tag_196\n      tag_117\n      jump\t// in\n    tag_196:\n        /* \"#utility.yul\":917:1036   */\n    tag_195:\n        /* \"#utility.yul\":1075:1076   */\n      0x00\n        /* \"#utility.yul\":1100:1153   */\n      tag_197\n        /* \"#utility.yul\":1145:1152   */\n      dup5\n        /* \"#utility.yul\":1136:1142   */\n      dup3\n        /* \"#utility.yul\":1125:1134   */\n      dup6\n        /* \"#utility.yul\":1121:1143   */\n      add\n        /* \"#utility.yul\":1100:1153   */\n      tag_122\n      jump\t// in\n    tag_197:\n        /* \"#utility.yul\":1090:1153   */\n      swap2\n      pop\n        /* \"#utility.yul\":1046:1163   */\n      pop\n        /* \"#utility.yul\":841:1170   */\n      swap3\n      swap2\n      pop\n      pop\n      jump\t// out\n        /* \"#utility.yul\":1176:1290   */\n    tag_123:\n        /* \"#utility.yul\":1243:1249   */\n      0x00\n        /* \"#utility.yul\":1277:1282   */\n      dup2\n        /* \"#utility.yul\":1271:1283   */\n      mload\n        /* \"#utility.yul\":1261:1283   */\n      swap1\n      pop\n        /* \"#utility.yul\":1176:1290   */\n      swap2\n      swap1\n      pop\n      jump\t// out\n        /* \"#utility.yul\":1296:1480   */\n    tag_124:\n        /* \"#utility.yul\":1395:1406   */\n      0x00\n        /* \"#utility.yul\":1429:1435   */\n      dup3\n        /* \"#utility.yul\":1424:1427   */\n      dup3\n        /* \"#utility.yul\":1417:1436   */\n      mstore\n        /* \"#utility.yul\":1469:1473   */\n      0x20\n        /* \"#utility.yul\":1464:1467   */\n      dup3\n        /* \"#utility.yul\":1460:1474   */\n      add\n        /* \"#utility.yul\":1445:1474   */\n      swap1\n      pop\n        /* \"#utility.yul\":1296:1480   */\n      swap3\n      swap2\n      pop\n      pop\n      jump\t// out\n        /* \"#utility.yul\":1486:1618   */\n    tag_125:\n        /* \"#utility.yul\":1553:1557   */\n      0x00\n        /* \"#utility.yul\":1576:1579   */\n      dup2\n        /* \"#utility.yul\":1568:1579   */\n      swap1\n      pop\n        /* \"#utility.yul\":1606:1610   */\n      0x20\n        /* \"#utility.yul\":1601:1604   */\n      dup3\n        /* \"#utility.yul\":1597:1611   */\n      add\n        /* \"#utility.yul\":1589:1611   */\n      swap1\n      pop\n        /* \"#utility.yul\":1486:1618   */\n      swap2\n      swap1\n      pop\n      jump\t// out\n        /* \"#utility.yul\":1624:1701   */\n    tag_126:\n        /* \"#utility.yul\":1661:1668   */\n      0x00\n        /* \"#utility.yul\":1690:1695   */\n      dup2\n        /* \"#utility.yul\":1679:1695   */\n      swap1\n      pop\n        /* \"#utility.yul\":1624:1701   */\n      swap2\n      swap1\n      pop\n      jump\t// out\n        /* \"#utility.yul\":1707:1815   */\n    tag_127:\n        /* \"#utility.yul\":1784:1808   */\n      tag_203\n        /* \"#utility.yul\":1802:1807   */\n      dup2\n        /* \"#utility.yul\":1784:1808   */\n      tag_126\n      jump\t// in\n    tag_203:\n        /* \"#utility.yul\":1779:1782   */\n      dup3\n        /* \"#utility.yul\":1772:1809   */\n      mstore\n        /* \"#utility.yul\":1707:1815   */\n      pop\n      pop\n      jump\t// out\n        /* \"#utility.yul\":1821:2000   */\n    tag_128:\n        /* \"#utility.yul\":1890:1900   */\n      0x00\n        /* \"#utility.yul\":1911:1957   */\n      tag_205\n        /* \"#utility.yul\":1953:1956   */\n      dup4\n        /* \"#utility.yul\":1945:1951   */\n      dup4\n        /* \"#utility.yul\":1911:1957   */\n      tag_127\n      jump\t// in\n    tag_205:\n        /* \"#utility.yul\":1989:1993   */\n      0x20\n        /* \"#utility.yul\":1984:1987   */\n      dup4\n        /* \"#utility.yul\":1980:1994   */\n      add\n        /* \"#utility.yul\":1966:1994   */\n      swap1\n      pop\n        /* \"#utility.yul\":1821:2000   */\n      swap3\n      swap2\n      pop\n      pop\n      jump\t// out\n        /* \"#utility.yul\":2006:2119   */\n    tag_129:\n        /* \"#utility.yul\":2076:2080   */\n      0x00\n        /* \"#utility.yul\":2108:2112   */\n      0x20\n        /* \"#utility.yul\":2103:2106   */\n      dup3\n        /* \"#utility.yul\":2099:2113   */\n      add\n        /* \"#utility.yul\":2091:2113   */\n      swap1\n      pop\n        /* \"#utility.yul\":2006:2119   */\n      swap2\n      swap1\n      pop\n      jump\t// out\n        /* \"#utility.yul\":2155:2887   */\n    tag_130:\n        /* \"#utility.yul\":2274:2277   */\n      0x00\n        /* \"#utility.yul\":2303:2357   */\n      tag_208\n        /* \"#utility.yul\":2351:2356   */\n      dup3\n        /* \"#utility.yul\":2303:2357   */\n      tag_123\n      jump\t// in\n    tag_208:\n        /* \"#utility.yul\":2373:2459   */\n      tag_209\n        /* \"#utility.yul\":2452:2458   */\n      dup2\n        /* \"#utility.yul\":2447:2450   */\n      dup6\n        /* \"#utility.yul\":2373:2459   */\n      tag_124\n      jump\t// in\n    tag_209:\n        /* \"#utility.yul\":2366:2459   */\n      swap4\n      pop\n        /* \"#utility.yul\":2483:2539   */\n      tag_210\n        /* \"#utility.yul\":2533:2538   */\n      dup4\n        /* \"#utility.yul\":2483:2539   */\n      tag_125\n      jump\t// in\n    tag_210:\n        /* \"#utility.yul\":2562:2569   */\n      dup1\n        /* \"#utility.yul\":2593:2594   */\n      0x00\n        /* \"#utility.yul\":2578:2862   */\n    tag_211:\n        /* \"#utility.yul\":2603:2609   */\n      dup4\n        /* \"#utility.yul\":2600:2601   */\n      dup2\n        /* \"#utility.yul\":2597:2610   */\n      lt\n        /* \"#utility.yul\":2578:2862   */\n      iszero\n      tag_213\n      jumpi\n        /* \"#utility.yul\":2679:2685   */\n      dup2\n        /* \"#utility.yul\":2673:2686   */\n      mload\n        /* \"#utility.yul\":2706:2769   */\n      tag_214\n        /* \"#utility.yul\":2765:2768   */\n      dup9\n        /* \"#utility.yul\":2750:2763   */\n      dup3\n        /* \"#utility.yul\":2706:2769   */\n      tag_128\n      jump\t// in\n    tag_214:\n        /* \"#utility.yul\":2699:2769   */\n      swap8\n      pop\n        /* \"#utility.yul\":2792:2852   */\n      tag_215\n        /* \"#utility.yul\":2845:2851   */\n      dup4\n        /* \"#utility.yul\":2792:2852   */\n      tag_129\n      jump\t// in\n    tag_215:\n        /* \"#utility.yul\":2782:2852   */\n      swap3\n      pop\n        /* \"#utility.yul\":2638:2862   */\n      pop\n        /* \"#utility.yul\":2625:2626   */\n      0x01\n        /* \"#utility.yul\":2622:2623   */\n      dup2\n        /* \"#utility.yul\":2618:2627   */\n      add\n        /* \"#utility.yul\":2613:2627   */\n      swap1\n      pop\n        /* \"#utility.yul\":2578:2862   */\n      jump(tag_211)\n    tag_213:\n        /* \"#utility.yul\":2582:2596   */\n      pop\n        /* \"#utility.yul\":2878:2881   */\n      dup6\n        /* \"#utility.yul\":2871:2881   */\n      swap4\n      pop\n        /* \"#utility.yul\":2279:2887   */\n      pop\n      pop\n      pop\n        /* \"#utility.yul\":2155:2887   */\n      swap3\n      swap2\n      pop\n      pop\n      jump\t// out\n        /* \"#utility.yul\":2893:3266   */\n    tag_16:\n        /* \"#utility.yul\":3036:3040   */\n      0x00\n        /* \"#utility.yul\":3074:3076   */\n      0x20\n        /* \"#utility.yul\":3063:3072   */\n      dup3\n        /* \"#utility.yul\":3059:3077   */\n      add\n        /* \"#utility.yul\":3051:3077   */\n      swap1\n      pop\n        /* \"#utility.yul\":3123:3132   */\n      dup2\n        /* \"#utility.yul\":3117:3121   */\n      dup2\n        /* \"#utility.yul\":3113:3133   */\n      sub\n        /* \"#utility.yul\":3109:3110   */\n      0x00\n        /* \"#utility.yul\":3098:3107   */\n      dup4\n        /* \"#utility.yul\":3094:3111   */\n      add\n        /* \"#utility.yul\":3087:3134   */\n      mstore\n        /* \"#utility.yul\":3151:3259   */\n      tag_217\n        /* \"#utility.yul\":3254:3258   */\n      dup2\n        /* \"#utility.yul\":3245:3251   */\n      dup5\n        /* \"#utility.yul\":3151:3259   */\n      tag_130\n      jump\t// in\n    tag_217:\n        /* \"#utility.yul\":3143:3259   */\n      swap1\n      pop\n        /* \"#utility.yul\":2893:3266   */\n      swap3\n      swap2\n      pop\n      pop\n      jump\t// out\n        /* \"#utility.yul\":3272:3394   */\n    tag_131:\n        /* \"#utility.yul\":3345:3369   */\n      tag_219\n        /* \"#utility.yul\":3363:3368   */\n      dup2\n        /* \"#utility.yul\":3345:3369   */\n      tag_126\n      jump\t// in\n    tag_219:\n        /* \"#utility.yul\":3338:3343   */\n      dup2\n        /* \"#utility.yul\":3335:3370   */\n      eq\n        /* \"#utility.yul\":3325:3388   */\n      tag_220\n      jumpi\n        /* \"#utility.yul\":3384:3385   */\n      0x00\n        /* \"#utility.yul\":3381:3382   */\n      dup1\n        /* \"#utility.yul\":3374:3386   */\n      revert\n        /* \"#utility.yul\":3325:3388   */\n    tag_220:\n        /* \"#utility.yul\":3272:3394   */\n      pop\n      jump\t// out\n        /* \"#utility.yul\":3400:3539   */\n    tag_132:\n        /* \"#utility.yul\":3446:3451   */\n      0x00\n        /* \"#utility.yul\":3484:3490   */\n      dup2\n        /* \"#utility.yul\":3471:3491   */\n      calldataload\n        /* \"#utility.yul\":3462:3491   */\n      swap1\n      pop\n        /* \"#utility.yul\":3500:3533   */\n      tag_222\n        /* \"#utility.yul\":3527:3532   */\n      dup2\n        /* \"#utility.yul\":3500:3533   */\n      tag_131\n      jump\t// in\n    tag_222:\n        /* \"#utility.yul\":3400:3539   */\n      swap3\n      swap2\n      pop\n      pop\n      jump\t// out\n        /* \"#utility.yul\":3545:4019   */\n    tag_20:\n        /* \"#utility.yul\":3613:3619   */\n      0x00\n        /* \"#utility.yul\":3621:3627   */\n      dup1\n        /* \"#utility.yul\":3670:3672   */\n      0x40\n        /* \"#utility.yul\":3658:3667   */\n      dup4\n        /* \"#utility.yul\":3649:3656   */\n      dup6\n        /* \"#utility.yul\":3645:3668   */\n      sub\n        /* \"#utility.yul\":3641:3673   */\n      slt\n        /* \"#utility.yul\":3638:3757   */\n      iszero\n      tag_224\n      jumpi\n        /* \"#utility.yul\":3676:3755   */\n      tag_225\n      tag_117\n      jump\t// in\n    tag_225:\n        /* \"#utility.yul\":3638:3757   */\n    tag_224:\n        /* \"#utility.yul\":3796:3797   */\n      0x00\n        /* \"#utility.yul\":3821:3874   */\n      tag_226\n        /* \"#utility.yul\":3866:3873   */\n      dup6\n        /* \"#utility.yul\":3857:3863   */\n      dup3\n        /* \"#utility.yul\":3846:3855   */\n      dup7\n        /* \"#utility.yul\":3842:3864   */\n      add\n        /* \"#utility.yul\":3821:3874   */\n      tag_122\n      jump\t// in\n    tag_226:\n        /* \"#utility.yul\":3811:3874   */\n      swap3\n      pop\n        /* \"#utility.yul\":3767:3884   */\n      pop\n        /* \"#utility.yul\":3923:3925   */\n      0x20\n        /* \"#utility.yul\":3949:4002   */\n      tag_227\n        /* \"#utility.yul\":3994:4001   */\n      dup6\n        /* \"#utility.yul\":3985:3991   */\n      dup3\n        /* \"#utility.yul\":3974:3983   */\n      dup7\n        /* \"#utility.yul\":3970:3992   */\n      add\n        /* \"#utility.yul\":3949:4002   */\n      tag_132\n      jump\t// in\n    tag_227:\n        /* \"#utility.yul\":3939:4002   */\n      swap2\n      pop\n        /* \"#utility.yul\":3894:4012   */\n      pop\n        /* \"#utility.yul\":3545:4019   */\n      swap3\n      pop\n      swap3\n      swap1\n      pop\n      jump\t// out\n        /* \"#utility.yul\":4025:4143   */\n    tag_133:\n        /* \"#utility.yul\":4112:4136   */\n      tag_229\n        /* \"#utility.yul\":4130:4135   */\n      dup2\n        /* \"#utility.yul\":4112:4136   */\n      tag_126\n      jump\t// in\n    tag_229:\n        /* \"#utility.yul\":4107:4110   */\n      dup3\n        /* \"#utility.yul\":4100:4137   */\n      mstore\n        /* \"#utility.yul\":4025:4143   */\n      pop\n      pop\n      jump\t// out\n        /* \"#utility.yul\":4149:4371   */\n    tag_23:\n        /* \"#utility.yul\":4242:4246   */\n      0x00\n        /* \"#utility.yul\":4280:4282   */\n      0x20\n        /* \"#utility.yul\":4269:4278   */\n      dup3\n        /* \"#utility.yul\":4265:4283   */\n      add\n        /* \"#utility.yul\":4257:4283   */\n      swap1\n      pop\n        /* \"#utility.yul\":4293:4364   */\n      tag_231\n        /* \"#utility.yul\":4361:4362   */\n      0x00\n        /* \"#utility.yul\":4350:4359   */\n      dup4\n        /* \"#utility.yul\":4346:4363   */\n      add\n        /* \"#utility.yul\":4337:4343   */\n      dup5\n        /* \"#utility.yul\":4293:4364   */\n      tag_133\n      jump\t// in\n    tag_231:\n        /* \"#utility.yul\":4149:4371   */\n      swap3\n      swap2\n      pop\n      pop\n      jump\t// out\n        /* \"#utility.yul\":4377:4494   */\n    tag_134:\n        /* \"#utility.yul\":4486:4487   */\n      0x00\n        /* \"#utility.yul\":4483:4484   */\n      dup1\n        /* \"#utility.yul\":4476:4488   */\n      revert\n        /* \"#utility.yul\":4500:4617   */\n    tag_135:\n        /* \"#utility.yul\":4609:4610   */\n      0x00\n        /* \"#utility.yul\":4606:4607   */\n      dup1\n        /* \"#utility.yul\":4599:4611   */\n      revert\n        /* \"#utility.yul\":4623:4725   */\n    tag_136:\n        /* \"#utility.yul\":4664:4670   */\n      0x00\n        /* \"#utility.yul\":4715:4717   */\n      0x1f\n        /* \"#utility.yul\":4711:4718   */\n      not\n        /* \"#utility.yul\":4706:4708   */\n      0x1f\n        /* \"#utility.yul\":4699:4704   */\n      dup4\n        /* \"#utility.yul\":4695:4709   */\n      add\n        /* \"#utility.yul\":4691:4719   */\n      and\n        /* \"#utility.yul\":4681:4719   */\n      swap1\n      pop\n        /* \"#utility.yul\":4623:4725   */\n      swap2\n      swap1\n      pop\n      jump\t// out\n        /* \"#utility.yul\":4731:4911   */\n    tag_137:\n        /* \"#utility.yul\":4779:4856   */\n      0x4e487b7100000000000000000000000000000000000000000000000000000000\n        /* \"#utility.yul\":4776:4777   */\n      0x00\n        /* \"#utility.yul\":4769:4857   */\n      mstore\n        /* \"#utility.yul\":4876:4880   */\n      0x41\n        /* \"#utility.yul\":4873:4874   */\n      0x04\n        /* \"#utility.yul\":4866:4881   */\n      mstore\n        /* \"#utility.yul\":4900:4904   */\n      0x24\n        /* \"#utility.yul\":4897:4898   */\n      0x00\n        /* \"#utility.yul\":4890:4905   */\n      revert\n        /* \"#utility.yul\":4917:5198   */\n    tag_138:\n        /* \"#utility.yul\":5000:5027   */\n      tag_237\n        /* \"#utility.yul\":5022:5026   */\n      dup3\n        /* \"#utility.yul\":5000:5027   */\n      tag_136\n      jump\t// in\n    tag_237:\n        /* \"#utility.yul\":4992:4998   */\n      dup2\n        /* \"#utility.yul\":4988:5028   */\n      add\n        /* \"#utility.yul\":5130:5136   */\n      dup2\n        /* \"#utility.yul\":5118:5128   */\n      dup2\n        /* \"#utility.yul\":5115:5137   */\n      lt\n        /* \"#utility.yul\":5094:5112   */\n      0xffffffffffffffff\n        /* \"#utility.yul\":5082:5092   */\n      dup3\n        /* \"#utility.yul\":5079:5113   */\n      gt\n        /* \"#utility.yul\":5076:5138   */\n      or\n        /* \"#utility.yul\":5073:5161   */\n      iszero\n      tag_238\n      jumpi\n        /* \"#utility.yul\":5141:5159   */\n      tag_239\n      tag_137\n      jump\t// in\n    tag_239:\n        /* \"#utility.yul\":5073:5161   */\n    tag_238:\n        /* \"#utility.yul\":5181:5191   */\n      dup1\n        /* \"#utility.yul\":5177:5179   */\n      0x40\n        /* \"#utility.yul\":5170:5192   */\n      mstore\n        /* \"#utility.yul\":4960:5198   */\n      pop\n        /* \"#utility.yul\":4917:5198   */\n      pop\n      pop\n      jump\t// out\n        /* \"#utility.yul\":5204:5333   */\n    tag_139:\n        /* \"#utility.yul\":5238:5244   */\n      0x00\n        /* \"#utility.yul\":5265:5285   */\n      tag_241\n      tag_116\n      jump\t// in\n    tag_241:\n        /* \"#utility.yul\":5255:5285   */\n      swap1\n      pop\n        /* \"#utility.yul\":5294:5327   */\n      tag_242\n        /* \"#utility.yul\":5322:5326   */\n      dup3\n        /* \"#utility.yul\":5314:5320   */\n      dup3\n        /* \"#utility.yul\":5294:5327   */\n      tag_138\n      jump\t// in\n    tag_242:\n        /* \"#utility.yul\":5204:5333   */\n      swap2\n      swap1\n      pop\n      jump\t// out\n        /* \"#utility.yul\":5339:5647   */\n    tag_140:\n        /* \"#utility.yul\":5401:5405   */\n      0x00\n        /* \"#utility.yul\":5491:5509   */\n      0xffffffffffffffff\n        /* \"#utility.yul\":5483:5489   */\n      dup3\n        /* \"#utility.yul\":5480:5510   */\n      gt\n        /* \"#utility.yul\":5477:5533   */\n      iszero\n      tag_244\n      jumpi\n        /* \"#utility.yul\":5513:5531   */\n      tag_245\n      tag_137\n      jump\t// in\n    tag_245:\n        /* \"#utility.yul\":5477:5533   */\n    tag_244:\n        /* \"#utility.yul\":5551:5580   */\n      tag_246\n        /* \"#utility.yul\":5573:5579   */\n      dup3\n        /* \"#utility.yul\":5551:5580   */\n      tag_136\n      jump\t// in\n    tag_246:\n        /* \"#utility.yul\":5543:5580   */\n      swap1\n      pop\n        /* \"#utility.yul\":5635:5639   */\n      0x20\n        /* \"#utility.yul\":5629:5633   */\n      dup2\n        /* \"#utility.yul\":5625:5640   */\n      add\n        /* \"#utility.yul\":5617:5640   */\n      swap1\n      pop\n        /* \"#utility.yul\":5339:5647   */\n      swap2\n      swap1\n      pop\n      jump\t// out\n        /* \"#utility.yul\":5653:5801   */\n    tag_141:\n        /* \"#utility.yul\":5751:5757   */\n      dup3\n        /* \"#utility.yul\":5746:5749   */\n      dup2\n        /* \"#utility.yul\":5741:5744   */\n      dup4\n        /* \"#utility.yul\":5728:5758   */\n      calldatacopy\n        /* \"#utility.yul\":5792:5793   */\n      0x00\n        /* \"#utility.yul\":5783:5789   */\n      dup4\n        /* \"#utility.yul\":5778:5781   */\n      dup4\n        /* \"#utility.yul\":5774:5790   */\n      add\n        /* \"#utility.yul\":5767:5794   */\n      mstore\n        /* \"#utility.yul\":5653:5801   */\n      pop\n      pop\n      pop\n      jump\t// out\n        /* \"#utility.yul\":5807:6232   */\n    tag_142:\n        /* \"#utility.yul\":5885:5890   */\n      0x00\n        /* \"#utility.yul\":5910:5976   */\n      tag_249\n        /* \"#utility.yul\":5926:5975   */\n      tag_250\n        /* \"#utility.yul\":5968:5974   */\n      dup5\n        /* \"#utility.yul\":5926:5975   */\n      tag_140\n      jump\t// in\n    tag_250:\n        /* \"#utility.yul\":5910:5976   */\n      tag_139\n      jump\t// in\n    tag_249:\n        /* \"#utility.yul\":5901:5976   */\n      swap1\n      pop\n        /* \"#utility.yul\":5999:6005   */\n      dup3\n        /* \"#utility.yul\":5992:5997   */\n      dup2\n        /* \"#utility.yul\":5985:6006   */\n      mstore\n        /* \"#utility.yul\":6037:6041   */\n      0x20\n        /* \"#utility.yul\":6030:6035   */\n      dup2\n        /* \"#utility.yul\":6026:6042   */\n      add\n        /* \"#utility.yul\":6075:6078   */\n      dup5\n        /* \"#utility.yul\":6066:6072   */\n      dup5\n        /* \"#utility.yul\":6061:6064   */\n      dup5\n        /* \"#utility.yul\":6057:6073   */\n      add\n        /* \"#utility.yul\":6054:6079   */\n      gt\n        /* \"#utility.yul\":6051:6163   */\n      iszero\n      tag_251\n      jumpi\n        /* \"#utility.yul\":6082:6161   */\n      tag_252\n      tag_135\n      jump\t// in\n    tag_252:\n        /* \"#utility.yul\":6051:6163   */\n    tag_251:\n        /* \"#utility.yul\":6172:6226   */\n      tag_253\n        /* \"#utility.yul\":6219:6225   */\n      dup5\n        /* \"#utility.yul\":6214:6217   */\n      dup3\n        /* \"#utility.yul\":6209:6212   */\n      dup6\n        /* \"#utility.yul\":6172:6226   */\n      tag_141\n      jump\t// in\n    tag_253:\n        /* \"#utility.yul\":5891:6232   */\n      pop\n        /* \"#utility.yul\":5807:6232   */\n      swap4\n      swap3\n      pop\n      pop\n      pop\n      jump\t// out\n        /* \"#utility.yul\":6252:6592   */\n    tag_143:\n        /* \"#utility.yul\":6308:6313   */\n      0x00\n        /* \"#utility.yul\":6357:6360   */\n      dup3\n        /* \"#utility.yul\":6350:6354   */\n      0x1f\n        /* \"#utility.yul\":6342:6348   */\n      dup4\n        /* \"#utility.yul\":6338:6355   */\n      add\n        /* \"#utility.yul\":6334:6361   */\n      slt\n        /* \"#utility.yul\":6324:6446   */\n      tag_255\n      jumpi\n        /* \"#utility.yul\":6365:6444   */\n      tag_256\n      tag_134\n      jump\t// in\n    tag_256:\n        /* \"#utility.yul\":6324:6446   */\n    tag_255:\n        /* \"#utility.yul\":6482:6488   */\n      dup2\n        /* \"#utility.yul\":6469:6489   */\n      calldataload\n        /* \"#utility.yul\":6507:6586   */\n      tag_257\n        /* \"#utility.yul\":6582:6585   */\n      dup5\n        /* \"#utility.yul\":6574:6580   */\n      dup3\n        /* \"#utility.yul\":6567:6571   */\n      0x20\n        /* \"#utility.yul\":6559:6565   */\n      dup7\n        /* \"#utility.yul\":6555:6572   */\n      add\n        /* \"#utility.yul\":6507:6586   */\n      tag_142\n      jump\t// in\n    tag_257:\n        /* \"#utility.yul\":6498:6586   */\n      swap2\n      pop\n        /* \"#utility.yul\":6314:6592   */\n      pop\n        /* \"#utility.yul\":6252:6592   */\n      swap3\n      swap2\n      pop\n      pop\n      jump\t// out\n        /* \"#utility.yul\":6598:7252   */\n    tag_31:\n        /* \"#utility.yul\":6676:6682   */\n      0x00\n        /* \"#utility.yul\":6684:6690   */\n      dup1\n        /* \"#utility.yul\":6733:6735   */\n      0x40\n        /* \"#utility.yul\":6721:6730   */\n      dup4\n        /* \"#utility.yul\":6712:6719   */\n      dup6\n        /* \"#utility.yul\":6708:6731   */\n      sub\n        /* \"#utility.yul\":6704:6736   */\n      slt\n        /* \"#utility.yul\":6701:6820   */\n      iszero\n      tag_259\n      jumpi\n        /* \"#utility.yul\":6739:6818   */\n      tag_260\n      tag_117\n      jump\t// in\n    tag_260:\n        /* \"#utility.yul\":6701:6820   */\n    tag_259:\n        /* \"#utility.yul\":6887:6888   */\n      0x00\n        /* \"#utility.yul\":6876:6885   */\n      dup4\n        /* \"#utility.yul\":6872:6889   */\n      add\n        /* \"#utility.yul\":6859:6890   */\n      calldataload\n        /* \"#utility.yul\":6917:6935   */\n      0xffffffffffffffff\n        /* \"#utility.yul\":6909:6915   */\n      dup2\n        /* \"#utility.yul\":6906:6936   */\n      gt\n        /* \"#utility.yul\":6903:7020   */\n      iszero\n      tag_261\n      jumpi\n        /* \"#utility.yul\":6939:7018   */\n      tag_262\n      tag_118\n      jump\t// in\n    tag_262:\n        /* \"#utility.yul\":6903:7020   */\n    tag_261:\n        /* \"#utility.yul\":7044:7107   */\n      tag_263\n        /* \"#utility.yul\":7099:7106   */\n      dup6\n        /* \"#utility.yul\":7090:7096   */\n      dup3\n        /* \"#utility.yul\":7079:7088   */\n      dup7\n        /* \"#utility.yul\":7075:7097   */\n      add\n        /* \"#utility.yul\":7044:7107   */\n      tag_143\n      jump\t// in\n    tag_263:\n        /* \"#utility.yul\":7034:7107   */\n      swap3\n      pop\n        /* \"#utility.yul\":6830:7117   */\n      pop\n        /* \"#utility.yul\":7156:7158   */\n      0x20\n        /* \"#utility.yul\":7182:7235   */\n      tag_264\n        /* \"#utility.yul\":7227:7234   */\n      dup6\n        /* \"#utility.yul\":7218:7224   */\n      dup3\n        /* \"#utility.yul\":7207:7216   */\n      dup7\n        /* \"#utility.yul\":7203:7225   */\n      add\n        /* \"#utility.yul\":7182:7235   */\n      tag_132\n      jump\t// in\n    tag_264:\n        /* \"#utility.yul\":7172:7235   */\n      swap2\n      pop\n        /* \"#utility.yul\":7127:7245   */\n      pop\n        /* \"#utility.yul\":6598:7252   */\n      swap3\n      pop\n      swap3\n      swap1\n      pop\n      jump\t// out\n        /* \"#utility.yul\":7258:7732   */\n    tag_36:\n        /* \"#utility.yul\":7326:7332   */\n      0x00\n        /* \"#utility.yul\":7334:7340   */\n      dup1\n        /* \"#utility.yul\":7383:7385   */\n      0x40\n        /* \"#utility.yul\":7371:7380   */\n      dup4\n        /* \"#utility.yul\":7362:7369   */\n      dup6\n        /* \"#utility.yul\":7358:7381   */\n      sub\n        /* \"#utility.yul\":7354:7386   */\n      slt\n        /* \"#utility.yul\":7351:7470   */\n      iszero\n      tag_266\n      jumpi\n        /* \"#utility.yul\":7389:7468   */\n      tag_267\n      tag_117\n      jump\t// in\n    tag_267:\n        /* \"#utility.yul\":7351:7470   */\n    tag_266:\n        /* \"#utility.yul\":7509:7510   */\n      0x00\n        /* \"#utility.yul\":7534:7587   */\n      tag_268\n        /* \"#utility.yul\":7579:7586   */\n      dup6\n        /* \"#utility.yul\":7570:7576   */\n      dup3\n        /* \"#utility.yul\":7559:7568   */\n      dup7\n        /* \"#utility.yul\":7555:7577   */\n      add\n        /* \"#utility.yul\":7534:7587   */\n      tag_132\n      jump\t// in\n    tag_268:\n        /* \"#utility.yul\":7524:7587   */\n      swap3\n      pop\n        /* \"#utility.yul\":7480:7597   */\n      pop\n        /* \"#utility.yul\":7636:7638   */\n      0x20\n        /* \"#utility.yul\":7662:7715   */\n      tag_269\n        /* \"#utility.yul\":7707:7714   */\n      dup6\n        /* \"#utility.yul\":7698:7704   */\n      dup3\n        /* \"#utility.yul\":7687:7696   */\n      dup7\n        /* \"#utility.yul\":7683:7705   */\n      add\n        /* \"#utility.yul\":7662:7715   */\n      tag_122\n      jump\t// in\n    tag_269:\n        /* \"#utility.yul\":7652:7715   */\n      swap2\n      pop\n        /* \"#utility.yul\":7607:7725   */\n      pop\n        /* \"#utility.yul\":7258:7732   */\n      swap3\n      pop\n      swap3\n      swap1\n      pop\n      jump\t// out\n        /* \"#utility.yul\":7738:8067   */\n    tag_41:\n        /* \"#utility.yul\":7797:7803   */\n      0x00\n        /* \"#utility.yul\":7846:7848   */\n      0x20\n        /* \"#utility.yul\":7834:7843   */\n      dup3\n        /* \"#utility.yul\":7825:7832   */\n      dup5\n        /* \"#utility.yul\":7821:7844   */\n      sub\n        /* \"#utility.yul\":7817:7849   */\n      slt\n        /* \"#utility.yul\":7814:7933   */\n      iszero\n      tag_271\n      jumpi\n        /* \"#utility.yul\":7852:7931   */\n      tag_272\n      tag_117\n      jump\t// in\n    tag_272:\n        /* \"#utility.yul\":7814:7933   */\n    tag_271:\n        /* \"#utility.yul\":7972:7973   */\n      0x00\n        /* \"#utility.yul\":7997:8050   */\n      tag_273\n        /* \"#utility.yul\":8042:8049   */\n      dup5\n        /* \"#utility.yul\":8033:8039   */\n      dup3\n        /* \"#utility.yul\":8022:8031   */\n      dup6\n        /* \"#utility.yul\":8018:8040   */\n      add\n        /* \"#utility.yul\":7997:8050   */\n      tag_132\n      jump\t// in\n    tag_273:\n        /* \"#utility.yul\":7987:8050   */\n      swap2\n      pop\n        /* \"#utility.yul\":7943:8060   */\n      pop\n        /* \"#utility.yul\":7738:8067   */\n      swap3\n      swap2\n      pop\n      pop\n      jump\t// out\n        /* \"#utility.yul\":8073:8172   */\n    tag_144:\n        /* \"#utility.yul\":8125:8131   */\n      0x00\n        /* \"#utility.yul\":8159:8164   */\n      dup2\n        /* \"#utility.yul\":8153:8165   */\n      mload\n        /* \"#utility.yul\":8143:8165   */\n      swap1\n      pop\n        /* \"#utility.yul\":8073:8172   */\n      swap2\n      swap1\n      pop\n      jump\t// out\n        /* \"#utility.yul\":8178:8347   */\n    tag_145:\n        /* \"#utility.yul\":8262:8273   */\n      0x00\n        /* \"#utility.yul\":8296:8302   */\n      dup3\n        /* \"#utility.yul\":8291:8294   */\n      dup3\n        /* \"#utility.yul\":8284:8303   */\n      mstore\n        /* \"#utility.yul\":8336:8340   */\n      0x20\n        /* \"#utility.yul\":8331:8334   */\n      dup3\n        /* \"#utility.yul\":8327:8341   */\n      add\n        /* \"#utility.yul\":8312:8341   */\n      swap1\n      pop\n        /* \"#utility.yul\":8178:8347   */\n      swap3\n      swap2\n      pop\n      pop\n      jump\t// out\n        /* \"#utility.yul\":8353:8492   */\n    tag_146:\n        /* \"#utility.yul\":8442:8448   */\n      dup3\n        /* \"#utility.yul\":8437:8440   */\n      dup2\n        /* \"#utility.yul\":8432:8435   */\n      dup4\n        /* \"#utility.yul\":8426:8449   */\n      mcopy\n        /* \"#utility.yul\":8483:8484   */\n      0x00\n        /* \"#utility.yul\":8474:8480   */\n      dup4\n        /* \"#utility.yul\":8469:8472   */\n      dup4\n        /* \"#utility.yul\":8465:8481   */\n      add\n        /* \"#utility.yul\":8458:8485   */\n      mstore\n        /* \"#utility.yul\":8353:8492   */\n      pop\n      pop\n      pop\n      jump\t// out\n        /* \"#utility.yul\":8498:8875   */\n    tag_147:\n        /* \"#utility.yul\":8586:8589   */\n      0x00\n        /* \"#utility.yul\":8614:8653   */\n      tag_278\n        /* \"#utility.yul\":8647:8652   */\n      dup3\n        /* \"#utility.yul\":8614:8653   */\n      tag_144\n      jump\t// in\n    tag_278:\n        /* \"#utility.yul\":8669:8740   */\n      tag_279\n        /* \"#utility.yul\":8733:8739   */\n      dup2\n        /* \"#utility.yul\":8728:8731   */\n      dup6\n        /* \"#utility.yul\":8669:8740   */\n      tag_145\n      jump\t// in\n    tag_279:\n        /* \"#utility.yul\":8662:8740   */\n      swap4\n      pop\n        /* \"#utility.yul\":8749:8814   */\n      tag_280\n        /* \"#utility.yul\":8807:8813   */\n      dup2\n        /* \"#utility.yul\":8802:8805   */\n      dup6\n        /* \"#utility.yul\":8795:8799   */\n      0x20\n        /* \"#utility.yul\":8788:8793   */\n      dup7\n        /* \"#utility.yul\":8784:8800   */\n      add\n        /* \"#utility.yul\":8749:8814   */\n      tag_146\n      jump\t// in\n    tag_280:\n        /* \"#utility.yul\":8839:8868   */\n      tag_281\n        /* \"#utility.yul\":8861:8867   */\n      dup2\n        /* \"#utility.yul\":8839:8868   */\n      tag_136\n      jump\t// in\n    tag_281:\n        /* \"#utility.yul\":8834:8837   */\n      dup5\n        /* \"#utility.yul\":8830:8869   */\n      add\n        /* \"#utility.yul\":8823:8869   */\n      swap2\n      pop\n        /* \"#utility.yul\":8590:8875   */\n      pop\n        /* \"#utility.yul\":8498:8875   */\n      swap3\n      swap2\n      pop\n      pop\n      jump\t// out\n        /* \"#utility.yul\":8881:8985   */\n    tag_148:\n        /* \"#utility.yul\":8926:8933   */\n      0x00\n        /* \"#utility.yul\":8955:8979   */\n      tag_283\n        /* \"#utility.yul\":8973:8978   */\n      dup3\n        /* \"#utility.yul\":8955:8979   */\n      tag_119\n      jump\t// in\n    tag_283:\n        /* \"#utility.yul\":8944:8979   */\n      swap1\n      pop\n        /* \"#utility.yul\":8881:8985   */\n      swap2\n      swap1\n      pop\n      jump\t// out\n        /* \"#utility.yul\":8991:9133   */\n    tag_149:\n        /* \"#utility.yul\":9094:9126   */\n      tag_285\n        /* \"#utility.yul\":9120:9125   */\n      dup2\n        /* \"#utility.yul\":9094:9126   */\n      tag_148\n      jump\t// in\n    tag_285:\n        /* \"#utility.yul\":9089:9092   */\n      dup3\n        /* \"#utility.yul\":9082:9127   */\n      mstore\n        /* \"#utility.yul\":8991:9133   */\n      pop\n      pop\n      jump\t// out\n        /* \"#utility.yul\":9139:9257   */\n    tag_150:\n        /* \"#utility.yul\":9226:9250   */\n      tag_287\n        /* \"#utility.yul\":9244:9249   */\n      dup2\n        /* \"#utility.yul\":9226:9250   */\n      tag_120\n      jump\t// in\n    tag_287:\n        /* \"#utility.yul\":9221:9224   */\n      dup3\n        /* \"#utility.yul\":9214:9251   */\n      mstore\n        /* \"#utility.yul\":9139:9257   */\n      pop\n      pop\n      jump\t// out\n        /* \"#utility.yul\":9263:9353   */\n    tag_151:\n        /* \"#utility.yul\":9297:9304   */\n      0x00\n        /* \"#utility.yul\":9340:9345   */\n      dup2\n        /* \"#utility.yul\":9333:9346   */\n      iszero\n        /* \"#utility.yul\":9326:9347   */\n      iszero\n        /* \"#utility.yul\":9315:9347   */\n      swap1\n      pop\n        /* \"#utility.yul\":9263:9353   */\n      swap2\n      swap1\n      pop\n      jump\t// out\n        /* \"#utility.yul\":9359:9468   */\n    tag_152:\n        /* \"#utility.yul\":9440:9461   */\n      tag_290\n        /* \"#utility.yul\":9455:9460   */\n      dup2\n        /* \"#utility.yul\":9440:9461   */\n      tag_151\n      jump\t// in\n    tag_290:\n        /* \"#utility.yul\":9435:9438   */\n      dup3\n        /* \"#utility.yul\":9428:9462   */\n      mstore\n        /* \"#utility.yul\":9359:9468   */\n      pop\n      pop\n      jump\t// out\n        /* \"#utility.yul\":9474:10360   */\n    tag_44:\n        /* \"#utility.yul\":9737:9741   */\n      0x00\n        /* \"#utility.yul\":9775:9778   */\n      0xc0\n        /* \"#utility.yul\":9764:9773   */\n      dup3\n        /* \"#utility.yul\":9760:9779   */\n      add\n        /* \"#utility.yul\":9752:9779   */\n      swap1\n      pop\n        /* \"#utility.yul\":9789:9860   */\n      tag_292\n        /* \"#utility.yul\":9857:9858   */\n      0x00\n        /* \"#utility.yul\":9846:9855   */\n      dup4\n        /* \"#utility.yul\":9842:9859   */\n      add\n        /* \"#utility.yul\":9833:9839   */\n      dup10\n        /* \"#utility.yul\":9789:9860   */\n      tag_133\n      jump\t// in\n    tag_292:\n        /* \"#utility.yul\":9907:9916   */\n      dup2\n        /* \"#utility.yul\":9901:9905   */\n      dup2\n        /* \"#utility.yul\":9897:9917   */\n      sub\n        /* \"#utility.yul\":9892:9894   */\n      0x20\n        /* \"#utility.yul\":9881:9890   */\n      dup4\n        /* \"#utility.yul\":9877:9895   */\n      add\n        /* \"#utility.yul\":9870:9918   */\n      mstore\n        /* \"#utility.yul\":9935:10013   */\n      tag_293\n        /* \"#utility.yul\":10008:10012   */\n      dup2\n        /* \"#utility.yul\":9999:10005   */\n      dup9\n        /* \"#utility.yul\":9935:10013   */\n      tag_147\n      jump\t// in\n    tag_293:\n        /* \"#utility.yul\":9927:10013   */\n      swap1\n      pop\n        /* \"#utility.yul\":10023:10095   */\n      tag_294\n        /* \"#utility.yul\":10091:10093   */\n      0x40\n        /* \"#utility.yul\":10080:10089   */\n      dup4\n        /* \"#utility.yul\":10076:10094   */\n      add\n        /* \"#utility.yul\":10067:10073   */\n      dup8\n        /* \"#utility.yul\":10023:10095   */\n      tag_133\n      jump\t// in\n    tag_294:\n        /* \"#utility.yul\":10105:10193   */\n      tag_295\n        /* \"#utility.yul\":10189:10191   */\n      0x60\n        /* \"#utility.yul\":10178:10187   */\n      dup4\n        /* \"#utility.yul\":10174:10192   */\n      add\n        /* \"#utility.yul\":10165:10171   */\n      dup7\n        /* \"#utility.yul\":10105:10193   */\n      tag_149\n      jump\t// in\n    tag_295:\n        /* \"#utility.yul\":10203:10276   */\n      tag_296\n        /* \"#utility.yul\":10271:10274   */\n      0x80\n        /* \"#utility.yul\":10260:10269   */\n      dup4\n        /* \"#utility.yul\":10256:10275   */\n      add\n        /* \"#utility.yul\":10247:10253   */\n      dup6\n        /* \"#utility.yul\":10203:10276   */\n      tag_150\n      jump\t// in\n    tag_296:\n        /* \"#utility.yul\":10286:10353   */\n      tag_297\n        /* \"#utility.yul\":10348:10351   */\n      0xa0\n        /* \"#utility.yul\":10337:10346   */\n      dup4\n        /* \"#utility.yul\":10333:10352   */\n      add\n        /* \"#utility.yul\":10324:10330   */\n      dup5\n        /* \"#utility.yul\":10286:10353   */\n      tag_152\n      jump\t// in\n    tag_297:\n        /* \"#utility.yul\":9474:10360   */\n      swap8\n      swap7\n      pop\n      pop\n      pop\n      pop\n      pop\n      pop\n      pop\n      jump\t// out\n        /* \"#utility.yul\":10366:10547   */\n    tag_153:\n        /* \"#utility.yul\":10506:10539   */\n      0x5072696365206d7573742062652067726561746572207468616e207a65726f00\n        /* \"#utility.yul\":10502:10503   */\n      0x00\n        /* \"#utility.yul\":10494:10500   */\n      dup3\n        /* \"#utility.yul\":10490:10504   */\n      add\n        /* \"#utility.yul\":10483:10540   */\n      mstore\n        /* \"#utility.yul\":10366:10547   */\n      pop\n      jump\t// out\n        /* \"#utility.yul\":10553:10919   */\n    tag_154:\n        /* \"#utility.yul\":10695:10698   */\n      0x00\n        /* \"#utility.yul\":10716:10783   */\n      tag_300\n        /* \"#utility.yul\":10780:10782   */\n      0x1f\n        /* \"#utility.yul\":10775:10778   */\n      dup4\n        /* \"#utility.yul\":10716:10783   */\n      tag_145\n      jump\t// in\n    tag_300:\n        /* \"#utility.yul\":10709:10783   */\n      swap2\n      pop\n        /* \"#utility.yul\":10792:10885   */\n      tag_301\n        /* \"#utility.yul\":10881:10884   */\n      dup3\n        /* \"#utility.yul\":10792:10885   */\n      tag_153\n      jump\t// in\n    tag_301:\n        /* \"#utility.yul\":10910:10912   */\n      0x20\n        /* \"#utility.yul\":10905:10908   */\n      dup3\n        /* \"#utility.yul\":10901:10913   */\n      add\n        /* \"#utility.yul\":10894:10913   */\n      swap1\n      pop\n        /* \"#utility.yul\":10553:10919   */\n      swap2\n      swap1\n      pop\n      jump\t// out\n        /* \"#utility.yul\":10925:11344   */\n    tag_56:\n        /* \"#utility.yul\":11091:11095   */\n      0x00\n        /* \"#utility.yul\":11129:11131   */\n      0x20\n        /* \"#utility.yul\":11118:11127   */\n      dup3\n        /* \"#utility.yul\":11114:11132   */\n      add\n        /* \"#utility.yul\":11106:11132   */\n      swap1\n      pop\n        /* \"#utility.yul\":11178:11187   */\n      dup2\n        /* \"#utility.yul\":11172:11176   */\n      dup2\n        /* \"#utility.yul\":11168:11188   */\n      sub\n        /* \"#utility.yul\":11164:11165   */\n      0x00\n        /* \"#utility.yul\":11153:11162   */\n      dup4\n        /* \"#utility.yul\":11149:11166   */\n      add\n        /* \"#utility.yul\":11142:11189   */\n      mstore\n        /* \"#utility.yul\":11206:11337   */\n      tag_303\n        /* \"#utility.yul\":11332:11336   */\n      dup2\n        /* \"#utility.yul\":11206:11337   */\n      tag_154\n      jump\t// in\n    tag_303:\n        /* \"#utility.yul\":11198:11337   */\n      swap1\n      pop\n        /* \"#utility.yul\":10925:11344   */\n      swap2\n      swap1\n      pop\n      jump\t// out\n        /* \"#utility.yul\":11350:11530   */\n    tag_155:\n        /* \"#utility.yul\":11398:11475   */\n      0x4e487b7100000000000000000000000000000000000000000000000000000000\n        /* \"#utility.yul\":11395:11396   */\n      0x00\n        /* \"#utility.yul\":11388:11476   */\n      mstore\n        /* \"#utility.yul\":11495:11499   */\n      0x11\n        /* \"#utility.yul\":11492:11493   */\n      0x04\n        /* \"#utility.yul\":11485:11500   */\n      mstore\n        /* \"#utility.yul\":11519:11523   */\n      0x24\n        /* \"#utility.yul\":11516:11517   */\n      0x00\n        /* \"#utility.yul\":11509:11524   */\n      revert\n        /* \"#utility.yul\":11536:11769   */\n    tag_58:\n        /* \"#utility.yul\":11575:11578   */\n      0x00\n        /* \"#utility.yul\":11598:11622   */\n      tag_306\n        /* \"#utility.yul\":11616:11621   */\n      dup3\n        /* \"#utility.yul\":11598:11622   */\n      tag_126\n      jump\t// in\n    tag_306:\n        /* \"#utility.yul\":11589:11622   */\n      swap2\n      pop\n        /* \"#utility.yul\":11644:11710   */\n      0xffffffffffffffffffffffffffffffffffffffffffffffffffffffffffffffff\n        /* \"#utility.yul\":11637:11642   */\n      dup3\n        /* \"#utility.yul\":11634:11711   */\n      sub\n        /* \"#utility.yul\":11631:11734   */\n      tag_307\n      jumpi\n        /* \"#utility.yul\":11714:11732   */\n      tag_308\n      tag_155\n      jump\t// in\n    tag_308:\n        /* \"#utility.yul\":11631:11734   */\n    tag_307:\n        /* \"#utility.yul\":11761:11762   */\n      0x01\n        /* \"#utility.yul\":11754:11759   */\n      dup3\n        /* \"#utility.yul\":11750:11763   */\n      add\n        /* \"#utility.yul\":11743:11763   */\n      swap1\n      pop\n        /* \"#utility.yul\":11536:11769   */\n      swap2\n      swap1\n      pop\n      jump\t// out\n        /* \"#utility.yul\":11775:11955   */\n    tag_156:\n        /* \"#utility.yul\":11823:11900   */\n      0x4e487b7100000000000000000000000000000000000000000000000000000000\n        /* \"#utility.yul\":11820:11821   */\n      0x00\n        /* \"#utility.yul\":11813:11901   */\n      mstore\n        /* \"#utility.yul\":11920:11924   */\n      0x22\n        /* \"#utility.yul\":11917:11918   */\n      0x04\n        /* \"#utility.yul\":11910:11925   */\n      mstore\n        /* \"#utility.yul\":11944:11948   */\n      0x24\n        /* \"#utility.yul\":11941:11942   */\n      0x00\n        /* \"#utility.yul\":11934:11949   */\n      revert\n        /* \"#utility.yul\":11961:12281   */\n    tag_73:\n        /* \"#utility.yul\":12005:12011   */\n      0x00\n        /* \"#utility.yul\":12042:12043   */\n      0x02\n        /* \"#utility.yul\":12036:12040   */\n      dup3\n        /* \"#utility.yul\":12032:12044   */\n      div\n        /* \"#utility.yul\":12022:12044   */\n      swap1\n      pop\n        /* \"#utility.yul\":12089:12090   */\n      0x01\n        /* \"#utility.yul\":12083:12087   */\n      dup3\n        /* \"#utility.yul\":12079:12091   */\n      and\n        /* \"#utility.yul\":12110:12128   */\n      dup1\n        /* \"#utility.yul\":12100:12181   */\n      tag_311\n      jumpi\n        /* \"#utility.yul\":12166:12170   */\n      0x7f\n        /* \"#utility.yul\":12158:12164   */\n      dup3\n        /* \"#utility.yul\":12154:12171   */\n      and\n        /* \"#utility.yul\":12144:12171   */\n      swap2\n      pop\n        /* \"#utility.yul\":12100:12181   */\n    tag_311:\n        /* \"#utility.yul\":12228:12230   */\n      0x20\n        /* \"#utility.yul\":12220:12226   */\n      dup3\n        /* \"#utility.yul\":12217:12231   */\n      lt\n        /* \"#utility.yul\":12197:12215   */\n      dup2\n        /* \"#utility.yul\":12194:12232   */\n      sub\n        /* \"#utility.yul\":12191:12275   */\n      tag_312\n      jumpi\n        /* \"#utility.yul\":12247:12265   */\n      tag_313\n      tag_156\n      jump\t// in\n    tag_313:\n        /* \"#utility.yul\":12191:12275   */\n    tag_312:\n        /* \"#utility.yul\":12012:12281   */\n      pop\n        /* \"#utility.yul\":11961:12281   */\n      swap2\n      swap1\n      pop\n      jump\t// out\n        /* \"#utility.yul\":12287:12428   */\n    tag_157:\n        /* \"#utility.yul\":12336:12340   */\n      0x00\n        /* \"#utility.yul\":12359:12362   */\n      dup2\n        /* \"#utility.yul\":12351:12362   */\n      swap1\n      pop\n        /* \"#utility.yul\":12382:12385   */\n      dup2\n        /* \"#utility.yul\":12379:12380   */\n      0x00\n        /* \"#utility.yul\":12372:12386   */\n      mstore\n        /* \"#utility.yul\":12416:12420   */\n      0x20\n        /* \"#utility.yul\":12413:12414   */\n      0x00\n        /* \"#utility.yul\":12403:12421   */\n      keccak256\n        /* \"#utility.yul\":12395:12421   */\n      swap1\n      pop\n        /* \"#utility.yul\":12287:12428   */\n      swap2\n      swap1\n      pop\n      jump\t// out\n        /* \"#utility.yul\":12434:12527   */\n    tag_158:\n        /* \"#utility.yul\":12471:12477   */\n      0x00\n        /* \"#utility.yul\":12518:12520   */\n      0x20\n        /* \"#utility.yul\":12513:12515   */\n      0x1f\n        /* \"#utility.yul\":12506:12511   */\n      dup4\n        /* \"#utility.yul\":12502:12516   */\n      add\n        /* \"#utility.yul\":12498:12521   */\n      div\n        /* \"#utility.yul\":12488:12521   */\n      swap1\n      pop\n        /* \"#utility.yul\":12434:12527   */\n      swap2\n      swap1\n      pop\n      jump\t// out\n        /* \"#utility.yul\":12533:12640   */\n    tag_159:\n        /* \"#utility.yul\":12577:12585   */\n      0x00\n        /* \"#utility.yul\":12627:12632   */\n      dup3\n        /* \"#utility.yul\":12621:12625   */\n      dup3\n        /* \"#utility.yul\":12617:12633   */\n      shl\n        /* \"#utility.yul\":12596:12633   */\n      swap1\n      pop\n        /* \"#utility.yul\":12533:12640   */\n      swap3\n      swap2\n      pop\n      pop\n      jump\t// out\n        /* \"#utility.yul\":12646:13039   */\n    tag_160:\n        /* \"#utility.yul\":12715:12721   */\n      0x00\n        /* \"#utility.yul\":12765:12766   */\n      0x08\n        /* \"#utility.yul\":12753:12763   */\n      dup4\n        /* \"#utility.yul\":12749:12767   */\n      mul\n        /* \"#utility.yul\":12788:12885   */\n      tag_318\n        /* \"#utility.yul\":12818:12884   */\n      0xffffffffffffffffffffffffffffffffffffffffffffffffffffffffffffffff\n        /* \"#utility.yul\":12807:12816   */\n      dup3\n        /* \"#utility.yul\":12788:12885   */\n      tag_159\n      jump\t// in\n    tag_318:\n        /* \"#utility.yul\":12906:12945   */\n      tag_319\n        /* \"#utility.yul\":12936:12944   */\n      dup7\n        /* \"#utility.yul\":12925:12934   */\n      dup4\n        /* \"#utility.yul\":12906:12945   */\n      tag_159\n      jump\t// in\n    tag_319:\n        /* \"#utility.yul\":12894:12945   */\n      swap6\n      pop\n        /* \"#utility.yul\":12978:12982   */\n      dup1\n        /* \"#utility.yul\":12974:12983   */\n      not\n        /* \"#utility.yul\":12967:12972   */\n      dup5\n        /* \"#utility.yul\":12963:12984   */\n      and\n        /* \"#utility.yul\":12954:12984   */\n      swap4\n      pop\n        /* \"#utility.yul\":13027:13031   */\n      dup1\n        /* \"#utility.yul\":13017:13025   */\n      dup7\n        /* \"#utility.yul\":13013:13032   */\n      and\n        /* \"#utility.yul\":13006:13011   */\n      dup5\n        /* \"#utility.yul\":13003:13033   */\n      or\n        /* \"#utility.yul\":12993:13033   */\n      swap3\n      pop\n        /* \"#utility.yul\":12722:13039   */\n      pop\n      pop\n        /* \"#utility.yul\":12646:13039   */\n      swap4\n      swap3\n      pop\n      pop\n      pop\n      jump\t// out\n        /* \"#utility.yul\":13045:13105   */\n    tag_161:\n        /* \"#utility.yul\":13073:13076   */\n      0x00\n        /* \"#utility.yul\":13094:13099   */\n      dup2\n        /* \"#utility.yul\":13087:13099   */\n      swap1\n      pop\n        /* \"#utility.yul\":13045:13105   */\n      swap2\n      swap1\n      pop\n      jump\t// out\n        /* \"#utility.yul\":13111:13253   */\n    tag_162:\n        /* \"#utility.yul\":13161:13170   */\n      0x00\n        /* \"#utility.yul\":13194:13247   */\n      tag_322\n        /* \"#utility.yul\":13212:13246   */\n      tag_323\n        /* \"#utility.yul\":13221:13245   */\n      tag_324\n        /* \"#utility.yul\":13239:13244   */\n      dup5\n        /* \"#utility.yul\":13221:13245   */\n      tag_126\n      jump\t// in\n    tag_324:\n        /* \"#utility.yul\":13212:13246   */\n      tag_161\n      jump\t// in\n    tag_323:\n        /* \"#utility.yul\":13194:13247   */\n      tag_126\n      jump\t// in\n    tag_322:\n        /* \"#utility.yul\":13181:13247   */\n      swap1\n      pop\n        /* \"#utility.yul\":13111:13253   */\n      swap2\n      swap1\n      pop\n      jump\t// out\n        /* \"#utility.yul\":13259:13334   */\n    tag_163:\n        /* \"#utility.yul\":13302:13305   */\n      0x00\n        /* \"#utility.yul\":13323:13328   */\n      dup2\n        /* \"#utility.yul\":13316:13328   */\n      swap1\n      pop\n        /* \"#utility.yul\":13259:13334   */\n      swap2\n      swap1\n      pop\n      jump\t// out\n        /* \"#utility.yul\":13340:13609   */\n    tag_164:\n        /* \"#utility.yul\":13450:13489   */\n      tag_327\n        /* \"#utility.yul\":13481:13488   */\n      dup4\n        /* \"#utility.yul\":13450:13489   */\n      tag_162\n      jump\t// in\n    tag_327:\n        /* \"#utility.yul\":13511:13602   */\n      tag_328\n        /* \"#utility.yul\":13560:13601   */\n      tag_329\n        /* \"#utility.yul\":13584:13600   */\n      dup3\n        /* \"#utility.yul\":13560:13601   */\n      tag_163\n      jump\t// in\n    tag_329:\n        /* \"#utility.yul\":13552:13558   */\n      dup5\n        /* \"#utility.yul\":13545:13549   */\n      dup5\n        /* \"#utility.yul\":13539:13550   */\n      sload\n        /* \"#utility.yul\":13511:13602   */\n      tag_160\n      jump\t// in\n    tag_328:\n        /* \"#utility.yul\":13505:13509   */\n      dup3\n        /* \"#utility.yul\":13498:13603   */\n      sstore\n        /* \"#utility.yul\":13416:13609   */\n      pop\n        /* \"#utility.yul\":13340:13609   */\n      pop\n      pop\n      pop\n      jump\t// out\n        /* \"#utility.yul\":13615:13688   */\n    tag_165:\n        /* \"#utility.yul\":13660:13663   */\n      0x00\n        /* \"#utility.yul\":13615:13688   */\n      swap1\n      jump\t// out\n        /* \"#utility.yul\":13694:13883   */\n    tag_166:\n        /* \"#utility.yul\":13771:13803   */\n      tag_332\n      tag_165\n      jump\t// in\n    tag_332:\n        /* \"#utility.yul\":13812:13877   */\n      tag_333\n        /* \"#utility.yul\":13870:13876   */\n      dup2\n        /* \"#utility.yul\":13862:13868   */\n      dup5\n        /* \"#utility.yul\":13856:13860   */\n      dup5\n        /* \"#utility.yul\":13812:13877   */\n      tag_164\n      jump\t// in\n    tag_333:\n        /* \"#utility.yul\":13747:13883   */\n      pop\n        /* \"#utility.yul\":13694:13883   */\n      pop\n      pop\n      jump\t// out\n        /* \"#utility.yul\":13889:14075   */\n    tag_167:\n        /* \"#utility.yul\":13949:14069   */\n    tag_335:\n        /* \"#utility.yul\":13966:13969   */\n      dup2\n        /* \"#utility.yul\":13959:13964   */\n      dup2\n        /* \"#utility.yul\":13956:13970   */\n      lt\n        /* \"#utility.yul\":13949:14069   */\n      iszero\n      tag_337\n      jumpi\n        /* \"#utility.yul\":14020:14059   */\n      tag_338\n        /* \"#utility.yul\":14057:14058   */\n      0x00\n        /* \"#utility.yul\":14050:14055   */\n      dup3\n        /* \"#utility.yul\":14020:14059   */\n      tag_166\n      jump\t// in\n    tag_338:\n        /* \"#utility.yul\":13993:13994   */\n      0x01\n        /* \"#utility.yul\":13986:13991   */\n      dup2\n        /* \"#utility.yul\":13982:13995   */\n      add\n        /* \"#utility.yul\":13973:13995   */\n      swap1\n      pop\n        /* \"#utility.yul\":13949:14069   */\n      jump(tag_335)\n    tag_337:\n        /* \"#utility.yul\":13889:14075   */\n      pop\n      pop\n      jump\t// out\n        /* \"#utility.yul\":14081:14624   */\n    tag_168:\n        /* \"#utility.yul\":14182:14184   */\n      0x1f\n        /* \"#utility.yul\":14177:14180   */\n      dup3\n        /* \"#utility.yul\":14174:14185   */\n      gt\n        /* \"#utility.yul\":14171:14617   */\n      iszero\n      tag_340\n      jumpi\n        /* \"#utility.yul\":14216:14254   */\n      tag_341\n        /* \"#utility.yul\":14248:14253   */\n      dup2\n        /* \"#utility.yul\":14216:14254   */\n      tag_157\n      jump\t// in\n    tag_341:\n        /* \"#utility.yul\":14300:14329   */\n      tag_342\n        /* \"#utility.yul\":14318:14328   */\n      dup5\n        /* \"#utility.yul\":14300:14329   */\n      tag_158\n      jump\t// in\n    tag_342:\n        /* \"#utility.yul\":14290:14298   */\n      dup2\n        /* \"#utility.yul\":14286:14330   */\n      add\n        /* \"#utility.yul\":14483:14485   */\n      0x20\n        /* \"#utility.yul\":14471:14481   */\n      dup6\n        /* \"#utility.yul\":14468:14486   */\n      lt\n        /* \"#utility.yul\":14465:14514   */\n      iszero\n      tag_343\n      jumpi\n        /* \"#utility.yul\":14504:14512   */\n      dup2\n        /* \"#utility.yul\":14489:14512   */\n      swap1\n      pop\n        /* \"#utility.yul\":14465:14514   */\n    tag_343:\n        /* \"#utility.yul\":14527:14607   */\n      tag_344\n        /* \"#utility.yul\":14583:14605   */\n      tag_345\n        /* \"#utility.yul\":14601:14604   */\n      dup6\n        /* \"#utility.yul\":14583:14605   */\n      tag_158\n      jump\t// in\n    tag_345:\n        /* \"#utility.yul\":14573:14581   */\n      dup4\n        /* \"#utility.yul\":14569:14606   */\n      add\n        /* \"#utility.yul\":14556:14567   */\n      dup3\n        /* \"#utility.yul\":14527:14607   */\n      tag_167\n      jump\t// in\n    tag_344:\n        /* \"#utility.yul\":14186:14617   */\n      pop\n      pop\n        /* \"#utility.yul\":14171:14617   */\n    tag_340:\n        /* \"#utility.yul\":14081:14624   */\n      pop\n      pop\n      pop\n      jump\t// out\n        /* \"#utility.yul\":14630:14747   */\n    tag_169:\n        /* \"#utility.yul\":14684:14692   */\n      0x00\n        /* \"#utility.yul\":14734:14739   */\n      dup3\n        /* \"#utility.yul\":14728:14732   */\n      dup3\n        /* \"#utility.yul\":14724:14740   */\n      shr\n        /* \"#utility.yul\":14703:14740   */\n      swap1\n      pop\n        /* \"#utility.yul\":14630:14747   */\n      swap3\n      swap2\n      pop\n      pop\n      jump\t// out\n        /* \"#utility.yul\":14753:14922   */\n    tag_170:\n        /* \"#utility.yul\":14797:14803   */\n      0x00\n        /* \"#utility.yul\":14830:14881   */\n      tag_348\n        /* \"#utility.yul\":14878:14879   */\n      0x00\n        /* \"#utility.yul\":14874:14880   */\n      not\n        /* \"#utility.yul\":14866:14871   */\n      dup5\n        /* \"#utility.yul\":14863:14864   */\n      0x08\n        /* \"#utility.yul\":14859:14872   */\n      mul\n        /* \"#utility.yul\":14830:14881   */\n      tag_169\n      jump\t// in\n    tag_348:\n        /* \"#utility.yul\":14826:14882   */\n      not\n        /* \"#utility.yul\":14911:14915   */\n      dup1\n        /* \"#utility.yul\":14905:14909   */\n      dup4\n        /* \"#utility.yul\":14901:14916   */\n      and\n        /* \"#utility.yul\":14891:14916   */\n      swap2\n      pop\n        /* \"#utility.yul\":14804:14922   */\n      pop\n        /* \"#utility.yul\":14753:14922   */\n      swap3\n      swap2\n      pop\n      pop\n      jump\t// out\n        /* \"#utility.yul\":14927:15222   */\n    tag_171:\n        /* \"#utility.yul\":15003:15007   */\n      0x00\n        /* \"#utility.yul\":15149:15178   */\n      tag_350\n        /* \"#utility.yul\":15174:15177   */\n      dup4\n        /* \"#utility.yul\":15168:15172   */\n      dup4\n        /* \"#utility.yul\":15149:15178   */\n      tag_170\n      jump\t// in\n    tag_350:\n        /* \"#utility.yul\":15141:15178   */\n      swap2\n      pop\n        /* \"#utility.yul\":15211:15214   */\n      dup3\n        /* \"#utility.yul\":15208:15209   */\n      0x02\n        /* \"#utility.yul\":15204:15215   */\n      mul\n        /* \"#utility.yul\":15198:15202   */\n      dup3\n        /* \"#utility.yul\":15195:15216   */\n      or\n        /* \"#utility.yul\":15187:15216   */\n      swap1\n      pop\n        /* \"#utility.yul\":14927:15222   */\n      swap3\n      swap2\n      pop\n      pop\n      jump\t// out\n        /* \"#utility.yul\":15227:16622   */\n    tag_60:\n        /* \"#utility.yul\":15344:15381   */\n      tag_352\n        /* \"#utility.yul\":15377:15380   */\n      dup3\n        /* \"#utility.yul\":15344:15381   */\n      tag_144\n      jump\t// in\n    tag_352:\n        /* \"#utility.yul\":15446:15464   */\n      0xffffffffffffffff\n        /* \"#utility.yul\":15438:15444   */\n      dup2\n        /* \"#utility.yul\":15435:15465   */\n      gt\n        /* \"#utility.yul\":15432:15488   */\n      iszero\n      tag_353\n      jumpi\n        /* \"#utility.yul\":15468:15486   */\n      tag_354\n      tag_137\n      jump\t// in\n    tag_354:\n        /* \"#utility.yul\":15432:15488   */\n    tag_353:\n        /* \"#utility.yul\":15512:15550   */\n      tag_355\n        /* \"#utility.yul\":15544:15548   */\n      dup3\n        /* \"#utility.yul\":15538:15549   */\n      sload\n        /* \"#utility.yul\":15512:15550   */\n      tag_73\n      jump\t// in\n    tag_355:\n        /* \"#utility.yul\":15597:15664   */\n      tag_356\n        /* \"#utility.yul\":15657:15663   */\n      dup3\n        /* \"#utility.yul\":15649:15655   */\n      dup3\n        /* \"#utility.yul\":15643:15647   */\n      dup6\n        /* \"#utility.yul\":15597:15664   */\n      tag_168\n      jump\t// in\n    tag_356:\n        /* \"#utility.yul\":15691:15692   */\n      0x00\n        /* \"#utility.yul\":15715:15719   */\n      0x20\n        /* \"#utility.yul\":15702:15719   */\n      swap1\n      pop\n        /* \"#utility.yul\":15747:15749   */\n      0x1f\n        /* \"#utility.yul\":15739:15745   */\n      dup4\n        /* \"#utility.yul\":15736:15750   */\n      gt\n        /* \"#utility.yul\":15764:15765   */\n      0x01\n        /* \"#utility.yul\":15759:16377   */\n      dup2\n      eq\n      tag_358\n      jumpi\n        /* \"#utility.yul\":16421:16422   */\n      0x00\n        /* \"#utility.yul\":16438:16444   */\n      dup5\n        /* \"#utility.yul\":16435:16512   */\n      iszero\n      tag_359\n      jumpi\n        /* \"#utility.yul\":16487:16496   */\n      dup3\n        /* \"#utility.yul\":16482:16485   */\n      dup8\n        /* \"#utility.yul\":16478:16497   */\n      add\n        /* \"#utility.yul\":16472:16498   */\n      mload\n        /* \"#utility.yul\":16463:16498   */\n      swap1\n      pop\n        /* \"#utility.yul\":16435:16512   */\n    tag_359:\n        /* \"#utility.yul\":16538:16605   */\n      tag_360\n        /* \"#utility.yul\":16598:16604   */\n      dup6\n        /* \"#utility.yul\":16591:16596   */\n      dup3\n        /* \"#utility.yul\":16538:16605   */\n      tag_171\n      jump\t// in\n    tag_360:\n        /* \"#utility.yul\":16532:16536   */\n      dup7\n        /* \"#utility.yul\":16525:16606   */\n      sstore\n        /* \"#utility.yul\":16394:16616   */\n      pop\n        /* \"#utility.yul\":15729:16616   */\n      jump(tag_357)\n        /* \"#utility.yul\":15759:16377   */\n    tag_358:\n        /* \"#utility.yul\":15811:15815   */\n      0x1f\n        /* \"#utility.yul\":15807:15816   */\n      not\n        /* \"#utility.yul\":15799:15805   */\n      dup5\n        /* \"#utility.yul\":15795:15817   */\n      and\n        /* \"#utility.yul\":15845:15882   */\n      tag_361\n        /* \"#utility.yul\":15877:15881   */\n      dup7\n        /* \"#utility.yul\":15845:15882   */\n      tag_157\n      jump\t// in\n    tag_361:\n        /* \"#utility.yul\":15904:15905   */\n      0x00\n        /* \"#utility.yul\":15918:16126   */\n    tag_362:\n        /* \"#utility.yul\":15932:15939   */\n      dup3\n        /* \"#utility.yul\":15929:15930   */\n      dup2\n        /* \"#utility.yul\":15926:15940   */\n      lt\n        /* \"#utility.yul\":15918:16126   */\n      iszero\n      tag_364\n      jumpi\n        /* \"#utility.yul\":16011:16020   */\n      dup5\n        /* \"#utility.yul\":16006:16009   */\n      dup10\n        /* \"#utility.yul\":16002:16021   */\n      add\n        /* \"#utility.yul\":15996:16022   */\n      mload\n        /* \"#utility.yul\":15988:15994   */\n      dup3\n        /* \"#utility.yul\":15981:16023   */\n      sstore\n        /* \"#utility.yul\":16062:16063   */\n      0x01\n        /* \"#utility.yul\":16054:16060   */\n      dup3\n        /* \"#utility.yul\":16050:16064   */\n      add\n        /* \"#utility.yul\":16040:16064   */\n      swap2\n      pop\n        /* \"#utility.yul\":16109:16111   */\n      0x20\n        /* \"#utility.yul\":16098:16107   */\n      dup6\n        /* \"#utility.yul\":16094:16112   */\n      add\n        /* \"#utility.yul\":16081:16112   */\n      swap5\n      pop\n        /* \"#utility.yul\":15955:15959   */\n      0x20\n        /* \"#utility.yul\":15952:15953   */\n      dup2\n        /* \"#utility.yul\":15948:15960   */\n      add\n        /* \"#utility.yul\":15943:15960   */\n      swap1\n      pop\n        /* \"#utility.yul\":15918:16126   */\n      jump(tag_362)\n    tag_364:\n        /* \"#utility.yul\":16154:16160   */\n      dup7\n        /* \"#utility.yul\":16145:16152   */\n      dup4\n        /* \"#utility.yul\":16142:16161   */\n      lt\n        /* \"#utility.yul\":16139:16318   */\n      iszero\n      tag_365\n      jumpi\n        /* \"#utility.yul\":16212:16221   */\n      dup5\n        /* \"#utility.yul\":16207:16210   */\n      dup10\n        /* \"#utility.yul\":16203:16222   */\n      add\n        /* \"#utility.yul\":16197:16223   */\n      mload\n        /* \"#utility.yul\":16255:16303   */\n      tag_366\n        /* \"#utility.yul\":16297:16301   */\n      0x1f\n        /* \"#utility.yul\":16289:16295   */\n      dup10\n        /* \"#utility.yul\":16285:16302   */\n      and\n        /* \"#utility.yul\":16274:16283   */\n      dup3\n        /* \"#utility.yul\":16255:16303   */\n      tag_170\n      jump\t// in\n    tag_366:\n        /* \"#utility.yul\":16247:16253   */\n      dup4\n        /* \"#utility.yul\":16240:16304   */\n      sstore\n        /* \"#utility.yul\":16162:16318   */\n      pop\n        /* \"#utility.yul\":16139:16318   */\n    tag_365:\n        /* \"#utility.yul\":16364:16365   */\n      0x01\n        /* \"#utility.yul\":16360:16361   */\n      0x02\n        /* \"#utility.yul\":16352:16358   */\n      dup9\n        /* \"#utility.yul\":16348:16362   */\n      mul\n        /* \"#utility.yul\":16344:16366   */\n      add\n        /* \"#utility.yul\":16338:16342   */\n      dup9\n        /* \"#utility.yul\":16331:16367   */\n      sstore\n        /* \"#utility.yul\":15766:16377   */\n      pop\n      pop\n      pop\n        /* \"#utility.yul\":15729:16616   */\n    tag_357:\n      pop\n        /* \"#utility.yul\":15319:16622   */\n      pop\n      pop\n      pop\n        /* \"#utility.yul\":15227:16622   */\n      pop\n      pop\n      jump\t// out\n        /* \"#utility.yul\":16628:16797   */\n    tag_172:\n        /* \"#utility.yul\":16768:16789   */\n      0x4974656d20646f6573206e6f7420657869737400000000000000000000000000\n        /* \"#utility.yul\":16764:16765   */\n      0x00\n        /* \"#utility.yul\":16756:16762   */\n      dup3\n        /* \"#utility.yul\":16752:16766   */\n      add\n        /* \"#utility.yul\":16745:16790   */\n      mstore\n        /* \"#utility.yul\":16628:16797   */\n      pop\n      jump\t// out\n        /* \"#utility.yul\":16803:17169   */\n    tag_173:\n        /* \"#utility.yul\":16945:16948   */\n      0x00\n        /* \"#utility.yul\":16966:17033   */\n      tag_369\n        /* \"#utility.yul\":17030:17032   */\n      0x13\n        /* \"#utility.yul\":17025:17028   */\n      dup4\n        /* \"#utility.yul\":16966:17033   */\n      tag_145\n      jump\t// in\n    tag_369:\n        /* \"#utility.yul\":16959:17033   */\n      swap2\n      pop\n        /* \"#utility.yul\":17042:17135   */\n      tag_370\n        /* \"#utility.yul\":17131:17134   */\n      dup3\n        /* \"#utility.yul\":17042:17135   */\n      tag_172\n      jump\t// in\n    tag_370:\n        /* \"#utility.yul\":17160:17162   */\n      0x20\n        /* \"#utility.yul\":17155:17158   */\n      dup3\n        /* \"#utility.yul\":17151:17163   */\n      add\n        /* \"#utility.yul\":17144:17163   */\n      swap1\n      pop\n        /* \"#utility.yul\":16803:17169   */\n      swap2\n      swap1\n      pop\n      jump\t// out\n        /* \"#utility.yul\":17175:17594   */\n    tag_66:\n        /* \"#utility.yul\":17341:17345   */\n      0x00\n        /* \"#utility.yul\":17379:17381   */\n      0x20\n        /* \"#utility.yul\":17368:17377   */\n      dup3\n        /* \"#utility.yul\":17364:17382   */\n      add\n        /* \"#utility.yul\":17356:17382   */\n      swap1\n      pop\n        /* \"#utility.yul\":17428:17437   */\n      dup2\n        /* \"#utility.yul\":17422:17426   */\n      dup2\n        /* \"#utility.yul\":17418:17438   */\n      sub\n        /* \"#utility.yul\":17414:17415   */\n      0x00\n        /* \"#utility.yul\":17403:17412   */\n      dup4\n        /* \"#utility.yul\":17399:17416   */\n      add\n        /* \"#utility.yul\":17392:17439   */\n      mstore\n        /* \"#utility.yul\":17456:17587   */\n      tag_372\n        /* \"#utility.yul\":17582:17586   */\n      dup2\n        /* \"#utility.yul\":17456:17587   */\n      tag_173\n      jump\t// in\n    tag_372:\n        /* \"#utility.yul\":17448:17587   */\n      swap1\n      pop\n        /* \"#utility.yul\":17175:17594   */\n      swap2\n      swap1\n      pop\n      jump\t// out\n        /* \"#utility.yul\":17600:17774   */\n    tag_174:\n        /* \"#utility.yul\":17740:17766   */\n      0x596f7520646f206e6f74206f776e2074686973206974656d0000000000000000\n        /* \"#utility.yul\":17736:17737   */\n      0x00\n        /* \"#utility.yul\":17728:17734   */\n      dup3\n        /* \"#utility.yul\":17724:17738   */\n      add\n        /* \"#utility.yul\":17717:17767   */\n      mstore\n        /* \"#utility.yul\":17600:17774   */\n      pop\n      jump\t// out\n        /* \"#utility.yul\":17780:18146   */\n    tag_175:\n        /* \"#utility.yul\":17922:17925   */\n      0x00\n        /* \"#utility.yul\":17943:18010   */\n      tag_375\n        /* \"#utility.yul\":18007:18009   */\n      0x18\n        /* \"#utility.yul\":18002:18005   */\n      dup4\n        /* \"#utility.yul\":17943:18010   */\n      tag_145\n      jump\t// in\n    tag_375:\n        /* \"#utility.yul\":17936:18010   */\n      swap2\n      pop\n        /* \"#utility.yul\":18019:18112   */\n      tag_376\n        /* \"#utility.yul\":18108:18111   */\n      dup3\n        /* \"#utility.yul\":18019:18112   */\n      tag_174\n      jump\t// in\n    tag_376:\n        /* \"#utility.yul\":18137:18139   */\n      0x20\n        /* \"#utility.yul\":18132:18135   */\n      dup3\n        /* \"#utility.yul\":18128:18140   */\n      add\n        /* \"#utility.yul\":18121:18140   */\n      swap1\n      pop\n        /* \"#utility.yul\":17780:18146   */\n      swap2\n      swap1\n      pop\n      jump\t// out\n        /* \"#utility.yul\":18152:18571   */\n    tag_69:\n        /* \"#utility.yul\":18318:18322   */\n      0x00\n        /* \"#utility.yul\":18356:18358   */\n      0x20\n        /* \"#utility.yul\":18345:18354   */\n      dup3\n        /* \"#utility.yul\":18341:18359   */\n      add\n        /* \"#utility.yul\":18333:18359   */\n      swap1\n      pop\n        /* \"#utility.yul\":18405:18414   */\n      dup2\n        /* \"#utility.yul\":18399:18403   */\n      dup2\n        /* \"#utility.yul\":18395:18415   */\n      sub\n        /* \"#utility.yul\":18391:18392   */\n      0x00\n        /* \"#utility.yul\":18380:18389   */\n      dup4\n        /* \"#utility.yul\":18376:18393   */\n      add\n        /* \"#utility.yul\":18369:18416   */\n      mstore\n        /* \"#utility.yul\":18433:18564   */\n      tag_378\n        /* \"#utility.yul\":18559:18563   */\n      dup2\n        /* \"#utility.yul\":18433:18564   */\n      tag_175\n      jump\t// in\n    tag_378:\n        /* \"#utility.yul\":18425:18564   */\n      swap1\n      pop\n        /* \"#utility.yul\":18152:18571   */\n      swap2\n      swap1\n      pop\n      jump\t// out\n        /* \"#utility.yul\":18577:18742   */\n    tag_176:\n        /* \"#utility.yul\":18717:18734   */\n      0x496e636f72726563742070726963650000000000000000000000000000000000\n        /* \"#utility.yul\":18713:18714   */\n      0x00\n        /* \"#utility.yul\":18705:18711   */\n      dup3\n        /* \"#utility.yul\":18701:18715   */\n      add\n        /* \"#utility.yul\":18694:18735   */\n      mstore\n        /* \"#utility.yul\":18577:18742   */\n      pop\n      jump\t// out\n        /* \"#utility.yul\":18748:19114   */\n    tag_177:\n        /* \"#utility.yul\":18890:18893   */\n      0x00\n        /* \"#utility.yul\":18911:18978   */\n      tag_381\n        /* \"#utility.yul\":18975:18977   */\n      0x0f\n        /* \"#utility.yul\":18970:18973   */\n      dup4\n        /* \"#utility.yul\":18911:18978   */\n      tag_145\n      jump\t// in\n    tag_381:\n        /* \"#utility.yul\":18904:18978   */\n      swap2\n      pop\n        /* \"#utility.yul\":18987:19080   */\n      tag_382\n        /* \"#utility.yul\":19076:19079   */\n      dup3\n        /* \"#utility.yul\":18987:19080   */\n      tag_176\n      jump\t// in\n    tag_382:\n        /* \"#utility.yul\":19105:19107   */\n      0x20\n        /* \"#utility.yul\":19100:19103   */\n      dup3\n        /* \"#utility.yul\":19096:19108   */\n      add\n        /* \"#utility.yul\":19089:19108   */\n      swap1\n      pop\n        /* \"#utility.yul\":18748:19114   */\n      swap2\n      swap1\n      pop\n      jump\t// out\n        /* \"#utility.yul\":19120:19539   */\n    tag_84:\n        /* \"#utility.yul\":19286:19290   */\n      0x00\n        /* \"#utility.yul\":19324:19326   */\n      0x20\n        /* \"#utility.yul\":19313:19322   */\n      dup3\n        /* \"#utility.yul\":19309:19327   */\n      add\n        /* \"#utility.yul\":19301:19327   */\n      swap1\n      pop\n        /* \"#utility.yul\":19373:19382   */\n      dup2\n        /* \"#utility.yul\":19367:19371   */\n      dup2\n        /* \"#utility.yul\":19363:19383   */\n      sub\n        /* \"#utility.yul\":19359:19360   */\n      0x00\n        /* \"#utility.yul\":19348:19357   */\n      dup4\n        /* \"#utility.yul\":19344:19361   */\n      add\n        /* \"#utility.yul\":19337:19384   */\n      mstore\n        /* \"#utility.yul\":19401:19532   */\n      tag_384\n        /* \"#utility.yul\":19527:19531   */\n      dup2\n        /* \"#utility.yul\":19401:19532   */\n      tag_177\n      jump\t// in\n    tag_384:\n        /* \"#utility.yul\":19393:19532   */\n      swap1\n      pop\n        /* \"#utility.yul\":19120:19539   */\n      swap2\n      swap1\n      pop\n      jump\t// out\n        /* \"#utility.yul\":19545:19712   */\n    tag_178:\n        /* \"#utility.yul\":19685:19704   */\n      0x4974656d20616c726561647920736f6c64000000000000000000000000000000\n        /* \"#utility.yul\":19681:19682   */\n      0x00\n        /* \"#utility.yul\":19673:19679   */\n      dup3\n        /* \"#utility.yul\":19669:19683   */\n      add\n        /* \"#utility.yul\":19662:19705   */\n      mstore\n        /* \"#utility.yul\":19545:19712   */\n      pop\n      jump\t// out\n        /* \"#utility.yul\":19718:20084   */\n    tag_179:\n        /* \"#utility.yul\":19860:19863   */\n      0x00\n        /* \"#utility.yul\":19881:19948   */\n      tag_387\n        /* \"#utility.yul\":19945:19947   */\n      0x11\n        /* \"#utility.yul\":19940:19943   */\n      dup4\n        /* \"#utility.yul\":19881:19948   */\n      tag_145\n      jump\t// in\n    tag_387:\n        /* \"#utility.yul\":19874:19948   */\n      swap2\n      pop\n        /* \"#utility.yul\":19957:20050   */\n      tag_388\n        /* \"#utility.yul\":20046:20049   */\n      dup3\n        /* \"#utility.yul\":19957:20050   */\n      tag_178\n      jump\t// in\n    tag_388:\n        /* \"#utility.yul\":20075:20077   */\n      0x20\n        /* \"#utility.yul\":20070:20073   */\n      dup3\n        /* \"#utility.yul\":20066:20078   */\n      add\n        /* \"#utility.yul\":20059:20078   */\n      swap1\n      pop\n        /* \"#utility.yul\":19718:20084   */\n      swap2\n      swap1\n      pop\n      jump\t// out\n        /* \"#utility.yul\":20090:20509   */\n    tag_87:\n        /* \"#utility.yul\":20256:20260   */\n      0x00\n        /* \"#utility.yul\":20294:20296   */\n      0x20\n        /* \"#utility.yul\":20283:20292   */\n      dup3\n        /* \"#utility.yul\":20279:20297   */\n      add\n        /* \"#utility.yul\":20271:20297   */\n      swap1\n      pop\n        /* \"#utility.yul\":20343:20352   */\n      dup2\n        /* \"#utility.yul\":20337:20341   */\n      dup2\n        /* \"#utility.yul\":20333:20353   */\n      sub\n        /* \"#utility.yul\":20329:20330   */\n      0x00\n        /* \"#utility.yul\":20318:20327   */\n      dup4\n        /* \"#utility.yul\":20314:20331   */\n      add\n        /* \"#utility.yul\":20307:20354   */\n      mstore\n        /* \"#utility.yul\":20371:20502   */\n      tag_390\n        /* \"#utility.yul\":20497:20501   */\n      dup2\n        /* \"#utility.yul\":20371:20502   */\n      tag_179\n      jump\t// in\n    tag_390:\n        /* \"#utility.yul\":20363:20502   */\n      swap1\n      pop\n        /* \"#utility.yul\":20090:20509   */\n      swap2\n      swap1\n      pop\n      jump\t// out\n        /* \"#utility.yul\":20515:20697   */\n    tag_180:\n        /* \"#utility.yul\":20655:20689   */\n      0x53656c6c65722063616e6e6f7420627579207468656972206f776e206974656d\n        /* \"#utility.yul\":20651:20652   */\n      0x00\n        /* \"#utility.yul\":20643:20649   */\n      dup3\n        /* \"#utility.yul\":20639:20653   */\n      add\n        /* \"#utility.yul\":20632:20690   */\n      mstore\n        /* \"#utility.yul\":20515:20697   */\n      pop\n      jump\t// out\n        /* \"#utility.yul\":20703:21069   */\n    tag_181:\n        /* \"#utility.yul\":20845:20848   */\n      0x00\n        /* \"#utility.yul\":20866:20933   */\n      tag_393\n        /* \"#utility.yul\":20930:20932   */\n      0x20\n        /* \"#utility.yul\":20925:20928   */\n      dup4\n        /* \"#utility.yul\":20866:20933   */\n      tag_145\n      jump\t// in\n    tag_393:\n        /* \"#utility.yul\":20859:20933   */\n      swap2\n      pop\n        /* \"#utility.yul\":20942:21035   */\n      tag_394\n        /* \"#utility.yul\":21031:21034   */\n      dup3\n        /* \"#utility.yul\":20942:21035   */\n      tag_180\n      jump\t// in\n    tag_394:\n        /* \"#utility.yul\":21060:21062   */\n      0x20\n        /* \"#utility.yul\":21055:21058   */\n      dup3\n        /* \"#utility.yul\":21051:21063   */\n      add\n        /* \"#utility.yul\":21044:21063   */\n      swap1\n      pop\n        /* \"#utility.yul\":20703:21069   */\n      swap2\n      swap1\n      pop\n      jump\t// out\n        /* \"#utility.yul\":21075:21494   */\n    tag_90:\n        /* \"#utility.yul\":21241:21245   */\n      0x00\n        /* \"#utility.yul\":21279:21281   */\n      0x20\n        /* \"#utility.yul\":21268:21277   */\n      dup3\n        /* \"#utility.yul\":21264:21282   */\n      add\n        /* \"#utility.yul\":21256:21282   */\n      swap1\n      pop\n        /* \"#utility.yul\":21328:21337   */\n      dup2\n        /* \"#utility.yul\":21322:21326   */\n      dup2\n        /* \"#utility.yul\":21318:21338   */\n      sub\n        /* \"#utility.yul\":21314:21315   */\n      0x00\n        /* \"#utility.yul\":21303:21312   */\n      dup4\n        /* \"#utility.yul\":21299:21316   */\n      add\n        /* \"#utility.yul\":21292:21339   */\n      mstore\n        /* \"#utility.yul\":21356:21487   */\n      tag_396\n        /* \"#utility.yul\":21482:21486   */\n      dup2\n        /* \"#utility.yul\":21356:21487   */\n      tag_181\n      jump\t// in\n    tag_396:\n        /* \"#utility.yul\":21348:21487   */\n      swap1\n      pop\n        /* \"#utility.yul\":21075:21494   */\n      swap2\n      swap1\n      pop\n      jump\t// out\n        /* \"#utility.yul\":21500:21680   */\n    tag_100:\n        /* \"#utility.yul\":21548:21625   */\n      0x4e487b7100000000000000000000000000000000000000000000000000000000\n        /* \"#utility.yul\":21545:21546   */\n      0x00\n        /* \"#utility.yul\":21538:21626   */\n      mstore\n        /* \"#utility.yul\":21645:21649   */\n      0x32\n        /* \"#utility.yul\":21642:21643   */\n      0x04\n        /* \"#utility.yul\":21635:21650   */\n      mstore\n        /* \"#utility.yul\":21669:21673   */\n      0x24\n        /* \"#utility.yul\":21666:21667   */\n      0x00\n        /* \"#utility.yul\":21659:21674   */\n      revert\n        /* \"#utility.yul\":21686:21880   */\n    tag_104:\n        /* \"#utility.yul\":21726:21730   */\n      0x00\n        /* \"#utility.yul\":21746:21766   */\n      tag_399\n        /* \"#utility.yul\":21764:21765   */\n      dup3\n        /* \"#utility.yul\":21746:21766   */\n      tag_126\n      jump\t// in\n    tag_399:\n        /* \"#utility.yul\":21741:21766   */\n      swap2\n      pop\n        /* \"#utility.yul\":21780:21800   */\n      tag_400\n        /* \"#utility.yul\":21798:21799   */\n      dup4\n        /* \"#utility.yul\":21780:21800   */\n      tag_126\n      jump\t// in\n    tag_400:\n        /* \"#utility.yul\":21775:21800   */\n      swap3\n      pop\n        /* \"#utility.yul\":21824:21825   */\n      dup3\n        /* \"#utility.yul\":21821:21822   */\n      dup3\n        /* \"#utility.yul\":21817:21826   */\n      sub\n        /* \"#utility.yul\":21809:21826   */\n      swap1\n      pop\n        /* \"#utility.yul\":21848:21849   */\n      dup2\n        /* \"#utility.yul\":21842:21846   */\n      dup2\n        /* \"#utility.yul\":21839:21850   */\n      gt\n        /* \"#utility.yul\":21836:21873   */\n      iszero\n      tag_401\n      jumpi\n        /* \"#utility.yul\":21853:21871   */\n      tag_402\n      tag_155\n      jump\t// in\n    tag_402:\n        /* \"#utility.yul\":21836:21873   */\n    tag_401:\n        /* \"#utility.yul\":21686:21880   */\n      swap3\n      swap2\n      pop\n      pop\n      jump\t// out\n        /* \"#utility.yul\":21886:22066   */\n    tag_113:\n        /* \"#utility.yul\":21934:22011   */\n      0x4e487b7100000000000000000000000000000000000000000000000000000000\n        /* \"#utility.yul\":21931:21932   */\n      0x00\n        /* \"#utility.yul\":21924:22012   */\n      mstore\n        /* \"#utility.yul\":22031:22035   */\n      0x31\n        /* \"#utility.yul\":22028:22029   */\n      0x04\n        /* \"#utility.yul\":22021:22036   */\n      mstore\n        /* \"#utility.yul\":22055:22059   */\n      0x24\n        /* \"#utility.yul\":22052:22053   */\n      0x00\n        /* \"#utility.yul\":22045:22060   */\n      revert\n\n    auxdata: 0xa26469706673582212208da5a752374891e6bf5452e13fc8060d8e536b84add3d5ca2a310b1ba9f36b7964736f6c634300081a0033\n}\n",
				"bytecode": {
					"linkReferences": {},
					"object": "60806040525f80553480156011575f80fd5b5061160b8061001f5f395ff3fe60806040526004361061006f575f3560e01c80638511c9371161004d5780638511c93714610115578063a42291011461013d578063bfb231d214610165578063d38ea5bf146101a65761006f565b80632c67a8e51461007357806342846534146100af5780636bfb0d01146100eb575b5f80fd5b34801561007e575f80fd5b5061009960048036038101906100949190610af2565b6101c2565b6040516100a69190610bdd565b60405180910390f35b3480156100ba575f80fd5b506100d560048036038101906100d09190610c27565b610255565b6040516100e29190610c74565b60405180910390f35b3480156100f6575f80fd5b506100ff610280565b60405161010c9190610c74565b60405180910390f35b348015610120575f80fd5b5061013b60048036038101906101369190610dc9565b610285565b005b348015610148575f80fd5b50610163600480360381019061015e9190610e23565b610488565b005b348015610170575f80fd5b5061018b60048036038101906101869190610e61565b61058c565b60405161019d96959493929190610f35565b60405180910390f35b6101c060048036038101906101bb9190610e61565b610695565b005b606060025f8373ffffffffffffffffffffffffffffffffffffffff1673ffffffffffffffffffffffffffffffffffffffff1681526020019081526020015f2080548060200260200160405190810160405280929190818152602001828054801561024957602002820191905f5260205f20905b815481526020019060010190808311610235575b50505050509050919050565b6002602052815f5260405f20818154811061026e575f80fd5b905f5260205f20015f91509150505481565b5f5481565b5f81116102c7576040517f08c379a00000000000000000000000000000000000000000000000000000000081526004016102be90610fe5565b60405180910390fd5b5f808154809291906102d890611030565b91905055506040518060c001604052805f5481526020018381526020018281526020013373ffffffffffffffffffffffffffffffffffffffff1681526020013373ffffffffffffffffffffffffffffffffffffffff1681526020015f151581525060015f805481526020019081526020015f205f820151815f015560208201518160010190816103689190611271565b50604082015181600201556060820151816003015f6101000a81548173ffffffffffffffffffffffffffffffffffffffff021916908373ffffffffffffffffffffffffffffffffffffffff1602179055506080820151816004015f6101000a81548173ffffffffffffffffffffffffffffffffffffffff021916908373ffffffffffffffffffffffffffffffffffffffff16021790555060a08201518160040160146101000a81548160ff02191690831515021790555090505060025f3373ffffffffffffffffffffffffffffffffffffffff1673ffffffffffffffffffffffffffffffffffffffff1681526020019081526020015f205f54908060018154018082558091505060019003905f5260205f20015f90919091909150555050565b5f60015f8481526020019081526020015f2090505f831180156104ac57505f548311155b6104eb576040517f08c379a00000000000000000000000000000000000000000000000000000000081526004016104e29061138a565b60405180910390fd5b806004015f9054906101000a900473ffffffffffffffffffffffffffffffffffffffff1673ffffffffffffffffffffffffffffffffffffffff163373ffffffffffffffffffffffffffffffffffffffff161461057c576040517f08c379a0000000000000000000000000000000000000000000000000000000008152600401610573906113f2565b60405180910390fd5b6105878333846108d7565b505050565b6001602052805f5260405f205f91509050805f0154908060010180546105b1906110a4565b80601f01602080910402602001604051908101604052809291908181526020018280546105dd906110a4565b80156106285780601f106105ff57610100808354040283529160200191610628565b820191905f5260205f20905b81548152906001019060200180831161060b57829003601f168201915b505050505090806002015490806003015f9054906101000a900473ffffffffffffffffffffffffffffffffffffffff1690806004015f9054906101000a900473ffffffffffffffffffffffffffffffffffffffff16908060040160149054906101000a900460ff16905086565b5f60015f8381526020019081526020015f2090505f821180156106b957505f548211155b6106f8576040517f08c379a00000000000000000000000000000000000000000000000000000000081526004016106ef9061138a565b60405180910390fd5b8060020154341461073e576040517f08c379a00000000000000000000000000000000000000000000000000000000081526004016107359061145a565b60405180910390fd5b8060040160149054906101000a900460ff1615610790576040517f08c379a0000000000000000000000000000000000000000000000000000000008152600401610787906114c2565b60405180910390fd5b806003015f9054906101000a900473ffffffffffffffffffffffffffffffffffffffff1673ffffffffffffffffffffffffffffffffffffffff163373ffffffffffffffffffffffffffffffffffffffff1603610821576040517f08c379a00000000000000000000000000000000000000000000000000000000081526004016108189061152a565b60405180910390fd5b60018160040160146101000a81548160ff021916908315150217905550806003015f9054906101000a900473ffffffffffffffffffffffffffffffffffffffff1673ffffffffffffffffffffffffffffffffffffffff166108fc3490811502906040515f60405180830381858888f193505050501580156108a4573d5f803e3d5ffd5b506108d382826003015f9054906101000a900473ffffffffffffffffffffffffffffffffffffffff16336108d7565b5050565b5f60015f8581526020019081526020015f20905081816004015f6101000a81548173ffffffffffffffffffffffffffffffffffffffff021916908373ffffffffffffffffffffffffffffffffffffffff1602179055505f60025f8573ffffffffffffffffffffffffffffffffffffffff1673ffffffffffffffffffffffffffffffffffffffff1681526020019081526020015f2090505f5b8180549050811015610a1e578582828154811061098f5761098e611548565b5b905f5260205f20015403610a115781600183805490506109af9190611575565b815481106109c0576109bf611548565b5b905f5260205f2001548282815481106109dc576109db611548565b5b905f5260205f200181905550818054806109f9576109f86115a8565b5b600190038181905f5260205f20015f90559055610a1e565b808060010191505061096f565b5060025f8473ffffffffffffffffffffffffffffffffffffffff1673ffffffffffffffffffffffffffffffffffffffff1681526020019081526020015f2085908060018154018082558091505060019003905f5260205f20015f90919091909150555050505050565b5f604051905090565b5f80fd5b5f80fd5b5f73ffffffffffffffffffffffffffffffffffffffff82169050919050565b5f610ac182610a98565b9050919050565b610ad181610ab7565b8114610adb575f80fd5b50565b5f81359050610aec81610ac8565b92915050565b5f60208284031215610b0757610b06610a90565b5b5f610b1484828501610ade565b91505092915050565b5f81519050919050565b5f82825260208201905092915050565b5f819050602082019050919050565b5f819050919050565b610b5881610b46565b82525050565b5f610b698383610b4f565b60208301905092915050565b5f602082019050919050565b5f610b8b82610b1d565b610b958185610b27565b9350610ba083610b37565b805f5b83811015610bd0578151610bb78882610b5e565b9750610bc283610b75565b925050600181019050610ba3565b5085935050505092915050565b5f6020820190508181035f830152610bf58184610b81565b905092915050565b610c0681610b46565b8114610c10575f80fd5b50565b5f81359050610c2181610bfd565b92915050565b5f8060408385031215610c3d57610c3c610a90565b5b5f610c4a85828601610ade565b9250506020610c5b85828601610c13565b9150509250929050565b610c6e81610b46565b82525050565b5f602082019050610c875f830184610c65565b92915050565b5f80fd5b5f80fd5b5f601f19601f8301169050919050565b7f4e487b71000000000000000000000000000000000000000000000000000000005f52604160045260245ffd5b610cdb82610c95565b810181811067ffffffffffffffff82111715610cfa57610cf9610ca5565b5b80604052505050565b5f610d0c610a87565b9050610d188282610cd2565b919050565b5f67ffffffffffffffff821115610d3757610d36610ca5565b5b610d4082610c95565b9050602081019050919050565b828183375f83830152505050565b5f610d6d610d6884610d1d565b610d03565b905082815260208101848484011115610d8957610d88610c91565b5b610d94848285610d4d565b509392505050565b5f82601f830112610db057610daf610c8d565b5b8135610dc0848260208601610d5b565b91505092915050565b5f8060408385031215610ddf57610dde610a90565b5b5f83013567ffffffffffffffff811115610dfc57610dfb610a94565b5b610e0885828601610d9c565b9250506020610e1985828601610c13565b9150509250929050565b5f8060408385031215610e3957610e38610a90565b5b5f610e4685828601610c13565b9250506020610e5785828601610ade565b9150509250929050565b5f60208284031215610e7657610e75610a90565b5b5f610e8384828501610c13565b91505092915050565b5f81519050919050565b5f82825260208201905092915050565b8281835e5f83830152505050565b5f610ebe82610e8c565b610ec88185610e96565b9350610ed8818560208601610ea6565b610ee181610c95565b840191505092915050565b5f610ef682610a98565b9050919050565b610f0681610eec565b82525050565b610f1581610ab7565b82525050565b5f8115159050919050565b610f2f81610f1b565b82525050565b5f60c082019050610f485f830189610c65565b8181036020830152610f5a8188610eb4565b9050610f696040830187610c65565b610f766060830186610efd565b610f836080830185610f0c565b610f9060a0830184610f26565b979650505050505050565b7f5072696365206d7573742062652067726561746572207468616e207a65726f005f82015250565b5f610fcf601f83610e96565b9150610fda82610f9b565b602082019050919050565b5f6020820190508181035f830152610ffc81610fc3565b9050919050565b7f4e487b71000000000000000000000000000000000000000000000000000000005f52601160045260245ffd5b5f61103a82610b46565b91507fffffffffffffffffffffffffffffffffffffffffffffffffffffffffffffffff820361106c5761106b611003565b5b600182019050919050565b7f4e487b71000000000000000000000000000000000000000000000000000000005f52602260045260245ffd5b5f60028204905060018216806110bb57607f821691505b6020821081036110ce576110cd611077565b5b50919050565b5f819050815f5260205f209050919050565b5f6020601f8301049050919050565b5f82821b905092915050565b5f600883026111307fffffffffffffffffffffffffffffffffffffffffffffffffffffffffffffffff826110f5565b61113a86836110f5565b95508019841693508086168417925050509392505050565b5f819050919050565b5f61117561117061116b84610b46565b611152565b610b46565b9050919050565b5f819050919050565b61118e8361115b565b6111a261119a8261117c565b848454611101565b825550505050565b5f90565b6111b66111aa565b6111c1818484611185565b505050565b5b818110156111e4576111d95f826111ae565b6001810190506111c7565b5050565b601f821115611229576111fa816110d4565b611203846110e6565b81016020851015611212578190505b61122661121e856110e6565b8301826111c6565b50505b505050565b5f82821c905092915050565b5f6112495f198460080261122e565b1980831691505092915050565b5f611261838361123a565b9150826002028217905092915050565b61127a82610e8c565b67ffffffffffffffff81111561129357611292610ca5565b5b61129d82546110a4565b6112a88282856111e8565b5f60209050601f8311600181146112d9575f84156112c7578287015190505b6112d18582611256565b865550611338565b601f1984166112e7866110d4565b5f5b8281101561130e578489015182556001820191506020850194506020810190506112e9565b8683101561132b5784890151611327601f89168261123a565b8355505b6001600288020188555050505b505050505050565b7f4974656d20646f6573206e6f74206578697374000000000000000000000000005f82015250565b5f611374601383610e96565b915061137f82611340565b602082019050919050565b5f6020820190508181035f8301526113a181611368565b9050919050565b7f596f7520646f206e6f74206f776e2074686973206974656d00000000000000005f82015250565b5f6113dc601883610e96565b91506113e7826113a8565b602082019050919050565b5f6020820190508181035f830152611409816113d0565b9050919050565b7f496e636f727265637420707269636500000000000000000000000000000000005f82015250565b5f611444600f83610e96565b915061144f82611410565b602082019050919050565b5f6020820190508181035f83015261147181611438565b9050919050565b7f4974656d20616c726561647920736f6c640000000000000000000000000000005f82015250565b5f6114ac601183610e96565b91506114b782611478565b602082019050919050565b5f6020820190508181035f8301526114d9816114a0565b9050919050565b7f53656c6c65722063616e6e6f7420627579207468656972206f776e206974656d5f82015250565b5f611514602083610e96565b915061151f826114e0565b602082019050919050565b5f6020820190508181035f83015261154181611508565b9050919050565b7f4e487b71000000000000000000000000000000000000000000000000000000005f52603260045260245ffd5b5f61157f82610b46565b915061158a83610b46565b92508282039050818111156115a2576115a1611003565b5b92915050565b7f4e487b71000000000000000000000000000000000000000000000000000000005f52603160045260245ffdfea26469706673582212208da5a752374891e6bf5452e13fc8060d8e536b84add3d5ca2a310b1ba9f36b7964736f6c634300081a0033",
					"opcodes": "PUSH1 0x80 PUSH1 0x40 MSTORE PUSH0 DUP1 SSTORE CALLVALUE DUP1 ISZERO PUSH1 0x11 JUMPI PUSH0 DUP1 REVERT JUMPDEST POP PUSH2 0x160B DUP1 PUSH2 0x1F PUSH0 CODECOPY PUSH0 RETURN INVALID PUSH1 0x80 PUSH1 0x40 MSTORE PUSH1 0x4 CALLDATASIZE LT PUSH2 0x6F JUMPI PUSH0 CALLDATALOAD PUSH1 0xE0 SHR DUP1 PUSH4 0x8511C937 GT PUSH2 0x4D JUMPI DUP1 PUSH4 0x8511C937 EQ PUSH2 0x115 JUMPI DUP1 PUSH4 0xA4229101 EQ PUSH2 0x13D JUMPI DUP1 PUSH4 0xBFB231D2 EQ PUSH2 0x165 JUMPI DUP1 PUSH4 0xD38EA5BF EQ PUSH2 0x1A6 JUMPI PUSH2 0x6F JUMP JUMPDEST DUP1 PUSH4 0x2C67A8E5 EQ PUSH2 0x73 JUMPI DUP1 PUSH4 0x42846534 EQ PUSH2 0xAF JUMPI DUP1 PUSH4 0x6BFB0D01 EQ PUSH2 0xEB JUMPI JUMPDEST PUSH0 DUP1 REVERT JUMPDEST CALLVALUE DUP1 ISZERO PUSH2 0x7E JUMPI PUSH0 DUP1 REVERT JUMPDEST POP PUSH2 0x99 PUSH1 0x4 DUP1 CALLDATASIZE SUB DUP2 ADD SWAP1 PUSH2 0x94 SWAP2 SWAP1 PUSH2 0xAF2 JUMP JUMPDEST PUSH2 0x1C2 JUMP JUMPDEST PUSH1 0x40 MLOAD PUSH2 0xA6 SWAP2 SWAP1 PUSH2 0xBDD JUMP JUMPDEST PUSH1 0x40 MLOAD DUP1 SWAP2 SUB SWAP1 RETURN JUMPDEST CALLVALUE DUP1 ISZERO PUSH2 0xBA JUMPI PUSH0 DUP1 REVERT JUMPDEST POP PUSH2 0xD5 PUSH1 0x4 DUP1 CALLDATASIZE SUB DUP2 ADD SWAP1 PUSH2 0xD0 SWAP2 SWAP1 PUSH2 0xC27 JUMP JUMPDEST PUSH2 0x255 JUMP JUMPDEST PUSH1 0x40 MLOAD PUSH2 0xE2 SWAP2 SWAP1 PUSH2 0xC74 JUMP JUMPDEST PUSH1 0x40 MLOAD DUP1 SWAP2 SUB SWAP1 RETURN JUMPDEST CALLVALUE DUP1 ISZERO PUSH2 0xF6 JUMPI PUSH0 DUP1 REVERT JUMPDEST POP PUSH2 0xFF PUSH2 0x280 JUMP JUMPDEST PUSH1 0x40 MLOAD PUSH2 0x10C SWAP2 SWAP1 PUSH2 0xC74 JUMP JUMPDEST PUSH1 0x40 MLOAD DUP1 SWAP2 SUB SWAP1 RETURN JUMPDEST CALLVALUE DUP1 ISZERO PUSH2 0x120 JUMPI PUSH0 DUP1 REVERT JUMPDEST POP PUSH2 0x13B PUSH1 0x4 DUP1 CALLDATASIZE SUB DUP2 ADD SWAP1 PUSH2 0x136 SWAP2 SWAP1 PUSH2 0xDC9 JUMP JUMPDEST PUSH2 0x285 JUMP JUMPDEST STOP JUMPDEST CALLVALUE DUP1 ISZERO PUSH2 0x148 JUMPI PUSH0 DUP1 REVERT JUMPDEST POP PUSH2 0x163 PUSH1 0x4 DUP1 CALLDATASIZE SUB DUP2 ADD SWAP1 PUSH2 0x15E SWAP2 SWAP1 PUSH2 0xE23 JUMP JUMPDEST PUSH2 0x488 JUMP JUMPDEST STOP JUMPDEST CALLVALUE DUP1 ISZERO PUSH2 0x170 JUMPI PUSH0 DUP1 REVERT JUMPDEST POP PUSH2 0x18B PUSH1 0x4 DUP1 CALLDATASIZE SUB DUP2 ADD SWAP1 PUSH2 0x186 SWAP2 SWAP1 PUSH2 0xE61 JUMP JUMPDEST PUSH2 0x58C JUMP JUMPDEST PUSH1 0x40 MLOAD PUSH2 0x19D SWAP7 SWAP6 SWAP5 SWAP4 SWAP3 SWAP2 SWAP1 PUSH2 0xF35 JUMP JUMPDEST PUSH1 0x40 MLOAD DUP1 SWAP2 SUB SWAP1 RETURN JUMPDEST PUSH2 0x1C0 PUSH1 0x4 DUP1 CALLDATASIZE SUB DUP2 ADD SWAP1 PUSH2 0x1BB SWAP2 SWAP1 PUSH2 0xE61 JUMP JUMPDEST PUSH2 0x695 JUMP JUMPDEST STOP JUMPDEST PUSH1 0x60 PUSH1 0x2 PUSH0 DUP4 PUSH20 0xFFFFFFFFFFFFFFFFFFFFFFFFFFFFFFFFFFFFFFFF AND PUSH20 0xFFFFFFFFFFFFFFFFFFFFFFFFFFFFFFFFFFFFFFFF AND DUP2 MSTORE PUSH1 0x20 ADD SWAP1 DUP2 MSTORE PUSH1 0x20 ADD PUSH0 KECCAK256 DUP1 SLOAD DUP1 PUSH1 0x20 MUL PUSH1 0x20 ADD PUSH1 0x40 MLOAD SWAP1 DUP2 ADD PUSH1 0x40 MSTORE DUP1 SWAP3 SWAP2 SWAP1 DUP2 DUP2 MSTORE PUSH1 0x20 ADD DUP3 DUP1 SLOAD DUP1 ISZERO PUSH2 0x249 JUMPI PUSH1 0x20 MUL DUP3 ADD SWAP2 SWAP1 PUSH0 MSTORE PUSH1 0x20 PUSH0 KECCAK256 SWAP1 JUMPDEST DUP2 SLOAD DUP2 MSTORE PUSH1 0x20 ADD SWAP1 PUSH1 0x1 ADD SWAP1 DUP1 DUP4 GT PUSH2 0x235 JUMPI JUMPDEST POP POP POP POP POP SWAP1 POP SWAP2 SWAP1 POP JUMP JUMPDEST PUSH1 0x2 PUSH1 0x20 MSTORE DUP2 PUSH0 MSTORE PUSH1 0x40 PUSH0 KECCAK256 DUP2 DUP2 SLOAD DUP2 LT PUSH2 0x26E JUMPI PUSH0 DUP1 REVERT JUMPDEST SWAP1 PUSH0 MSTORE PUSH1 0x20 PUSH0 KECCAK256 ADD PUSH0 SWAP2 POP SWAP2 POP POP SLOAD DUP2 JUMP JUMPDEST PUSH0 SLOAD DUP2 JUMP JUMPDEST PUSH0 DUP2 GT PUSH2 0x2C7 JUMPI PUSH1 0x40 MLOAD PUSH32 0x8C379A000000000000000000000000000000000000000000000000000000000 DUP2 MSTORE PUSH1 0x4 ADD PUSH2 0x2BE SWAP1 PUSH2 0xFE5 JUMP JUMPDEST PUSH1 0x40 MLOAD DUP1 SWAP2 SUB SWAP1 REVERT JUMPDEST PUSH0 DUP1 DUP2 SLOAD DUP1 SWAP3 SWAP2 SWAP1 PUSH2 0x2D8 SWAP1 PUSH2 0x1030 JUMP JUMPDEST SWAP2 SWAP1 POP SSTORE POP PUSH1 0x40 MLOAD DUP1 PUSH1 0xC0 ADD PUSH1 0x40 MSTORE DUP1 PUSH0 SLOAD DUP2 MSTORE PUSH1 0x20 ADD DUP4 DUP2 MSTORE PUSH1 0x20 ADD DUP3 DUP2 MSTORE PUSH1 0x20 ADD CALLER PUSH20 0xFFFFFFFFFFFFFFFFFFFFFFFFFFFFFFFFFFFFFFFF AND DUP2 MSTORE PUSH1 0x20 ADD CALLER PUSH20 0xFFFFFFFFFFFFFFFFFFFFFFFFFFFFFFFFFFFFFFFF AND DUP2 MSTORE PUSH1 0x20 ADD PUSH0 ISZERO ISZERO DUP2 MSTORE POP PUSH1 0x1 PUSH0 DUP1 SLOAD DUP2 MSTORE PUSH1 0x20 ADD SWAP1 DUP2 MSTORE PUSH1 0x20 ADD PUSH0 KECCAK256 PUSH0 DUP3 ADD MLOAD DUP2 PUSH0 ADD SSTORE PUSH1 0x20 DUP3 ADD MLOAD DUP2 PUSH1 0x1 ADD SWAP1 DUP2 PUSH2 0x368 SWAP2 SWAP1 PUSH2 0x1271 JUMP JUMPDEST POP PUSH1 0x40 DUP3 ADD MLOAD DUP2 PUSH1 0x2 ADD SSTORE PUSH1 0x60 DUP3 ADD MLOAD DUP2 PUSH1 0x3 ADD PUSH0 PUSH2 0x100 EXP DUP2 SLOAD DUP2 PUSH20 0xFFFFFFFFFFFFFFFFFFFFFFFFFFFFFFFFFFFFFFFF MUL NOT AND SWAP1 DUP4 PUSH20 0xFFFFFFFFFFFFFFFFFFFFFFFFFFFFFFFFFFFFFFFF AND MUL OR SWAP1 SSTORE POP PUSH1 0x80 DUP3 ADD MLOAD DUP2 PUSH1 0x4 ADD PUSH0 PUSH2 0x100 EXP DUP2 SLOAD DUP2 PUSH20 0xFFFFFFFFFFFFFFFFFFFFFFFFFFFFFFFFFFFFFFFF MUL NOT AND SWAP1 DUP4 PUSH20 0xFFFFFFFFFFFFFFFFFFFFFFFFFFFFFFFFFFFFFFFF AND MUL OR SWAP1 SSTORE POP PUSH1 0xA0 DUP3 ADD MLOAD DUP2 PUSH1 0x4 ADD PUSH1 0x14 PUSH2 0x100 EXP DUP2 SLOAD DUP2 PUSH1 0xFF MUL NOT AND SWAP1 DUP4 ISZERO ISZERO MUL OR SWAP1 SSTORE POP SWAP1 POP POP PUSH1 0x2 PUSH0 CALLER PUSH20 0xFFFFFFFFFFFFFFFFFFFFFFFFFFFFFFFFFFFFFFFF AND PUSH20 0xFFFFFFFFFFFFFFFFFFFFFFFFFFFFFFFFFFFFFFFF AND DUP2 MSTORE PUSH1 0x20 ADD SWAP1 DUP2 MSTORE PUSH1 0x20 ADD PUSH0 KECCAK256 PUSH0 SLOAD SWAP1 DUP1 PUSH1 0x1 DUP2 SLOAD ADD DUP1 DUP3 SSTORE DUP1 SWAP2 POP POP PUSH1 0x1 SWAP1 SUB SWAP1 PUSH0 MSTORE PUSH1 0x20 PUSH0 KECCAK256 ADD PUSH0 SWAP1 SWAP2 SWAP1 SWAP2 SWAP1 SWAP2 POP SSTORE POP POP JUMP JUMPDEST PUSH0 PUSH1 0x1 PUSH0 DUP5 DUP2 MSTORE PUSH1 0x20 ADD SWAP1 DUP2 MSTORE PUSH1 0x20 ADD PUSH0 KECCAK256 SWAP1 POP PUSH0 DUP4 GT DUP1 ISZERO PUSH2 0x4AC JUMPI POP PUSH0 SLOAD DUP4 GT ISZERO JUMPDEST PUSH2 0x4EB JUMPI PUSH1 0x40 MLOAD PUSH32 0x8C379A000000000000000000000000000000000000000000000000000000000 DUP2 MSTORE PUSH1 0x4 ADD PUSH2 0x4E2 SWAP1 PUSH2 0x138A JUMP JUMPDEST PUSH1 0x40 MLOAD DUP1 SWAP2 SUB SWAP1 REVERT JUMPDEST DUP1 PUSH1 0x4 ADD PUSH0 SWAP1 SLOAD SWAP1 PUSH2 0x100 EXP SWAP1 DIV PUSH20 0xFFFFFFFFFFFFFFFFFFFFFFFFFFFFFFFFFFFFFFFF AND PUSH20 0xFFFFFFFFFFFFFFFFFFFFFFFFFFFFFFFFFFFFFFFF AND CALLER PUSH20 0xFFFFFFFFFFFFFFFFFFFFFFFFFFFFFFFFFFFFFFFF AND EQ PUSH2 0x57C JUMPI PUSH1 0x40 MLOAD PUSH32 0x8C379A000000000000000000000000000000000000000000000000000000000 DUP2 MSTORE PUSH1 0x4 ADD PUSH2 0x573 SWAP1 PUSH2 0x13F2 JUMP JUMPDEST PUSH1 0x40 MLOAD DUP1 SWAP2 SUB SWAP1 REVERT JUMPDEST PUSH2 0x587 DUP4 CALLER DUP5 PUSH2 0x8D7 JUMP JUMPDEST POP POP POP JUMP JUMPDEST PUSH1 0x1 PUSH1 0x20 MSTORE DUP1 PUSH0 MSTORE PUSH1 0x40 PUSH0 KECCAK256 PUSH0 SWAP2 POP SWAP1 POP DUP1 PUSH0 ADD SLOAD SWAP1 DUP1 PUSH1 0x1 ADD DUP1 SLOAD PUSH2 0x5B1 SWAP1 PUSH2 0x10A4 JUMP JUMPDEST DUP1 PUSH1 0x1F ADD PUSH1 0x20 DUP1 SWAP2 DIV MUL PUSH1 0x20 ADD PUSH1 0x40 MLOAD SWAP1 DUP2 ADD PUSH1 0x40 MSTORE DUP1 SWAP3 SWAP2 SWAP1 DUP2 DUP2 MSTORE PUSH1 0x20 ADD DUP3 DUP1 SLOAD PUSH2 0x5DD SWAP1 PUSH2 0x10A4 JUMP JUMPDEST DUP1 ISZERO PUSH2 0x628 JUMPI DUP1 PUSH1 0x1F LT PUSH2 0x5FF JUMPI PUSH2 0x100 DUP1 DUP4 SLOAD DIV MUL DUP4 MSTORE SWAP2 PUSH1 0x20 ADD SWAP2 PUSH2 0x628 JUMP JUMPDEST DUP3 ADD SWAP2 SWAP1 PUSH0 MSTORE PUSH1 0x20 PUSH0 KECCAK256 SWAP1 JUMPDEST DUP2 SLOAD DUP2 MSTORE SWAP1 PUSH1 0x1 ADD SWAP1 PUSH1 0x20 ADD DUP1 DUP4 GT PUSH2 0x60B JUMPI DUP3 SWAP1 SUB PUSH1 0x1F AND DUP3 ADD SWAP2 JUMPDEST POP POP POP POP POP SWAP1 DUP1 PUSH1 0x2 ADD SLOAD SWAP1 DUP1 PUSH1 0x3 ADD PUSH0 SWAP1 SLOAD SWAP1 PUSH2 0x100 EXP SWAP1 DIV PUSH20 0xFFFFFFFFFFFFFFFFFFFFFFFFFFFFFFFFFFFFFFFF AND SWAP1 DUP1 PUSH1 0x4 ADD PUSH0 SWAP1 SLOAD SWAP1 PUSH2 0x100 EXP SWAP1 DIV PUSH20 0xFFFFFFFFFFFFFFFFFFFFFFFFFFFFFFFFFFFFFFFF AND SWAP1 DUP1 PUSH1 0x4 ADD PUSH1 0x14 SWAP1 SLOAD SWAP1 PUSH2 0x100 EXP SWAP1 DIV PUSH1 0xFF AND SWAP1 POP DUP7 JUMP JUMPDEST PUSH0 PUSH1 0x1 PUSH0 DUP4 DUP2 MSTORE PUSH1 0x20 ADD SWAP1 DUP2 MSTORE PUSH1 0x20 ADD PUSH0 KECCAK256 SWAP1 POP PUSH0 DUP3 GT DUP1 ISZERO PUSH2 0x6B9 JUMPI POP PUSH0 SLOAD DUP3 GT ISZERO JUMPDEST PUSH2 0x6F8 JUMPI PUSH1 0x40 MLOAD PUSH32 0x8C379A000000000000000000000000000000000000000000000000000000000 DUP2 MSTORE PUSH1 0x4 ADD PUSH2 0x6EF SWAP1 PUSH2 0x138A JUMP JUMPDEST PUSH1 0x40 MLOAD DUP1 SWAP2 SUB SWAP1 REVERT JUMPDEST DUP1 PUSH1 0x2 ADD SLOAD CALLVALUE EQ PUSH2 0x73E JUMPI PUSH1 0x40 MLOAD PUSH32 0x8C379A000000000000000000000000000000000000000000000000000000000 DUP2 MSTORE PUSH1 0x4 ADD PUSH2 0x735 SWAP1 PUSH2 0x145A JUMP JUMPDEST PUSH1 0x40 MLOAD DUP1 SWAP2 SUB SWAP1 REVERT JUMPDEST DUP1 PUSH1 0x4 ADD PUSH1 0x14 SWAP1 SLOAD SWAP1 PUSH2 0x100 EXP SWAP1 DIV PUSH1 0xFF AND ISZERO PUSH2 0x790 JUMPI PUSH1 0x40 MLOAD PUSH32 0x8C379A000000000000000000000000000000000000000000000000000000000 DUP2 MSTORE PUSH1 0x4 ADD PUSH2 0x787 SWAP1 PUSH2 0x14C2 JUMP JUMPDEST PUSH1 0x40 MLOAD DUP1 SWAP2 SUB SWAP1 REVERT JUMPDEST DUP1 PUSH1 0x3 ADD PUSH0 SWAP1 SLOAD SWAP1 PUSH2 0x100 EXP SWAP1 DIV PUSH20 0xFFFFFFFFFFFFFFFFFFFFFFFFFFFFFFFFFFFFFFFF AND PUSH20 0xFFFFFFFFFFFFFFFFFFFFFFFFFFFFFFFFFFFFFFFF AND CALLER PUSH20 0xFFFFFFFFFFFFFFFFFFFFFFFFFFFFFFFFFFFFFFFF AND SUB PUSH2 0x821 JUMPI PUSH1 0x40 MLOAD PUSH32 0x8C379A000000000000000000000000000000000000000000000000000000000 DUP2 MSTORE PUSH1 0x4 ADD PUSH2 0x818 SWAP1 PUSH2 0x152A JUMP JUMPDEST PUSH1 0x40 MLOAD DUP1 SWAP2 SUB SWAP1 REVERT JUMPDEST PUSH1 0x1 DUP2 PUSH1 0x4 ADD PUSH1 0x14 PUSH2 0x100 EXP DUP2 SLOAD DUP2 PUSH1 0xFF MUL NOT AND SWAP1 DUP4 ISZERO ISZERO MUL OR SWAP1 SSTORE POP DUP1 PUSH1 0x3 ADD PUSH0 SWAP1 SLOAD SWAP1 PUSH2 0x100 EXP SWAP1 DIV PUSH20 0xFFFFFFFFFFFFFFFFFFFFFFFFFFFFFFFFFFFFFFFF AND PUSH20 0xFFFFFFFFFFFFFFFFFFFFFFFFFFFFFFFFFFFFFFFF AND PUSH2 0x8FC CALLVALUE SWAP1 DUP2 ISZERO MUL SWAP1 PUSH1 0x40 MLOAD PUSH0 PUSH1 0x40 MLOAD DUP1 DUP4 SUB DUP2 DUP6 DUP9 DUP9 CALL SWAP4 POP POP POP POP ISZERO DUP1 ISZERO PUSH2 0x8A4 JUMPI RETURNDATASIZE PUSH0 DUP1 RETURNDATACOPY RETURNDATASIZE PUSH0 REVERT JUMPDEST POP PUSH2 0x8D3 DUP3 DUP3 PUSH1 0x3 ADD PUSH0 SWAP1 SLOAD SWAP1 PUSH2 0x100 EXP SWAP1 DIV PUSH20 0xFFFFFFFFFFFFFFFFFFFFFFFFFFFFFFFFFFFFFFFF AND CALLER PUSH2 0x8D7 JUMP JUMPDEST POP POP JUMP JUMPDEST PUSH0 PUSH1 0x1 PUSH0 DUP6 DUP2 MSTORE PUSH1 0x20 ADD SWAP1 DUP2 MSTORE PUSH1 0x20 ADD PUSH0 KECCAK256 SWAP1 POP DUP2 DUP2 PUSH1 0x4 ADD PUSH0 PUSH2 0x100 EXP DUP2 SLOAD DUP2 PUSH20 0xFFFFFFFFFFFFFFFFFFFFFFFFFFFFFFFFFFFFFFFF MUL NOT AND SWAP1 DUP4 PUSH20 0xFFFFFFFFFFFFFFFFFFFFFFFFFFFFFFFFFFFFFFFF AND MUL OR SWAP1 SSTORE POP PUSH0 PUSH1 0x2 PUSH0 DUP6 PUSH20 0xFFFFFFFFFFFFFFFFFFFFFFFFFFFFFFFFFFFFFFFF AND PUSH20 0xFFFFFFFFFFFFFFFFFFFFFFFFFFFFFFFFFFFFFFFF AND DUP2 MSTORE PUSH1 0x20 ADD SWAP1 DUP2 MSTORE PUSH1 0x20 ADD PUSH0 KECCAK256 SWAP1 POP PUSH0 JUMPDEST DUP2 DUP1 SLOAD SWAP1 POP DUP2 LT ISZERO PUSH2 0xA1E JUMPI DUP6 DUP3 DUP3 DUP2 SLOAD DUP2 LT PUSH2 0x98F JUMPI PUSH2 0x98E PUSH2 0x1548 JUMP JUMPDEST JUMPDEST SWAP1 PUSH0 MSTORE PUSH1 0x20 PUSH0 KECCAK256 ADD SLOAD SUB PUSH2 0xA11 JUMPI DUP2 PUSH1 0x1 DUP4 DUP1 SLOAD SWAP1 POP PUSH2 0x9AF SWAP2 SWAP1 PUSH2 0x1575 JUMP JUMPDEST DUP2 SLOAD DUP2 LT PUSH2 0x9C0 JUMPI PUSH2 0x9BF PUSH2 0x1548 JUMP JUMPDEST JUMPDEST SWAP1 PUSH0 MSTORE PUSH1 0x20 PUSH0 KECCAK256 ADD SLOAD DUP3 DUP3 DUP2 SLOAD DUP2 LT PUSH2 0x9DC JUMPI PUSH2 0x9DB PUSH2 0x1548 JUMP JUMPDEST JUMPDEST SWAP1 PUSH0 MSTORE PUSH1 0x20 PUSH0 KECCAK256 ADD DUP2 SWAP1 SSTORE POP DUP2 DUP1 SLOAD DUP1 PUSH2 0x9F9 JUMPI PUSH2 0x9F8 PUSH2 0x15A8 JUMP JUMPDEST JUMPDEST PUSH1 0x1 SWAP1 SUB DUP2 DUP2 SWAP1 PUSH0 MSTORE PUSH1 0x20 PUSH0 KECCAK256 ADD PUSH0 SWAP1 SSTORE SWAP1 SSTORE PUSH2 0xA1E JUMP JUMPDEST DUP1 DUP1 PUSH1 0x1 ADD SWAP2 POP POP PUSH2 0x96F JUMP JUMPDEST POP PUSH1 0x2 PUSH0 DUP5 PUSH20 0xFFFFFFFFFFFFFFFFFFFFFFFFFFFFFFFFFFFFFFFF AND PUSH20 0xFFFFFFFFFFFFFFFFFFFFFFFFFFFFFFFFFFFFFFFF AND DUP2 MSTORE PUSH1 0x20 ADD SWAP1 DUP2 MSTORE PUSH1 0x20 ADD PUSH0 KECCAK256 DUP6 SWAP1 DUP1 PUSH1 0x1 DUP2 SLOAD ADD DUP1 DUP3 SSTORE DUP1 SWAP2 POP POP PUSH1 0x1 SWAP1 SUB SWAP1 PUSH0 MSTORE PUSH1 0x20 PUSH0 KECCAK256 ADD PUSH0 SWAP1 SWAP2 SWAP1 SWAP2 SWAP1 SWAP2 POP SSTORE POP POP POP POP POP JUMP JUMPDEST PUSH0 PUSH1 0x40 MLOAD SWAP1 POP SWAP1 JUMP JUMPDEST PUSH0 DUP1 REVERT JUMPDEST PUSH0 DUP1 REVERT JUMPDEST PUSH0 PUSH20 0xFFFFFFFFFFFFFFFFFFFFFFFFFFFFFFFFFFFFFFFF DUP3 AND SWAP1 POP SWAP2 SWAP1 POP JUMP JUMPDEST PUSH0 PUSH2 0xAC1 DUP3 PUSH2 0xA98 JUMP JUMPDEST SWAP1 POP SWAP2 SWAP1 POP JUMP JUMPDEST PUSH2 0xAD1 DUP2 PUSH2 0xAB7 JUMP JUMPDEST DUP2 EQ PUSH2 0xADB JUMPI PUSH0 DUP1 REVERT JUMPDEST POP JUMP JUMPDEST PUSH0 DUP2 CALLDATALOAD SWAP1 POP PUSH2 0xAEC DUP2 PUSH2 0xAC8 JUMP JUMPDEST SWAP3 SWAP2 POP POP JUMP JUMPDEST PUSH0 PUSH1 0x20 DUP3 DUP5 SUB SLT ISZERO PUSH2 0xB07 JUMPI PUSH2 0xB06 PUSH2 0xA90 JUMP JUMPDEST JUMPDEST PUSH0 PUSH2 0xB14 DUP5 DUP3 DUP6 ADD PUSH2 0xADE JUMP JUMPDEST SWAP2 POP POP SWAP3 SWAP2 POP POP JUMP JUMPDEST PUSH0 DUP2 MLOAD SWAP1 POP SWAP2 SWAP1 POP JUMP JUMPDEST PUSH0 DUP3 DUP3 MSTORE PUSH1 0x20 DUP3 ADD SWAP1 POP SWAP3 SWAP2 POP POP JUMP JUMPDEST PUSH0 DUP2 SWAP1 POP PUSH1 0x20 DUP3 ADD SWAP1 POP SWAP2 SWAP1 POP JUMP JUMPDEST PUSH0 DUP2 SWAP1 POP SWAP2 SWAP1 POP JUMP JUMPDEST PUSH2 0xB58 DUP2 PUSH2 0xB46 JUMP JUMPDEST DUP3 MSTORE POP POP JUMP JUMPDEST PUSH0 PUSH2 0xB69 DUP4 DUP4 PUSH2 0xB4F JUMP JUMPDEST PUSH1 0x20 DUP4 ADD SWAP1 POP SWAP3 SWAP2 POP POP JUMP JUMPDEST PUSH0 PUSH1 0x20 DUP3 ADD SWAP1 POP SWAP2 SWAP1 POP JUMP JUMPDEST PUSH0 PUSH2 0xB8B DUP3 PUSH2 0xB1D JUMP JUMPDEST PUSH2 0xB95 DUP2 DUP6 PUSH2 0xB27 JUMP JUMPDEST SWAP4 POP PUSH2 0xBA0 DUP4 PUSH2 0xB37 JUMP JUMPDEST DUP1 PUSH0 JUMPDEST DUP4 DUP2 LT ISZERO PUSH2 0xBD0 JUMPI DUP2 MLOAD PUSH2 0xBB7 DUP9 DUP3 PUSH2 0xB5E JUMP JUMPDEST SWAP8 POP PUSH2 0xBC2 DUP4 PUSH2 0xB75 JUMP JUMPDEST SWAP3 POP POP PUSH1 0x1 DUP2 ADD SWAP1 POP PUSH2 0xBA3 JUMP JUMPDEST POP DUP6 SWAP4 POP POP POP POP SWAP3 SWAP2 POP POP JUMP JUMPDEST PUSH0 PUSH1 0x20 DUP3 ADD SWAP1 POP DUP2 DUP2 SUB PUSH0 DUP4 ADD MSTORE PUSH2 0xBF5 DUP2 DUP5 PUSH2 0xB81 JUMP JUMPDEST SWAP1 POP SWAP3 SWAP2 POP POP JUMP JUMPDEST PUSH2 0xC06 DUP2 PUSH2 0xB46 JUMP JUMPDEST DUP2 EQ PUSH2 0xC10 JUMPI PUSH0 DUP1 REVERT JUMPDEST POP JUMP JUMPDEST PUSH0 DUP2 CALLDATALOAD SWAP1 POP PUSH2 0xC21 DUP2 PUSH2 0xBFD JUMP JUMPDEST SWAP3 SWAP2 POP POP JUMP JUMPDEST PUSH0 DUP1 PUSH1 0x40 DUP4 DUP6 SUB SLT ISZERO PUSH2 0xC3D JUMPI PUSH2 0xC3C PUSH2 0xA90 JUMP JUMPDEST JUMPDEST PUSH0 PUSH2 0xC4A DUP6 DUP3 DUP7 ADD PUSH2 0xADE JUMP JUMPDEST SWAP3 POP POP PUSH1 0x20 PUSH2 0xC5B DUP6 DUP3 DUP7 ADD PUSH2 0xC13 JUMP JUMPDEST SWAP2 POP POP SWAP3 POP SWAP3 SWAP1 POP JUMP JUMPDEST PUSH2 0xC6E DUP2 PUSH2 0xB46 JUMP JUMPDEST DUP3 MSTORE POP POP JUMP JUMPDEST PUSH0 PUSH1 0x20 DUP3 ADD SWAP1 POP PUSH2 0xC87 PUSH0 DUP4 ADD DUP5 PUSH2 0xC65 JUMP JUMPDEST SWAP3 SWAP2 POP POP JUMP JUMPDEST PUSH0 DUP1 REVERT JUMPDEST PUSH0 DUP1 REVERT JUMPDEST PUSH0 PUSH1 0x1F NOT PUSH1 0x1F DUP4 ADD AND SWAP1 POP SWAP2 SWAP1 POP JUMP JUMPDEST PUSH32 0x4E487B7100000000000000000000000000000000000000000000000000000000 PUSH0 MSTORE PUSH1 0x41 PUSH1 0x4 MSTORE PUSH1 0x24 PUSH0 REVERT JUMPDEST PUSH2 0xCDB DUP3 PUSH2 0xC95 JUMP JUMPDEST DUP2 ADD DUP2 DUP2 LT PUSH8 0xFFFFFFFFFFFFFFFF DUP3 GT OR ISZERO PUSH2 0xCFA JUMPI PUSH2 0xCF9 PUSH2 0xCA5 JUMP JUMPDEST JUMPDEST DUP1 PUSH1 0x40 MSTORE POP POP POP JUMP JUMPDEST PUSH0 PUSH2 0xD0C PUSH2 0xA87 JUMP JUMPDEST SWAP1 POP PUSH2 0xD18 DUP3 DUP3 PUSH2 0xCD2 JUMP JUMPDEST SWAP2 SWAP1 POP JUMP JUMPDEST PUSH0 PUSH8 0xFFFFFFFFFFFFFFFF DUP3 GT ISZERO PUSH2 0xD37 JUMPI PUSH2 0xD36 PUSH2 0xCA5 JUMP JUMPDEST JUMPDEST PUSH2 0xD40 DUP3 PUSH2 0xC95 JUMP JUMPDEST SWAP1 POP PUSH1 0x20 DUP2 ADD SWAP1 POP SWAP2 SWAP1 POP JUMP JUMPDEST DUP3 DUP2 DUP4 CALLDATACOPY PUSH0 DUP4 DUP4 ADD MSTORE POP POP POP JUMP JUMPDEST PUSH0 PUSH2 0xD6D PUSH2 0xD68 DUP5 PUSH2 0xD1D JUMP JUMPDEST PUSH2 0xD03 JUMP JUMPDEST SWAP1 POP DUP3 DUP2 MSTORE PUSH1 0x20 DUP2 ADD DUP5 DUP5 DUP5 ADD GT ISZERO PUSH2 0xD89 JUMPI PUSH2 0xD88 PUSH2 0xC91 JUMP JUMPDEST JUMPDEST PUSH2 0xD94 DUP5 DUP3 DUP6 PUSH2 0xD4D JUMP JUMPDEST POP SWAP4 SWAP3 POP POP POP JUMP JUMPDEST PUSH0 DUP3 PUSH1 0x1F DUP4 ADD SLT PUSH2 0xDB0 JUMPI PUSH2 0xDAF PUSH2 0xC8D JUMP JUMPDEST JUMPDEST DUP2 CALLDATALOAD PUSH2 0xDC0 DUP5 DUP3 PUSH1 0x20 DUP7 ADD PUSH2 0xD5B JUMP JUMPDEST SWAP2 POP POP SWAP3 SWAP2 POP POP JUMP JUMPDEST PUSH0 DUP1 PUSH1 0x40 DUP4 DUP6 SUB SLT ISZERO PUSH2 0xDDF JUMPI PUSH2 0xDDE PUSH2 0xA90 JUMP JUMPDEST JUMPDEST PUSH0 DUP4 ADD CALLDATALOAD PUSH8 0xFFFFFFFFFFFFFFFF DUP2 GT ISZERO PUSH2 0xDFC JUMPI PUSH2 0xDFB PUSH2 0xA94 JUMP JUMPDEST JUMPDEST PUSH2 0xE08 DUP6 DUP3 DUP7 ADD PUSH2 0xD9C JUMP JUMPDEST SWAP3 POP POP PUSH1 0x20 PUSH2 0xE19 DUP6 DUP3 DUP7 ADD PUSH2 0xC13 JUMP JUMPDEST SWAP2 POP POP SWAP3 POP SWAP3 SWAP1 POP JUMP JUMPDEST PUSH0 DUP1 PUSH1 0x40 DUP4 DUP6 SUB SLT ISZERO PUSH2 0xE39 JUMPI PUSH2 0xE38 PUSH2 0xA90 JUMP JUMPDEST JUMPDEST PUSH0 PUSH2 0xE46 DUP6 DUP3 DUP7 ADD PUSH2 0xC13 JUMP JUMPDEST SWAP3 POP POP PUSH1 0x20 PUSH2 0xE57 DUP6 DUP3 DUP7 ADD PUSH2 0xADE JUMP JUMPDEST SWAP2 POP POP SWAP3 POP SWAP3 SWAP1 POP JUMP JUMPDEST PUSH0 PUSH1 0x20 DUP3 DUP5 SUB SLT ISZERO PUSH2 0xE76 JUMPI PUSH2 0xE75 PUSH2 0xA90 JUMP JUMPDEST JUMPDEST PUSH0 PUSH2 0xE83 DUP5 DUP3 DUP6 ADD PUSH2 0xC13 JUMP JUMPDEST SWAP2 POP POP SWAP3 SWAP2 POP POP JUMP JUMPDEST PUSH0 DUP2 MLOAD SWAP1 POP SWAP2 SWAP1 POP JUMP JUMPDEST PUSH0 DUP3 DUP3 MSTORE PUSH1 0x20 DUP3 ADD SWAP1 POP SWAP3 SWAP2 POP POP JUMP JUMPDEST DUP3 DUP2 DUP4 MCOPY PUSH0 DUP4 DUP4 ADD MSTORE POP POP POP JUMP JUMPDEST PUSH0 PUSH2 0xEBE DUP3 PUSH2 0xE8C JUMP JUMPDEST PUSH2 0xEC8 DUP2 DUP6 PUSH2 0xE96 JUMP JUMPDEST SWAP4 POP PUSH2 0xED8 DUP2 DUP6 PUSH1 0x20 DUP7 ADD PUSH2 0xEA6 JUMP JUMPDEST PUSH2 0xEE1 DUP2 PUSH2 0xC95 JUMP JUMPDEST DUP5 ADD SWAP2 POP POP SWAP3 SWAP2 POP POP JUMP JUMPDEST PUSH0 PUSH2 0xEF6 DUP3 PUSH2 0xA98 JUMP JUMPDEST SWAP1 POP SWAP2 SWAP1 POP JUMP JUMPDEST PUSH2 0xF06 DUP2 PUSH2 0xEEC JUMP JUMPDEST DUP3 MSTORE POP POP JUMP JUMPDEST PUSH2 0xF15 DUP2 PUSH2 0xAB7 JUMP JUMPDEST DUP3 MSTORE POP POP JUMP JUMPDEST PUSH0 DUP2 ISZERO ISZERO SWAP1 POP SWAP2 SWAP1 POP JUMP JUMPDEST PUSH2 0xF2F DUP2 PUSH2 0xF1B JUMP JUMPDEST DUP3 MSTORE POP POP JUMP JUMPDEST PUSH0 PUSH1 0xC0 DUP3 ADD SWAP1 POP PUSH2 0xF48 PUSH0 DUP4 ADD DUP10 PUSH2 0xC65 JUMP JUMPDEST DUP2 DUP2 SUB PUSH1 0x20 DUP4 ADD MSTORE PUSH2 0xF5A DUP2 DUP9 PUSH2 0xEB4 JUMP JUMPDEST SWAP1 POP PUSH2 0xF69 PUSH1 0x40 DUP4 ADD DUP8 PUSH2 0xC65 JUMP JUMPDEST PUSH2 0xF76 PUSH1 0x60 DUP4 ADD DUP7 PUSH2 0xEFD JUMP JUMPDEST PUSH2 0xF83 PUSH1 0x80 DUP4 ADD DUP6 PUSH2 0xF0C JUMP JUMPDEST PUSH2 0xF90 PUSH1 0xA0 DUP4 ADD DUP5 PUSH2 0xF26 JUMP JUMPDEST SWAP8 SWAP7 POP POP POP POP POP POP POP JUMP JUMPDEST PUSH32 0x5072696365206D7573742062652067726561746572207468616E207A65726F00 PUSH0 DUP3 ADD MSTORE POP JUMP JUMPDEST PUSH0 PUSH2 0xFCF PUSH1 0x1F DUP4 PUSH2 0xE96 JUMP JUMPDEST SWAP2 POP PUSH2 0xFDA DUP3 PUSH2 0xF9B JUMP JUMPDEST PUSH1 0x20 DUP3 ADD SWAP1 POP SWAP2 SWAP1 POP JUMP JUMPDEST PUSH0 PUSH1 0x20 DUP3 ADD SWAP1 POP DUP2 DUP2 SUB PUSH0 DUP4 ADD MSTORE PUSH2 0xFFC DUP2 PUSH2 0xFC3 JUMP JUMPDEST SWAP1 POP SWAP2 SWAP1 POP JUMP JUMPDEST PUSH32 0x4E487B7100000000000000000000000000000000000000000000000000000000 PUSH0 MSTORE PUSH1 0x11 PUSH1 0x4 MSTORE PUSH1 0x24 PUSH0 REVERT JUMPDEST PUSH0 PUSH2 0x103A DUP3 PUSH2 0xB46 JUMP JUMPDEST SWAP2 POP PUSH32 0xFFFFFFFFFFFFFFFFFFFFFFFFFFFFFFFFFFFFFFFFFFFFFFFFFFFFFFFFFFFFFFFF DUP3 SUB PUSH2 0x106C JUMPI PUSH2 0x106B PUSH2 0x1003 JUMP JUMPDEST JUMPDEST PUSH1 0x1 DUP3 ADD SWAP1 POP SWAP2 SWAP1 POP JUMP JUMPDEST PUSH32 0x4E487B7100000000000000000000000000000000000000000000000000000000 PUSH0 MSTORE PUSH1 0x22 PUSH1 0x4 MSTORE PUSH1 0x24 PUSH0 REVERT JUMPDEST PUSH0 PUSH1 0x2 DUP3 DIV SWAP1 POP PUSH1 0x1 DUP3 AND DUP1 PUSH2 0x10BB JUMPI PUSH1 0x7F DUP3 AND SWAP2 POP JUMPDEST PUSH1 0x20 DUP3 LT DUP2 SUB PUSH2 0x10CE JUMPI PUSH2 0x10CD PUSH2 0x1077 JUMP JUMPDEST JUMPDEST POP SWAP2 SWAP1 POP JUMP JUMPDEST PUSH0 DUP2 SWAP1 POP DUP2 PUSH0 MSTORE PUSH1 0x20 PUSH0 KECCAK256 SWAP1 POP SWAP2 SWAP1 POP JUMP JUMPDEST PUSH0 PUSH1 0x20 PUSH1 0x1F DUP4 ADD DIV SWAP1 POP SWAP2 SWAP1 POP JUMP JUMPDEST PUSH0 DUP3 DUP3 SHL SWAP1 POP SWAP3 SWAP2 POP POP JUMP JUMPDEST PUSH0 PUSH1 0x8 DUP4 MUL PUSH2 0x1130 PUSH32 0xFFFFFFFFFFFFFFFFFFFFFFFFFFFFFFFFFFFFFFFFFFFFFFFFFFFFFFFFFFFFFFFF DUP3 PUSH2 0x10F5 JUMP JUMPDEST PUSH2 0x113A DUP7 DUP4 PUSH2 0x10F5 JUMP JUMPDEST SWAP6 POP DUP1 NOT DUP5 AND SWAP4 POP DUP1 DUP7 AND DUP5 OR SWAP3 POP POP POP SWAP4 SWAP3 POP POP POP JUMP JUMPDEST PUSH0 DUP2 SWAP1 POP SWAP2 SWAP1 POP JUMP JUMPDEST PUSH0 PUSH2 0x1175 PUSH2 0x1170 PUSH2 0x116B DUP5 PUSH2 0xB46 JUMP JUMPDEST PUSH2 0x1152 JUMP JUMPDEST PUSH2 0xB46 JUMP JUMPDEST SWAP1 POP SWAP2 SWAP1 POP JUMP JUMPDEST PUSH0 DUP2 SWAP1 POP SWAP2 SWAP1 POP JUMP JUMPDEST PUSH2 0x118E DUP4 PUSH2 0x115B JUMP JUMPDEST PUSH2 0x11A2 PUSH2 0x119A DUP3 PUSH2 0x117C JUMP JUMPDEST DUP5 DUP5 SLOAD PUSH2 0x1101 JUMP JUMPDEST DUP3 SSTORE POP POP POP POP JUMP JUMPDEST PUSH0 SWAP1 JUMP JUMPDEST PUSH2 0x11B6 PUSH2 0x11AA JUMP JUMPDEST PUSH2 0x11C1 DUP2 DUP5 DUP5 PUSH2 0x1185 JUMP JUMPDEST POP POP POP JUMP JUMPDEST JUMPDEST DUP2 DUP2 LT ISZERO PUSH2 0x11E4 JUMPI PUSH2 0x11D9 PUSH0 DUP3 PUSH2 0x11AE JUMP JUMPDEST PUSH1 0x1 DUP2 ADD SWAP1 POP PUSH2 0x11C7 JUMP JUMPDEST POP POP JUMP JUMPDEST PUSH1 0x1F DUP3 GT ISZERO PUSH2 0x1229 JUMPI PUSH2 0x11FA DUP2 PUSH2 0x10D4 JUMP JUMPDEST PUSH2 0x1203 DUP5 PUSH2 0x10E6 JUMP JUMPDEST DUP2 ADD PUSH1 0x20 DUP6 LT ISZERO PUSH2 0x1212 JUMPI DUP2 SWAP1 POP JUMPDEST PUSH2 0x1226 PUSH2 0x121E DUP6 PUSH2 0x10E6 JUMP JUMPDEST DUP4 ADD DUP3 PUSH2 0x11C6 JUMP JUMPDEST POP POP JUMPDEST POP POP POP JUMP JUMPDEST PUSH0 DUP3 DUP3 SHR SWAP1 POP SWAP3 SWAP2 POP POP JUMP JUMPDEST PUSH0 PUSH2 0x1249 PUSH0 NOT DUP5 PUSH1 0x8 MUL PUSH2 0x122E JUMP JUMPDEST NOT DUP1 DUP4 AND SWAP2 POP POP SWAP3 SWAP2 POP POP JUMP JUMPDEST PUSH0 PUSH2 0x1261 DUP4 DUP4 PUSH2 0x123A JUMP JUMPDEST SWAP2 POP DUP3 PUSH1 0x2 MUL DUP3 OR SWAP1 POP SWAP3 SWAP2 POP POP JUMP JUMPDEST PUSH2 0x127A DUP3 PUSH2 0xE8C JUMP JUMPDEST PUSH8 0xFFFFFFFFFFFFFFFF DUP2 GT ISZERO PUSH2 0x1293 JUMPI PUSH2 0x1292 PUSH2 0xCA5 JUMP JUMPDEST JUMPDEST PUSH2 0x129D DUP3 SLOAD PUSH2 0x10A4 JUMP JUMPDEST PUSH2 0x12A8 DUP3 DUP3 DUP6 PUSH2 0x11E8 JUMP JUMPDEST PUSH0 PUSH1 0x20 SWAP1 POP PUSH1 0x1F DUP4 GT PUSH1 0x1 DUP2 EQ PUSH2 0x12D9 JUMPI PUSH0 DUP5 ISZERO PUSH2 0x12C7 JUMPI DUP3 DUP8 ADD MLOAD SWAP1 POP JUMPDEST PUSH2 0x12D1 DUP6 DUP3 PUSH2 0x1256 JUMP JUMPDEST DUP7 SSTORE POP PUSH2 0x1338 JUMP JUMPDEST PUSH1 0x1F NOT DUP5 AND PUSH2 0x12E7 DUP7 PUSH2 0x10D4 JUMP JUMPDEST PUSH0 JUMPDEST DUP3 DUP2 LT ISZERO PUSH2 0x130E JUMPI DUP5 DUP10 ADD MLOAD DUP3 SSTORE PUSH1 0x1 DUP3 ADD SWAP2 POP PUSH1 0x20 DUP6 ADD SWAP5 POP PUSH1 0x20 DUP2 ADD SWAP1 POP PUSH2 0x12E9 JUMP JUMPDEST DUP7 DUP4 LT ISZERO PUSH2 0x132B JUMPI DUP5 DUP10 ADD MLOAD PUSH2 0x1327 PUSH1 0x1F DUP10 AND DUP3 PUSH2 0x123A JUMP JUMPDEST DUP4 SSTORE POP JUMPDEST PUSH1 0x1 PUSH1 0x2 DUP9 MUL ADD DUP9 SSTORE POP POP POP JUMPDEST POP POP POP POP POP POP JUMP JUMPDEST PUSH32 0x4974656D20646F6573206E6F7420657869737400000000000000000000000000 PUSH0 DUP3 ADD MSTORE POP JUMP JUMPDEST PUSH0 PUSH2 0x1374 PUSH1 0x13 DUP4 PUSH2 0xE96 JUMP JUMPDEST SWAP2 POP PUSH2 0x137F DUP3 PUSH2 0x1340 JUMP JUMPDEST PUSH1 0x20 DUP3 ADD SWAP1 POP SWAP2 SWAP1 POP JUMP JUMPDEST PUSH0 PUSH1 0x20 DUP3 ADD SWAP1 POP DUP2 DUP2 SUB PUSH0 DUP4 ADD MSTORE PUSH2 0x13A1 DUP2 PUSH2 0x1368 JUMP JUMPDEST SWAP1 POP SWAP2 SWAP1 POP JUMP JUMPDEST PUSH32 0x596F7520646F206E6F74206F776E2074686973206974656D0000000000000000 PUSH0 DUP3 ADD MSTORE POP JUMP JUMPDEST PUSH0 PUSH2 0x13DC PUSH1 0x18 DUP4 PUSH2 0xE96 JUMP JUMPDEST SWAP2 POP PUSH2 0x13E7 DUP3 PUSH2 0x13A8 JUMP JUMPDEST PUSH1 0x20 DUP3 ADD SWAP1 POP SWAP2 SWAP1 POP JUMP JUMPDEST PUSH0 PUSH1 0x20 DUP3 ADD SWAP1 POP DUP2 DUP2 SUB PUSH0 DUP4 ADD MSTORE PUSH2 0x1409 DUP2 PUSH2 0x13D0 JUMP JUMPDEST SWAP1 POP SWAP2 SWAP1 POP JUMP JUMPDEST PUSH32 0x496E636F72726563742070726963650000000000000000000000000000000000 PUSH0 DUP3 ADD MSTORE POP JUMP JUMPDEST PUSH0 PUSH2 0x1444 PUSH1 0xF DUP4 PUSH2 0xE96 JUMP JUMPDEST SWAP2 POP PUSH2 0x144F DUP3 PUSH2 0x1410 JUMP JUMPDEST PUSH1 0x20 DUP3 ADD SWAP1 POP SWAP2 SWAP1 POP JUMP JUMPDEST PUSH0 PUSH1 0x20 DUP3 ADD SWAP1 POP DUP2 DUP2 SUB PUSH0 DUP4 ADD MSTORE PUSH2 0x1471 DUP2 PUSH2 0x1438 JUMP JUMPDEST SWAP1 POP SWAP2 SWAP1 POP JUMP JUMPDEST PUSH32 0x4974656D20616C726561647920736F6C64000000000000000000000000000000 PUSH0 DUP3 ADD MSTORE POP JUMP JUMPDEST PUSH0 PUSH2 0x14AC PUSH1 0x11 DUP4 PUSH2 0xE96 JUMP JUMPDEST SWAP2 POP PUSH2 0x14B7 DUP3 PUSH2 0x1478 JUMP JUMPDEST PUSH1 0x20 DUP3 ADD SWAP1 POP SWAP2 SWAP1 POP JUMP JUMPDEST PUSH0 PUSH1 0x20 DUP3 ADD SWAP1 POP DUP2 DUP2 SUB PUSH0 DUP4 ADD MSTORE PUSH2 0x14D9 DUP2 PUSH2 0x14A0 JUMP JUMPDEST SWAP1 POP SWAP2 SWAP1 POP JUMP JUMPDEST PUSH32 0x53656C6C65722063616E6E6F7420627579207468656972206F776E206974656D PUSH0 DUP3 ADD MSTORE POP JUMP JUMPDEST PUSH0 PUSH2 0x1514 PUSH1 0x20 DUP4 PUSH2 0xE96 JUMP JUMPDEST SWAP2 POP PUSH2 0x151F DUP3 PUSH2 0x14E0 JUMP JUMPDEST PUSH1 0x20 DUP3 ADD SWAP1 POP SWAP2 SWAP1 POP JUMP JUMPDEST PUSH0 PUSH1 0x20 DUP3 ADD SWAP1 POP DUP2 DUP2 SUB PUSH0 DUP4 ADD MSTORE PUSH2 0x1541 DUP2 PUSH2 0x1508 JUMP JUMPDEST SWAP1 POP SWAP2 SWAP1 POP JUMP JUMPDEST PUSH32 0x4E487B7100000000000000000000000000000000000000000000000000000000 PUSH0 MSTORE PUSH1 0x32 PUSH1 0x4 MSTORE PUSH1 0x24 PUSH0 REVERT JUMPDEST PUSH0 PUSH2 0x157F DUP3 PUSH2 0xB46 JUMP JUMPDEST SWAP2 POP PUSH2 0x158A DUP4 PUSH2 0xB46 JUMP JUMPDEST SWAP3 POP DUP3 DUP3 SUB SWAP1 POP DUP2 DUP2 GT ISZERO PUSH2 0x15A2 JUMPI PUSH2 0x15A1 PUSH2 0x1003 JUMP JUMPDEST JUMPDEST SWAP3 SWAP2 POP POP JUMP JUMPDEST PUSH32 0x4E487B7100000000000000000000000000000000000000000000000000000000 PUSH0 MSTORE PUSH1 0x31 PUSH1 0x4 MSTORE PUSH1 0x24 PUSH0 REVERT INVALID LOG2 PUSH5 0x6970667358 0x22 SLT KECCAK256 DUP14 0xA5 0xA7 MSTORE CALLDATACOPY BASEFEE SWAP2 0xE6 0xBF SLOAD MSTORE 0xE1 EXTCODEHASH 0xC8 MOD 0xD DUP15 MSTORE8 PUSH12 0x84ADD3D5CA2A310B1BA9F36B PUSH26 0x64736F6C634300081A0033000000000000000000000000000000 "
				},
				"gasEstimates": {
					"creation": {
						"codeDepositCost": "1128600",
						"executionCost": "6177",
						"totalCost": "1134777"
					},
					"external": {
						"getItemsByOwner(address)": "infinite",
						"itemCount()": "2469",
						"items(uint256)": "infinite",
						"listItem(string,uint256)": "infinite",
						"ownedItems(address,uint256)": "infinite",
						"purchaseItem(uint256)": "infinite",
						"transferItem(uint256,address)": "infinite"
					},
					"internal": {
						"_transferOwnership(uint256,address,address)": "infinite"
					}
				},
				"methodIdentifiers": {
					"getItemsByOwner(address)": "2c67a8e5",
					"itemCount()": "6bfb0d01",
					"items(uint256)": "bfb231d2",
					"listItem(string,uint256)": "8511c937",
					"ownedItems(address,uint256)": "42846534",
					"purchaseItem(uint256)": "d38ea5bf",
					"transferItem(uint256,address)": "a4229101"
				}
			},
			"storageLayout": {
				"storage": [
					{
						"astId": 17,
						"contract": "contracts/Marketplace.sol:Marketplace",
						"label": "itemCount",
						"offset": 0,
						"slot": "0",
						"type": "t_uint256"
					},
					{
						"astId": 22,
						"contract": "contracts/Marketplace.sol:Marketplace",
						"label": "items",
						"offset": 0,
						"slot": "1",
						"type": "t_mapping(t_uint256,t_struct(Item)14_storage)"
					},
					{
						"astId": 27,
						"contract": "contracts/Marketplace.sol:Marketplace",
						"label": "ownedItems",
						"offset": 0,
						"slot": "2",
						"type": "t_mapping(t_address,t_array(t_uint256)dyn_storage)"
					}
				],
				"types": {
					"t_address": {
						"encoding": "inplace",
						"label": "address",
						"numberOfBytes": "20"
					},
					"t_address_payable": {
						"encoding": "inplace",
						"label": "address payable",
						"numberOfBytes": "20"
					},
					"t_array(t_uint256)dyn_storage": {
						"base": "t_uint256",
						"encoding": "dynamic_array",
						"label": "uint256[]",
						"numberOfBytes": "32"
					},
					"t_bool": {
						"encoding": "inplace",
						"label": "bool",
						"numberOfBytes": "1"
					},
					"t_mapping(t_address,t_array(t_uint256)dyn_storage)": {
						"encoding": "mapping",
						"key": "t_address",
						"label": "mapping(address => uint256[])",
						"numberOfBytes": "32",
						"value": "t_array(t_uint256)dyn_storage"
					},
					"t_mapping(t_uint256,t_struct(Item)14_storage)": {
						"encoding": "mapping",
						"key": "t_uint256",
						"label": "mapping(uint256 => struct Marketplace.Item)",
						"numberOfBytes": "32",
						"value": "t_struct(Item)14_storage"
					},
					"t_string_storage": {
						"encoding": "bytes",
						"label": "string",
						"numberOfBytes": "32"
					},
					"t_struct(Item)14_storage": {
						"encoding": "inplace",
						"label": "struct Marketplace.Item",
						"members": [
							{
								"astId": 3,
								"contract": "contracts/Marketplace.sol:Marketplace",
								"label": "id",
								"offset": 0,
								"slot": "0",
								"type": "t_uint256"
							},
							{
								"astId": 5,
								"contract": "contracts/Marketplace.sol:Marketplace",
								"label": "name",
								"offset": 0,
								"slot": "1",
								"type": "t_string_storage"
							},
							{
								"astId": 7,
								"contract": "contracts/Marketplace.sol:Marketplace",
								"label": "price",
								"offset": 0,
								"slot": "2",
								"type": "t_uint256"
							},
							{
								"astId": 9,
								"contract": "contracts/Marketplace.sol:Marketplace",
								"label": "seller",
								"offset": 0,
								"slot": "3",
								"type": "t_address_payable"
							},
							{
								"astId": 11,
								"contract": "contracts/Marketplace.sol:Marketplace",
								"label": "owner",
								"offset": 0,
								"slot": "4",
								"type": "t_address"
							},
							{
								"astId": 13,
								"contract": "contracts/Marketplace.sol:Marketplace",
								"label": "isSold",
								"offset": 20,
								"slot": "4",
								"type": "t_bool"
							}
						],
						"numberOfBytes": "160"
					},
					"t_uint256": {
						"encoding": "inplace",
						"label": "uint256",
						"numberOfBytes": "32"
					}
				}
			},
			"userdoc": {
				"kind": "user",
				"methods": {},
				"version": 1
			}
		}
	}
}