{
	"contracts/Marketplace.sol": {
		"Marketplace": {
			"abi": [
				{
					"inputs": [
						{
							"internalType": "address",
							"name": "_owner",
							"type": "address"
						}
					],
					"name": "getItemByOwner",
					"outputs": [
						{
							"internalType": "uint256[]",
							"name": "",
							"type": "uint256[]"
						}
					],
					"stateMutability": "view",
					"type": "function"
				},
				{
					"inputs": [],
					"name": "itemCount",
					"outputs": [
						{
							"internalType": "uint256",
							"name": "",
							"type": "uint256"
						}
					],
					"stateMutability": "view",
					"type": "function"
				},
				{
					"inputs": [
						{
							"internalType": "uint256",
							"name": "",
							"type": "uint256"
						}
					],
					"name": "items",
					"outputs": [
						{
							"internalType": "uint256",
							"name": "id",
							"type": "uint256"
						},
						{
							"internalType": "string",
							"name": "name",
							"type": "string"
						},
						{
							"internalType": "uint256",
							"name": "price",
							"type": "uint256"
						},
						{
							"internalType": "address payable",
							"name": "seller",
							"type": "address"
						},
						{
							"internalType": "address",
							"name": "owner",
							"type": "address"
						},
						{
							"internalType": "bool",
							"name": "isSold",
							"type": "bool"
						}
					],
					"stateMutability": "view",
					"type": "function"
				},
				{
					"inputs": [
						{
							"internalType": "string",
							"name": "_name",
							"type": "string"
						},
						{
							"internalType": "uint256",
							"name": "_price",
							"type": "uint256"
						}
					],
					"name": "listItem",
					"outputs": [],
					"stateMutability": "nonpayable",
					"type": "function"
				},
				{
					"inputs": [
						{
							"internalType": "address",
							"name": "",
							"type": "address"
						},
						{
							"internalType": "uint256",
							"name": "",
							"type": "uint256"
						}
					],
					"name": "ownedItems",
					"outputs": [
						{
							"internalType": "uint256",
							"name": "",
							"type": "uint256"
						}
					],
					"stateMutability": "view",
					"type": "function"
				},
				{
					"inputs": [
						{
							"internalType": "uint256",
							"name": "_id",
							"type": "uint256"
						}
					],
					"name": "purchaseItem",
					"outputs": [],
					"stateMutability": "payable",
					"type": "function"
				},
				{
					"inputs": [
						{
							"internalType": "uint256",
							"name": "_id",
							"type": "uint256"
						},
						{
							"internalType": "address",
							"name": "_to",
							"type": "address"
						}
					],
					"name": "transferItem",
					"outputs": [],
					"stateMutability": "nonpayable",
					"type": "function"
				}
			],
			"devdoc": {
				"kind": "dev",
				"methods": {},
				"version": 1
			},
			"evm": {
				"assembly": "    /* \"contracts/Marketplace.sol\":57:2114  contract Marketplace{... */\n  mstore(0x40, 0x80)\n    /* \"contracts/Marketplace.sol\":267:268  0 */\n  0x00\n    /* \"contracts/Marketplace.sol\":243:268  uint public itemCount = 0 */\n  dup1\n  sstore\n    /* \"contracts/Marketplace.sol\":57:2114  contract Marketplace{... */\n  callvalue\n  dup1\n  iszero\n  tag_1\n  jumpi\n  0x00\n  dup1\n  revert\ntag_1:\n  pop\n  dataSize(sub_0)\n  dup1\n  dataOffset(sub_0)\n  0x00\n  codecopy\n  0x00\n  return\nstop\n\nsub_0: assembly {\n        /* \"contracts/Marketplace.sol\":57:2114  contract Marketplace{... */\n      mstore(0x40, 0x80)\n      jumpi(tag_1, lt(calldatasize, 0x04))\n      shr(0xe0, calldataload(0x00))\n      dup1\n      0x98ada83b\n      gt\n      tag_9\n      jumpi\n      dup1\n      0x98ada83b\n      eq\n      tag_5\n      jumpi\n      dup1\n      0xa4229101\n      eq\n      tag_6\n      jumpi\n      dup1\n      0xbfb231d2\n      eq\n      tag_7\n      jumpi\n      dup1\n      0xd38ea5bf\n      eq\n      tag_8\n      jumpi\n      jump(tag_1)\n    tag_9:\n      dup1\n      0x42846534\n      eq\n      tag_2\n      jumpi\n      dup1\n      0x6bfb0d01\n      eq\n      tag_3\n      jumpi\n      dup1\n      0x8511c937\n      eq\n      tag_4\n      jumpi\n    tag_1:\n      0x00\n      dup1\n      revert\n        /* \"contracts/Marketplace.sol\":314:358  mapping(address => uint[]) public ownedItems */\n    tag_2:\n      callvalue\n      dup1\n      iszero\n      tag_10\n      jumpi\n      0x00\n      dup1\n      revert\n    tag_10:\n      pop\n      tag_11\n      0x04\n      dup1\n      calldatasize\n      sub\n      dup2\n      add\n      swap1\n      tag_12\n      swap2\n      swap1\n      tag_13\n      jump\t// in\n    tag_12:\n      tag_14\n      jump\t// in\n    tag_11:\n      mload(0x40)\n      tag_15\n      swap2\n      swap1\n      tag_16\n      jump\t// in\n    tag_15:\n      mload(0x40)\n      dup1\n      swap2\n      sub\n      swap1\n      return\n        /* \"contracts/Marketplace.sol\":243:268  uint public itemCount = 0 */\n    tag_3:\n      callvalue\n      dup1\n      iszero\n      tag_17\n      jumpi\n      0x00\n      dup1\n      revert\n    tag_17:\n      pop\n      tag_18\n      tag_19\n      jump\t// in\n    tag_18:\n      mload(0x40)\n      tag_20\n      swap2\n      swap1\n      tag_16\n      jump\t// in\n    tag_20:\n      mload(0x40)\n      dup1\n      swap2\n      sub\n      swap1\n      return\n        /* \"contracts/Marketplace.sol\":826:1120  function listItem(string memory _name, uint _price) public{... */\n    tag_4:\n      callvalue\n      dup1\n      iszero\n      tag_21\n      jumpi\n      0x00\n      dup1\n      revert\n    tag_21:\n      pop\n      tag_22\n      0x04\n      dup1\n      calldatasize\n      sub\n      dup2\n      add\n      swap1\n      tag_23\n      swap2\n      swap1\n      tag_24\n      jump\t// in\n    tag_23:\n      tag_25\n      jump\t// in\n    tag_22:\n      stop\n        /* \"contracts/Marketplace.sol\":1994:2111  function getItemByOwner(address _owner) public view returns (uint[] memory){... */\n    tag_5:\n      callvalue\n      dup1\n      iszero\n      tag_26\n      jumpi\n      0x00\n      dup1\n      revert\n    tag_26:\n      pop\n      tag_27\n      0x04\n      dup1\n      calldatasize\n      sub\n      dup2\n      add\n      swap1\n      tag_28\n      swap2\n      swap1\n      tag_29\n      jump\t// in\n    tag_28:\n      tag_30\n      jump\t// in\n    tag_27:\n      mload(0x40)\n      tag_31\n      swap2\n      swap1\n      tag_32\n      jump\t// in\n    tag_31:\n      mload(0x40)\n      dup1\n      swap2\n      sub\n      swap1\n      return\n        /* \"contracts/Marketplace.sol\":1690:1988  function transferItem(uint _id, address _to) public {... */\n    tag_6:\n      callvalue\n      dup1\n      iszero\n      tag_33\n      jumpi\n      0x00\n      dup1\n      revert\n    tag_33:\n      pop\n      tag_34\n      0x04\n      dup1\n      calldatasize\n      sub\n      dup2\n      add\n      swap1\n      tag_35\n      swap2\n      swap1\n      tag_36\n      jump\t// in\n    tag_35:\n      tag_37\n      jump\t// in\n    tag_34:\n      stop\n        /* \"contracts/Marketplace.sol\":274:308  mapping(uint => Item) public items */\n    tag_7:\n      callvalue\n      dup1\n      iszero\n      tag_38\n      jumpi\n      0x00\n      dup1\n      revert\n    tag_38:\n      pop\n      tag_39\n      0x04\n      dup1\n      calldatasize\n      sub\n      dup2\n      add\n      swap1\n      tag_40\n      swap2\n      swap1\n      tag_41\n      jump\t// in\n    tag_40:\n      tag_42\n      jump\t// in\n    tag_39:\n      mload(0x40)\n      tag_43\n      swap7\n      swap6\n      swap5\n      swap4\n      swap3\n      swap2\n      swap1\n      tag_44\n      jump\t// in\n    tag_43:\n      mload(0x40)\n      dup1\n      swap2\n      sub\n      swap1\n      return\n        /* \"contracts/Marketplace.sol\":365:820  function purchaseItem(uint _id) public payable {... */\n    tag_8:\n      tag_45\n      0x04\n      dup1\n      calldatasize\n      sub\n      dup2\n      add\n      swap1\n      tag_46\n      swap2\n      swap1\n      tag_41\n      jump\t// in\n    tag_46:\n      tag_47\n      jump\t// in\n    tag_45:\n      stop\n        /* \"contracts/Marketplace.sol\":314:358  mapping(address => uint[]) public ownedItems */\n    tag_14:\n      mstore(0x20, 0x02)\n      dup2\n      0x00\n      mstore\n      keccak256(0x00, 0x40)\n      dup2\n      dup2\n      sload\n      dup2\n      lt\n      tag_48\n      jumpi\n      0x00\n      dup1\n      revert\n    tag_48:\n      swap1\n      0x00\n      mstore\n      keccak256(0x00, 0x20)\n      add\n      0x00\n      swap2\n      pop\n      swap2\n      pop\n      pop\n      sload\n      dup2\n      jump\t// out\n        /* \"contracts/Marketplace.sol\":243:268  uint public itemCount = 0 */\n    tag_19:\n      sload(0x00)\n      dup2\n      jump\t// out\n        /* \"contracts/Marketplace.sol\":826:1120  function listItem(string memory _name, uint _price) public{... */\n    tag_25:\n        /* \"contracts/Marketplace.sol\":911:912  0 */\n      0x00\n        /* \"contracts/Marketplace.sol\":902:908  _price */\n      dup2\n        /* \"contracts/Marketplace.sol\":902:912  _price > 0 */\n      gt\n        /* \"contracts/Marketplace.sol\":894:945  require(_price > 0, \"Price must be greater than 0\") */\n      tag_51\n      jumpi\n      mload(0x40)\n      0x08c379a000000000000000000000000000000000000000000000000000000000\n      dup2\n      mstore\n      0x04\n      add\n      tag_52\n      swap1\n      tag_53\n      jump\t// in\n    tag_52:\n      mload(0x40)\n      dup1\n      swap2\n      sub\n      swap1\n      revert\n    tag_51:\n        /* \"contracts/Marketplace.sol\":955:964  itemCount */\n      0x00\n      dup1\n        /* \"contracts/Marketplace.sol\":955:966  itemCount++ */\n      dup2\n      sload\n      dup1\n      swap3\n      swap2\n      swap1\n      tag_54\n      swap1\n      tag_55\n      jump\t// in\n    tag_54:\n      swap2\n      swap1\n      pop\n      sstore\n      pop\n        /* \"contracts/Marketplace.sol\":995:1065  Item(itemCount, _name, _price, payable(msg.sender), msg.sender, false) */\n      mload(0x40)\n      dup1\n      0xc0\n      add\n      0x40\n      mstore\n      dup1\n        /* \"contracts/Marketplace.sol\":1000:1009  itemCount */\n      sload(0x00)\n        /* \"contracts/Marketplace.sol\":995:1065  Item(itemCount, _name, _price, payable(msg.sender), msg.sender, false) */\n      dup2\n      mstore\n      0x20\n      add\n        /* \"contracts/Marketplace.sol\":1011:1016  _name */\n      dup4\n        /* \"contracts/Marketplace.sol\":995:1065  Item(itemCount, _name, _price, payable(msg.sender), msg.sender, false) */\n      dup2\n      mstore\n      0x20\n      add\n        /* \"contracts/Marketplace.sol\":1018:1024  _price */\n      dup3\n        /* \"contracts/Marketplace.sol\":995:1065  Item(itemCount, _name, _price, payable(msg.sender), msg.sender, false) */\n      dup2\n      mstore\n      0x20\n      add\n        /* \"contracts/Marketplace.sol\":1034:1044  msg.sender */\n      caller\n        /* \"contracts/Marketplace.sol\":995:1065  Item(itemCount, _name, _price, payable(msg.sender), msg.sender, false) */\n      0xffffffffffffffffffffffffffffffffffffffff\n      and\n      dup2\n      mstore\n      0x20\n      add\n        /* \"contracts/Marketplace.sol\":1047:1057  msg.sender */\n      caller\n        /* \"contracts/Marketplace.sol\":995:1065  Item(itemCount, _name, _price, payable(msg.sender), msg.sender, false) */\n      0xffffffffffffffffffffffffffffffffffffffff\n      and\n      dup2\n      mstore\n      0x20\n      add\n        /* \"contracts/Marketplace.sol\":1059:1064  false */\n      0x00\n        /* \"contracts/Marketplace.sol\":995:1065  Item(itemCount, _name, _price, payable(msg.sender), msg.sender, false) */\n      iszero\n      iszero\n      dup2\n      mstore\n      pop\n        /* \"contracts/Marketplace.sol\":976:981  items */\n      0x01\n        /* \"contracts/Marketplace.sol\":976:992  items[itemCount] */\n      0x00\n        /* \"contracts/Marketplace.sol\":982:991  itemCount */\n      dup1\n      sload\n        /* \"contracts/Marketplace.sol\":976:992  items[itemCount] */\n      dup2\n      mstore\n      0x20\n      add\n      swap1\n      dup2\n      mstore\n      0x20\n      add\n      0x00\n      keccak256\n        /* \"contracts/Marketplace.sol\":976:1065  items[itemCount] = Item(itemCount, _name, _price, payable(msg.sender), msg.sender, false) */\n      0x00\n      dup3\n      add\n      mload\n      dup2\n      0x00\n      add\n      sstore\n      0x20\n      dup3\n      add\n      mload\n      dup2\n      0x01\n      add\n      swap1\n      dup2\n      tag_56\n      swap2\n      swap1\n      tag_57\n      jump\t// in\n    tag_56:\n      pop\n      0x40\n      dup3\n      add\n      mload\n      dup2\n      0x02\n      add\n      sstore\n      0x60\n      dup3\n      add\n      mload\n      dup2\n      0x03\n      add\n      exp(0x0100, 0x00)\n      dup2\n      sload\n      dup2\n      0xffffffffffffffffffffffffffffffffffffffff\n      mul\n      not\n      and\n      swap1\n      dup4\n      0xffffffffffffffffffffffffffffffffffffffff\n      and\n      mul\n      or\n      swap1\n      sstore\n      pop\n      0x80\n      dup3\n      add\n      mload\n      dup2\n      0x04\n      add\n      exp(0x0100, 0x00)\n      dup2\n      sload\n      dup2\n      0xffffffffffffffffffffffffffffffffffffffff\n      mul\n      not\n      and\n      swap1\n      dup4\n      0xffffffffffffffffffffffffffffffffffffffff\n      and\n      mul\n      or\n      swap1\n      sstore\n      pop\n      0xa0\n      dup3\n      add\n      mload\n      dup2\n      0x04\n      add\n      exp(0x0100, 0x14)\n      dup2\n      sload\n      dup2\n      0xff\n      mul\n      not\n      and\n      swap1\n      dup4\n      iszero\n      iszero\n      mul\n      or\n      swap1\n      sstore\n      pop\n      swap1\n      pop\n      pop\n        /* \"contracts/Marketplace.sol\":1075:1085  ownedItems */\n      0x02\n        /* \"contracts/Marketplace.sol\":1075:1097  ownedItems[msg.sender] */\n      0x00\n        /* \"contracts/Marketplace.sol\":1086:1096  msg.sender */\n      caller\n        /* \"contracts/Marketplace.sol\":1075:1097  ownedItems[msg.sender] */\n      0xffffffffffffffffffffffffffffffffffffffff\n      and\n      0xffffffffffffffffffffffffffffffffffffffff\n      and\n      dup2\n      mstore\n      0x20\n      add\n      swap1\n      dup2\n      mstore\n      0x20\n      add\n      0x00\n      keccak256\n        /* \"contracts/Marketplace.sol\":1103:1112  itemCount */\n      sload(0x00)\n        /* \"contracts/Marketplace.sol\":1075:1113  ownedItems[msg.sender].push(itemCount) */\n      swap1\n      dup1\n      0x01\n      dup2\n      sload\n      add\n      dup1\n      dup3\n      sstore\n      dup1\n      swap2\n      pop\n      pop\n      0x01\n      swap1\n      sub\n      swap1\n      0x00\n      mstore\n      keccak256(0x00, 0x20)\n      add\n      0x00\n      swap1\n      swap2\n      swap1\n      swap2\n      swap1\n      swap2\n      pop\n      sstore\n        /* \"contracts/Marketplace.sol\":826:1120  function listItem(string memory _name, uint _price) public{... */\n      pop\n      pop\n      jump\t// out\n        /* \"contracts/Marketplace.sol\":1994:2111  function getItemByOwner(address _owner) public view returns (uint[] memory){... */\n    tag_30:\n        /* \"contracts/Marketplace.sol\":2055:2068  uint[] memory */\n      0x60\n        /* \"contracts/Marketplace.sol\":2086:2096  ownedItems */\n      0x02\n        /* \"contracts/Marketplace.sol\":2086:2104  ownedItems[_owner] */\n      0x00\n        /* \"contracts/Marketplace.sol\":2097:2103  _owner */\n      dup4\n        /* \"contracts/Marketplace.sol\":2086:2104  ownedItems[_owner] */\n      0xffffffffffffffffffffffffffffffffffffffff\n      and\n      0xffffffffffffffffffffffffffffffffffffffff\n      and\n      dup2\n      mstore\n      0x20\n      add\n      swap1\n      dup2\n      mstore\n      0x20\n      add\n      0x00\n      keccak256\n        /* \"contracts/Marketplace.sol\":2079:2104  return ownedItems[_owner] */\n      dup1\n      sload\n      dup1\n      0x20\n      mul\n      0x20\n      add\n      mload(0x40)\n      swap1\n      dup2\n      add\n      0x40\n      mstore\n      dup1\n      swap3\n      swap2\n      swap1\n      dup2\n      dup2\n      mstore\n      0x20\n      add\n      dup3\n      dup1\n      sload\n      dup1\n      iszero\n      tag_60\n      jumpi\n      0x20\n      mul\n      dup3\n      add\n      swap2\n      swap1\n      0x00\n      mstore\n      keccak256(0x00, 0x20)\n      swap1\n    tag_61:\n      dup2\n      sload\n      dup2\n      mstore\n      0x20\n      add\n      swap1\n      0x01\n      add\n      swap1\n      dup1\n      dup4\n      gt\n      tag_61\n      jumpi\n    tag_60:\n      pop\n      pop\n      pop\n      pop\n      pop\n      swap1\n      pop\n        /* \"contracts/Marketplace.sol\":1994:2111  function getItemByOwner(address _owner) public view returns (uint[] memory){... */\n      swap2\n      swap1\n      pop\n      jump\t// out\n        /* \"contracts/Marketplace.sol\":1690:1988  function transferItem(uint _id, address _to) public {... */\n    tag_37:\n        /* \"contracts/Marketplace.sol\":1752:1769  Item storage item */\n      0x00\n        /* \"contracts/Marketplace.sol\":1772:1777  items */\n      0x01\n        /* \"contracts/Marketplace.sol\":1772:1782  items[_id] */\n      0x00\n        /* \"contracts/Marketplace.sol\":1778:1781  _id */\n      dup5\n        /* \"contracts/Marketplace.sol\":1772:1782  items[_id] */\n      dup2\n      mstore\n      0x20\n      add\n      swap1\n      dup2\n      mstore\n      0x20\n      add\n      0x00\n      keccak256\n        /* \"contracts/Marketplace.sol\":1752:1782  Item storage item = items[_id] */\n      swap1\n      pop\n        /* \"contracts/Marketplace.sol\":1806:1807  0 */\n      0x00\n        /* \"contracts/Marketplace.sol\":1800:1803  _id */\n      dup4\n        /* \"contracts/Marketplace.sol\":1800:1807  _id > 0 */\n      gt\n        /* \"contracts/Marketplace.sol\":1800:1827  _id > 0 && _id <= itemCount */\n      dup1\n      iszero\n      tag_63\n      jumpi\n      pop\n        /* \"contracts/Marketplace.sol\":1818:1827  itemCount */\n      sload(0x00)\n        /* \"contracts/Marketplace.sol\":1811:1814  _id */\n      dup4\n        /* \"contracts/Marketplace.sol\":1811:1827  _id <= itemCount */\n      gt\n      iszero\n        /* \"contracts/Marketplace.sol\":1800:1827  _id > 0 && _id <= itemCount */\n    tag_63:\n        /* \"contracts/Marketplace.sol\":1792:1850  require(_id > 0 && _id <= itemCount,\"item does not exist\") */\n      tag_64\n      jumpi\n      mload(0x40)\n      0x08c379a000000000000000000000000000000000000000000000000000000000\n      dup2\n      mstore\n      0x04\n      add\n      tag_65\n      swap1\n      tag_66\n      jump\t// in\n    tag_65:\n      mload(0x40)\n      dup1\n      swap2\n      sub\n      swap1\n      revert\n    tag_64:\n        /* \"contracts/Marketplace.sol\":1882:1886  item */\n      dup1\n        /* \"contracts/Marketplace.sol\":1882:1892  item.owner */\n      0x04\n      add\n      0x00\n      swap1\n      sload\n      swap1\n      0x0100\n      exp\n      swap1\n      div\n      0xffffffffffffffffffffffffffffffffffffffff\n      and\n        /* \"contracts/Marketplace.sol\":1868:1892  msg.sender == item.owner */\n      0xffffffffffffffffffffffffffffffffffffffff\n      and\n        /* \"contracts/Marketplace.sol\":1868:1878  msg.sender */\n      caller\n        /* \"contracts/Marketplace.sol\":1868:1892  msg.sender == item.owner */\n      0xffffffffffffffffffffffffffffffffffffffff\n      and\n      eq\n        /* \"contracts/Marketplace.sol\":1860:1931  require(msg.sender == item.owner, \"you are not the owner of this item\") */\n      tag_67\n      jumpi\n      mload(0x40)\n      0x08c379a000000000000000000000000000000000000000000000000000000000\n      dup2\n      mstore\n      0x04\n      add\n      tag_68\n      swap1\n      tag_69\n      jump\t// in\n    tag_68:\n      mload(0x40)\n      dup1\n      swap2\n      sub\n      swap1\n      revert\n    tag_67:\n        /* \"contracts/Marketplace.sol\":1941:1981  _transferOwnership(_id, msg.sender, _to) */\n      tag_70\n        /* \"contracts/Marketplace.sol\":1960:1963  _id */\n      dup4\n        /* \"contracts/Marketplace.sol\":1965:1975  msg.sender */\n      caller\n        /* \"contracts/Marketplace.sol\":1977:1980  _to */\n      dup5\n        /* \"contracts/Marketplace.sol\":1941:1959  _transferOwnership */\n      tag_71\n        /* \"contracts/Marketplace.sol\":1941:1981  _transferOwnership(_id, msg.sender, _to) */\n      jump\t// in\n    tag_70:\n        /* \"contracts/Marketplace.sol\":1742:1988  {... */\n      pop\n        /* \"contracts/Marketplace.sol\":1690:1988  function transferItem(uint _id, address _to) public {... */\n      pop\n      pop\n      jump\t// out\n        /* \"contracts/Marketplace.sol\":274:308  mapping(uint => Item) public items */\n    tag_42:\n      mstore(0x20, 0x01)\n      dup1\n      0x00\n      mstore\n      keccak256(0x00, 0x40)\n      0x00\n      swap2\n      pop\n      swap1\n      pop\n      dup1\n      0x00\n      add\n      sload\n      swap1\n      dup1\n      0x01\n      add\n      dup1\n      sload\n      tag_72\n      swap1\n      tag_73\n      jump\t// in\n    tag_72:\n      dup1\n      0x1f\n      add\n      0x20\n      dup1\n      swap2\n      div\n      mul\n      0x20\n      add\n      mload(0x40)\n      swap1\n      dup2\n      add\n      0x40\n      mstore\n      dup1\n      swap3\n      swap2\n      swap1\n      dup2\n      dup2\n      mstore\n      0x20\n      add\n      dup3\n      dup1\n      sload\n      tag_74\n      swap1\n      tag_73\n      jump\t// in\n    tag_74:\n      dup1\n      iszero\n      tag_75\n      jumpi\n      dup1\n      0x1f\n      lt\n      tag_76\n      jumpi\n      0x0100\n      dup1\n      dup4\n      sload\n      div\n      mul\n      dup4\n      mstore\n      swap2\n      0x20\n      add\n      swap2\n      jump(tag_75)\n    tag_76:\n      dup3\n      add\n      swap2\n      swap1\n      0x00\n      mstore\n      keccak256(0x00, 0x20)\n      swap1\n    tag_77:\n      dup2\n      sload\n      dup2\n      mstore\n      swap1\n      0x01\n      add\n      swap1\n      0x20\n      add\n      dup1\n      dup4\n      gt\n      tag_77\n      jumpi\n      dup3\n      swap1\n      sub\n      0x1f\n      and\n      dup3\n      add\n      swap2\n    tag_75:\n      pop\n      pop\n      pop\n      pop\n      pop\n      swap1\n      dup1\n      0x02\n      add\n      sload\n      swap1\n      dup1\n      0x03\n      add\n      0x00\n      swap1\n      sload\n      swap1\n      0x0100\n      exp\n      swap1\n      div\n      0xffffffffffffffffffffffffffffffffffffffff\n      and\n      swap1\n      dup1\n      0x04\n      add\n      0x00\n      swap1\n      sload\n      swap1\n      0x0100\n      exp\n      swap1\n      div\n      0xffffffffffffffffffffffffffffffffffffffff\n      and\n      swap1\n      dup1\n      0x04\n      add\n      0x14\n      swap1\n      sload\n      swap1\n      0x0100\n      exp\n      swap1\n      div\n      0xff\n      and\n      swap1\n      pop\n      dup7\n      jump\t// out\n        /* \"contracts/Marketplace.sol\":365:820  function purchaseItem(uint _id) public payable {... */\n    tag_47:\n        /* \"contracts/Marketplace.sol\":422:439  Item storage item */\n      0x00\n        /* \"contracts/Marketplace.sol\":442:447  items */\n      0x01\n        /* \"contracts/Marketplace.sol\":442:452  items[_id] */\n      0x00\n        /* \"contracts/Marketplace.sol\":448:451  _id */\n      dup4\n        /* \"contracts/Marketplace.sol\":442:452  items[_id] */\n      dup2\n      mstore\n      0x20\n      add\n      swap1\n      dup2\n      mstore\n      0x20\n      add\n      0x00\n      keccak256\n        /* \"contracts/Marketplace.sol\":422:452  Item storage item = items[_id] */\n      swap1\n      pop\n        /* \"contracts/Marketplace.sol\":476:477  0 */\n      0x00\n        /* \"contracts/Marketplace.sol\":470:473  _id */\n      dup3\n        /* \"contracts/Marketplace.sol\":470:477  _id > 0 */\n      gt\n        /* \"contracts/Marketplace.sol\":462:492  require(_id > 0, \"invalid Id\") */\n      tag_79\n      jumpi\n      mload(0x40)\n      0x08c379a000000000000000000000000000000000000000000000000000000000\n      dup2\n      mstore\n      0x04\n      add\n      tag_80\n      swap1\n      tag_81\n      jump\t// in\n    tag_80:\n      mload(0x40)\n      dup1\n      swap2\n      sub\n      swap1\n      revert\n    tag_79:\n        /* \"contracts/Marketplace.sol\":523:527  item */\n      dup1\n        /* \"contracts/Marketplace.sol\":523:533  item.price */\n      0x02\n      add\n      sload\n        /* \"contracts/Marketplace.sol\":510:519  msg.value */\n      callvalue\n        /* \"contracts/Marketplace.sol\":510:533  msg.value == item.price */\n      eq\n        /* \"contracts/Marketplace.sol\":502:553  require(msg.value == item.price, \"incorrect price\") */\n      tag_82\n      jumpi\n      mload(0x40)\n      0x08c379a000000000000000000000000000000000000000000000000000000000\n      dup2\n      mstore\n      0x04\n      add\n      tag_83\n      swap1\n      tag_84\n      jump\t// in\n    tag_83:\n      mload(0x40)\n      dup1\n      swap2\n      sub\n      swap1\n      revert\n    tag_82:\n        /* \"contracts/Marketplace.sol\":572:576  item */\n      dup1\n        /* \"contracts/Marketplace.sol\":572:583  item.isSold */\n      0x04\n      add\n      0x14\n      swap1\n      sload\n      swap1\n      0x0100\n      exp\n      swap1\n      div\n      0xff\n      and\n        /* \"contracts/Marketplace.sol\":571:583  !item.isSold */\n      iszero\n        /* \"contracts/Marketplace.sol\":563:605  require(!item.isSold, \"item already sold\") */\n      tag_85\n      jumpi\n      mload(0x40)\n      0x08c379a000000000000000000000000000000000000000000000000000000000\n      dup2\n      mstore\n      0x04\n      add\n      tag_86\n      swap1\n      tag_87\n      jump\t// in\n    tag_86:\n      mload(0x40)\n      dup1\n      swap2\n      sub\n      swap1\n      revert\n    tag_85:\n        /* \"contracts/Marketplace.sol\":637:641  item */\n      dup1\n        /* \"contracts/Marketplace.sol\":637:648  item.seller */\n      0x03\n      add\n      0x00\n      swap1\n      sload\n      swap1\n      0x0100\n      exp\n      swap1\n      div\n      0xffffffffffffffffffffffffffffffffffffffff\n      and\n        /* \"contracts/Marketplace.sol\":623:648  msg.sender != item.seller */\n      0xffffffffffffffffffffffffffffffffffffffff\n      and\n        /* \"contracts/Marketplace.sol\":623:633  msg.sender */\n      caller\n        /* \"contracts/Marketplace.sol\":623:648  msg.sender != item.seller */\n      0xffffffffffffffffffffffffffffffffffffffff\n      and\n      sub\n        /* \"contracts/Marketplace.sol\":615:685  require(msg.sender != item.seller, \"Seller cannot buy their own item\") */\n      tag_88\n      jumpi\n      mload(0x40)\n      0x08c379a000000000000000000000000000000000000000000000000000000000\n      dup2\n      mstore\n      0x04\n      add\n      tag_89\n      swap1\n      tag_90\n      jump\t// in\n    tag_89:\n      mload(0x40)\n      dup1\n      swap2\n      sub\n      swap1\n      revert\n    tag_88:\n        /* \"contracts/Marketplace.sol\":710:714  true */\n      0x01\n        /* \"contracts/Marketplace.sol\":696:700  item */\n      dup2\n        /* \"contracts/Marketplace.sol\":696:707  item.isSold */\n      0x04\n      add\n      0x14\n        /* \"contracts/Marketplace.sol\":696:714  item.isSold = true */\n      0x0100\n      exp\n      dup2\n      sload\n      dup2\n      0xff\n      mul\n      not\n      and\n      swap1\n      dup4\n      iszero\n      iszero\n      mul\n      or\n      swap1\n      sstore\n      pop\n        /* \"contracts/Marketplace.sol\":724:728  item */\n      dup1\n        /* \"contracts/Marketplace.sol\":724:735  item.seller */\n      0x03\n      add\n      0x00\n      swap1\n      sload\n      swap1\n      0x0100\n      exp\n      swap1\n      div\n      0xffffffffffffffffffffffffffffffffffffffff\n      and\n        /* \"contracts/Marketplace.sol\":724:744  item.seller.transfer */\n      0xffffffffffffffffffffffffffffffffffffffff\n      and\n        /* \"contracts/Marketplace.sol\":724:755  item.seller.transfer(msg.value) */\n      0x08fc\n        /* \"contracts/Marketplace.sol\":745:754  msg.value */\n      callvalue\n        /* \"contracts/Marketplace.sol\":724:755  item.seller.transfer(msg.value) */\n      swap1\n      dup2\n      iszero\n      mul\n      swap1\n      mload(0x40)\n      0x00\n      mload(0x40)\n      dup1\n      dup4\n      sub\n      dup2\n      dup6\n      dup9\n      dup9\n      call\n      swap4\n      pop\n      pop\n      pop\n      pop\n      iszero\n      dup1\n      iszero\n      tag_92\n      jumpi\n      returndatasize\n      0x00\n      dup1\n      returndatacopy\n      revert(0x00, returndatasize)\n    tag_92:\n      pop\n        /* \"contracts/Marketplace.sol\":765:813  _transferOwnership(_id, item.seller, msg.sender) */\n      tag_93\n        /* \"contracts/Marketplace.sol\":784:787  _id */\n      dup3\n        /* \"contracts/Marketplace.sol\":789:793  item */\n      dup3\n        /* \"contracts/Marketplace.sol\":789:800  item.seller */\n      0x03\n      add\n      0x00\n      swap1\n      sload\n      swap1\n      0x0100\n      exp\n      swap1\n      div\n      0xffffffffffffffffffffffffffffffffffffffff\n      and\n        /* \"contracts/Marketplace.sol\":802:812  msg.sender */\n      caller\n        /* \"contracts/Marketplace.sol\":765:783  _transferOwnership */\n      tag_71\n        /* \"contracts/Marketplace.sol\":765:813  _transferOwnership(_id, item.seller, msg.sender) */\n      jump\t// in\n    tag_93:\n        /* \"contracts/Marketplace.sol\":412:820  {... */\n      pop\n        /* \"contracts/Marketplace.sol\":365:820  function purchaseItem(uint _id) public payable {... */\n      pop\n      jump\t// out\n        /* \"contracts/Marketplace.sol\":1126:1684  function _transferOwnership(uint _id, address _from, address _to) internal {... */\n    tag_71:\n        /* \"contracts/Marketplace.sol\":1211:1228  Item storage item */\n      0x00\n        /* \"contracts/Marketplace.sol\":1231:1236  items */\n      0x01\n        /* \"contracts/Marketplace.sol\":1231:1241  items[_id] */\n      0x00\n        /* \"contracts/Marketplace.sol\":1237:1240  _id */\n      dup6\n        /* \"contracts/Marketplace.sol\":1231:1241  items[_id] */\n      dup2\n      mstore\n      0x20\n      add\n      swap1\n      dup2\n      mstore\n      0x20\n      add\n      0x00\n      keccak256\n        /* \"contracts/Marketplace.sol\":1211:1241  Item storage item = items[_id] */\n      swap1\n      pop\n        /* \"contracts/Marketplace.sol\":1264:1267  _to */\n      dup2\n        /* \"contracts/Marketplace.sol\":1251:1255  item */\n      dup2\n        /* \"contracts/Marketplace.sol\":1251:1261  item.owner */\n      0x04\n      add\n      0x00\n        /* \"contracts/Marketplace.sol\":1251:1267  item.owner = _to */\n      0x0100\n      exp\n      dup2\n      sload\n      dup2\n      0xffffffffffffffffffffffffffffffffffffffff\n      mul\n      not\n      and\n      swap1\n      dup4\n      0xffffffffffffffffffffffffffffffffffffffff\n      and\n      mul\n      or\n      swap1\n      sstore\n      pop\n        /* \"contracts/Marketplace.sol\":1326:1350  uint[] storage fromItems */\n      0x00\n        /* \"contracts/Marketplace.sol\":1353:1363  ownedItems */\n      0x02\n        /* \"contracts/Marketplace.sol\":1353:1370  ownedItems[_from] */\n      0x00\n        /* \"contracts/Marketplace.sol\":1364:1369  _from */\n      dup6\n        /* \"contracts/Marketplace.sol\":1353:1370  ownedItems[_from] */\n      0xffffffffffffffffffffffffffffffffffffffff\n      and\n      0xffffffffffffffffffffffffffffffffffffffff\n      and\n      dup2\n      mstore\n      0x20\n      add\n      swap1\n      dup2\n      mstore\n      0x20\n      add\n      0x00\n      keccak256\n        /* \"contracts/Marketplace.sol\":1326:1370  uint[] storage fromItems = ownedItems[_from] */\n      swap1\n      pop\n        /* \"contracts/Marketplace.sol\":1384:1390  uint i */\n      0x00\n        /* \"contracts/Marketplace.sol\":1380:1604  for(uint i = 0; i < fromItems.length; i++){... */\n    tag_95:\n        /* \"contracts/Marketplace.sol\":1400:1409  fromItems */\n      dup2\n        /* \"contracts/Marketplace.sol\":1400:1416  fromItems.length */\n      dup1\n      sload\n      swap1\n      pop\n        /* \"contracts/Marketplace.sol\":1396:1397  i */\n      dup2\n        /* \"contracts/Marketplace.sol\":1396:1416  i < fromItems.length */\n      lt\n        /* \"contracts/Marketplace.sol\":1380:1604  for(uint i = 0; i < fromItems.length; i++){... */\n      iszero\n      tag_96\n      jumpi\n        /* \"contracts/Marketplace.sol\":1455:1458  _id */\n      dup6\n        /* \"contracts/Marketplace.sol\":1439:1448  fromItems */\n      dup3\n        /* \"contracts/Marketplace.sol\":1449:1450  i */\n      dup3\n        /* \"contracts/Marketplace.sol\":1439:1451  fromItems[i] */\n      dup2\n      sload\n      dup2\n      lt\n      tag_98\n      jumpi\n      tag_99\n      tag_100\n      jump\t// in\n    tag_99:\n    tag_98:\n      swap1\n      0x00\n      mstore\n      keccak256(0x00, 0x20)\n      add\n      sload\n        /* \"contracts/Marketplace.sol\":1439:1458  fromItems[i] == _id */\n      sub\n        /* \"contracts/Marketplace.sol\":1436:1594  if(fromItems[i] == _id){... */\n      tag_102\n      jumpi\n        /* \"contracts/Marketplace.sol\":1492:1501  fromItems */\n      dup2\n        /* \"contracts/Marketplace.sol\":1521:1522  1 */\n      0x01\n        /* \"contracts/Marketplace.sol\":1502:1511  fromItems */\n      dup4\n        /* \"contracts/Marketplace.sol\":1502:1518  fromItems.length */\n      dup1\n      sload\n      swap1\n      pop\n        /* \"contracts/Marketplace.sol\":1502:1522  fromItems.length - 1 */\n      tag_103\n      swap2\n      swap1\n      tag_104\n      jump\t// in\n    tag_103:\n        /* \"contracts/Marketplace.sol\":1492:1523  fromItems[fromItems.length - 1] */\n      dup2\n      sload\n      dup2\n      lt\n      tag_105\n      jumpi\n      tag_106\n      tag_100\n      jump\t// in\n    tag_106:\n    tag_105:\n      swap1\n      0x00\n      mstore\n      keccak256(0x00, 0x20)\n      add\n      sload\n        /* \"contracts/Marketplace.sol\":1477:1486  fromItems */\n      dup3\n        /* \"contracts/Marketplace.sol\":1487:1488  i */\n      dup3\n        /* \"contracts/Marketplace.sol\":1477:1489  fromItems[i] */\n      dup2\n      sload\n      dup2\n      lt\n      tag_108\n      jumpi\n      tag_109\n      tag_100\n      jump\t// in\n    tag_109:\n    tag_108:\n      swap1\n      0x00\n      mstore\n      keccak256(0x00, 0x20)\n      add\n        /* \"contracts/Marketplace.sol\":1477:1523  fromItems[i] = fromItems[fromItems.length - 1] */\n      dup2\n      swap1\n      sstore\n      pop\n        /* \"contracts/Marketplace.sol\":1541:1550  fromItems */\n      dup2\n        /* \"contracts/Marketplace.sol\":1541:1556  fromItems.pop() */\n      dup1\n      sload\n      dup1\n      tag_111\n      jumpi\n      tag_112\n      tag_113\n      jump\t// in\n    tag_112:\n    tag_111:\n      0x01\n      swap1\n      sub\n      dup2\n      dup2\n      swap1\n      0x00\n      mstore\n      keccak256(0x00, 0x20)\n      add\n      0x00\n      swap1\n      sstore\n      swap1\n      sstore\n        /* \"contracts/Marketplace.sol\":1574:1579  break */\n      jump(tag_96)\n        /* \"contracts/Marketplace.sol\":1436:1594  if(fromItems[i] == _id){... */\n    tag_102:\n        /* \"contracts/Marketplace.sol\":1418:1421  i++ */\n      dup1\n      dup1\n      0x01\n      add\n      swap2\n      pop\n      pop\n        /* \"contracts/Marketplace.sol\":1380:1604  for(uint i = 0; i < fromItems.length; i++){... */\n      jump(tag_95)\n    tag_96:\n      pop\n        /* \"contracts/Marketplace.sol\":1652:1662  ownedItems */\n      0x02\n        /* \"contracts/Marketplace.sol\":1652:1667  ownedItems[_to] */\n      0x00\n        /* \"contracts/Marketplace.sol\":1663:1666  _to */\n      dup5\n        /* \"contracts/Marketplace.sol\":1652:1667  ownedItems[_to] */\n      0xffffffffffffffffffffffffffffffffffffffff\n      and\n      0xffffffffffffffffffffffffffffffffffffffff\n      and\n      dup2\n      mstore\n      0x20\n      add\n      swap1\n      dup2\n      mstore\n      0x20\n      add\n      0x00\n      keccak256\n        /* \"contracts/Marketplace.sol\":1673:1676  _id */\n      dup6\n        /* \"contracts/Marketplace.sol\":1652:1677  ownedItems[_to].push(_id) */\n      swap1\n      dup1\n      0x01\n      dup2\n      sload\n      add\n      dup1\n      dup3\n      sstore\n      dup1\n      swap2\n      pop\n      pop\n      0x01\n      swap1\n      sub\n      swap1\n      0x00\n      mstore\n      keccak256(0x00, 0x20)\n      add\n      0x00\n      swap1\n      swap2\n      swap1\n      swap2\n      swap1\n      swap2\n      pop\n      sstore\n        /* \"contracts/Marketplace.sol\":1201:1684  {... */\n      pop\n      pop\n        /* \"contracts/Marketplace.sol\":1126:1684  function _transferOwnership(uint _id, address _from, address _to) internal {... */\n      pop\n      pop\n      pop\n      jump\t// out\n        /* \"#utility.yul\":7:82   */\n    tag_116:\n        /* \"#utility.yul\":40:46   */\n      0x00\n        /* \"#utility.yul\":73:75   */\n      0x40\n        /* \"#utility.yul\":67:76   */\n      mload\n        /* \"#utility.yul\":57:76   */\n      swap1\n      pop\n        /* \"#utility.yul\":7:82   */\n      swap1\n      jump\t// out\n        /* \"#utility.yul\":88:205   */\n    tag_117:\n        /* \"#utility.yul\":197:198   */\n      0x00\n        /* \"#utility.yul\":194:195   */\n      dup1\n        /* \"#utility.yul\":187:199   */\n      revert\n        /* \"#utility.yul\":211:328   */\n    tag_118:\n        /* \"#utility.yul\":320:321   */\n      0x00\n        /* \"#utility.yul\":317:318   */\n      dup1\n        /* \"#utility.yul\":310:322   */\n      revert\n        /* \"#utility.yul\":334:460   */\n    tag_119:\n        /* \"#utility.yul\":371:378   */\n      0x00\n        /* \"#utility.yul\":411:453   */\n      0xffffffffffffffffffffffffffffffffffffffff\n        /* \"#utility.yul\":404:409   */\n      dup3\n        /* \"#utility.yul\":400:454   */\n      and\n        /* \"#utility.yul\":389:454   */\n      swap1\n      pop\n        /* \"#utility.yul\":334:460   */\n      swap2\n      swap1\n      pop\n      jump\t// out\n        /* \"#utility.yul\":466:562   */\n    tag_120:\n        /* \"#utility.yul\":503:510   */\n      0x00\n        /* \"#utility.yul\":532:556   */\n      tag_190\n        /* \"#utility.yul\":550:555   */\n      dup3\n        /* \"#utility.yul\":532:556   */\n      tag_119\n      jump\t// in\n    tag_190:\n        /* \"#utility.yul\":521:556   */\n      swap1\n      pop\n        /* \"#utility.yul\":466:562   */\n      swap2\n      swap1\n      pop\n      jump\t// out\n        /* \"#utility.yul\":568:690   */\n    tag_121:\n        /* \"#utility.yul\":641:665   */\n      tag_192\n        /* \"#utility.yul\":659:664   */\n      dup2\n        /* \"#utility.yul\":641:665   */\n      tag_120\n      jump\t// in\n    tag_192:\n        /* \"#utility.yul\":634:639   */\n      dup2\n        /* \"#utility.yul\":631:666   */\n      eq\n        /* \"#utility.yul\":621:684   */\n      tag_193\n      jumpi\n        /* \"#utility.yul\":680:681   */\n      0x00\n        /* \"#utility.yul\":677:678   */\n      dup1\n        /* \"#utility.yul\":670:682   */\n      revert\n        /* \"#utility.yul\":621:684   */\n    tag_193:\n        /* \"#utility.yul\":568:690   */\n      pop\n      jump\t// out\n        /* \"#utility.yul\":696:835   */\n    tag_122:\n        /* \"#utility.yul\":742:747   */\n      0x00\n        /* \"#utility.yul\":780:786   */\n      dup2\n        /* \"#utility.yul\":767:787   */\n      calldataload\n        /* \"#utility.yul\":758:787   */\n      swap1\n      pop\n        /* \"#utility.yul\":796:829   */\n      tag_195\n        /* \"#utility.yul\":823:828   */\n      dup2\n        /* \"#utility.yul\":796:829   */\n      tag_121\n      jump\t// in\n    tag_195:\n        /* \"#utility.yul\":696:835   */\n      swap3\n      swap2\n      pop\n      pop\n      jump\t// out\n        /* \"#utility.yul\":841:918   */\n    tag_123:\n        /* \"#utility.yul\":878:885   */\n      0x00\n        /* \"#utility.yul\":907:912   */\n      dup2\n        /* \"#utility.yul\":896:912   */\n      swap1\n      pop\n        /* \"#utility.yul\":841:918   */\n      swap2\n      swap1\n      pop\n      jump\t// out\n        /* \"#utility.yul\":924:1046   */\n    tag_124:\n        /* \"#utility.yul\":997:1021   */\n      tag_198\n        /* \"#utility.yul\":1015:1020   */\n      dup2\n        /* \"#utility.yul\":997:1021   */\n      tag_123\n      jump\t// in\n    tag_198:\n        /* \"#utility.yul\":990:995   */\n      dup2\n        /* \"#utility.yul\":987:1022   */\n      eq\n        /* \"#utility.yul\":977:1040   */\n      tag_199\n      jumpi\n        /* \"#utility.yul\":1036:1037   */\n      0x00\n        /* \"#utility.yul\":1033:1034   */\n      dup1\n        /* \"#utility.yul\":1026:1038   */\n      revert\n        /* \"#utility.yul\":977:1040   */\n    tag_199:\n        /* \"#utility.yul\":924:1046   */\n      pop\n      jump\t// out\n        /* \"#utility.yul\":1052:1191   */\n    tag_125:\n        /* \"#utility.yul\":1098:1103   */\n      0x00\n        /* \"#utility.yul\":1136:1142   */\n      dup2\n        /* \"#utility.yul\":1123:1143   */\n      calldataload\n        /* \"#utility.yul\":1114:1143   */\n      swap1\n      pop\n        /* \"#utility.yul\":1152:1185   */\n      tag_201\n        /* \"#utility.yul\":1179:1184   */\n      dup2\n        /* \"#utility.yul\":1152:1185   */\n      tag_124\n      jump\t// in\n    tag_201:\n        /* \"#utility.yul\":1052:1191   */\n      swap3\n      swap2\n      pop\n      pop\n      jump\t// out\n        /* \"#utility.yul\":1197:1671   */\n    tag_13:\n        /* \"#utility.yul\":1265:1271   */\n      0x00\n        /* \"#utility.yul\":1273:1279   */\n      dup1\n        /* \"#utility.yul\":1322:1324   */\n      0x40\n        /* \"#utility.yul\":1310:1319   */\n      dup4\n        /* \"#utility.yul\":1301:1308   */\n      dup6\n        /* \"#utility.yul\":1297:1320   */\n      sub\n        /* \"#utility.yul\":1293:1325   */\n      slt\n        /* \"#utility.yul\":1290:1409   */\n      iszero\n      tag_203\n      jumpi\n        /* \"#utility.yul\":1328:1407   */\n      tag_204\n      tag_117\n      jump\t// in\n    tag_204:\n        /* \"#utility.yul\":1290:1409   */\n    tag_203:\n        /* \"#utility.yul\":1448:1449   */\n      0x00\n        /* \"#utility.yul\":1473:1526   */\n      tag_205\n        /* \"#utility.yul\":1518:1525   */\n      dup6\n        /* \"#utility.yul\":1509:1515   */\n      dup3\n        /* \"#utility.yul\":1498:1507   */\n      dup7\n        /* \"#utility.yul\":1494:1516   */\n      add\n        /* \"#utility.yul\":1473:1526   */\n      tag_122\n      jump\t// in\n    tag_205:\n        /* \"#utility.yul\":1463:1526   */\n      swap3\n      pop\n        /* \"#utility.yul\":1419:1536   */\n      pop\n        /* \"#utility.yul\":1575:1577   */\n      0x20\n        /* \"#utility.yul\":1601:1654   */\n      tag_206\n        /* \"#utility.yul\":1646:1653   */\n      dup6\n        /* \"#utility.yul\":1637:1643   */\n      dup3\n        /* \"#utility.yul\":1626:1635   */\n      dup7\n        /* \"#utility.yul\":1622:1644   */\n      add\n        /* \"#utility.yul\":1601:1654   */\n      tag_125\n      jump\t// in\n    tag_206:\n        /* \"#utility.yul\":1591:1654   */\n      swap2\n      pop\n        /* \"#utility.yul\":1546:1664   */\n      pop\n        /* \"#utility.yul\":1197:1671   */\n      swap3\n      pop\n      swap3\n      swap1\n      pop\n      jump\t// out\n        /* \"#utility.yul\":1677:1795   */\n    tag_126:\n        /* \"#utility.yul\":1764:1788   */\n      tag_208\n        /* \"#utility.yul\":1782:1787   */\n      dup2\n        /* \"#utility.yul\":1764:1788   */\n      tag_123\n      jump\t// in\n    tag_208:\n        /* \"#utility.yul\":1759:1762   */\n      dup3\n        /* \"#utility.yul\":1752:1789   */\n      mstore\n        /* \"#utility.yul\":1677:1795   */\n      pop\n      pop\n      jump\t// out\n        /* \"#utility.yul\":1801:2023   */\n    tag_16:\n        /* \"#utility.yul\":1894:1898   */\n      0x00\n        /* \"#utility.yul\":1932:1934   */\n      0x20\n        /* \"#utility.yul\":1921:1930   */\n      dup3\n        /* \"#utility.yul\":1917:1935   */\n      add\n        /* \"#utility.yul\":1909:1935   */\n      swap1\n      pop\n        /* \"#utility.yul\":1945:2016   */\n      tag_210\n        /* \"#utility.yul\":2013:2014   */\n      0x00\n        /* \"#utility.yul\":2002:2011   */\n      dup4\n        /* \"#utility.yul\":1998:2015   */\n      add\n        /* \"#utility.yul\":1989:1995   */\n      dup5\n        /* \"#utility.yul\":1945:2016   */\n      tag_126\n      jump\t// in\n    tag_210:\n        /* \"#utility.yul\":1801:2023   */\n      swap3\n      swap2\n      pop\n      pop\n      jump\t// out\n        /* \"#utility.yul\":2029:2146   */\n    tag_127:\n        /* \"#utility.yul\":2138:2139   */\n      0x00\n        /* \"#utility.yul\":2135:2136   */\n      dup1\n        /* \"#utility.yul\":2128:2140   */\n      revert\n        /* \"#utility.yul\":2152:2269   */\n    tag_128:\n        /* \"#utility.yul\":2261:2262   */\n      0x00\n        /* \"#utility.yul\":2258:2259   */\n      dup1\n        /* \"#utility.yul\":2251:2263   */\n      revert\n        /* \"#utility.yul\":2275:2377   */\n    tag_129:\n        /* \"#utility.yul\":2316:2322   */\n      0x00\n        /* \"#utility.yul\":2367:2369   */\n      0x1f\n        /* \"#utility.yul\":2363:2370   */\n      not\n        /* \"#utility.yul\":2358:2360   */\n      0x1f\n        /* \"#utility.yul\":2351:2356   */\n      dup4\n        /* \"#utility.yul\":2347:2361   */\n      add\n        /* \"#utility.yul\":2343:2371   */\n      and\n        /* \"#utility.yul\":2333:2371   */\n      swap1\n      pop\n        /* \"#utility.yul\":2275:2377   */\n      swap2\n      swap1\n      pop\n      jump\t// out\n        /* \"#utility.yul\":2383:2563   */\n    tag_130:\n        /* \"#utility.yul\":2431:2508   */\n      0x4e487b7100000000000000000000000000000000000000000000000000000000\n        /* \"#utility.yul\":2428:2429   */\n      0x00\n        /* \"#utility.yul\":2421:2509   */\n      mstore\n        /* \"#utility.yul\":2528:2532   */\n      0x41\n        /* \"#utility.yul\":2525:2526   */\n      0x04\n        /* \"#utility.yul\":2518:2533   */\n      mstore\n        /* \"#utility.yul\":2552:2556   */\n      0x24\n        /* \"#utility.yul\":2549:2550   */\n      0x00\n        /* \"#utility.yul\":2542:2557   */\n      revert\n        /* \"#utility.yul\":2569:2850   */\n    tag_131:\n        /* \"#utility.yul\":2652:2679   */\n      tag_216\n        /* \"#utility.yul\":2674:2678   */\n      dup3\n        /* \"#utility.yul\":2652:2679   */\n      tag_129\n      jump\t// in\n    tag_216:\n        /* \"#utility.yul\":2644:2650   */\n      dup2\n        /* \"#utility.yul\":2640:2680   */\n      add\n        /* \"#utility.yul\":2782:2788   */\n      dup2\n        /* \"#utility.yul\":2770:2780   */\n      dup2\n        /* \"#utility.yul\":2767:2789   */\n      lt\n        /* \"#utility.yul\":2746:2764   */\n      0xffffffffffffffff\n        /* \"#utility.yul\":2734:2744   */\n      dup3\n        /* \"#utility.yul\":2731:2765   */\n      gt\n        /* \"#utility.yul\":2728:2790   */\n      or\n        /* \"#utility.yul\":2725:2813   */\n      iszero\n      tag_217\n      jumpi\n        /* \"#utility.yul\":2793:2811   */\n      tag_218\n      tag_130\n      jump\t// in\n    tag_218:\n        /* \"#utility.yul\":2725:2813   */\n    tag_217:\n        /* \"#utility.yul\":2833:2843   */\n      dup1\n        /* \"#utility.yul\":2829:2831   */\n      0x40\n        /* \"#utility.yul\":2822:2844   */\n      mstore\n        /* \"#utility.yul\":2612:2850   */\n      pop\n        /* \"#utility.yul\":2569:2850   */\n      pop\n      pop\n      jump\t// out\n        /* \"#utility.yul\":2856:2985   */\n    tag_132:\n        /* \"#utility.yul\":2890:2896   */\n      0x00\n        /* \"#utility.yul\":2917:2937   */\n      tag_220\n      tag_116\n      jump\t// in\n    tag_220:\n        /* \"#utility.yul\":2907:2937   */\n      swap1\n      pop\n        /* \"#utility.yul\":2946:2979   */\n      tag_221\n        /* \"#utility.yul\":2974:2978   */\n      dup3\n        /* \"#utility.yul\":2966:2972   */\n      dup3\n        /* \"#utility.yul\":2946:2979   */\n      tag_131\n      jump\t// in\n    tag_221:\n        /* \"#utility.yul\":2856:2985   */\n      swap2\n      swap1\n      pop\n      jump\t// out\n        /* \"#utility.yul\":2991:3299   */\n    tag_133:\n        /* \"#utility.yul\":3053:3057   */\n      0x00\n        /* \"#utility.yul\":3143:3161   */\n      0xffffffffffffffff\n        /* \"#utility.yul\":3135:3141   */\n      dup3\n        /* \"#utility.yul\":3132:3162   */\n      gt\n        /* \"#utility.yul\":3129:3185   */\n      iszero\n      tag_223\n      jumpi\n        /* \"#utility.yul\":3165:3183   */\n      tag_224\n      tag_130\n      jump\t// in\n    tag_224:\n        /* \"#utility.yul\":3129:3185   */\n    tag_223:\n        /* \"#utility.yul\":3203:3232   */\n      tag_225\n        /* \"#utility.yul\":3225:3231   */\n      dup3\n        /* \"#utility.yul\":3203:3232   */\n      tag_129\n      jump\t// in\n    tag_225:\n        /* \"#utility.yul\":3195:3232   */\n      swap1\n      pop\n        /* \"#utility.yul\":3287:3291   */\n      0x20\n        /* \"#utility.yul\":3281:3285   */\n      dup2\n        /* \"#utility.yul\":3277:3292   */\n      add\n        /* \"#utility.yul\":3269:3292   */\n      swap1\n      pop\n        /* \"#utility.yul\":2991:3299   */\n      swap2\n      swap1\n      pop\n      jump\t// out\n        /* \"#utility.yul\":3305:3453   */\n    tag_134:\n        /* \"#utility.yul\":3403:3409   */\n      dup3\n        /* \"#utility.yul\":3398:3401   */\n      dup2\n        /* \"#utility.yul\":3393:3396   */\n      dup4\n        /* \"#utility.yul\":3380:3410   */\n      calldatacopy\n        /* \"#utility.yul\":3444:3445   */\n      0x00\n        /* \"#utility.yul\":3435:3441   */\n      dup4\n        /* \"#utility.yul\":3430:3433   */\n      dup4\n        /* \"#utility.yul\":3426:3442   */\n      add\n        /* \"#utility.yul\":3419:3446   */\n      mstore\n        /* \"#utility.yul\":3305:3453   */\n      pop\n      pop\n      pop\n      jump\t// out\n        /* \"#utility.yul\":3459:3884   */\n    tag_135:\n        /* \"#utility.yul\":3537:3542   */\n      0x00\n        /* \"#utility.yul\":3562:3628   */\n      tag_228\n        /* \"#utility.yul\":3578:3627   */\n      tag_229\n        /* \"#utility.yul\":3620:3626   */\n      dup5\n        /* \"#utility.yul\":3578:3627   */\n      tag_133\n      jump\t// in\n    tag_229:\n        /* \"#utility.yul\":3562:3628   */\n      tag_132\n      jump\t// in\n    tag_228:\n        /* \"#utility.yul\":3553:3628   */\n      swap1\n      pop\n        /* \"#utility.yul\":3651:3657   */\n      dup3\n        /* \"#utility.yul\":3644:3649   */\n      dup2\n        /* \"#utility.yul\":3637:3658   */\n      mstore\n        /* \"#utility.yul\":3689:3693   */\n      0x20\n        /* \"#utility.yul\":3682:3687   */\n      dup2\n        /* \"#utility.yul\":3678:3694   */\n      add\n        /* \"#utility.yul\":3727:3730   */\n      dup5\n        /* \"#utility.yul\":3718:3724   */\n      dup5\n        /* \"#utility.yul\":3713:3716   */\n      dup5\n        /* \"#utility.yul\":3709:3725   */\n      add\n        /* \"#utility.yul\":3706:3731   */\n      gt\n        /* \"#utility.yul\":3703:3815   */\n      iszero\n      tag_230\n      jumpi\n        /* \"#utility.yul\":3734:3813   */\n      tag_231\n      tag_128\n      jump\t// in\n    tag_231:\n        /* \"#utility.yul\":3703:3815   */\n    tag_230:\n        /* \"#utility.yul\":3824:3878   */\n      tag_232\n        /* \"#utility.yul\":3871:3877   */\n      dup5\n        /* \"#utility.yul\":3866:3869   */\n      dup3\n        /* \"#utility.yul\":3861:3864   */\n      dup6\n        /* \"#utility.yul\":3824:3878   */\n      tag_134\n      jump\t// in\n    tag_232:\n        /* \"#utility.yul\":3543:3884   */\n      pop\n        /* \"#utility.yul\":3459:3884   */\n      swap4\n      swap3\n      pop\n      pop\n      pop\n      jump\t// out\n        /* \"#utility.yul\":3904:4244   */\n    tag_136:\n        /* \"#utility.yul\":3960:3965   */\n      0x00\n        /* \"#utility.yul\":4009:4012   */\n      dup3\n        /* \"#utility.yul\":4002:4006   */\n      0x1f\n        /* \"#utility.yul\":3994:4000   */\n      dup4\n        /* \"#utility.yul\":3990:4007   */\n      add\n        /* \"#utility.yul\":3986:4013   */\n      slt\n        /* \"#utility.yul\":3976:4098   */\n      tag_234\n      jumpi\n        /* \"#utility.yul\":4017:4096   */\n      tag_235\n      tag_127\n      jump\t// in\n    tag_235:\n        /* \"#utility.yul\":3976:4098   */\n    tag_234:\n        /* \"#utility.yul\":4134:4140   */\n      dup2\n        /* \"#utility.yul\":4121:4141   */\n      calldataload\n        /* \"#utility.yul\":4159:4238   */\n      tag_236\n        /* \"#utility.yul\":4234:4237   */\n      dup5\n        /* \"#utility.yul\":4226:4232   */\n      dup3\n        /* \"#utility.yul\":4219:4223   */\n      0x20\n        /* \"#utility.yul\":4211:4217   */\n      dup7\n        /* \"#utility.yul\":4207:4224   */\n      add\n        /* \"#utility.yul\":4159:4238   */\n      tag_135\n      jump\t// in\n    tag_236:\n        /* \"#utility.yul\":4150:4238   */\n      swap2\n      pop\n        /* \"#utility.yul\":3966:4244   */\n      pop\n        /* \"#utility.yul\":3904:4244   */\n      swap3\n      swap2\n      pop\n      pop\n      jump\t// out\n        /* \"#utility.yul\":4250:4904   */\n    tag_24:\n        /* \"#utility.yul\":4328:4334   */\n      0x00\n        /* \"#utility.yul\":4336:4342   */\n      dup1\n        /* \"#utility.yul\":4385:4387   */\n      0x40\n        /* \"#utility.yul\":4373:4382   */\n      dup4\n        /* \"#utility.yul\":4364:4371   */\n      dup6\n        /* \"#utility.yul\":4360:4383   */\n      sub\n        /* \"#utility.yul\":4356:4388   */\n      slt\n        /* \"#utility.yul\":4353:4472   */\n      iszero\n      tag_238\n      jumpi\n        /* \"#utility.yul\":4391:4470   */\n      tag_239\n      tag_117\n      jump\t// in\n    tag_239:\n        /* \"#utility.yul\":4353:4472   */\n    tag_238:\n        /* \"#utility.yul\":4539:4540   */\n      0x00\n        /* \"#utility.yul\":4528:4537   */\n      dup4\n        /* \"#utility.yul\":4524:4541   */\n      add\n        /* \"#utility.yul\":4511:4542   */\n      calldataload\n        /* \"#utility.yul\":4569:4587   */\n      0xffffffffffffffff\n        /* \"#utility.yul\":4561:4567   */\n      dup2\n        /* \"#utility.yul\":4558:4588   */\n      gt\n        /* \"#utility.yul\":4555:4672   */\n      iszero\n      tag_240\n      jumpi\n        /* \"#utility.yul\":4591:4670   */\n      tag_241\n      tag_118\n      jump\t// in\n    tag_241:\n        /* \"#utility.yul\":4555:4672   */\n    tag_240:\n        /* \"#utility.yul\":4696:4759   */\n      tag_242\n        /* \"#utility.yul\":4751:4758   */\n      dup6\n        /* \"#utility.yul\":4742:4748   */\n      dup3\n        /* \"#utility.yul\":4731:4740   */\n      dup7\n        /* \"#utility.yul\":4727:4749   */\n      add\n        /* \"#utility.yul\":4696:4759   */\n      tag_136\n      jump\t// in\n    tag_242:\n        /* \"#utility.yul\":4686:4759   */\n      swap3\n      pop\n        /* \"#utility.yul\":4482:4769   */\n      pop\n        /* \"#utility.yul\":4808:4810   */\n      0x20\n        /* \"#utility.yul\":4834:4887   */\n      tag_243\n        /* \"#utility.yul\":4879:4886   */\n      dup6\n        /* \"#utility.yul\":4870:4876   */\n      dup3\n        /* \"#utility.yul\":4859:4868   */\n      dup7\n        /* \"#utility.yul\":4855:4877   */\n      add\n        /* \"#utility.yul\":4834:4887   */\n      tag_125\n      jump\t// in\n    tag_243:\n        /* \"#utility.yul\":4824:4887   */\n      swap2\n      pop\n        /* \"#utility.yul\":4779:4897   */\n      pop\n        /* \"#utility.yul\":4250:4904   */\n      swap3\n      pop\n      swap3\n      swap1\n      pop\n      jump\t// out\n        /* \"#utility.yul\":4910:5239   */\n    tag_29:\n        /* \"#utility.yul\":4969:4975   */\n      0x00\n        /* \"#utility.yul\":5018:5020   */\n      0x20\n        /* \"#utility.yul\":5006:5015   */\n      dup3\n        /* \"#utility.yul\":4997:5004   */\n      dup5\n        /* \"#utility.yul\":4993:5016   */\n      sub\n        /* \"#utility.yul\":4989:5021   */\n      slt\n        /* \"#utility.yul\":4986:5105   */\n      iszero\n      tag_245\n      jumpi\n        /* \"#utility.yul\":5024:5103   */\n      tag_246\n      tag_117\n      jump\t// in\n    tag_246:\n        /* \"#utility.yul\":4986:5105   */\n    tag_245:\n        /* \"#utility.yul\":5144:5145   */\n      0x00\n        /* \"#utility.yul\":5169:5222   */\n      tag_247\n        /* \"#utility.yul\":5214:5221   */\n      dup5\n        /* \"#utility.yul\":5205:5211   */\n      dup3\n        /* \"#utility.yul\":5194:5203   */\n      dup6\n        /* \"#utility.yul\":5190:5212   */\n      add\n        /* \"#utility.yul\":5169:5222   */\n      tag_122\n      jump\t// in\n    tag_247:\n        /* \"#utility.yul\":5159:5222   */\n      swap2\n      pop\n        /* \"#utility.yul\":5115:5232   */\n      pop\n        /* \"#utility.yul\":4910:5239   */\n      swap3\n      swap2\n      pop\n      pop\n      jump\t// out\n        /* \"#utility.yul\":5245:5359   */\n    tag_137:\n        /* \"#utility.yul\":5312:5318   */\n      0x00\n        /* \"#utility.yul\":5346:5351   */\n      dup2\n        /* \"#utility.yul\":5340:5352   */\n      mload\n        /* \"#utility.yul\":5330:5352   */\n      swap1\n      pop\n        /* \"#utility.yul\":5245:5359   */\n      swap2\n      swap1\n      pop\n      jump\t// out\n        /* \"#utility.yul\":5365:5549   */\n    tag_138:\n        /* \"#utility.yul\":5464:5475   */\n      0x00\n        /* \"#utility.yul\":5498:5504   */\n      dup3\n        /* \"#utility.yul\":5493:5496   */\n      dup3\n        /* \"#utility.yul\":5486:5505   */\n      mstore\n        /* \"#utility.yul\":5538:5542   */\n      0x20\n        /* \"#utility.yul\":5533:5536   */\n      dup3\n        /* \"#utility.yul\":5529:5543   */\n      add\n        /* \"#utility.yul\":5514:5543   */\n      swap1\n      pop\n        /* \"#utility.yul\":5365:5549   */\n      swap3\n      swap2\n      pop\n      pop\n      jump\t// out\n        /* \"#utility.yul\":5555:5687   */\n    tag_139:\n        /* \"#utility.yul\":5622:5626   */\n      0x00\n        /* \"#utility.yul\":5645:5648   */\n      dup2\n        /* \"#utility.yul\":5637:5648   */\n      swap1\n      pop\n        /* \"#utility.yul\":5675:5679   */\n      0x20\n        /* \"#utility.yul\":5670:5673   */\n      dup3\n        /* \"#utility.yul\":5666:5680   */\n      add\n        /* \"#utility.yul\":5658:5680   */\n      swap1\n      pop\n        /* \"#utility.yul\":5555:5687   */\n      swap2\n      swap1\n      pop\n      jump\t// out\n        /* \"#utility.yul\":5693:5801   */\n    tag_140:\n        /* \"#utility.yul\":5770:5794   */\n      tag_252\n        /* \"#utility.yul\":5788:5793   */\n      dup2\n        /* \"#utility.yul\":5770:5794   */\n      tag_123\n      jump\t// in\n    tag_252:\n        /* \"#utility.yul\":5765:5768   */\n      dup3\n        /* \"#utility.yul\":5758:5795   */\n      mstore\n        /* \"#utility.yul\":5693:5801   */\n      pop\n      pop\n      jump\t// out\n        /* \"#utility.yul\":5807:5986   */\n    tag_141:\n        /* \"#utility.yul\":5876:5886   */\n      0x00\n        /* \"#utility.yul\":5897:5943   */\n      tag_254\n        /* \"#utility.yul\":5939:5942   */\n      dup4\n        /* \"#utility.yul\":5931:5937   */\n      dup4\n        /* \"#utility.yul\":5897:5943   */\n      tag_140\n      jump\t// in\n    tag_254:\n        /* \"#utility.yul\":5975:5979   */\n      0x20\n        /* \"#utility.yul\":5970:5973   */\n      dup4\n        /* \"#utility.yul\":5966:5980   */\n      add\n        /* \"#utility.yul\":5952:5980   */\n      swap1\n      pop\n        /* \"#utility.yul\":5807:5986   */\n      swap3\n      swap2\n      pop\n      pop\n      jump\t// out\n        /* \"#utility.yul\":5992:6105   */\n    tag_142:\n        /* \"#utility.yul\":6062:6066   */\n      0x00\n        /* \"#utility.yul\":6094:6098   */\n      0x20\n        /* \"#utility.yul\":6089:6092   */\n      dup3\n        /* \"#utility.yul\":6085:6099   */\n      add\n        /* \"#utility.yul\":6077:6099   */\n      swap1\n      pop\n        /* \"#utility.yul\":5992:6105   */\n      swap2\n      swap1\n      pop\n      jump\t// out\n        /* \"#utility.yul\":6141:6873   */\n    tag_143:\n        /* \"#utility.yul\":6260:6263   */\n      0x00\n        /* \"#utility.yul\":6289:6343   */\n      tag_257\n        /* \"#utility.yul\":6337:6342   */\n      dup3\n        /* \"#utility.yul\":6289:6343   */\n      tag_137\n      jump\t// in\n    tag_257:\n        /* \"#utility.yul\":6359:6445   */\n      tag_258\n        /* \"#utility.yul\":6438:6444   */\n      dup2\n        /* \"#utility.yul\":6433:6436   */\n      dup6\n        /* \"#utility.yul\":6359:6445   */\n      tag_138\n      jump\t// in\n    tag_258:\n        /* \"#utility.yul\":6352:6445   */\n      swap4\n      pop\n        /* \"#utility.yul\":6469:6525   */\n      tag_259\n        /* \"#utility.yul\":6519:6524   */\n      dup4\n        /* \"#utility.yul\":6469:6525   */\n      tag_139\n      jump\t// in\n    tag_259:\n        /* \"#utility.yul\":6548:6555   */\n      dup1\n        /* \"#utility.yul\":6579:6580   */\n      0x00\n        /* \"#utility.yul\":6564:6848   */\n    tag_260:\n        /* \"#utility.yul\":6589:6595   */\n      dup4\n        /* \"#utility.yul\":6586:6587   */\n      dup2\n        /* \"#utility.yul\":6583:6596   */\n      lt\n        /* \"#utility.yul\":6564:6848   */\n      iszero\n      tag_262\n      jumpi\n        /* \"#utility.yul\":6665:6671   */\n      dup2\n        /* \"#utility.yul\":6659:6672   */\n      mload\n        /* \"#utility.yul\":6692:6755   */\n      tag_263\n        /* \"#utility.yul\":6751:6754   */\n      dup9\n        /* \"#utility.yul\":6736:6749   */\n      dup3\n        /* \"#utility.yul\":6692:6755   */\n      tag_141\n      jump\t// in\n    tag_263:\n        /* \"#utility.yul\":6685:6755   */\n      swap8\n      pop\n        /* \"#utility.yul\":6778:6838   */\n      tag_264\n        /* \"#utility.yul\":6831:6837   */\n      dup4\n        /* \"#utility.yul\":6778:6838   */\n      tag_142\n      jump\t// in\n    tag_264:\n        /* \"#utility.yul\":6768:6838   */\n      swap3\n      pop\n        /* \"#utility.yul\":6624:6848   */\n      pop\n        /* \"#utility.yul\":6611:6612   */\n      0x01\n        /* \"#utility.yul\":6608:6609   */\n      dup2\n        /* \"#utility.yul\":6604:6613   */\n      add\n        /* \"#utility.yul\":6599:6613   */\n      swap1\n      pop\n        /* \"#utility.yul\":6564:6848   */\n      jump(tag_260)\n    tag_262:\n        /* \"#utility.yul\":6568:6582   */\n      pop\n        /* \"#utility.yul\":6864:6867   */\n      dup6\n        /* \"#utility.yul\":6857:6867   */\n      swap4\n      pop\n        /* \"#utility.yul\":6265:6873   */\n      pop\n      pop\n      pop\n        /* \"#utility.yul\":6141:6873   */\n      swap3\n      swap2\n      pop\n      pop\n      jump\t// out\n        /* \"#utility.yul\":6879:7252   */\n    tag_32:\n        /* \"#utility.yul\":7022:7026   */\n      0x00\n        /* \"#utility.yul\":7060:7062   */\n      0x20\n        /* \"#utility.yul\":7049:7058   */\n      dup3\n        /* \"#utility.yul\":7045:7063   */\n      add\n        /* \"#utility.yul\":7037:7063   */\n      swap1\n      pop\n        /* \"#utility.yul\":7109:7118   */\n      dup2\n        /* \"#utility.yul\":7103:7107   */\n      dup2\n        /* \"#utility.yul\":7099:7119   */\n      sub\n        /* \"#utility.yul\":7095:7096   */\n      0x00\n        /* \"#utility.yul\":7084:7093   */\n      dup4\n        /* \"#utility.yul\":7080:7097   */\n      add\n        /* \"#utility.yul\":7073:7120   */\n      mstore\n        /* \"#utility.yul\":7137:7245   */\n      tag_266\n        /* \"#utility.yul\":7240:7244   */\n      dup2\n        /* \"#utility.yul\":7231:7237   */\n      dup5\n        /* \"#utility.yul\":7137:7245   */\n      tag_143\n      jump\t// in\n    tag_266:\n        /* \"#utility.yul\":7129:7245   */\n      swap1\n      pop\n        /* \"#utility.yul\":6879:7252   */\n      swap3\n      swap2\n      pop\n      pop\n      jump\t// out\n        /* \"#utility.yul\":7258:7732   */\n    tag_36:\n        /* \"#utility.yul\":7326:7332   */\n      0x00\n        /* \"#utility.yul\":7334:7340   */\n      dup1\n        /* \"#utility.yul\":7383:7385   */\n      0x40\n        /* \"#utility.yul\":7371:7380   */\n      dup4\n        /* \"#utility.yul\":7362:7369   */\n      dup6\n        /* \"#utility.yul\":7358:7381   */\n      sub\n        /* \"#utility.yul\":7354:7386   */\n      slt\n        /* \"#utility.yul\":7351:7470   */\n      iszero\n      tag_268\n      jumpi\n        /* \"#utility.yul\":7389:7468   */\n      tag_269\n      tag_117\n      jump\t// in\n    tag_269:\n        /* \"#utility.yul\":7351:7470   */\n    tag_268:\n        /* \"#utility.yul\":7509:7510   */\n      0x00\n        /* \"#utility.yul\":7534:7587   */\n      tag_270\n        /* \"#utility.yul\":7579:7586   */\n      dup6\n        /* \"#utility.yul\":7570:7576   */\n      dup3\n        /* \"#utility.yul\":7559:7568   */\n      dup7\n        /* \"#utility.yul\":7555:7577   */\n      add\n        /* \"#utility.yul\":7534:7587   */\n      tag_125\n      jump\t// in\n    tag_270:\n        /* \"#utility.yul\":7524:7587   */\n      swap3\n      pop\n        /* \"#utility.yul\":7480:7597   */\n      pop\n        /* \"#utility.yul\":7636:7638   */\n      0x20\n        /* \"#utility.yul\":7662:7715   */\n      tag_271\n        /* \"#utility.yul\":7707:7714   */\n      dup6\n        /* \"#utility.yul\":7698:7704   */\n      dup3\n        /* \"#utility.yul\":7687:7696   */\n      dup7\n        /* \"#utility.yul\":7683:7705   */\n      add\n        /* \"#utility.yul\":7662:7715   */\n      tag_122\n      jump\t// in\n    tag_271:\n        /* \"#utility.yul\":7652:7715   */\n      swap2\n      pop\n        /* \"#utility.yul\":7607:7725   */\n      pop\n        /* \"#utility.yul\":7258:7732   */\n      swap3\n      pop\n      swap3\n      swap1\n      pop\n      jump\t// out\n        /* \"#utility.yul\":7738:8067   */\n    tag_41:\n        /* \"#utility.yul\":7797:7803   */\n      0x00\n        /* \"#utility.yul\":7846:7848   */\n      0x20\n        /* \"#utility.yul\":7834:7843   */\n      dup3\n        /* \"#utility.yul\":7825:7832   */\n      dup5\n        /* \"#utility.yul\":7821:7844   */\n      sub\n        /* \"#utility.yul\":7817:7849   */\n      slt\n        /* \"#utility.yul\":7814:7933   */\n      iszero\n      tag_273\n      jumpi\n        /* \"#utility.yul\":7852:7931   */\n      tag_274\n      tag_117\n      jump\t// in\n    tag_274:\n        /* \"#utility.yul\":7814:7933   */\n    tag_273:\n        /* \"#utility.yul\":7972:7973   */\n      0x00\n        /* \"#utility.yul\":7997:8050   */\n      tag_275\n        /* \"#utility.yul\":8042:8049   */\n      dup5\n        /* \"#utility.yul\":8033:8039   */\n      dup3\n        /* \"#utility.yul\":8022:8031   */\n      dup6\n        /* \"#utility.yul\":8018:8040   */\n      add\n        /* \"#utility.yul\":7997:8050   */\n      tag_125\n      jump\t// in\n    tag_275:\n        /* \"#utility.yul\":7987:8050   */\n      swap2\n      pop\n        /* \"#utility.yul\":7943:8060   */\n      pop\n        /* \"#utility.yul\":7738:8067   */\n      swap3\n      swap2\n      pop\n      pop\n      jump\t// out\n        /* \"#utility.yul\":8073:8172   */\n    tag_144:\n        /* \"#utility.yul\":8125:8131   */\n      0x00\n        /* \"#utility.yul\":8159:8164   */\n      dup2\n        /* \"#utility.yul\":8153:8165   */\n      mload\n        /* \"#utility.yul\":8143:8165   */\n      swap1\n      pop\n        /* \"#utility.yul\":8073:8172   */\n      swap2\n      swap1\n      pop\n      jump\t// out\n        /* \"#utility.yul\":8178:8347   */\n    tag_145:\n        /* \"#utility.yul\":8262:8273   */\n      0x00\n        /* \"#utility.yul\":8296:8302   */\n      dup3\n        /* \"#utility.yul\":8291:8294   */\n      dup3\n        /* \"#utility.yul\":8284:8303   */\n      mstore\n        /* \"#utility.yul\":8336:8340   */\n      0x20\n        /* \"#utility.yul\":8331:8334   */\n      dup3\n        /* \"#utility.yul\":8327:8341   */\n      add\n        /* \"#utility.yul\":8312:8341   */\n      swap1\n      pop\n        /* \"#utility.yul\":8178:8347   */\n      swap3\n      swap2\n      pop\n      pop\n      jump\t// out\n        /* \"#utility.yul\":8353:8492   */\n    tag_146:\n        /* \"#utility.yul\":8442:8448   */\n      dup3\n        /* \"#utility.yul\":8437:8440   */\n      dup2\n        /* \"#utility.yul\":8432:8435   */\n      dup4\n        /* \"#utility.yul\":8426:8449   */\n      mcopy\n        /* \"#utility.yul\":8483:8484   */\n      0x00\n        /* \"#utility.yul\":8474:8480   */\n      dup4\n        /* \"#utility.yul\":8469:8472   */\n      dup4\n        /* \"#utility.yul\":8465:8481   */\n      add\n        /* \"#utility.yul\":8458:8485   */\n      mstore\n        /* \"#utility.yul\":8353:8492   */\n      pop\n      pop\n      pop\n      jump\t// out\n        /* \"#utility.yul\":8498:8875   */\n    tag_147:\n        /* \"#utility.yul\":8586:8589   */\n      0x00\n        /* \"#utility.yul\":8614:8653   */\n      tag_280\n        /* \"#utility.yul\":8647:8652   */\n      dup3\n        /* \"#utility.yul\":8614:8653   */\n      tag_144\n      jump\t// in\n    tag_280:\n        /* \"#utility.yul\":8669:8740   */\n      tag_281\n        /* \"#utility.yul\":8733:8739   */\n      dup2\n        /* \"#utility.yul\":8728:8731   */\n      dup6\n        /* \"#utility.yul\":8669:8740   */\n      tag_145\n      jump\t// in\n    tag_281:\n        /* \"#utility.yul\":8662:8740   */\n      swap4\n      pop\n        /* \"#utility.yul\":8749:8814   */\n      tag_282\n        /* \"#utility.yul\":8807:8813   */\n      dup2\n        /* \"#utility.yul\":8802:8805   */\n      dup6\n        /* \"#utility.yul\":8795:8799   */\n      0x20\n        /* \"#utility.yul\":8788:8793   */\n      dup7\n        /* \"#utility.yul\":8784:8800   */\n      add\n        /* \"#utility.yul\":8749:8814   */\n      tag_146\n      jump\t// in\n    tag_282:\n        /* \"#utility.yul\":8839:8868   */\n      tag_283\n        /* \"#utility.yul\":8861:8867   */\n      dup2\n        /* \"#utility.yul\":8839:8868   */\n      tag_129\n      jump\t// in\n    tag_283:\n        /* \"#utility.yul\":8834:8837   */\n      dup5\n        /* \"#utility.yul\":8830:8869   */\n      add\n        /* \"#utility.yul\":8823:8869   */\n      swap2\n      pop\n        /* \"#utility.yul\":8590:8875   */\n      pop\n        /* \"#utility.yul\":8498:8875   */\n      swap3\n      swap2\n      pop\n      pop\n      jump\t// out\n        /* \"#utility.yul\":8881:8985   */\n    tag_148:\n        /* \"#utility.yul\":8926:8933   */\n      0x00\n        /* \"#utility.yul\":8955:8979   */\n      tag_285\n        /* \"#utility.yul\":8973:8978   */\n      dup3\n        /* \"#utility.yul\":8955:8979   */\n      tag_119\n      jump\t// in\n    tag_285:\n        /* \"#utility.yul\":8944:8979   */\n      swap1\n      pop\n        /* \"#utility.yul\":8881:8985   */\n      swap2\n      swap1\n      pop\n      jump\t// out\n        /* \"#utility.yul\":8991:9133   */\n    tag_149:\n        /* \"#utility.yul\":9094:9126   */\n      tag_287\n        /* \"#utility.yul\":9120:9125   */\n      dup2\n        /* \"#utility.yul\":9094:9126   */\n      tag_148\n      jump\t// in\n    tag_287:\n        /* \"#utility.yul\":9089:9092   */\n      dup3\n        /* \"#utility.yul\":9082:9127   */\n      mstore\n        /* \"#utility.yul\":8991:9133   */\n      pop\n      pop\n      jump\t// out\n        /* \"#utility.yul\":9139:9257   */\n    tag_150:\n        /* \"#utility.yul\":9226:9250   */\n      tag_289\n        /* \"#utility.yul\":9244:9249   */\n      dup2\n        /* \"#utility.yul\":9226:9250   */\n      tag_120\n      jump\t// in\n    tag_289:\n        /* \"#utility.yul\":9221:9224   */\n      dup3\n        /* \"#utility.yul\":9214:9251   */\n      mstore\n        /* \"#utility.yul\":9139:9257   */\n      pop\n      pop\n      jump\t// out\n        /* \"#utility.yul\":9263:9353   */\n    tag_151:\n        /* \"#utility.yul\":9297:9304   */\n      0x00\n        /* \"#utility.yul\":9340:9345   */\n      dup2\n        /* \"#utility.yul\":9333:9346   */\n      iszero\n        /* \"#utility.yul\":9326:9347   */\n      iszero\n        /* \"#utility.yul\":9315:9347   */\n      swap1\n      pop\n        /* \"#utility.yul\":9263:9353   */\n      swap2\n      swap1\n      pop\n      jump\t// out\n        /* \"#utility.yul\":9359:9468   */\n    tag_152:\n        /* \"#utility.yul\":9440:9461   */\n      tag_292\n        /* \"#utility.yul\":9455:9460   */\n      dup2\n        /* \"#utility.yul\":9440:9461   */\n      tag_151\n      jump\t// in\n    tag_292:\n        /* \"#utility.yul\":9435:9438   */\n      dup3\n        /* \"#utility.yul\":9428:9462   */\n      mstore\n        /* \"#utility.yul\":9359:9468   */\n      pop\n      pop\n      jump\t// out\n        /* \"#utility.yul\":9474:10360   */\n    tag_44:\n        /* \"#utility.yul\":9737:9741   */\n      0x00\n        /* \"#utility.yul\":9775:9778   */\n      0xc0\n        /* \"#utility.yul\":9764:9773   */\n      dup3\n        /* \"#utility.yul\":9760:9779   */\n      add\n        /* \"#utility.yul\":9752:9779   */\n      swap1\n      pop\n        /* \"#utility.yul\":9789:9860   */\n      tag_294\n        /* \"#utility.yul\":9857:9858   */\n      0x00\n        /* \"#utility.yul\":9846:9855   */\n      dup4\n        /* \"#utility.yul\":9842:9859   */\n      add\n        /* \"#utility.yul\":9833:9839   */\n      dup10\n        /* \"#utility.yul\":9789:9860   */\n      tag_126\n      jump\t// in\n    tag_294:\n        /* \"#utility.yul\":9907:9916   */\n      dup2\n        /* \"#utility.yul\":9901:9905   */\n      dup2\n        /* \"#utility.yul\":9897:9917   */\n      sub\n        /* \"#utility.yul\":9892:9894   */\n      0x20\n        /* \"#utility.yul\":9881:9890   */\n      dup4\n        /* \"#utility.yul\":9877:9895   */\n      add\n        /* \"#utility.yul\":9870:9918   */\n      mstore\n        /* \"#utility.yul\":9935:10013   */\n      tag_295\n        /* \"#utility.yul\":10008:10012   */\n      dup2\n        /* \"#utility.yul\":9999:10005   */\n      dup9\n        /* \"#utility.yul\":9935:10013   */\n      tag_147\n      jump\t// in\n    tag_295:\n        /* \"#utility.yul\":9927:10013   */\n      swap1\n      pop\n        /* \"#utility.yul\":10023:10095   */\n      tag_296\n        /* \"#utility.yul\":10091:10093   */\n      0x40\n        /* \"#utility.yul\":10080:10089   */\n      dup4\n        /* \"#utility.yul\":10076:10094   */\n      add\n        /* \"#utility.yul\":10067:10073   */\n      dup8\n        /* \"#utility.yul\":10023:10095   */\n      tag_126\n      jump\t// in\n    tag_296:\n        /* \"#utility.yul\":10105:10193   */\n      tag_297\n        /* \"#utility.yul\":10189:10191   */\n      0x60\n        /* \"#utility.yul\":10178:10187   */\n      dup4\n        /* \"#utility.yul\":10174:10192   */\n      add\n        /* \"#utility.yul\":10165:10171   */\n      dup7\n        /* \"#utility.yul\":10105:10193   */\n      tag_149\n      jump\t// in\n    tag_297:\n        /* \"#utility.yul\":10203:10276   */\n      tag_298\n        /* \"#utility.yul\":10271:10274   */\n      0x80\n        /* \"#utility.yul\":10260:10269   */\n      dup4\n        /* \"#utility.yul\":10256:10275   */\n      add\n        /* \"#utility.yul\":10247:10253   */\n      dup6\n        /* \"#utility.yul\":10203:10276   */\n      tag_150\n      jump\t// in\n    tag_298:\n        /* \"#utility.yul\":10286:10353   */\n      tag_299\n        /* \"#utility.yul\":10348:10351   */\n      0xa0\n        /* \"#utility.yul\":10337:10346   */\n      dup4\n        /* \"#utility.yul\":10333:10352   */\n      add\n        /* \"#utility.yul\":10324:10330   */\n      dup5\n        /* \"#utility.yul\":10286:10353   */\n      tag_152\n      jump\t// in\n    tag_299:\n        /* \"#utility.yul\":9474:10360   */\n      swap8\n      swap7\n      pop\n      pop\n      pop\n      pop\n      pop\n      pop\n      pop\n      jump\t// out\n        /* \"#utility.yul\":10366:10544   */\n    tag_153:\n        /* \"#utility.yul\":10506:10536   */\n      0x5072696365206d7573742062652067726561746572207468616e203000000000\n        /* \"#utility.yul\":10502:10503   */\n      0x00\n        /* \"#utility.yul\":10494:10500   */\n      dup3\n        /* \"#utility.yul\":10490:10504   */\n      add\n        /* \"#utility.yul\":10483:10537   */\n      mstore\n        /* \"#utility.yul\":10366:10544   */\n      pop\n      jump\t// out\n        /* \"#utility.yul\":10550:10916   */\n    tag_154:\n        /* \"#utility.yul\":10692:10695   */\n      0x00\n        /* \"#utility.yul\":10713:10780   */\n      tag_302\n        /* \"#utility.yul\":10777:10779   */\n      0x1c\n        /* \"#utility.yul\":10772:10775   */\n      dup4\n        /* \"#utility.yul\":10713:10780   */\n      tag_145\n      jump\t// in\n    tag_302:\n        /* \"#utility.yul\":10706:10780   */\n      swap2\n      pop\n        /* \"#utility.yul\":10789:10882   */\n      tag_303\n        /* \"#utility.yul\":10878:10881   */\n      dup3\n        /* \"#utility.yul\":10789:10882   */\n      tag_153\n      jump\t// in\n    tag_303:\n        /* \"#utility.yul\":10907:10909   */\n      0x20\n        /* \"#utility.yul\":10902:10905   */\n      dup3\n        /* \"#utility.yul\":10898:10910   */\n      add\n        /* \"#utility.yul\":10891:10910   */\n      swap1\n      pop\n        /* \"#utility.yul\":10550:10916   */\n      swap2\n      swap1\n      pop\n      jump\t// out\n        /* \"#utility.yul\":10922:11341   */\n    tag_53:\n        /* \"#utility.yul\":11088:11092   */\n      0x00\n        /* \"#utility.yul\":11126:11128   */\n      0x20\n        /* \"#utility.yul\":11115:11124   */\n      dup3\n        /* \"#utility.yul\":11111:11129   */\n      add\n        /* \"#utility.yul\":11103:11129   */\n      swap1\n      pop\n        /* \"#utility.yul\":11175:11184   */\n      dup2\n        /* \"#utility.yul\":11169:11173   */\n      dup2\n        /* \"#utility.yul\":11165:11185   */\n      sub\n        /* \"#utility.yul\":11161:11162   */\n      0x00\n        /* \"#utility.yul\":11150:11159   */\n      dup4\n        /* \"#utility.yul\":11146:11163   */\n      add\n        /* \"#utility.yul\":11139:11186   */\n      mstore\n        /* \"#utility.yul\":11203:11334   */\n      tag_305\n        /* \"#utility.yul\":11329:11333   */\n      dup2\n        /* \"#utility.yul\":11203:11334   */\n      tag_154\n      jump\t// in\n    tag_305:\n        /* \"#utility.yul\":11195:11334   */\n      swap1\n      pop\n        /* \"#utility.yul\":10922:11341   */\n      swap2\n      swap1\n      pop\n      jump\t// out\n        /* \"#utility.yul\":11347:11527   */\n    tag_155:\n        /* \"#utility.yul\":11395:11472   */\n      0x4e487b7100000000000000000000000000000000000000000000000000000000\n        /* \"#utility.yul\":11392:11393   */\n      0x00\n        /* \"#utility.yul\":11385:11473   */\n      mstore\n        /* \"#utility.yul\":11492:11496   */\n      0x11\n        /* \"#utility.yul\":11489:11490   */\n      0x04\n        /* \"#utility.yul\":11482:11497   */\n      mstore\n        /* \"#utility.yul\":11516:11520   */\n      0x24\n        /* \"#utility.yul\":11513:11514   */\n      0x00\n        /* \"#utility.yul\":11506:11521   */\n      revert\n        /* \"#utility.yul\":11533:11766   */\n    tag_55:\n        /* \"#utility.yul\":11572:11575   */\n      0x00\n        /* \"#utility.yul\":11595:11619   */\n      tag_308\n        /* \"#utility.yul\":11613:11618   */\n      dup3\n        /* \"#utility.yul\":11595:11619   */\n      tag_123\n      jump\t// in\n    tag_308:\n        /* \"#utility.yul\":11586:11619   */\n      swap2\n      pop\n        /* \"#utility.yul\":11641:11707   */\n      0xffffffffffffffffffffffffffffffffffffffffffffffffffffffffffffffff\n        /* \"#utility.yul\":11634:11639   */\n      dup3\n        /* \"#utility.yul\":11631:11708   */\n      sub\n        /* \"#utility.yul\":11628:11731   */\n      tag_309\n      jumpi\n        /* \"#utility.yul\":11711:11729   */\n      tag_310\n      tag_155\n      jump\t// in\n    tag_310:\n        /* \"#utility.yul\":11628:11731   */\n    tag_309:\n        /* \"#utility.yul\":11758:11759   */\n      0x01\n        /* \"#utility.yul\":11751:11756   */\n      dup3\n        /* \"#utility.yul\":11747:11760   */\n      add\n        /* \"#utility.yul\":11740:11760   */\n      swap1\n      pop\n        /* \"#utility.yul\":11533:11766   */\n      swap2\n      swap1\n      pop\n      jump\t// out\n        /* \"#utility.yul\":11772:11952   */\n    tag_156:\n        /* \"#utility.yul\":11820:11897   */\n      0x4e487b7100000000000000000000000000000000000000000000000000000000\n        /* \"#utility.yul\":11817:11818   */\n      0x00\n        /* \"#utility.yul\":11810:11898   */\n      mstore\n        /* \"#utility.yul\":11917:11921   */\n      0x22\n        /* \"#utility.yul\":11914:11915   */\n      0x04\n        /* \"#utility.yul\":11907:11922   */\n      mstore\n        /* \"#utility.yul\":11941:11945   */\n      0x24\n        /* \"#utility.yul\":11938:11939   */\n      0x00\n        /* \"#utility.yul\":11931:11946   */\n      revert\n        /* \"#utility.yul\":11958:12278   */\n    tag_73:\n        /* \"#utility.yul\":12002:12008   */\n      0x00\n        /* \"#utility.yul\":12039:12040   */\n      0x02\n        /* \"#utility.yul\":12033:12037   */\n      dup3\n        /* \"#utility.yul\":12029:12041   */\n      div\n        /* \"#utility.yul\":12019:12041   */\n      swap1\n      pop\n        /* \"#utility.yul\":12086:12087   */\n      0x01\n        /* \"#utility.yul\":12080:12084   */\n      dup3\n        /* \"#utility.yul\":12076:12088   */\n      and\n        /* \"#utility.yul\":12107:12125   */\n      dup1\n        /* \"#utility.yul\":12097:12178   */\n      tag_313\n      jumpi\n        /* \"#utility.yul\":12163:12167   */\n      0x7f\n        /* \"#utility.yul\":12155:12161   */\n      dup3\n        /* \"#utility.yul\":12151:12168   */\n      and\n        /* \"#utility.yul\":12141:12168   */\n      swap2\n      pop\n        /* \"#utility.yul\":12097:12178   */\n    tag_313:\n        /* \"#utility.yul\":12225:12227   */\n      0x20\n        /* \"#utility.yul\":12217:12223   */\n      dup3\n        /* \"#utility.yul\":12214:12228   */\n      lt\n        /* \"#utility.yul\":12194:12212   */\n      dup2\n        /* \"#utility.yul\":12191:12229   */\n      sub\n        /* \"#utility.yul\":12188:12272   */\n      tag_314\n      jumpi\n        /* \"#utility.yul\":12244:12262   */\n      tag_315\n      tag_156\n      jump\t// in\n    tag_315:\n        /* \"#utility.yul\":12188:12272   */\n    tag_314:\n        /* \"#utility.yul\":12009:12278   */\n      pop\n        /* \"#utility.yul\":11958:12278   */\n      swap2\n      swap1\n      pop\n      jump\t// out\n        /* \"#utility.yul\":12284:12425   */\n    tag_157:\n        /* \"#utility.yul\":12333:12337   */\n      0x00\n        /* \"#utility.yul\":12356:12359   */\n      dup2\n        /* \"#utility.yul\":12348:12359   */\n      swap1\n      pop\n        /* \"#utility.yul\":12379:12382   */\n      dup2\n        /* \"#utility.yul\":12376:12377   */\n      0x00\n        /* \"#utility.yul\":12369:12383   */\n      mstore\n        /* \"#utility.yul\":12413:12417   */\n      0x20\n        /* \"#utility.yul\":12410:12411   */\n      0x00\n        /* \"#utility.yul\":12400:12418   */\n      keccak256\n        /* \"#utility.yul\":12392:12418   */\n      swap1\n      pop\n        /* \"#utility.yul\":12284:12425   */\n      swap2\n      swap1\n      pop\n      jump\t// out\n        /* \"#utility.yul\":12431:12524   */\n    tag_158:\n        /* \"#utility.yul\":12468:12474   */\n      0x00\n        /* \"#utility.yul\":12515:12517   */\n      0x20\n        /* \"#utility.yul\":12510:12512   */\n      0x1f\n        /* \"#utility.yul\":12503:12508   */\n      dup4\n        /* \"#utility.yul\":12499:12513   */\n      add\n        /* \"#utility.yul\":12495:12518   */\n      div\n        /* \"#utility.yul\":12485:12518   */\n      swap1\n      pop\n        /* \"#utility.yul\":12431:12524   */\n      swap2\n      swap1\n      pop\n      jump\t// out\n        /* \"#utility.yul\":12530:12637   */\n    tag_159:\n        /* \"#utility.yul\":12574:12582   */\n      0x00\n        /* \"#utility.yul\":12624:12629   */\n      dup3\n        /* \"#utility.yul\":12618:12622   */\n      dup3\n        /* \"#utility.yul\":12614:12630   */\n      shl\n        /* \"#utility.yul\":12593:12630   */\n      swap1\n      pop\n        /* \"#utility.yul\":12530:12637   */\n      swap3\n      swap2\n      pop\n      pop\n      jump\t// out\n        /* \"#utility.yul\":12643:13036   */\n    tag_160:\n        /* \"#utility.yul\":12712:12718   */\n      0x00\n        /* \"#utility.yul\":12762:12763   */\n      0x08\n        /* \"#utility.yul\":12750:12760   */\n      dup4\n        /* \"#utility.yul\":12746:12764   */\n      mul\n        /* \"#utility.yul\":12785:12882   */\n      tag_320\n        /* \"#utility.yul\":12815:12881   */\n      0xffffffffffffffffffffffffffffffffffffffffffffffffffffffffffffffff\n        /* \"#utility.yul\":12804:12813   */\n      dup3\n        /* \"#utility.yul\":12785:12882   */\n      tag_159\n      jump\t// in\n    tag_320:\n        /* \"#utility.yul\":12903:12942   */\n      tag_321\n        /* \"#utility.yul\":12933:12941   */\n      dup7\n        /* \"#utility.yul\":12922:12931   */\n      dup4\n        /* \"#utility.yul\":12903:12942   */\n      tag_159\n      jump\t// in\n    tag_321:\n        /* \"#utility.yul\":12891:12942   */\n      swap6\n      pop\n        /* \"#utility.yul\":12975:12979   */\n      dup1\n        /* \"#utility.yul\":12971:12980   */\n      not\n        /* \"#utility.yul\":12964:12969   */\n      dup5\n        /* \"#utility.yul\":12960:12981   */\n      and\n        /* \"#utility.yul\":12951:12981   */\n      swap4\n      pop\n        /* \"#utility.yul\":13024:13028   */\n      dup1\n        /* \"#utility.yul\":13014:13022   */\n      dup7\n        /* \"#utility.yul\":13010:13029   */\n      and\n        /* \"#utility.yul\":13003:13008   */\n      dup5\n        /* \"#utility.yul\":13000:13030   */\n      or\n        /* \"#utility.yul\":12990:13030   */\n      swap3\n      pop\n        /* \"#utility.yul\":12719:13036   */\n      pop\n      pop\n        /* \"#utility.yul\":12643:13036   */\n      swap4\n      swap3\n      pop\n      pop\n      pop\n      jump\t// out\n        /* \"#utility.yul\":13042:13102   */\n    tag_161:\n        /* \"#utility.yul\":13070:13073   */\n      0x00\n        /* \"#utility.yul\":13091:13096   */\n      dup2\n        /* \"#utility.yul\":13084:13096   */\n      swap1\n      pop\n        /* \"#utility.yul\":13042:13102   */\n      swap2\n      swap1\n      pop\n      jump\t// out\n        /* \"#utility.yul\":13108:13250   */\n    tag_162:\n        /* \"#utility.yul\":13158:13167   */\n      0x00\n        /* \"#utility.yul\":13191:13244   */\n      tag_324\n        /* \"#utility.yul\":13209:13243   */\n      tag_325\n        /* \"#utility.yul\":13218:13242   */\n      tag_326\n        /* \"#utility.yul\":13236:13241   */\n      dup5\n        /* \"#utility.yul\":13218:13242   */\n      tag_123\n      jump\t// in\n    tag_326:\n        /* \"#utility.yul\":13209:13243   */\n      tag_161\n      jump\t// in\n    tag_325:\n        /* \"#utility.yul\":13191:13244   */\n      tag_123\n      jump\t// in\n    tag_324:\n        /* \"#utility.yul\":13178:13244   */\n      swap1\n      pop\n        /* \"#utility.yul\":13108:13250   */\n      swap2\n      swap1\n      pop\n      jump\t// out\n        /* \"#utility.yul\":13256:13331   */\n    tag_163:\n        /* \"#utility.yul\":13299:13302   */\n      0x00\n        /* \"#utility.yul\":13320:13325   */\n      dup2\n        /* \"#utility.yul\":13313:13325   */\n      swap1\n      pop\n        /* \"#utility.yul\":13256:13331   */\n      swap2\n      swap1\n      pop\n      jump\t// out\n        /* \"#utility.yul\":13337:13606   */\n    tag_164:\n        /* \"#utility.yul\":13447:13486   */\n      tag_329\n        /* \"#utility.yul\":13478:13485   */\n      dup4\n        /* \"#utility.yul\":13447:13486   */\n      tag_162\n      jump\t// in\n    tag_329:\n        /* \"#utility.yul\":13508:13599   */\n      tag_330\n        /* \"#utility.yul\":13557:13598   */\n      tag_331\n        /* \"#utility.yul\":13581:13597   */\n      dup3\n        /* \"#utility.yul\":13557:13598   */\n      tag_163\n      jump\t// in\n    tag_331:\n        /* \"#utility.yul\":13549:13555   */\n      dup5\n        /* \"#utility.yul\":13542:13546   */\n      dup5\n        /* \"#utility.yul\":13536:13547   */\n      sload\n        /* \"#utility.yul\":13508:13599   */\n      tag_160\n      jump\t// in\n    tag_330:\n        /* \"#utility.yul\":13502:13506   */\n      dup3\n        /* \"#utility.yul\":13495:13600   */\n      sstore\n        /* \"#utility.yul\":13413:13606   */\n      pop\n        /* \"#utility.yul\":13337:13606   */\n      pop\n      pop\n      pop\n      jump\t// out\n        /* \"#utility.yul\":13612:13685   */\n    tag_165:\n        /* \"#utility.yul\":13657:13660   */\n      0x00\n        /* \"#utility.yul\":13612:13685   */\n      swap1\n      jump\t// out\n        /* \"#utility.yul\":13691:13880   */\n    tag_166:\n        /* \"#utility.yul\":13768:13800   */\n      tag_334\n      tag_165\n      jump\t// in\n    tag_334:\n        /* \"#utility.yul\":13809:13874   */\n      tag_335\n        /* \"#utility.yul\":13867:13873   */\n      dup2\n        /* \"#utility.yul\":13859:13865   */\n      dup5\n        /* \"#utility.yul\":13853:13857   */\n      dup5\n        /* \"#utility.yul\":13809:13874   */\n      tag_164\n      jump\t// in\n    tag_335:\n        /* \"#utility.yul\":13744:13880   */\n      pop\n        /* \"#utility.yul\":13691:13880   */\n      pop\n      pop\n      jump\t// out\n        /* \"#utility.yul\":13886:14072   */\n    tag_167:\n        /* \"#utility.yul\":13946:14066   */\n    tag_337:\n        /* \"#utility.yul\":13963:13966   */\n      dup2\n        /* \"#utility.yul\":13956:13961   */\n      dup2\n        /* \"#utility.yul\":13953:13967   */\n      lt\n        /* \"#utility.yul\":13946:14066   */\n      iszero\n      tag_339\n      jumpi\n        /* \"#utility.yul\":14017:14056   */\n      tag_340\n        /* \"#utility.yul\":14054:14055   */\n      0x00\n        /* \"#utility.yul\":14047:14052   */\n      dup3\n        /* \"#utility.yul\":14017:14056   */\n      tag_166\n      jump\t// in\n    tag_340:\n        /* \"#utility.yul\":13990:13991   */\n      0x01\n        /* \"#utility.yul\":13983:13988   */\n      dup2\n        /* \"#utility.yul\":13979:13992   */\n      add\n        /* \"#utility.yul\":13970:13992   */\n      swap1\n      pop\n        /* \"#utility.yul\":13946:14066   */\n      jump(tag_337)\n    tag_339:\n        /* \"#utility.yul\":13886:14072   */\n      pop\n      pop\n      jump\t// out\n        /* \"#utility.yul\":14078:14621   */\n    tag_168:\n        /* \"#utility.yul\":14179:14181   */\n      0x1f\n        /* \"#utility.yul\":14174:14177   */\n      dup3\n        /* \"#utility.yul\":14171:14182   */\n      gt\n        /* \"#utility.yul\":14168:14614   */\n      iszero\n      tag_342\n      jumpi\n        /* \"#utility.yul\":14213:14251   */\n      tag_343\n        /* \"#utility.yul\":14245:14250   */\n      dup2\n        /* \"#utility.yul\":14213:14251   */\n      tag_157\n      jump\t// in\n    tag_343:\n        /* \"#utility.yul\":14297:14326   */\n      tag_344\n        /* \"#utility.yul\":14315:14325   */\n      dup5\n        /* \"#utility.yul\":14297:14326   */\n      tag_158\n      jump\t// in\n    tag_344:\n        /* \"#utility.yul\":14287:14295   */\n      dup2\n        /* \"#utility.yul\":14283:14327   */\n      add\n        /* \"#utility.yul\":14480:14482   */\n      0x20\n        /* \"#utility.yul\":14468:14478   */\n      dup6\n        /* \"#utility.yul\":14465:14483   */\n      lt\n        /* \"#utility.yul\":14462:14511   */\n      iszero\n      tag_345\n      jumpi\n        /* \"#utility.yul\":14501:14509   */\n      dup2\n        /* \"#utility.yul\":14486:14509   */\n      swap1\n      pop\n        /* \"#utility.yul\":14462:14511   */\n    tag_345:\n        /* \"#utility.yul\":14524:14604   */\n      tag_346\n        /* \"#utility.yul\":14580:14602   */\n      tag_347\n        /* \"#utility.yul\":14598:14601   */\n      dup6\n        /* \"#utility.yul\":14580:14602   */\n      tag_158\n      jump\t// in\n    tag_347:\n        /* \"#utility.yul\":14570:14578   */\n      dup4\n        /* \"#utility.yul\":14566:14603   */\n      add\n        /* \"#utility.yul\":14553:14564   */\n      dup3\n        /* \"#utility.yul\":14524:14604   */\n      tag_167\n      jump\t// in\n    tag_346:\n        /* \"#utility.yul\":14183:14614   */\n      pop\n      pop\n        /* \"#utility.yul\":14168:14614   */\n    tag_342:\n        /* \"#utility.yul\":14078:14621   */\n      pop\n      pop\n      pop\n      jump\t// out\n        /* \"#utility.yul\":14627:14744   */\n    tag_169:\n        /* \"#utility.yul\":14681:14689   */\n      0x00\n        /* \"#utility.yul\":14731:14736   */\n      dup3\n        /* \"#utility.yul\":14725:14729   */\n      dup3\n        /* \"#utility.yul\":14721:14737   */\n      shr\n        /* \"#utility.yul\":14700:14737   */\n      swap1\n      pop\n        /* \"#utility.yul\":14627:14744   */\n      swap3\n      swap2\n      pop\n      pop\n      jump\t// out\n        /* \"#utility.yul\":14750:14919   */\n    tag_170:\n        /* \"#utility.yul\":14794:14800   */\n      0x00\n        /* \"#utility.yul\":14827:14878   */\n      tag_350\n        /* \"#utility.yul\":14875:14876   */\n      0x00\n        /* \"#utility.yul\":14871:14877   */\n      not\n        /* \"#utility.yul\":14863:14868   */\n      dup5\n        /* \"#utility.yul\":14860:14861   */\n      0x08\n        /* \"#utility.yul\":14856:14869   */\n      mul\n        /* \"#utility.yul\":14827:14878   */\n      tag_169\n      jump\t// in\n    tag_350:\n        /* \"#utility.yul\":14823:14879   */\n      not\n        /* \"#utility.yul\":14908:14912   */\n      dup1\n        /* \"#utility.yul\":14902:14906   */\n      dup4\n        /* \"#utility.yul\":14898:14913   */\n      and\n        /* \"#utility.yul\":14888:14913   */\n      swap2\n      pop\n        /* \"#utility.yul\":14801:14919   */\n      pop\n        /* \"#utility.yul\":14750:14919   */\n      swap3\n      swap2\n      pop\n      pop\n      jump\t// out\n        /* \"#utility.yul\":14924:15219   */\n    tag_171:\n        /* \"#utility.yul\":15000:15004   */\n      0x00\n        /* \"#utility.yul\":15146:15175   */\n      tag_352\n        /* \"#utility.yul\":15171:15174   */\n      dup4\n        /* \"#utility.yul\":15165:15169   */\n      dup4\n        /* \"#utility.yul\":15146:15175   */\n      tag_170\n      jump\t// in\n    tag_352:\n        /* \"#utility.yul\":15138:15175   */\n      swap2\n      pop\n        /* \"#utility.yul\":15208:15211   */\n      dup3\n        /* \"#utility.yul\":15205:15206   */\n      0x02\n        /* \"#utility.yul\":15201:15212   */\n      mul\n        /* \"#utility.yul\":15195:15199   */\n      dup3\n        /* \"#utility.yul\":15192:15213   */\n      or\n        /* \"#utility.yul\":15184:15213   */\n      swap1\n      pop\n        /* \"#utility.yul\":14924:15219   */\n      swap3\n      swap2\n      pop\n      pop\n      jump\t// out\n        /* \"#utility.yul\":15224:16619   */\n    tag_57:\n        /* \"#utility.yul\":15341:15378   */\n      tag_354\n        /* \"#utility.yul\":15374:15377   */\n      dup3\n        /* \"#utility.yul\":15341:15378   */\n      tag_144\n      jump\t// in\n    tag_354:\n        /* \"#utility.yul\":15443:15461   */\n      0xffffffffffffffff\n        /* \"#utility.yul\":15435:15441   */\n      dup2\n        /* \"#utility.yul\":15432:15462   */\n      gt\n        /* \"#utility.yul\":15429:15485   */\n      iszero\n      tag_355\n      jumpi\n        /* \"#utility.yul\":15465:15483   */\n      tag_356\n      tag_130\n      jump\t// in\n    tag_356:\n        /* \"#utility.yul\":15429:15485   */\n    tag_355:\n        /* \"#utility.yul\":15509:15547   */\n      tag_357\n        /* \"#utility.yul\":15541:15545   */\n      dup3\n        /* \"#utility.yul\":15535:15546   */\n      sload\n        /* \"#utility.yul\":15509:15547   */\n      tag_73\n      jump\t// in\n    tag_357:\n        /* \"#utility.yul\":15594:15661   */\n      tag_358\n        /* \"#utility.yul\":15654:15660   */\n      dup3\n        /* \"#utility.yul\":15646:15652   */\n      dup3\n        /* \"#utility.yul\":15640:15644   */\n      dup6\n        /* \"#utility.yul\":15594:15661   */\n      tag_168\n      jump\t// in\n    tag_358:\n        /* \"#utility.yul\":15688:15689   */\n      0x00\n        /* \"#utility.yul\":15712:15716   */\n      0x20\n        /* \"#utility.yul\":15699:15716   */\n      swap1\n      pop\n        /* \"#utility.yul\":15744:15746   */\n      0x1f\n        /* \"#utility.yul\":15736:15742   */\n      dup4\n        /* \"#utility.yul\":15733:15747   */\n      gt\n        /* \"#utility.yul\":15761:15762   */\n      0x01\n        /* \"#utility.yul\":15756:16374   */\n      dup2\n      eq\n      tag_360\n      jumpi\n        /* \"#utility.yul\":16418:16419   */\n      0x00\n        /* \"#utility.yul\":16435:16441   */\n      dup5\n        /* \"#utility.yul\":16432:16509   */\n      iszero\n      tag_361\n      jumpi\n        /* \"#utility.yul\":16484:16493   */\n      dup3\n        /* \"#utility.yul\":16479:16482   */\n      dup8\n        /* \"#utility.yul\":16475:16494   */\n      add\n        /* \"#utility.yul\":16469:16495   */\n      mload\n        /* \"#utility.yul\":16460:16495   */\n      swap1\n      pop\n        /* \"#utility.yul\":16432:16509   */\n    tag_361:\n        /* \"#utility.yul\":16535:16602   */\n      tag_362\n        /* \"#utility.yul\":16595:16601   */\n      dup6\n        /* \"#utility.yul\":16588:16593   */\n      dup3\n        /* \"#utility.yul\":16535:16602   */\n      tag_171\n      jump\t// in\n    tag_362:\n        /* \"#utility.yul\":16529:16533   */\n      dup7\n        /* \"#utility.yul\":16522:16603   */\n      sstore\n        /* \"#utility.yul\":16391:16613   */\n      pop\n        /* \"#utility.yul\":15726:16613   */\n      jump(tag_359)\n        /* \"#utility.yul\":15756:16374   */\n    tag_360:\n        /* \"#utility.yul\":15808:15812   */\n      0x1f\n        /* \"#utility.yul\":15804:15813   */\n      not\n        /* \"#utility.yul\":15796:15802   */\n      dup5\n        /* \"#utility.yul\":15792:15814   */\n      and\n        /* \"#utility.yul\":15842:15879   */\n      tag_363\n        /* \"#utility.yul\":15874:15878   */\n      dup7\n        /* \"#utility.yul\":15842:15879   */\n      tag_157\n      jump\t// in\n    tag_363:\n        /* \"#utility.yul\":15901:15902   */\n      0x00\n        /* \"#utility.yul\":15915:16123   */\n    tag_364:\n        /* \"#utility.yul\":15929:15936   */\n      dup3\n        /* \"#utility.yul\":15926:15927   */\n      dup2\n        /* \"#utility.yul\":15923:15937   */\n      lt\n        /* \"#utility.yul\":15915:16123   */\n      iszero\n      tag_366\n      jumpi\n        /* \"#utility.yul\":16008:16017   */\n      dup5\n        /* \"#utility.yul\":16003:16006   */\n      dup10\n        /* \"#utility.yul\":15999:16018   */\n      add\n        /* \"#utility.yul\":15993:16019   */\n      mload\n        /* \"#utility.yul\":15985:15991   */\n      dup3\n        /* \"#utility.yul\":15978:16020   */\n      sstore\n        /* \"#utility.yul\":16059:16060   */\n      0x01\n        /* \"#utility.yul\":16051:16057   */\n      dup3\n        /* \"#utility.yul\":16047:16061   */\n      add\n        /* \"#utility.yul\":16037:16061   */\n      swap2\n      pop\n        /* \"#utility.yul\":16106:16108   */\n      0x20\n        /* \"#utility.yul\":16095:16104   */\n      dup6\n        /* \"#utility.yul\":16091:16109   */\n      add\n        /* \"#utility.yul\":16078:16109   */\n      swap5\n      pop\n        /* \"#utility.yul\":15952:15956   */\n      0x20\n        /* \"#utility.yul\":15949:15950   */\n      dup2\n        /* \"#utility.yul\":15945:15957   */\n      add\n        /* \"#utility.yul\":15940:15957   */\n      swap1\n      pop\n        /* \"#utility.yul\":15915:16123   */\n      jump(tag_364)\n    tag_366:\n        /* \"#utility.yul\":16151:16157   */\n      dup7\n        /* \"#utility.yul\":16142:16149   */\n      dup4\n        /* \"#utility.yul\":16139:16158   */\n      lt\n        /* \"#utility.yul\":16136:16315   */\n      iszero\n      tag_367\n      jumpi\n        /* \"#utility.yul\":16209:16218   */\n      dup5\n        /* \"#utility.yul\":16204:16207   */\n      dup10\n        /* \"#utility.yul\":16200:16219   */\n      add\n        /* \"#utility.yul\":16194:16220   */\n      mload\n        /* \"#utility.yul\":16252:16300   */\n      tag_368\n        /* \"#utility.yul\":16294:16298   */\n      0x1f\n        /* \"#utility.yul\":16286:16292   */\n      dup10\n        /* \"#utility.yul\":16282:16299   */\n      and\n        /* \"#utility.yul\":16271:16280   */\n      dup3\n        /* \"#utility.yul\":16252:16300   */\n      tag_170\n      jump\t// in\n    tag_368:\n        /* \"#utility.yul\":16244:16250   */\n      dup4\n        /* \"#utility.yul\":16237:16301   */\n      sstore\n        /* \"#utility.yul\":16159:16315   */\n      pop\n        /* \"#utility.yul\":16136:16315   */\n    tag_367:\n        /* \"#utility.yul\":16361:16362   */\n      0x01\n        /* \"#utility.yul\":16357:16358   */\n      0x02\n        /* \"#utility.yul\":16349:16355   */\n      dup9\n        /* \"#utility.yul\":16345:16359   */\n      mul\n        /* \"#utility.yul\":16341:16363   */\n      add\n        /* \"#utility.yul\":16335:16339   */\n      dup9\n        /* \"#utility.yul\":16328:16364   */\n      sstore\n        /* \"#utility.yul\":15763:16374   */\n      pop\n      pop\n      pop\n        /* \"#utility.yul\":15726:16613   */\n    tag_359:\n      pop\n        /* \"#utility.yul\":15316:16619   */\n      pop\n      pop\n      pop\n        /* \"#utility.yul\":15224:16619   */\n      pop\n      pop\n      jump\t// out\n        /* \"#utility.yul\":16625:16794   */\n    tag_172:\n        /* \"#utility.yul\":16765:16786   */\n      0x6974656d20646f6573206e6f7420657869737400000000000000000000000000\n        /* \"#utility.yul\":16761:16762   */\n      0x00\n        /* \"#utility.yul\":16753:16759   */\n      dup3\n        /* \"#utility.yul\":16749:16763   */\n      add\n        /* \"#utility.yul\":16742:16787   */\n      mstore\n        /* \"#utility.yul\":16625:16794   */\n      pop\n      jump\t// out\n        /* \"#utility.yul\":16800:17166   */\n    tag_173:\n        /* \"#utility.yul\":16942:16945   */\n      0x00\n        /* \"#utility.yul\":16963:17030   */\n      tag_371\n        /* \"#utility.yul\":17027:17029   */\n      0x13\n        /* \"#utility.yul\":17022:17025   */\n      dup4\n        /* \"#utility.yul\":16963:17030   */\n      tag_145\n      jump\t// in\n    tag_371:\n        /* \"#utility.yul\":16956:17030   */\n      swap2\n      pop\n        /* \"#utility.yul\":17039:17132   */\n      tag_372\n        /* \"#utility.yul\":17128:17131   */\n      dup3\n        /* \"#utility.yul\":17039:17132   */\n      tag_172\n      jump\t// in\n    tag_372:\n        /* \"#utility.yul\":17157:17159   */\n      0x20\n        /* \"#utility.yul\":17152:17155   */\n      dup3\n        /* \"#utility.yul\":17148:17160   */\n      add\n        /* \"#utility.yul\":17141:17160   */\n      swap1\n      pop\n        /* \"#utility.yul\":16800:17166   */\n      swap2\n      swap1\n      pop\n      jump\t// out\n        /* \"#utility.yul\":17172:17591   */\n    tag_66:\n        /* \"#utility.yul\":17338:17342   */\n      0x00\n        /* \"#utility.yul\":17376:17378   */\n      0x20\n        /* \"#utility.yul\":17365:17374   */\n      dup3\n        /* \"#utility.yul\":17361:17379   */\n      add\n        /* \"#utility.yul\":17353:17379   */\n      swap1\n      pop\n        /* \"#utility.yul\":17425:17434   */\n      dup2\n        /* \"#utility.yul\":17419:17423   */\n      dup2\n        /* \"#utility.yul\":17415:17435   */\n      sub\n        /* \"#utility.yul\":17411:17412   */\n      0x00\n        /* \"#utility.yul\":17400:17409   */\n      dup4\n        /* \"#utility.yul\":17396:17413   */\n      add\n        /* \"#utility.yul\":17389:17436   */\n      mstore\n        /* \"#utility.yul\":17453:17584   */\n      tag_374\n        /* \"#utility.yul\":17579:17583   */\n      dup2\n        /* \"#utility.yul\":17453:17584   */\n      tag_173\n      jump\t// in\n    tag_374:\n        /* \"#utility.yul\":17445:17584   */\n      swap1\n      pop\n        /* \"#utility.yul\":17172:17591   */\n      swap2\n      swap1\n      pop\n      jump\t// out\n        /* \"#utility.yul\":17597:17818   */\n    tag_174:\n        /* \"#utility.yul\":17737:17771   */\n      0x796f7520617265206e6f7420746865206f776e6572206f662074686973206974\n        /* \"#utility.yul\":17733:17734   */\n      0x00\n        /* \"#utility.yul\":17725:17731   */\n      dup3\n        /* \"#utility.yul\":17721:17735   */\n      add\n        /* \"#utility.yul\":17714:17772   */\n      mstore\n        /* \"#utility.yul\":17806:17810   */\n      0x656d000000000000000000000000000000000000000000000000000000000000\n        /* \"#utility.yul\":17801:17803   */\n      0x20\n        /* \"#utility.yul\":17793:17799   */\n      dup3\n        /* \"#utility.yul\":17789:17804   */\n      add\n        /* \"#utility.yul\":17782:17811   */\n      mstore\n        /* \"#utility.yul\":17597:17818   */\n      pop\n      jump\t// out\n        /* \"#utility.yul\":17824:18190   */\n    tag_175:\n        /* \"#utility.yul\":17966:17969   */\n      0x00\n        /* \"#utility.yul\":17987:18054   */\n      tag_377\n        /* \"#utility.yul\":18051:18053   */\n      0x22\n        /* \"#utility.yul\":18046:18049   */\n      dup4\n        /* \"#utility.yul\":17987:18054   */\n      tag_145\n      jump\t// in\n    tag_377:\n        /* \"#utility.yul\":17980:18054   */\n      swap2\n      pop\n        /* \"#utility.yul\":18063:18156   */\n      tag_378\n        /* \"#utility.yul\":18152:18155   */\n      dup3\n        /* \"#utility.yul\":18063:18156   */\n      tag_174\n      jump\t// in\n    tag_378:\n        /* \"#utility.yul\":18181:18183   */\n      0x40\n        /* \"#utility.yul\":18176:18179   */\n      dup3\n        /* \"#utility.yul\":18172:18184   */\n      add\n        /* \"#utility.yul\":18165:18184   */\n      swap1\n      pop\n        /* \"#utility.yul\":17824:18190   */\n      swap2\n      swap1\n      pop\n      jump\t// out\n        /* \"#utility.yul\":18196:18615   */\n    tag_69:\n        /* \"#utility.yul\":18362:18366   */\n      0x00\n        /* \"#utility.yul\":18400:18402   */\n      0x20\n        /* \"#utility.yul\":18389:18398   */\n      dup3\n        /* \"#utility.yul\":18385:18403   */\n      add\n        /* \"#utility.yul\":18377:18403   */\n      swap1\n      pop\n        /* \"#utility.yul\":18449:18458   */\n      dup2\n        /* \"#utility.yul\":18443:18447   */\n      dup2\n        /* \"#utility.yul\":18439:18459   */\n      sub\n        /* \"#utility.yul\":18435:18436   */\n      0x00\n        /* \"#utility.yul\":18424:18433   */\n      dup4\n        /* \"#utility.yul\":18420:18437   */\n      add\n        /* \"#utility.yul\":18413:18460   */\n      mstore\n        /* \"#utility.yul\":18477:18608   */\n      tag_380\n        /* \"#utility.yul\":18603:18607   */\n      dup2\n        /* \"#utility.yul\":18477:18608   */\n      tag_175\n      jump\t// in\n    tag_380:\n        /* \"#utility.yul\":18469:18608   */\n      swap1\n      pop\n        /* \"#utility.yul\":18196:18615   */\n      swap2\n      swap1\n      pop\n      jump\t// out\n        /* \"#utility.yul\":18621:18781   */\n    tag_176:\n        /* \"#utility.yul\":18761:18773   */\n      0x696e76616c696420496400000000000000000000000000000000000000000000\n        /* \"#utility.yul\":18757:18758   */\n      0x00\n        /* \"#utility.yul\":18749:18755   */\n      dup3\n        /* \"#utility.yul\":18745:18759   */\n      add\n        /* \"#utility.yul\":18738:18774   */\n      mstore\n        /* \"#utility.yul\":18621:18781   */\n      pop\n      jump\t// out\n        /* \"#utility.yul\":18787:19153   */\n    tag_177:\n        /* \"#utility.yul\":18929:18932   */\n      0x00\n        /* \"#utility.yul\":18950:19017   */\n      tag_383\n        /* \"#utility.yul\":19014:19016   */\n      0x0a\n        /* \"#utility.yul\":19009:19012   */\n      dup4\n        /* \"#utility.yul\":18950:19017   */\n      tag_145\n      jump\t// in\n    tag_383:\n        /* \"#utility.yul\":18943:19017   */\n      swap2\n      pop\n        /* \"#utility.yul\":19026:19119   */\n      tag_384\n        /* \"#utility.yul\":19115:19118   */\n      dup3\n        /* \"#utility.yul\":19026:19119   */\n      tag_176\n      jump\t// in\n    tag_384:\n        /* \"#utility.yul\":19144:19146   */\n      0x20\n        /* \"#utility.yul\":19139:19142   */\n      dup3\n        /* \"#utility.yul\":19135:19147   */\n      add\n        /* \"#utility.yul\":19128:19147   */\n      swap1\n      pop\n        /* \"#utility.yul\":18787:19153   */\n      swap2\n      swap1\n      pop\n      jump\t// out\n        /* \"#utility.yul\":19159:19578   */\n    tag_81:\n        /* \"#utility.yul\":19325:19329   */\n      0x00\n        /* \"#utility.yul\":19363:19365   */\n      0x20\n        /* \"#utility.yul\":19352:19361   */\n      dup3\n        /* \"#utility.yul\":19348:19366   */\n      add\n        /* \"#utility.yul\":19340:19366   */\n      swap1\n      pop\n        /* \"#utility.yul\":19412:19421   */\n      dup2\n        /* \"#utility.yul\":19406:19410   */\n      dup2\n        /* \"#utility.yul\":19402:19422   */\n      sub\n        /* \"#utility.yul\":19398:19399   */\n      0x00\n        /* \"#utility.yul\":19387:19396   */\n      dup4\n        /* \"#utility.yul\":19383:19400   */\n      add\n        /* \"#utility.yul\":19376:19423   */\n      mstore\n        /* \"#utility.yul\":19440:19571   */\n      tag_386\n        /* \"#utility.yul\":19566:19570   */\n      dup2\n        /* \"#utility.yul\":19440:19571   */\n      tag_177\n      jump\t// in\n    tag_386:\n        /* \"#utility.yul\":19432:19571   */\n      swap1\n      pop\n        /* \"#utility.yul\":19159:19578   */\n      swap2\n      swap1\n      pop\n      jump\t// out\n        /* \"#utility.yul\":19584:19749   */\n    tag_178:\n        /* \"#utility.yul\":19724:19741   */\n      0x696e636f72726563742070726963650000000000000000000000000000000000\n        /* \"#utility.yul\":19720:19721   */\n      0x00\n        /* \"#utility.yul\":19712:19718   */\n      dup3\n        /* \"#utility.yul\":19708:19722   */\n      add\n        /* \"#utility.yul\":19701:19742   */\n      mstore\n        /* \"#utility.yul\":19584:19749   */\n      pop\n      jump\t// out\n        /* \"#utility.yul\":19755:20121   */\n    tag_179:\n        /* \"#utility.yul\":19897:19900   */\n      0x00\n        /* \"#utility.yul\":19918:19985   */\n      tag_389\n        /* \"#utility.yul\":19982:19984   */\n      0x0f\n        /* \"#utility.yul\":19977:19980   */\n      dup4\n        /* \"#utility.yul\":19918:19985   */\n      tag_145\n      jump\t// in\n    tag_389:\n        /* \"#utility.yul\":19911:19985   */\n      swap2\n      pop\n        /* \"#utility.yul\":19994:20087   */\n      tag_390\n        /* \"#utility.yul\":20083:20086   */\n      dup3\n        /* \"#utility.yul\":19994:20087   */\n      tag_178\n      jump\t// in\n    tag_390:\n        /* \"#utility.yul\":20112:20114   */\n      0x20\n        /* \"#utility.yul\":20107:20110   */\n      dup3\n        /* \"#utility.yul\":20103:20115   */\n      add\n        /* \"#utility.yul\":20096:20115   */\n      swap1\n      pop\n        /* \"#utility.yul\":19755:20121   */\n      swap2\n      swap1\n      pop\n      jump\t// out\n        /* \"#utility.yul\":20127:20546   */\n    tag_84:\n        /* \"#utility.yul\":20293:20297   */\n      0x00\n        /* \"#utility.yul\":20331:20333   */\n      0x20\n        /* \"#utility.yul\":20320:20329   */\n      dup3\n        /* \"#utility.yul\":20316:20334   */\n      add\n        /* \"#utility.yul\":20308:20334   */\n      swap1\n      pop\n        /* \"#utility.yul\":20380:20389   */\n      dup2\n        /* \"#utility.yul\":20374:20378   */\n      dup2\n        /* \"#utility.yul\":20370:20390   */\n      sub\n        /* \"#utility.yul\":20366:20367   */\n      0x00\n        /* \"#utility.yul\":20355:20364   */\n      dup4\n        /* \"#utility.yul\":20351:20368   */\n      add\n        /* \"#utility.yul\":20344:20391   */\n      mstore\n        /* \"#utility.yul\":20408:20539   */\n      tag_392\n        /* \"#utility.yul\":20534:20538   */\n      dup2\n        /* \"#utility.yul\":20408:20539   */\n      tag_179\n      jump\t// in\n    tag_392:\n        /* \"#utility.yul\":20400:20539   */\n      swap1\n      pop\n        /* \"#utility.yul\":20127:20546   */\n      swap2\n      swap1\n      pop\n      jump\t// out\n        /* \"#utility.yul\":20552:20719   */\n    tag_180:\n        /* \"#utility.yul\":20692:20711   */\n      0x6974656d20616c726561647920736f6c64000000000000000000000000000000\n        /* \"#utility.yul\":20688:20689   */\n      0x00\n        /* \"#utility.yul\":20680:20686   */\n      dup3\n        /* \"#utility.yul\":20676:20690   */\n      add\n        /* \"#utility.yul\":20669:20712   */\n      mstore\n        /* \"#utility.yul\":20552:20719   */\n      pop\n      jump\t// out\n        /* \"#utility.yul\":20725:21091   */\n    tag_181:\n        /* \"#utility.yul\":20867:20870   */\n      0x00\n        /* \"#utility.yul\":20888:20955   */\n      tag_395\n        /* \"#utility.yul\":20952:20954   */\n      0x11\n        /* \"#utility.yul\":20947:20950   */\n      dup4\n        /* \"#utility.yul\":20888:20955   */\n      tag_145\n      jump\t// in\n    tag_395:\n        /* \"#utility.yul\":20881:20955   */\n      swap2\n      pop\n        /* \"#utility.yul\":20964:21057   */\n      tag_396\n        /* \"#utility.yul\":21053:21056   */\n      dup3\n        /* \"#utility.yul\":20964:21057   */\n      tag_180\n      jump\t// in\n    tag_396:\n        /* \"#utility.yul\":21082:21084   */\n      0x20\n        /* \"#utility.yul\":21077:21080   */\n      dup3\n        /* \"#utility.yul\":21073:21085   */\n      add\n        /* \"#utility.yul\":21066:21085   */\n      swap1\n      pop\n        /* \"#utility.yul\":20725:21091   */\n      swap2\n      swap1\n      pop\n      jump\t// out\n        /* \"#utility.yul\":21097:21516   */\n    tag_87:\n        /* \"#utility.yul\":21263:21267   */\n      0x00\n        /* \"#utility.yul\":21301:21303   */\n      0x20\n        /* \"#utility.yul\":21290:21299   */\n      dup3\n        /* \"#utility.yul\":21286:21304   */\n      add\n        /* \"#utility.yul\":21278:21304   */\n      swap1\n      pop\n        /* \"#utility.yul\":21350:21359   */\n      dup2\n        /* \"#utility.yul\":21344:21348   */\n      dup2\n        /* \"#utility.yul\":21340:21360   */\n      sub\n        /* \"#utility.yul\":21336:21337   */\n      0x00\n        /* \"#utility.yul\":21325:21334   */\n      dup4\n        /* \"#utility.yul\":21321:21338   */\n      add\n        /* \"#utility.yul\":21314:21361   */\n      mstore\n        /* \"#utility.yul\":21378:21509   */\n      tag_398\n        /* \"#utility.yul\":21504:21508   */\n      dup2\n        /* \"#utility.yul\":21378:21509   */\n      tag_181\n      jump\t// in\n    tag_398:\n        /* \"#utility.yul\":21370:21509   */\n      swap1\n      pop\n        /* \"#utility.yul\":21097:21516   */\n      swap2\n      swap1\n      pop\n      jump\t// out\n        /* \"#utility.yul\":21522:21704   */\n    tag_182:\n        /* \"#utility.yul\":21662:21696   */\n      0x53656c6c65722063616e6e6f7420627579207468656972206f776e206974656d\n        /* \"#utility.yul\":21658:21659   */\n      0x00\n        /* \"#utility.yul\":21650:21656   */\n      dup3\n        /* \"#utility.yul\":21646:21660   */\n      add\n        /* \"#utility.yul\":21639:21697   */\n      mstore\n        /* \"#utility.yul\":21522:21704   */\n      pop\n      jump\t// out\n        /* \"#utility.yul\":21710:22076   */\n    tag_183:\n        /* \"#utility.yul\":21852:21855   */\n      0x00\n        /* \"#utility.yul\":21873:21940   */\n      tag_401\n        /* \"#utility.yul\":21937:21939   */\n      0x20\n        /* \"#utility.yul\":21932:21935   */\n      dup4\n        /* \"#utility.yul\":21873:21940   */\n      tag_145\n      jump\t// in\n    tag_401:\n        /* \"#utility.yul\":21866:21940   */\n      swap2\n      pop\n        /* \"#utility.yul\":21949:22042   */\n      tag_402\n        /* \"#utility.yul\":22038:22041   */\n      dup3\n        /* \"#utility.yul\":21949:22042   */\n      tag_182\n      jump\t// in\n    tag_402:\n        /* \"#utility.yul\":22067:22069   */\n      0x20\n        /* \"#utility.yul\":22062:22065   */\n      dup3\n        /* \"#utility.yul\":22058:22070   */\n      add\n        /* \"#utility.yul\":22051:22070   */\n      swap1\n      pop\n        /* \"#utility.yul\":21710:22076   */\n      swap2\n      swap1\n      pop\n      jump\t// out\n        /* \"#utility.yul\":22082:22501   */\n    tag_90:\n        /* \"#utility.yul\":22248:22252   */\n      0x00\n        /* \"#utility.yul\":22286:22288   */\n      0x20\n        /* \"#utility.yul\":22275:22284   */\n      dup3\n        /* \"#utility.yul\":22271:22289   */\n      add\n        /* \"#utility.yul\":22263:22289   */\n      swap1\n      pop\n        /* \"#utility.yul\":22335:22344   */\n      dup2\n        /* \"#utility.yul\":22329:22333   */\n      dup2\n        /* \"#utility.yul\":22325:22345   */\n      sub\n        /* \"#utility.yul\":22321:22322   */\n      0x00\n        /* \"#utility.yul\":22310:22319   */\n      dup4\n        /* \"#utility.yul\":22306:22323   */\n      add\n        /* \"#utility.yul\":22299:22346   */\n      mstore\n        /* \"#utility.yul\":22363:22494   */\n      tag_404\n        /* \"#utility.yul\":22489:22493   */\n      dup2\n        /* \"#utility.yul\":22363:22494   */\n      tag_183\n      jump\t// in\n    tag_404:\n        /* \"#utility.yul\":22355:22494   */\n      swap1\n      pop\n        /* \"#utility.yul\":22082:22501   */\n      swap2\n      swap1\n      pop\n      jump\t// out\n        /* \"#utility.yul\":22507:22687   */\n    tag_100:\n        /* \"#utility.yul\":22555:22632   */\n      0x4e487b7100000000000000000000000000000000000000000000000000000000\n        /* \"#utility.yul\":22552:22553   */\n      0x00\n        /* \"#utility.yul\":22545:22633   */\n      mstore\n        /* \"#utility.yul\":22652:22656   */\n      0x32\n        /* \"#utility.yul\":22649:22650   */\n      0x04\n        /* \"#utility.yul\":22642:22657   */\n      mstore\n        /* \"#utility.yul\":22676:22680   */\n      0x24\n        /* \"#utility.yul\":22673:22674   */\n      0x00\n        /* \"#utility.yul\":22666:22681   */\n      revert\n        /* \"#utility.yul\":22693:22887   */\n    tag_104:\n        /* \"#utility.yul\":22733:22737   */\n      0x00\n        /* \"#utility.yul\":22753:22773   */\n      tag_407\n        /* \"#utility.yul\":22771:22772   */\n      dup3\n        /* \"#utility.yul\":22753:22773   */\n      tag_123\n      jump\t// in\n    tag_407:\n        /* \"#utility.yul\":22748:22773   */\n      swap2\n      pop\n        /* \"#utility.yul\":22787:22807   */\n      tag_408\n        /* \"#utility.yul\":22805:22806   */\n      dup4\n        /* \"#utility.yul\":22787:22807   */\n      tag_123\n      jump\t// in\n    tag_408:\n        /* \"#utility.yul\":22782:22807   */\n      swap3\n      pop\n        /* \"#utility.yul\":22831:22832   */\n      dup3\n        /* \"#utility.yul\":22828:22829   */\n      dup3\n        /* \"#utility.yul\":22824:22833   */\n      sub\n        /* \"#utility.yul\":22816:22833   */\n      swap1\n      pop\n        /* \"#utility.yul\":22855:22856   */\n      dup2\n        /* \"#utility.yul\":22849:22853   */\n      dup2\n        /* \"#utility.yul\":22846:22857   */\n      gt\n        /* \"#utility.yul\":22843:22880   */\n      iszero\n      tag_409\n      jumpi\n        /* \"#utility.yul\":22860:22878   */\n      tag_410\n      tag_155\n      jump\t// in\n    tag_410:\n        /* \"#utility.yul\":22843:22880   */\n    tag_409:\n        /* \"#utility.yul\":22693:22887   */\n      swap3\n      swap2\n      pop\n      pop\n      jump\t// out\n        /* \"#utility.yul\":22893:23073   */\n    tag_113:\n        /* \"#utility.yul\":22941:23018   */\n      0x4e487b7100000000000000000000000000000000000000000000000000000000\n        /* \"#utility.yul\":22938:22939   */\n      0x00\n        /* \"#utility.yul\":22931:23019   */\n      mstore\n        /* \"#utility.yul\":23038:23042   */\n      0x31\n        /* \"#utility.yul\":23035:23036   */\n      0x04\n        /* \"#utility.yul\":23028:23043   */\n      mstore\n        /* \"#utility.yul\":23062:23066   */\n      0x24\n        /* \"#utility.yul\":23059:23060   */\n      0x00\n        /* \"#utility.yul\":23052:23067   */\n      revert\n\n    auxdata: 0xa26469706673582212206dfea257eab2cb4b40acf8b7c9f0a7ea45b657c5c51ebc46b438741643b7662164736f6c634300081a0033\n}\n",
				"bytecode": {
					"linkReferences": {},
					"object": "60806040525f80553480156011575f80fd5b5061168c8061001f5f395ff3fe60806040526004361061006f575f3560e01c806398ada83b1161004d57806398ada83b14610101578063a42291011461013d578063bfb231d214610165578063d38ea5bf146101a65761006f565b806342846534146100735780636bfb0d01146100af5780638511c937146100d9575b5f80fd5b34801561007e575f80fd5b5061009960048036038101906100949190610b18565b6101c2565b6040516100a69190610b65565b60405180910390f35b3480156100ba575f80fd5b506100c36101ed565b6040516100d09190610b65565b60405180910390f35b3480156100e4575f80fd5b506100ff60048036038101906100fa9190610cba565b6101f2565b005b34801561010c575f80fd5b5061012760048036038101906101229190610d14565b6103f5565b6040516101349190610df6565b60405180910390f35b348015610148575f80fd5b50610163600480360381019061015e9190610e16565b610488565b005b348015610170575f80fd5b5061018b60048036038101906101869190610e54565b61058c565b60405161019d96959493929190610f28565b60405180910390f35b6101c060048036038101906101bb9190610e54565b610695565b005b6002602052815f5260405f2081815481106101db575f80fd5b905f5260205f20015f91509150505481565b5f5481565b5f8111610234576040517f08c379a000000000000000000000000000000000000000000000000000000000815260040161022b90610fd8565b60405180910390fd5b5f8081548092919061024590611023565b91905055506040518060c001604052805f5481526020018381526020018281526020013373ffffffffffffffffffffffffffffffffffffffff1681526020013373ffffffffffffffffffffffffffffffffffffffff1681526020015f151581525060015f805481526020019081526020015f205f820151815f015560208201518160010190816102d59190611264565b50604082015181600201556060820151816003015f6101000a81548173ffffffffffffffffffffffffffffffffffffffff021916908373ffffffffffffffffffffffffffffffffffffffff1602179055506080820151816004015f6101000a81548173ffffffffffffffffffffffffffffffffffffffff021916908373ffffffffffffffffffffffffffffffffffffffff16021790555060a08201518160040160146101000a81548160ff02191690831515021790555090505060025f3373ffffffffffffffffffffffffffffffffffffffff1673ffffffffffffffffffffffffffffffffffffffff1681526020019081526020015f205f54908060018154018082558091505060019003905f5260205f20015f90919091909150555050565b606060025f8373ffffffffffffffffffffffffffffffffffffffff1673ffffffffffffffffffffffffffffffffffffffff1681526020019081526020015f2080548060200260200160405190810160405280929190818152602001828054801561047c57602002820191905f5260205f20905b815481526020019060010190808311610468575b50505050509050919050565b5f60015f8481526020019081526020015f2090505f831180156104ac57505f548311155b6104eb576040517f08c379a00000000000000000000000000000000000000000000000000000000081526004016104e29061137d565b60405180910390fd5b806004015f9054906101000a900473ffffffffffffffffffffffffffffffffffffffff1673ffffffffffffffffffffffffffffffffffffffff163373ffffffffffffffffffffffffffffffffffffffff161461057c576040517f08c379a00000000000000000000000000000000000000000000000000000000081526004016105739061140b565b60405180910390fd5b6105878333846108ca565b505050565b6001602052805f5260405f205f91509050805f0154908060010180546105b190611097565b80601f01602080910402602001604051908101604052809291908181526020018280546105dd90611097565b80156106285780601f106105ff57610100808354040283529160200191610628565b820191905f5260205f20905b81548152906001019060200180831161060b57829003601f168201915b505050505090806002015490806003015f9054906101000a900473ffffffffffffffffffffffffffffffffffffffff1690806004015f9054906101000a900473ffffffffffffffffffffffffffffffffffffffff16908060040160149054906101000a900460ff16905086565b5f60015f8381526020019081526020015f2090505f82116106eb576040517f08c379a00000000000000000000000000000000000000000000000000000000081526004016106e290611473565b60405180910390fd5b80600201543414610731576040517f08c379a0000000000000000000000000000000000000000000000000000000008152600401610728906114db565b60405180910390fd5b8060040160149054906101000a900460ff1615610783576040517f08c379a000000000000000000000000000000000000000000000000000000000815260040161077a90611543565b60405180910390fd5b806003015f9054906101000a900473ffffffffffffffffffffffffffffffffffffffff1673ffffffffffffffffffffffffffffffffffffffff163373ffffffffffffffffffffffffffffffffffffffff1603610814576040517f08c379a000000000000000000000000000000000000000000000000000000000815260040161080b906115ab565b60405180910390fd5b60018160040160146101000a81548160ff021916908315150217905550806003015f9054906101000a900473ffffffffffffffffffffffffffffffffffffffff1673ffffffffffffffffffffffffffffffffffffffff166108fc3490811502906040515f60405180830381858888f19350505050158015610897573d5f803e3d5ffd5b506108c682826003015f9054906101000a900473ffffffffffffffffffffffffffffffffffffffff16336108ca565b5050565b5f60015f8581526020019081526020015f20905081816004015f6101000a81548173ffffffffffffffffffffffffffffffffffffffff021916908373ffffffffffffffffffffffffffffffffffffffff1602179055505f60025f8573ffffffffffffffffffffffffffffffffffffffff1673ffffffffffffffffffffffffffffffffffffffff1681526020019081526020015f2090505f5b8180549050811015610a115785828281548110610982576109816115c9565b5b905f5260205f20015403610a045781600183805490506109a291906115f6565b815481106109b3576109b26115c9565b5b905f5260205f2001548282815481106109cf576109ce6115c9565b5b905f5260205f200181905550818054806109ec576109eb611629565b5b600190038181905f5260205f20015f90559055610a11565b8080600101915050610962565b5060025f8473ffffffffffffffffffffffffffffffffffffffff1673ffffffffffffffffffffffffffffffffffffffff1681526020019081526020015f2085908060018154018082558091505060019003905f5260205f20015f90919091909150555050505050565b5f604051905090565b5f80fd5b5f80fd5b5f73ffffffffffffffffffffffffffffffffffffffff82169050919050565b5f610ab482610a8b565b9050919050565b610ac481610aaa565b8114610ace575f80fd5b50565b5f81359050610adf81610abb565b92915050565b5f819050919050565b610af781610ae5565b8114610b01575f80fd5b50565b5f81359050610b1281610aee565b92915050565b5f8060408385031215610b2e57610b2d610a83565b5b5f610b3b85828601610ad1565b9250506020610b4c85828601610b04565b9150509250929050565b610b5f81610ae5565b82525050565b5f602082019050610b785f830184610b56565b92915050565b5f80fd5b5f80fd5b5f601f19601f8301169050919050565b7f4e487b71000000000000000000000000000000000000000000000000000000005f52604160045260245ffd5b610bcc82610b86565b810181811067ffffffffffffffff82111715610beb57610bea610b96565b5b80604052505050565b5f610bfd610a7a565b9050610c098282610bc3565b919050565b5f67ffffffffffffffff821115610c2857610c27610b96565b5b610c3182610b86565b9050602081019050919050565b828183375f83830152505050565b5f610c5e610c5984610c0e565b610bf4565b905082815260208101848484011115610c7a57610c79610b82565b5b610c85848285610c3e565b509392505050565b5f82601f830112610ca157610ca0610b7e565b5b8135610cb1848260208601610c4c565b91505092915050565b5f8060408385031215610cd057610ccf610a83565b5b5f83013567ffffffffffffffff811115610ced57610cec610a87565b5b610cf985828601610c8d565b9250506020610d0a85828601610b04565b9150509250929050565b5f60208284031215610d2957610d28610a83565b5b5f610d3684828501610ad1565b91505092915050565b5f81519050919050565b5f82825260208201905092915050565b5f819050602082019050919050565b610d7181610ae5565b82525050565b5f610d828383610d68565b60208301905092915050565b5f602082019050919050565b5f610da482610d3f565b610dae8185610d49565b9350610db983610d59565b805f5b83811015610de9578151610dd08882610d77565b9750610ddb83610d8e565b925050600181019050610dbc565b5085935050505092915050565b5f6020820190508181035f830152610e0e8184610d9a565b905092915050565b5f8060408385031215610e2c57610e2b610a83565b5b5f610e3985828601610b04565b9250506020610e4a85828601610ad1565b9150509250929050565b5f60208284031215610e6957610e68610a83565b5b5f610e7684828501610b04565b91505092915050565b5f81519050919050565b5f82825260208201905092915050565b8281835e5f83830152505050565b5f610eb182610e7f565b610ebb8185610e89565b9350610ecb818560208601610e99565b610ed481610b86565b840191505092915050565b5f610ee982610a8b565b9050919050565b610ef981610edf565b82525050565b610f0881610aaa565b82525050565b5f8115159050919050565b610f2281610f0e565b82525050565b5f60c082019050610f3b5f830189610b56565b8181036020830152610f4d8188610ea7565b9050610f5c6040830187610b56565b610f696060830186610ef0565b610f766080830185610eff565b610f8360a0830184610f19565b979650505050505050565b7f5072696365206d7573742062652067726561746572207468616e2030000000005f82015250565b5f610fc2601c83610e89565b9150610fcd82610f8e565b602082019050919050565b5f6020820190508181035f830152610fef81610fb6565b9050919050565b7f4e487b71000000000000000000000000000000000000000000000000000000005f52601160045260245ffd5b5f61102d82610ae5565b91507fffffffffffffffffffffffffffffffffffffffffffffffffffffffffffffffff820361105f5761105e610ff6565b5b600182019050919050565b7f4e487b71000000000000000000000000000000000000000000000000000000005f52602260045260245ffd5b5f60028204905060018216806110ae57607f821691505b6020821081036110c1576110c061106a565b5b50919050565b5f819050815f5260205f209050919050565b5f6020601f8301049050919050565b5f82821b905092915050565b5f600883026111237fffffffffffffffffffffffffffffffffffffffffffffffffffffffffffffffff826110e8565b61112d86836110e8565b95508019841693508086168417925050509392505050565b5f819050919050565b5f61116861116361115e84610ae5565b611145565b610ae5565b9050919050565b5f819050919050565b6111818361114e565b61119561118d8261116f565b8484546110f4565b825550505050565b5f90565b6111a961119d565b6111b4818484611178565b505050565b5b818110156111d7576111cc5f826111a1565b6001810190506111ba565b5050565b601f82111561121c576111ed816110c7565b6111f6846110d9565b81016020851015611205578190505b611219611211856110d9565b8301826111b9565b50505b505050565b5f82821c905092915050565b5f61123c5f1984600802611221565b1980831691505092915050565b5f611254838361122d565b9150826002028217905092915050565b61126d82610e7f565b67ffffffffffffffff81111561128657611285610b96565b5b6112908254611097565b61129b8282856111db565b5f60209050601f8311600181146112cc575f84156112ba578287015190505b6112c48582611249565b86555061132b565b601f1984166112da866110c7565b5f5b82811015611301578489015182556001820191506020850194506020810190506112dc565b8683101561131e578489015161131a601f89168261122d565b8355505b6001600288020188555050505b505050505050565b7f6974656d20646f6573206e6f74206578697374000000000000000000000000005f82015250565b5f611367601383610e89565b915061137282611333565b602082019050919050565b5f6020820190508181035f8301526113948161135b565b9050919050565b7f796f7520617265206e6f7420746865206f776e6572206f6620746869732069745f8201527f656d000000000000000000000000000000000000000000000000000000000000602082015250565b5f6113f5602283610e89565b91506114008261139b565b604082019050919050565b5f6020820190508181035f830152611422816113e9565b9050919050565b7f696e76616c6964204964000000000000000000000000000000000000000000005f82015250565b5f61145d600a83610e89565b915061146882611429565b602082019050919050565b5f6020820190508181035f83015261148a81611451565b9050919050565b7f696e636f727265637420707269636500000000000000000000000000000000005f82015250565b5f6114c5600f83610e89565b91506114d082611491565b602082019050919050565b5f6020820190508181035f8301526114f2816114b9565b9050919050565b7f6974656d20616c726561647920736f6c640000000000000000000000000000005f82015250565b5f61152d601183610e89565b9150611538826114f9565b602082019050919050565b5f6020820190508181035f83015261155a81611521565b9050919050565b7f53656c6c65722063616e6e6f7420627579207468656972206f776e206974656d5f82015250565b5f611595602083610e89565b91506115a082611561565b602082019050919050565b5f6020820190508181035f8301526115c281611589565b9050919050565b7f4e487b71000000000000000000000000000000000000000000000000000000005f52603260045260245ffd5b5f61160082610ae5565b915061160b83610ae5565b925082820390508181111561162357611622610ff6565b5b92915050565b7f4e487b71000000000000000000000000000000000000000000000000000000005f52603160045260245ffdfea26469706673582212206dfea257eab2cb4b40acf8b7c9f0a7ea45b657c5c51ebc46b438741643b7662164736f6c634300081a0033",
					"opcodes": "PUSH1 0x80 PUSH1 0x40 MSTORE PUSH0 DUP1 SSTORE CALLVALUE DUP1 ISZERO PUSH1 0x11 JUMPI PUSH0 DUP1 REVERT JUMPDEST POP PUSH2 0x168C DUP1 PUSH2 0x1F PUSH0 CODECOPY PUSH0 RETURN INVALID PUSH1 0x80 PUSH1 0x40 MSTORE PUSH1 0x4 CALLDATASIZE LT PUSH2 0x6F JUMPI PUSH0 CALLDATALOAD PUSH1 0xE0 SHR DUP1 PUSH4 0x98ADA83B GT PUSH2 0x4D JUMPI DUP1 PUSH4 0x98ADA83B EQ PUSH2 0x101 JUMPI DUP1 PUSH4 0xA4229101 EQ PUSH2 0x13D JUMPI DUP1 PUSH4 0xBFB231D2 EQ PUSH2 0x165 JUMPI DUP1 PUSH4 0xD38EA5BF EQ PUSH2 0x1A6 JUMPI PUSH2 0x6F JUMP JUMPDEST DUP1 PUSH4 0x42846534 EQ PUSH2 0x73 JUMPI DUP1 PUSH4 0x6BFB0D01 EQ PUSH2 0xAF JUMPI DUP1 PUSH4 0x8511C937 EQ PUSH2 0xD9 JUMPI JUMPDEST PUSH0 DUP1 REVERT JUMPDEST CALLVALUE DUP1 ISZERO PUSH2 0x7E JUMPI PUSH0 DUP1 REVERT JUMPDEST POP PUSH2 0x99 PUSH1 0x4 DUP1 CALLDATASIZE SUB DUP2 ADD SWAP1 PUSH2 0x94 SWAP2 SWAP1 PUSH2 0xB18 JUMP JUMPDEST PUSH2 0x1C2 JUMP JUMPDEST PUSH1 0x40 MLOAD PUSH2 0xA6 SWAP2 SWAP1 PUSH2 0xB65 JUMP JUMPDEST PUSH1 0x40 MLOAD DUP1 SWAP2 SUB SWAP1 RETURN JUMPDEST CALLVALUE DUP1 ISZERO PUSH2 0xBA JUMPI PUSH0 DUP1 REVERT JUMPDEST POP PUSH2 0xC3 PUSH2 0x1ED JUMP JUMPDEST PUSH1 0x40 MLOAD PUSH2 0xD0 SWAP2 SWAP1 PUSH2 0xB65 JUMP JUMPDEST PUSH1 0x40 MLOAD DUP1 SWAP2 SUB SWAP1 RETURN JUMPDEST CALLVALUE DUP1 ISZERO PUSH2 0xE4 JUMPI PUSH0 DUP1 REVERT JUMPDEST POP PUSH2 0xFF PUSH1 0x4 DUP1 CALLDATASIZE SUB DUP2 ADD SWAP1 PUSH2 0xFA SWAP2 SWAP1 PUSH2 0xCBA JUMP JUMPDEST PUSH2 0x1F2 JUMP JUMPDEST STOP JUMPDEST CALLVALUE DUP1 ISZERO PUSH2 0x10C JUMPI PUSH0 DUP1 REVERT JUMPDEST POP PUSH2 0x127 PUSH1 0x4 DUP1 CALLDATASIZE SUB DUP2 ADD SWAP1 PUSH2 0x122 SWAP2 SWAP1 PUSH2 0xD14 JUMP JUMPDEST PUSH2 0x3F5 JUMP JUMPDEST PUSH1 0x40 MLOAD PUSH2 0x134 SWAP2 SWAP1 PUSH2 0xDF6 JUMP JUMPDEST PUSH1 0x40 MLOAD DUP1 SWAP2 SUB SWAP1 RETURN JUMPDEST CALLVALUE DUP1 ISZERO PUSH2 0x148 JUMPI PUSH0 DUP1 REVERT JUMPDEST POP PUSH2 0x163 PUSH1 0x4 DUP1 CALLDATASIZE SUB DUP2 ADD SWAP1 PUSH2 0x15E SWAP2 SWAP1 PUSH2 0xE16 JUMP JUMPDEST PUSH2 0x488 JUMP JUMPDEST STOP JUMPDEST CALLVALUE DUP1 ISZERO PUSH2 0x170 JUMPI PUSH0 DUP1 REVERT JUMPDEST POP PUSH2 0x18B PUSH1 0x4 DUP1 CALLDATASIZE SUB DUP2 ADD SWAP1 PUSH2 0x186 SWAP2 SWAP1 PUSH2 0xE54 JUMP JUMPDEST PUSH2 0x58C JUMP JUMPDEST PUSH1 0x40 MLOAD PUSH2 0x19D SWAP7 SWAP6 SWAP5 SWAP4 SWAP3 SWAP2 SWAP1 PUSH2 0xF28 JUMP JUMPDEST PUSH1 0x40 MLOAD DUP1 SWAP2 SUB SWAP1 RETURN JUMPDEST PUSH2 0x1C0 PUSH1 0x4 DUP1 CALLDATASIZE SUB DUP2 ADD SWAP1 PUSH2 0x1BB SWAP2 SWAP1 PUSH2 0xE54 JUMP JUMPDEST PUSH2 0x695 JUMP JUMPDEST STOP JUMPDEST PUSH1 0x2 PUSH1 0x20 MSTORE DUP2 PUSH0 MSTORE PUSH1 0x40 PUSH0 KECCAK256 DUP2 DUP2 SLOAD DUP2 LT PUSH2 0x1DB JUMPI PUSH0 DUP1 REVERT JUMPDEST SWAP1 PUSH0 MSTORE PUSH1 0x20 PUSH0 KECCAK256 ADD PUSH0 SWAP2 POP SWAP2 POP POP SLOAD DUP2 JUMP JUMPDEST PUSH0 SLOAD DUP2 JUMP JUMPDEST PUSH0 DUP2 GT PUSH2 0x234 JUMPI PUSH1 0x40 MLOAD PUSH32 0x8C379A000000000000000000000000000000000000000000000000000000000 DUP2 MSTORE PUSH1 0x4 ADD PUSH2 0x22B SWAP1 PUSH2 0xFD8 JUMP JUMPDEST PUSH1 0x40 MLOAD DUP1 SWAP2 SUB SWAP1 REVERT JUMPDEST PUSH0 DUP1 DUP2 SLOAD DUP1 SWAP3 SWAP2 SWAP1 PUSH2 0x245 SWAP1 PUSH2 0x1023 JUMP JUMPDEST SWAP2 SWAP1 POP SSTORE POP PUSH1 0x40 MLOAD DUP1 PUSH1 0xC0 ADD PUSH1 0x40 MSTORE DUP1 PUSH0 SLOAD DUP2 MSTORE PUSH1 0x20 ADD DUP4 DUP2 MSTORE PUSH1 0x20 ADD DUP3 DUP2 MSTORE PUSH1 0x20 ADD CALLER PUSH20 0xFFFFFFFFFFFFFFFFFFFFFFFFFFFFFFFFFFFFFFFF AND DUP2 MSTORE PUSH1 0x20 ADD CALLER PUSH20 0xFFFFFFFFFFFFFFFFFFFFFFFFFFFFFFFFFFFFFFFF AND DUP2 MSTORE PUSH1 0x20 ADD PUSH0 ISZERO ISZERO DUP2 MSTORE POP PUSH1 0x1 PUSH0 DUP1 SLOAD DUP2 MSTORE PUSH1 0x20 ADD SWAP1 DUP2 MSTORE PUSH1 0x20 ADD PUSH0 KECCAK256 PUSH0 DUP3 ADD MLOAD DUP2 PUSH0 ADD SSTORE PUSH1 0x20 DUP3 ADD MLOAD DUP2 PUSH1 0x1 ADD SWAP1 DUP2 PUSH2 0x2D5 SWAP2 SWAP1 PUSH2 0x1264 JUMP JUMPDEST POP PUSH1 0x40 DUP3 ADD MLOAD DUP2 PUSH1 0x2 ADD SSTORE PUSH1 0x60 DUP3 ADD MLOAD DUP2 PUSH1 0x3 ADD PUSH0 PUSH2 0x100 EXP DUP2 SLOAD DUP2 PUSH20 0xFFFFFFFFFFFFFFFFFFFFFFFFFFFFFFFFFFFFFFFF MUL NOT AND SWAP1 DUP4 PUSH20 0xFFFFFFFFFFFFFFFFFFFFFFFFFFFFFFFFFFFFFFFF AND MUL OR SWAP1 SSTORE POP PUSH1 0x80 DUP3 ADD MLOAD DUP2 PUSH1 0x4 ADD PUSH0 PUSH2 0x100 EXP DUP2 SLOAD DUP2 PUSH20 0xFFFFFFFFFFFFFFFFFFFFFFFFFFFFFFFFFFFFFFFF MUL NOT AND SWAP1 DUP4 PUSH20 0xFFFFFFFFFFFFFFFFFFFFFFFFFFFFFFFFFFFFFFFF AND MUL OR SWAP1 SSTORE POP PUSH1 0xA0 DUP3 ADD MLOAD DUP2 PUSH1 0x4 ADD PUSH1 0x14 PUSH2 0x100 EXP DUP2 SLOAD DUP2 PUSH1 0xFF MUL NOT AND SWAP1 DUP4 ISZERO ISZERO MUL OR SWAP1 SSTORE POP SWAP1 POP POP PUSH1 0x2 PUSH0 CALLER PUSH20 0xFFFFFFFFFFFFFFFFFFFFFFFFFFFFFFFFFFFFFFFF AND PUSH20 0xFFFFFFFFFFFFFFFFFFFFFFFFFFFFFFFFFFFFFFFF AND DUP2 MSTORE PUSH1 0x20 ADD SWAP1 DUP2 MSTORE PUSH1 0x20 ADD PUSH0 KECCAK256 PUSH0 SLOAD SWAP1 DUP1 PUSH1 0x1 DUP2 SLOAD ADD DUP1 DUP3 SSTORE DUP1 SWAP2 POP POP PUSH1 0x1 SWAP1 SUB SWAP1 PUSH0 MSTORE PUSH1 0x20 PUSH0 KECCAK256 ADD PUSH0 SWAP1 SWAP2 SWAP1 SWAP2 SWAP1 SWAP2 POP SSTORE POP POP JUMP JUMPDEST PUSH1 0x60 PUSH1 0x2 PUSH0 DUP4 PUSH20 0xFFFFFFFFFFFFFFFFFFFFFFFFFFFFFFFFFFFFFFFF AND PUSH20 0xFFFFFFFFFFFFFFFFFFFFFFFFFFFFFFFFFFFFFFFF AND DUP2 MSTORE PUSH1 0x20 ADD SWAP1 DUP2 MSTORE PUSH1 0x20 ADD PUSH0 KECCAK256 DUP1 SLOAD DUP1 PUSH1 0x20 MUL PUSH1 0x20 ADD PUSH1 0x40 MLOAD SWAP1 DUP2 ADD PUSH1 0x40 MSTORE DUP1 SWAP3 SWAP2 SWAP1 DUP2 DUP2 MSTORE PUSH1 0x20 ADD DUP3 DUP1 SLOAD DUP1 ISZERO PUSH2 0x47C JUMPI PUSH1 0x20 MUL DUP3 ADD SWAP2 SWAP1 PUSH0 MSTORE PUSH1 0x20 PUSH0 KECCAK256 SWAP1 JUMPDEST DUP2 SLOAD DUP2 MSTORE PUSH1 0x20 ADD SWAP1 PUSH1 0x1 ADD SWAP1 DUP1 DUP4 GT PUSH2 0x468 JUMPI JUMPDEST POP POP POP POP POP SWAP1 POP SWAP2 SWAP1 POP JUMP JUMPDEST PUSH0 PUSH1 0x1 PUSH0 DUP5 DUP2 MSTORE PUSH1 0x20 ADD SWAP1 DUP2 MSTORE PUSH1 0x20 ADD PUSH0 KECCAK256 SWAP1 POP PUSH0 DUP4 GT DUP1 ISZERO PUSH2 0x4AC JUMPI POP PUSH0 SLOAD DUP4 GT ISZERO JUMPDEST PUSH2 0x4EB JUMPI PUSH1 0x40 MLOAD PUSH32 0x8C379A000000000000000000000000000000000000000000000000000000000 DUP2 MSTORE PUSH1 0x4 ADD PUSH2 0x4E2 SWAP1 PUSH2 0x137D JUMP JUMPDEST PUSH1 0x40 MLOAD DUP1 SWAP2 SUB SWAP1 REVERT JUMPDEST DUP1 PUSH1 0x4 ADD PUSH0 SWAP1 SLOAD SWAP1 PUSH2 0x100 EXP SWAP1 DIV PUSH20 0xFFFFFFFFFFFFFFFFFFFFFFFFFFFFFFFFFFFFFFFF AND PUSH20 0xFFFFFFFFFFFFFFFFFFFFFFFFFFFFFFFFFFFFFFFF AND CALLER PUSH20 0xFFFFFFFFFFFFFFFFFFFFFFFFFFFFFFFFFFFFFFFF AND EQ PUSH2 0x57C JUMPI PUSH1 0x40 MLOAD PUSH32 0x8C379A000000000000000000000000000000000000000000000000000000000 DUP2 MSTORE PUSH1 0x4 ADD PUSH2 0x573 SWAP1 PUSH2 0x140B JUMP JUMPDEST PUSH1 0x40 MLOAD DUP1 SWAP2 SUB SWAP1 REVERT JUMPDEST PUSH2 0x587 DUP4 CALLER DUP5 PUSH2 0x8CA JUMP JUMPDEST POP POP POP JUMP JUMPDEST PUSH1 0x1 PUSH1 0x20 MSTORE DUP1 PUSH0 MSTORE PUSH1 0x40 PUSH0 KECCAK256 PUSH0 SWAP2 POP SWAP1 POP DUP1 PUSH0 ADD SLOAD SWAP1 DUP1 PUSH1 0x1 ADD DUP1 SLOAD PUSH2 0x5B1 SWAP1 PUSH2 0x1097 JUMP JUMPDEST DUP1 PUSH1 0x1F ADD PUSH1 0x20 DUP1 SWAP2 DIV MUL PUSH1 0x20 ADD PUSH1 0x40 MLOAD SWAP1 DUP2 ADD PUSH1 0x40 MSTORE DUP1 SWAP3 SWAP2 SWAP1 DUP2 DUP2 MSTORE PUSH1 0x20 ADD DUP3 DUP1 SLOAD PUSH2 0x5DD SWAP1 PUSH2 0x1097 JUMP JUMPDEST DUP1 ISZERO PUSH2 0x628 JUMPI DUP1 PUSH1 0x1F LT PUSH2 0x5FF JUMPI PUSH2 0x100 DUP1 DUP4 SLOAD DIV MUL DUP4 MSTORE SWAP2 PUSH1 0x20 ADD SWAP2 PUSH2 0x628 JUMP JUMPDEST DUP3 ADD SWAP2 SWAP1 PUSH0 MSTORE PUSH1 0x20 PUSH0 KECCAK256 SWAP1 JUMPDEST DUP2 SLOAD DUP2 MSTORE SWAP1 PUSH1 0x1 ADD SWAP1 PUSH1 0x20 ADD DUP1 DUP4 GT PUSH2 0x60B JUMPI DUP3 SWAP1 SUB PUSH1 0x1F AND DUP3 ADD SWAP2 JUMPDEST POP POP POP POP POP SWAP1 DUP1 PUSH1 0x2 ADD SLOAD SWAP1 DUP1 PUSH1 0x3 ADD PUSH0 SWAP1 SLOAD SWAP1 PUSH2 0x100 EXP SWAP1 DIV PUSH20 0xFFFFFFFFFFFFFFFFFFFFFFFFFFFFFFFFFFFFFFFF AND SWAP1 DUP1 PUSH1 0x4 ADD PUSH0 SWAP1 SLOAD SWAP1 PUSH2 0x100 EXP SWAP1 DIV PUSH20 0xFFFFFFFFFFFFFFFFFFFFFFFFFFFFFFFFFFFFFFFF AND SWAP1 DUP1 PUSH1 0x4 ADD PUSH1 0x14 SWAP1 SLOAD SWAP1 PUSH2 0x100 EXP SWAP1 DIV PUSH1 0xFF AND SWAP1 POP DUP7 JUMP JUMPDEST PUSH0 PUSH1 0x1 PUSH0 DUP4 DUP2 MSTORE PUSH1 0x20 ADD SWAP1 DUP2 MSTORE PUSH1 0x20 ADD PUSH0 KECCAK256 SWAP1 POP PUSH0 DUP3 GT PUSH2 0x6EB JUMPI PUSH1 0x40 MLOAD PUSH32 0x8C379A000000000000000000000000000000000000000000000000000000000 DUP2 MSTORE PUSH1 0x4 ADD PUSH2 0x6E2 SWAP1 PUSH2 0x1473 JUMP JUMPDEST PUSH1 0x40 MLOAD DUP1 SWAP2 SUB SWAP1 REVERT JUMPDEST DUP1 PUSH1 0x2 ADD SLOAD CALLVALUE EQ PUSH2 0x731 JUMPI PUSH1 0x40 MLOAD PUSH32 0x8C379A000000000000000000000000000000000000000000000000000000000 DUP2 MSTORE PUSH1 0x4 ADD PUSH2 0x728 SWAP1 PUSH2 0x14DB JUMP JUMPDEST PUSH1 0x40 MLOAD DUP1 SWAP2 SUB SWAP1 REVERT JUMPDEST DUP1 PUSH1 0x4 ADD PUSH1 0x14 SWAP1 SLOAD SWAP1 PUSH2 0x100 EXP SWAP1 DIV PUSH1 0xFF AND ISZERO PUSH2 0x783 JUMPI PUSH1 0x40 MLOAD PUSH32 0x8C379A000000000000000000000000000000000000000000000000000000000 DUP2 MSTORE PUSH1 0x4 ADD PUSH2 0x77A SWAP1 PUSH2 0x1543 JUMP JUMPDEST PUSH1 0x40 MLOAD DUP1 SWAP2 SUB SWAP1 REVERT JUMPDEST DUP1 PUSH1 0x3 ADD PUSH0 SWAP1 SLOAD SWAP1 PUSH2 0x100 EXP SWAP1 DIV PUSH20 0xFFFFFFFFFFFFFFFFFFFFFFFFFFFFFFFFFFFFFFFF AND PUSH20 0xFFFFFFFFFFFFFFFFFFFFFFFFFFFFFFFFFFFFFFFF AND CALLER PUSH20 0xFFFFFFFFFFFFFFFFFFFFFFFFFFFFFFFFFFFFFFFF AND SUB PUSH2 0x814 JUMPI PUSH1 0x40 MLOAD PUSH32 0x8C379A000000000000000000000000000000000000000000000000000000000 DUP2 MSTORE PUSH1 0x4 ADD PUSH2 0x80B SWAP1 PUSH2 0x15AB JUMP JUMPDEST PUSH1 0x40 MLOAD DUP1 SWAP2 SUB SWAP1 REVERT JUMPDEST PUSH1 0x1 DUP2 PUSH1 0x4 ADD PUSH1 0x14 PUSH2 0x100 EXP DUP2 SLOAD DUP2 PUSH1 0xFF MUL NOT AND SWAP1 DUP4 ISZERO ISZERO MUL OR SWAP1 SSTORE POP DUP1 PUSH1 0x3 ADD PUSH0 SWAP1 SLOAD SWAP1 PUSH2 0x100 EXP SWAP1 DIV PUSH20 0xFFFFFFFFFFFFFFFFFFFFFFFFFFFFFFFFFFFFFFFF AND PUSH20 0xFFFFFFFFFFFFFFFFFFFFFFFFFFFFFFFFFFFFFFFF AND PUSH2 0x8FC CALLVALUE SWAP1 DUP2 ISZERO MUL SWAP1 PUSH1 0x40 MLOAD PUSH0 PUSH1 0x40 MLOAD DUP1 DUP4 SUB DUP2 DUP6 DUP9 DUP9 CALL SWAP4 POP POP POP POP ISZERO DUP1 ISZERO PUSH2 0x897 JUMPI RETURNDATASIZE PUSH0 DUP1 RETURNDATACOPY RETURNDATASIZE PUSH0 REVERT JUMPDEST POP PUSH2 0x8C6 DUP3 DUP3 PUSH1 0x3 ADD PUSH0 SWAP1 SLOAD SWAP1 PUSH2 0x100 EXP SWAP1 DIV PUSH20 0xFFFFFFFFFFFFFFFFFFFFFFFFFFFFFFFFFFFFFFFF AND CALLER PUSH2 0x8CA JUMP JUMPDEST POP POP JUMP JUMPDEST PUSH0 PUSH1 0x1 PUSH0 DUP6 DUP2 MSTORE PUSH1 0x20 ADD SWAP1 DUP2 MSTORE PUSH1 0x20 ADD PUSH0 KECCAK256 SWAP1 POP DUP2 DUP2 PUSH1 0x4 ADD PUSH0 PUSH2 0x100 EXP DUP2 SLOAD DUP2 PUSH20 0xFFFFFFFFFFFFFFFFFFFFFFFFFFFFFFFFFFFFFFFF MUL NOT AND SWAP1 DUP4 PUSH20 0xFFFFFFFFFFFFFFFFFFFFFFFFFFFFFFFFFFFFFFFF AND MUL OR SWAP1 SSTORE POP PUSH0 PUSH1 0x2 PUSH0 DUP6 PUSH20 0xFFFFFFFFFFFFFFFFFFFFFFFFFFFFFFFFFFFFFFFF AND PUSH20 0xFFFFFFFFFFFFFFFFFFFFFFFFFFFFFFFFFFFFFFFF AND DUP2 MSTORE PUSH1 0x20 ADD SWAP1 DUP2 MSTORE PUSH1 0x20 ADD PUSH0 KECCAK256 SWAP1 POP PUSH0 JUMPDEST DUP2 DUP1 SLOAD SWAP1 POP DUP2 LT ISZERO PUSH2 0xA11 JUMPI DUP6 DUP3 DUP3 DUP2 SLOAD DUP2 LT PUSH2 0x982 JUMPI PUSH2 0x981 PUSH2 0x15C9 JUMP JUMPDEST JUMPDEST SWAP1 PUSH0 MSTORE PUSH1 0x20 PUSH0 KECCAK256 ADD SLOAD SUB PUSH2 0xA04 JUMPI DUP2 PUSH1 0x1 DUP4 DUP1 SLOAD SWAP1 POP PUSH2 0x9A2 SWAP2 SWAP1 PUSH2 0x15F6 JUMP JUMPDEST DUP2 SLOAD DUP2 LT PUSH2 0x9B3 JUMPI PUSH2 0x9B2 PUSH2 0x15C9 JUMP JUMPDEST JUMPDEST SWAP1 PUSH0 MSTORE PUSH1 0x20 PUSH0 KECCAK256 ADD SLOAD DUP3 DUP3 DUP2 SLOAD DUP2 LT PUSH2 0x9CF JUMPI PUSH2 0x9CE PUSH2 0x15C9 JUMP JUMPDEST JUMPDEST SWAP1 PUSH0 MSTORE PUSH1 0x20 PUSH0 KECCAK256 ADD DUP2 SWAP1 SSTORE POP DUP2 DUP1 SLOAD DUP1 PUSH2 0x9EC JUMPI PUSH2 0x9EB PUSH2 0x1629 JUMP JUMPDEST JUMPDEST PUSH1 0x1 SWAP1 SUB DUP2 DUP2 SWAP1 PUSH0 MSTORE PUSH1 0x20 PUSH0 KECCAK256 ADD PUSH0 SWAP1 SSTORE SWAP1 SSTORE PUSH2 0xA11 JUMP JUMPDEST DUP1 DUP1 PUSH1 0x1 ADD SWAP2 POP POP PUSH2 0x962 JUMP JUMPDEST POP PUSH1 0x2 PUSH0 DUP5 PUSH20 0xFFFFFFFFFFFFFFFFFFFFFFFFFFFFFFFFFFFFFFFF AND PUSH20 0xFFFFFFFFFFFFFFFFFFFFFFFFFFFFFFFFFFFFFFFF AND DUP2 MSTORE PUSH1 0x20 ADD SWAP1 DUP2 MSTORE PUSH1 0x20 ADD PUSH0 KECCAK256 DUP6 SWAP1 DUP1 PUSH1 0x1 DUP2 SLOAD ADD DUP1 DUP3 SSTORE DUP1 SWAP2 POP POP PUSH1 0x1 SWAP1 SUB SWAP1 PUSH0 MSTORE PUSH1 0x20 PUSH0 KECCAK256 ADD PUSH0 SWAP1 SWAP2 SWAP1 SWAP2 SWAP1 SWAP2 POP SSTORE POP POP POP POP POP JUMP JUMPDEST PUSH0 PUSH1 0x40 MLOAD SWAP1 POP SWAP1 JUMP JUMPDEST PUSH0 DUP1 REVERT JUMPDEST PUSH0 DUP1 REVERT JUMPDEST PUSH0 PUSH20 0xFFFFFFFFFFFFFFFFFFFFFFFFFFFFFFFFFFFFFFFF DUP3 AND SWAP1 POP SWAP2 SWAP1 POP JUMP JUMPDEST PUSH0 PUSH2 0xAB4 DUP3 PUSH2 0xA8B JUMP JUMPDEST SWAP1 POP SWAP2 SWAP1 POP JUMP JUMPDEST PUSH2 0xAC4 DUP2 PUSH2 0xAAA JUMP JUMPDEST DUP2 EQ PUSH2 0xACE JUMPI PUSH0 DUP1 REVERT JUMPDEST POP JUMP JUMPDEST PUSH0 DUP2 CALLDATALOAD SWAP1 POP PUSH2 0xADF DUP2 PUSH2 0xABB JUMP JUMPDEST SWAP3 SWAP2 POP POP JUMP JUMPDEST PUSH0 DUP2 SWAP1 POP SWAP2 SWAP1 POP JUMP JUMPDEST PUSH2 0xAF7 DUP2 PUSH2 0xAE5 JUMP JUMPDEST DUP2 EQ PUSH2 0xB01 JUMPI PUSH0 DUP1 REVERT JUMPDEST POP JUMP JUMPDEST PUSH0 DUP2 CALLDATALOAD SWAP1 POP PUSH2 0xB12 DUP2 PUSH2 0xAEE JUMP JUMPDEST SWAP3 SWAP2 POP POP JUMP JUMPDEST PUSH0 DUP1 PUSH1 0x40 DUP4 DUP6 SUB SLT ISZERO PUSH2 0xB2E JUMPI PUSH2 0xB2D PUSH2 0xA83 JUMP JUMPDEST JUMPDEST PUSH0 PUSH2 0xB3B DUP6 DUP3 DUP7 ADD PUSH2 0xAD1 JUMP JUMPDEST SWAP3 POP POP PUSH1 0x20 PUSH2 0xB4C DUP6 DUP3 DUP7 ADD PUSH2 0xB04 JUMP JUMPDEST SWAP2 POP POP SWAP3 POP SWAP3 SWAP1 POP JUMP JUMPDEST PUSH2 0xB5F DUP2 PUSH2 0xAE5 JUMP JUMPDEST DUP3 MSTORE POP POP JUMP JUMPDEST PUSH0 PUSH1 0x20 DUP3 ADD SWAP1 POP PUSH2 0xB78 PUSH0 DUP4 ADD DUP5 PUSH2 0xB56 JUMP JUMPDEST SWAP3 SWAP2 POP POP JUMP JUMPDEST PUSH0 DUP1 REVERT JUMPDEST PUSH0 DUP1 REVERT JUMPDEST PUSH0 PUSH1 0x1F NOT PUSH1 0x1F DUP4 ADD AND SWAP1 POP SWAP2 SWAP1 POP JUMP JUMPDEST PUSH32 0x4E487B7100000000000000000000000000000000000000000000000000000000 PUSH0 MSTORE PUSH1 0x41 PUSH1 0x4 MSTORE PUSH1 0x24 PUSH0 REVERT JUMPDEST PUSH2 0xBCC DUP3 PUSH2 0xB86 JUMP JUMPDEST DUP2 ADD DUP2 DUP2 LT PUSH8 0xFFFFFFFFFFFFFFFF DUP3 GT OR ISZERO PUSH2 0xBEB JUMPI PUSH2 0xBEA PUSH2 0xB96 JUMP JUMPDEST JUMPDEST DUP1 PUSH1 0x40 MSTORE POP POP POP JUMP JUMPDEST PUSH0 PUSH2 0xBFD PUSH2 0xA7A JUMP JUMPDEST SWAP1 POP PUSH2 0xC09 DUP3 DUP3 PUSH2 0xBC3 JUMP JUMPDEST SWAP2 SWAP1 POP JUMP JUMPDEST PUSH0 PUSH8 0xFFFFFFFFFFFFFFFF DUP3 GT ISZERO PUSH2 0xC28 JUMPI PUSH2 0xC27 PUSH2 0xB96 JUMP JUMPDEST JUMPDEST PUSH2 0xC31 DUP3 PUSH2 0xB86 JUMP JUMPDEST SWAP1 POP PUSH1 0x20 DUP2 ADD SWAP1 POP SWAP2 SWAP1 POP JUMP JUMPDEST DUP3 DUP2 DUP4 CALLDATACOPY PUSH0 DUP4 DUP4 ADD MSTORE POP POP POP JUMP JUMPDEST PUSH0 PUSH2 0xC5E PUSH2 0xC59 DUP5 PUSH2 0xC0E JUMP JUMPDEST PUSH2 0xBF4 JUMP JUMPDEST SWAP1 POP DUP3 DUP2 MSTORE PUSH1 0x20 DUP2 ADD DUP5 DUP5 DUP5 ADD GT ISZERO PUSH2 0xC7A JUMPI PUSH2 0xC79 PUSH2 0xB82 JUMP JUMPDEST JUMPDEST PUSH2 0xC85 DUP5 DUP3 DUP6 PUSH2 0xC3E JUMP JUMPDEST POP SWAP4 SWAP3 POP POP POP JUMP JUMPDEST PUSH0 DUP3 PUSH1 0x1F DUP4 ADD SLT PUSH2 0xCA1 JUMPI PUSH2 0xCA0 PUSH2 0xB7E JUMP JUMPDEST JUMPDEST DUP2 CALLDATALOAD PUSH2 0xCB1 DUP5 DUP3 PUSH1 0x20 DUP7 ADD PUSH2 0xC4C JUMP JUMPDEST SWAP2 POP POP SWAP3 SWAP2 POP POP JUMP JUMPDEST PUSH0 DUP1 PUSH1 0x40 DUP4 DUP6 SUB SLT ISZERO PUSH2 0xCD0 JUMPI PUSH2 0xCCF PUSH2 0xA83 JUMP JUMPDEST JUMPDEST PUSH0 DUP4 ADD CALLDATALOAD PUSH8 0xFFFFFFFFFFFFFFFF DUP2 GT ISZERO PUSH2 0xCED JUMPI PUSH2 0xCEC PUSH2 0xA87 JUMP JUMPDEST JUMPDEST PUSH2 0xCF9 DUP6 DUP3 DUP7 ADD PUSH2 0xC8D JUMP JUMPDEST SWAP3 POP POP PUSH1 0x20 PUSH2 0xD0A DUP6 DUP3 DUP7 ADD PUSH2 0xB04 JUMP JUMPDEST SWAP2 POP POP SWAP3 POP SWAP3 SWAP1 POP JUMP JUMPDEST PUSH0 PUSH1 0x20 DUP3 DUP5 SUB SLT ISZERO PUSH2 0xD29 JUMPI PUSH2 0xD28 PUSH2 0xA83 JUMP JUMPDEST JUMPDEST PUSH0 PUSH2 0xD36 DUP5 DUP3 DUP6 ADD PUSH2 0xAD1 JUMP JUMPDEST SWAP2 POP POP SWAP3 SWAP2 POP POP JUMP JUMPDEST PUSH0 DUP2 MLOAD SWAP1 POP SWAP2 SWAP1 POP JUMP JUMPDEST PUSH0 DUP3 DUP3 MSTORE PUSH1 0x20 DUP3 ADD SWAP1 POP SWAP3 SWAP2 POP POP JUMP JUMPDEST PUSH0 DUP2 SWAP1 POP PUSH1 0x20 DUP3 ADD SWAP1 POP SWAP2 SWAP1 POP JUMP JUMPDEST PUSH2 0xD71 DUP2 PUSH2 0xAE5 JUMP JUMPDEST DUP3 MSTORE POP POP JUMP JUMPDEST PUSH0 PUSH2 0xD82 DUP4 DUP4 PUSH2 0xD68 JUMP JUMPDEST PUSH1 0x20 DUP4 ADD SWAP1 POP SWAP3 SWAP2 POP POP JUMP JUMPDEST PUSH0 PUSH1 0x20 DUP3 ADD SWAP1 POP SWAP2 SWAP1 POP JUMP JUMPDEST PUSH0 PUSH2 0xDA4 DUP3 PUSH2 0xD3F JUMP JUMPDEST PUSH2 0xDAE DUP2 DUP6 PUSH2 0xD49 JUMP JUMPDEST SWAP4 POP PUSH2 0xDB9 DUP4 PUSH2 0xD59 JUMP JUMPDEST DUP1 PUSH0 JUMPDEST DUP4 DUP2 LT ISZERO PUSH2 0xDE9 JUMPI DUP2 MLOAD PUSH2 0xDD0 DUP9 DUP3 PUSH2 0xD77 JUMP JUMPDEST SWAP8 POP PUSH2 0xDDB DUP4 PUSH2 0xD8E JUMP JUMPDEST SWAP3 POP POP PUSH1 0x1 DUP2 ADD SWAP1 POP PUSH2 0xDBC JUMP JUMPDEST POP DUP6 SWAP4 POP POP POP POP SWAP3 SWAP2 POP POP JUMP JUMPDEST PUSH0 PUSH1 0x20 DUP3 ADD SWAP1 POP DUP2 DUP2 SUB PUSH0 DUP4 ADD MSTORE PUSH2 0xE0E DUP2 DUP5 PUSH2 0xD9A JUMP JUMPDEST SWAP1 POP SWAP3 SWAP2 POP POP JUMP JUMPDEST PUSH0 DUP1 PUSH1 0x40 DUP4 DUP6 SUB SLT ISZERO PUSH2 0xE2C JUMPI PUSH2 0xE2B PUSH2 0xA83 JUMP JUMPDEST JUMPDEST PUSH0 PUSH2 0xE39 DUP6 DUP3 DUP7 ADD PUSH2 0xB04 JUMP JUMPDEST SWAP3 POP POP PUSH1 0x20 PUSH2 0xE4A DUP6 DUP3 DUP7 ADD PUSH2 0xAD1 JUMP JUMPDEST SWAP2 POP POP SWAP3 POP SWAP3 SWAP1 POP JUMP JUMPDEST PUSH0 PUSH1 0x20 DUP3 DUP5 SUB SLT ISZERO PUSH2 0xE69 JUMPI PUSH2 0xE68 PUSH2 0xA83 JUMP JUMPDEST JUMPDEST PUSH0 PUSH2 0xE76 DUP5 DUP3 DUP6 ADD PUSH2 0xB04 JUMP JUMPDEST SWAP2 POP POP SWAP3 SWAP2 POP POP JUMP JUMPDEST PUSH0 DUP2 MLOAD SWAP1 POP SWAP2 SWAP1 POP JUMP JUMPDEST PUSH0 DUP3 DUP3 MSTORE PUSH1 0x20 DUP3 ADD SWAP1 POP SWAP3 SWAP2 POP POP JUMP JUMPDEST DUP3 DUP2 DUP4 MCOPY PUSH0 DUP4 DUP4 ADD MSTORE POP POP POP JUMP JUMPDEST PUSH0 PUSH2 0xEB1 DUP3 PUSH2 0xE7F JUMP JUMPDEST PUSH2 0xEBB DUP2 DUP6 PUSH2 0xE89 JUMP JUMPDEST SWAP4 POP PUSH2 0xECB DUP2 DUP6 PUSH1 0x20 DUP7 ADD PUSH2 0xE99 JUMP JUMPDEST PUSH2 0xED4 DUP2 PUSH2 0xB86 JUMP JUMPDEST DUP5 ADD SWAP2 POP POP SWAP3 SWAP2 POP POP JUMP JUMPDEST PUSH0 PUSH2 0xEE9 DUP3 PUSH2 0xA8B JUMP JUMPDEST SWAP1 POP SWAP2 SWAP1 POP JUMP JUMPDEST PUSH2 0xEF9 DUP2 PUSH2 0xEDF JUMP JUMPDEST DUP3 MSTORE POP POP JUMP JUMPDEST PUSH2 0xF08 DUP2 PUSH2 0xAAA JUMP JUMPDEST DUP3 MSTORE POP POP JUMP JUMPDEST PUSH0 DUP2 ISZERO ISZERO SWAP1 POP SWAP2 SWAP1 POP JUMP JUMPDEST PUSH2 0xF22 DUP2 PUSH2 0xF0E JUMP JUMPDEST DUP3 MSTORE POP POP JUMP JUMPDEST PUSH0 PUSH1 0xC0 DUP3 ADD SWAP1 POP PUSH2 0xF3B PUSH0 DUP4 ADD DUP10 PUSH2 0xB56 JUMP JUMPDEST DUP2 DUP2 SUB PUSH1 0x20 DUP4 ADD MSTORE PUSH2 0xF4D DUP2 DUP9 PUSH2 0xEA7 JUMP JUMPDEST SWAP1 POP PUSH2 0xF5C PUSH1 0x40 DUP4 ADD DUP8 PUSH2 0xB56 JUMP JUMPDEST PUSH2 0xF69 PUSH1 0x60 DUP4 ADD DUP7 PUSH2 0xEF0 JUMP JUMPDEST PUSH2 0xF76 PUSH1 0x80 DUP4 ADD DUP6 PUSH2 0xEFF JUMP JUMPDEST PUSH2 0xF83 PUSH1 0xA0 DUP4 ADD DUP5 PUSH2 0xF19 JUMP JUMPDEST SWAP8 SWAP7 POP POP POP POP POP POP POP JUMP JUMPDEST PUSH32 0x5072696365206D7573742062652067726561746572207468616E203000000000 PUSH0 DUP3 ADD MSTORE POP JUMP JUMPDEST PUSH0 PUSH2 0xFC2 PUSH1 0x1C DUP4 PUSH2 0xE89 JUMP JUMPDEST SWAP2 POP PUSH2 0xFCD DUP3 PUSH2 0xF8E JUMP JUMPDEST PUSH1 0x20 DUP3 ADD SWAP1 POP SWAP2 SWAP1 POP JUMP JUMPDEST PUSH0 PUSH1 0x20 DUP3 ADD SWAP1 POP DUP2 DUP2 SUB PUSH0 DUP4 ADD MSTORE PUSH2 0xFEF DUP2 PUSH2 0xFB6 JUMP JUMPDEST SWAP1 POP SWAP2 SWAP1 POP JUMP JUMPDEST PUSH32 0x4E487B7100000000000000000000000000000000000000000000000000000000 PUSH0 MSTORE PUSH1 0x11 PUSH1 0x4 MSTORE PUSH1 0x24 PUSH0 REVERT JUMPDEST PUSH0 PUSH2 0x102D DUP3 PUSH2 0xAE5 JUMP JUMPDEST SWAP2 POP PUSH32 0xFFFFFFFFFFFFFFFFFFFFFFFFFFFFFFFFFFFFFFFFFFFFFFFFFFFFFFFFFFFFFFFF DUP3 SUB PUSH2 0x105F JUMPI PUSH2 0x105E PUSH2 0xFF6 JUMP JUMPDEST JUMPDEST PUSH1 0x1 DUP3 ADD SWAP1 POP SWAP2 SWAP1 POP JUMP JUMPDEST PUSH32 0x4E487B7100000000000000000000000000000000000000000000000000000000 PUSH0 MSTORE PUSH1 0x22 PUSH1 0x4 MSTORE PUSH1 0x24 PUSH0 REVERT JUMPDEST PUSH0 PUSH1 0x2 DUP3 DIV SWAP1 POP PUSH1 0x1 DUP3 AND DUP1 PUSH2 0x10AE JUMPI PUSH1 0x7F DUP3 AND SWAP2 POP JUMPDEST PUSH1 0x20 DUP3 LT DUP2 SUB PUSH2 0x10C1 JUMPI PUSH2 0x10C0 PUSH2 0x106A JUMP JUMPDEST JUMPDEST POP SWAP2 SWAP1 POP JUMP JUMPDEST PUSH0 DUP2 SWAP1 POP DUP2 PUSH0 MSTORE PUSH1 0x20 PUSH0 KECCAK256 SWAP1 POP SWAP2 SWAP1 POP JUMP JUMPDEST PUSH0 PUSH1 0x20 PUSH1 0x1F DUP4 ADD DIV SWAP1 POP SWAP2 SWAP1 POP JUMP JUMPDEST PUSH0 DUP3 DUP3 SHL SWAP1 POP SWAP3 SWAP2 POP POP JUMP JUMPDEST PUSH0 PUSH1 0x8 DUP4 MUL PUSH2 0x1123 PUSH32 0xFFFFFFFFFFFFFFFFFFFFFFFFFFFFFFFFFFFFFFFFFFFFFFFFFFFFFFFFFFFFFFFF DUP3 PUSH2 0x10E8 JUMP JUMPDEST PUSH2 0x112D DUP7 DUP4 PUSH2 0x10E8 JUMP JUMPDEST SWAP6 POP DUP1 NOT DUP5 AND SWAP4 POP DUP1 DUP7 AND DUP5 OR SWAP3 POP POP POP SWAP4 SWAP3 POP POP POP JUMP JUMPDEST PUSH0 DUP2 SWAP1 POP SWAP2 SWAP1 POP JUMP JUMPDEST PUSH0 PUSH2 0x1168 PUSH2 0x1163 PUSH2 0x115E DUP5 PUSH2 0xAE5 JUMP JUMPDEST PUSH2 0x1145 JUMP JUMPDEST PUSH2 0xAE5 JUMP JUMPDEST SWAP1 POP SWAP2 SWAP1 POP JUMP JUMPDEST PUSH0 DUP2 SWAP1 POP SWAP2 SWAP1 POP JUMP JUMPDEST PUSH2 0x1181 DUP4 PUSH2 0x114E JUMP JUMPDEST PUSH2 0x1195 PUSH2 0x118D DUP3 PUSH2 0x116F JUMP JUMPDEST DUP5 DUP5 SLOAD PUSH2 0x10F4 JUMP JUMPDEST DUP3 SSTORE POP POP POP POP JUMP JUMPDEST PUSH0 SWAP1 JUMP JUMPDEST PUSH2 0x11A9 PUSH2 0x119D JUMP JUMPDEST PUSH2 0x11B4 DUP2 DUP5 DUP5 PUSH2 0x1178 JUMP JUMPDEST POP POP POP JUMP JUMPDEST JUMPDEST DUP2 DUP2 LT ISZERO PUSH2 0x11D7 JUMPI PUSH2 0x11CC PUSH0 DUP3 PUSH2 0x11A1 JUMP JUMPDEST PUSH1 0x1 DUP2 ADD SWAP1 POP PUSH2 0x11BA JUMP JUMPDEST POP POP JUMP JUMPDEST PUSH1 0x1F DUP3 GT ISZERO PUSH2 0x121C JUMPI PUSH2 0x11ED DUP2 PUSH2 0x10C7 JUMP JUMPDEST PUSH2 0x11F6 DUP5 PUSH2 0x10D9 JUMP JUMPDEST DUP2 ADD PUSH1 0x20 DUP6 LT ISZERO PUSH2 0x1205 JUMPI DUP2 SWAP1 POP JUMPDEST PUSH2 0x1219 PUSH2 0x1211 DUP6 PUSH2 0x10D9 JUMP JUMPDEST DUP4 ADD DUP3 PUSH2 0x11B9 JUMP JUMPDEST POP POP JUMPDEST POP POP POP JUMP JUMPDEST PUSH0 DUP3 DUP3 SHR SWAP1 POP SWAP3 SWAP2 POP POP JUMP JUMPDEST PUSH0 PUSH2 0x123C PUSH0 NOT DUP5 PUSH1 0x8 MUL PUSH2 0x1221 JUMP JUMPDEST NOT DUP1 DUP4 AND SWAP2 POP POP SWAP3 SWAP2 POP POP JUMP JUMPDEST PUSH0 PUSH2 0x1254 DUP4 DUP4 PUSH2 0x122D JUMP JUMPDEST SWAP2 POP DUP3 PUSH1 0x2 MUL DUP3 OR SWAP1 POP SWAP3 SWAP2 POP POP JUMP JUMPDEST PUSH2 0x126D DUP3 PUSH2 0xE7F JUMP JUMPDEST PUSH8 0xFFFFFFFFFFFFFFFF DUP2 GT ISZERO PUSH2 0x1286 JUMPI PUSH2 0x1285 PUSH2 0xB96 JUMP JUMPDEST JUMPDEST PUSH2 0x1290 DUP3 SLOAD PUSH2 0x1097 JUMP JUMPDEST PUSH2 0x129B DUP3 DUP3 DUP6 PUSH2 0x11DB JUMP JUMPDEST PUSH0 PUSH1 0x20 SWAP1 POP PUSH1 0x1F DUP4 GT PUSH1 0x1 DUP2 EQ PUSH2 0x12CC JUMPI PUSH0 DUP5 ISZERO PUSH2 0x12BA JUMPI DUP3 DUP8 ADD MLOAD SWAP1 POP JUMPDEST PUSH2 0x12C4 DUP6 DUP3 PUSH2 0x1249 JUMP JUMPDEST DUP7 SSTORE POP PUSH2 0x132B JUMP JUMPDEST PUSH1 0x1F NOT DUP5 AND PUSH2 0x12DA DUP7 PUSH2 0x10C7 JUMP JUMPDEST PUSH0 JUMPDEST DUP3 DUP2 LT ISZERO PUSH2 0x1301 JUMPI DUP5 DUP10 ADD MLOAD DUP3 SSTORE PUSH1 0x1 DUP3 ADD SWAP2 POP PUSH1 0x20 DUP6 ADD SWAP5 POP PUSH1 0x20 DUP2 ADD SWAP1 POP PUSH2 0x12DC JUMP JUMPDEST DUP7 DUP4 LT ISZERO PUSH2 0x131E JUMPI DUP5 DUP10 ADD MLOAD PUSH2 0x131A PUSH1 0x1F DUP10 AND DUP3 PUSH2 0x122D JUMP JUMPDEST DUP4 SSTORE POP JUMPDEST PUSH1 0x1 PUSH1 0x2 DUP9 MUL ADD DUP9 SSTORE POP POP POP JUMPDEST POP POP POP POP POP POP JUMP JUMPDEST PUSH32 0x6974656D20646F6573206E6F7420657869737400000000000000000000000000 PUSH0 DUP3 ADD MSTORE POP JUMP JUMPDEST PUSH0 PUSH2 0x1367 PUSH1 0x13 DUP4 PUSH2 0xE89 JUMP JUMPDEST SWAP2 POP PUSH2 0x1372 DUP3 PUSH2 0x1333 JUMP JUMPDEST PUSH1 0x20 DUP3 ADD SWAP1 POP SWAP2 SWAP1 POP JUMP JUMPDEST PUSH0 PUSH1 0x20 DUP3 ADD SWAP1 POP DUP2 DUP2 SUB PUSH0 DUP4 ADD MSTORE PUSH2 0x1394 DUP2 PUSH2 0x135B JUMP JUMPDEST SWAP1 POP SWAP2 SWAP1 POP JUMP JUMPDEST PUSH32 0x796F7520617265206E6F7420746865206F776E6572206F662074686973206974 PUSH0 DUP3 ADD MSTORE PUSH32 0x656D000000000000000000000000000000000000000000000000000000000000 PUSH1 0x20 DUP3 ADD MSTORE POP JUMP JUMPDEST PUSH0 PUSH2 0x13F5 PUSH1 0x22 DUP4 PUSH2 0xE89 JUMP JUMPDEST SWAP2 POP PUSH2 0x1400 DUP3 PUSH2 0x139B JUMP JUMPDEST PUSH1 0x40 DUP3 ADD SWAP1 POP SWAP2 SWAP1 POP JUMP JUMPDEST PUSH0 PUSH1 0x20 DUP3 ADD SWAP1 POP DUP2 DUP2 SUB PUSH0 DUP4 ADD MSTORE PUSH2 0x1422 DUP2 PUSH2 0x13E9 JUMP JUMPDEST SWAP1 POP SWAP2 SWAP1 POP JUMP JUMPDEST PUSH32 0x696E76616C696420496400000000000000000000000000000000000000000000 PUSH0 DUP3 ADD MSTORE POP JUMP JUMPDEST PUSH0 PUSH2 0x145D PUSH1 0xA DUP4 PUSH2 0xE89 JUMP JUMPDEST SWAP2 POP PUSH2 0x1468 DUP3 PUSH2 0x1429 JUMP JUMPDEST PUSH1 0x20 DUP3 ADD SWAP1 POP SWAP2 SWAP1 POP JUMP JUMPDEST PUSH0 PUSH1 0x20 DUP3 ADD SWAP1 POP DUP2 DUP2 SUB PUSH0 DUP4 ADD MSTORE PUSH2 0x148A DUP2 PUSH2 0x1451 JUMP JUMPDEST SWAP1 POP SWAP2 SWAP1 POP JUMP JUMPDEST PUSH32 0x696E636F72726563742070726963650000000000000000000000000000000000 PUSH0 DUP3 ADD MSTORE POP JUMP JUMPDEST PUSH0 PUSH2 0x14C5 PUSH1 0xF DUP4 PUSH2 0xE89 JUMP JUMPDEST SWAP2 POP PUSH2 0x14D0 DUP3 PUSH2 0x1491 JUMP JUMPDEST PUSH1 0x20 DUP3 ADD SWAP1 POP SWAP2 SWAP1 POP JUMP JUMPDEST PUSH0 PUSH1 0x20 DUP3 ADD SWAP1 POP DUP2 DUP2 SUB PUSH0 DUP4 ADD MSTORE PUSH2 0x14F2 DUP2 PUSH2 0x14B9 JUMP JUMPDEST SWAP1 POP SWAP2 SWAP1 POP JUMP JUMPDEST PUSH32 0x6974656D20616C726561647920736F6C64000000000000000000000000000000 PUSH0 DUP3 ADD MSTORE POP JUMP JUMPDEST PUSH0 PUSH2 0x152D PUSH1 0x11 DUP4 PUSH2 0xE89 JUMP JUMPDEST SWAP2 POP PUSH2 0x1538 DUP3 PUSH2 0x14F9 JUMP JUMPDEST PUSH1 0x20 DUP3 ADD SWAP1 POP SWAP2 SWAP1 POP JUMP JUMPDEST PUSH0 PUSH1 0x20 DUP3 ADD SWAP1 POP DUP2 DUP2 SUB PUSH0 DUP4 ADD MSTORE PUSH2 0x155A DUP2 PUSH2 0x1521 JUMP JUMPDEST SWAP1 POP SWAP2 SWAP1 POP JUMP JUMPDEST PUSH32 0x53656C6C65722063616E6E6F7420627579207468656972206F776E206974656D PUSH0 DUP3 ADD MSTORE POP JUMP JUMPDEST PUSH0 PUSH2 0x1595 PUSH1 0x20 DUP4 PUSH2 0xE89 JUMP JUMPDEST SWAP2 POP PUSH2 0x15A0 DUP3 PUSH2 0x1561 JUMP JUMPDEST PUSH1 0x20 DUP3 ADD SWAP1 POP SWAP2 SWAP1 POP JUMP JUMPDEST PUSH0 PUSH1 0x20 DUP3 ADD SWAP1 POP DUP2 DUP2 SUB PUSH0 DUP4 ADD MSTORE PUSH2 0x15C2 DUP2 PUSH2 0x1589 JUMP JUMPDEST SWAP1 POP SWAP2 SWAP1 POP JUMP JUMPDEST PUSH32 0x4E487B7100000000000000000000000000000000000000000000000000000000 PUSH0 MSTORE PUSH1 0x32 PUSH1 0x4 MSTORE PUSH1 0x24 PUSH0 REVERT JUMPDEST PUSH0 PUSH2 0x1600 DUP3 PUSH2 0xAE5 JUMP JUMPDEST SWAP2 POP PUSH2 0x160B DUP4 PUSH2 0xAE5 JUMP JUMPDEST SWAP3 POP DUP3 DUP3 SUB SWAP1 POP DUP2 DUP2 GT ISZERO PUSH2 0x1623 JUMPI PUSH2 0x1622 PUSH2 0xFF6 JUMP JUMPDEST JUMPDEST SWAP3 SWAP2 POP POP JUMP JUMPDEST PUSH32 0x4E487B7100000000000000000000000000000000000000000000000000000000 PUSH0 MSTORE PUSH1 0x31 PUSH1 0x4 MSTORE PUSH1 0x24 PUSH0 REVERT INVALID LOG2 PUSH5 0x6970667358 0x22 SLT KECCAK256 PUSH14 0xFEA257EAB2CB4B40ACF8B7C9F0A7 0xEA GASLIMIT 0xB6 JUMPI 0xC5 0xC5 0x1E 0xBC CHAINID 0xB4 CODESIZE PUSH21 0x1643B7662164736F6C634300081A00330000000000 "
				},
				"gasEstimates": {
					"creation": {
						"codeDepositCost": "1154400",
						"executionCost": "6203",
						"totalCost": "1160603"
					},
					"external": {
						"getItemByOwner(address)": "infinite",
						"itemCount()": "2447",
						"items(uint256)": "infinite",
						"listItem(string,uint256)": "infinite",
						"ownedItems(address,uint256)": "infinite",
						"purchaseItem(uint256)": "infinite",
						"transferItem(uint256,address)": "infinite"
					},
					"internal": {
						"_transferOwnership(uint256,address,address)": "infinite"
					}
				},
				"methodIdentifiers": {
					"getItemByOwner(address)": "98ada83b",
					"itemCount()": "6bfb0d01",
					"items(uint256)": "bfb231d2",
					"listItem(string,uint256)": "8511c937",
					"ownedItems(address,uint256)": "42846534",
					"purchaseItem(uint256)": "d38ea5bf",
					"transferItem(uint256,address)": "a4229101"
				}
			},
			"storageLayout": {
				"storage": [
					{
						"astId": 17,
						"contract": "contracts/Marketplace.sol:Marketplace",
						"label": "itemCount",
						"offset": 0,
						"slot": "0",
						"type": "t_uint256"
					},
					{
						"astId": 22,
						"contract": "contracts/Marketplace.sol:Marketplace",
						"label": "items",
						"offset": 0,
						"slot": "1",
						"type": "t_mapping(t_uint256,t_struct(Item)14_storage)"
					},
					{
						"astId": 27,
						"contract": "contracts/Marketplace.sol:Marketplace",
						"label": "ownedItems",
						"offset": 0,
						"slot": "2",
						"type": "t_mapping(t_address,t_array(t_uint256)dyn_storage)"
					}
				],
				"types": {
					"t_address": {
						"encoding": "inplace",
						"label": "address",
						"numberOfBytes": "20"
					},
					"t_address_payable": {
						"encoding": "inplace",
						"label": "address payable",
						"numberOfBytes": "20"
					},
					"t_array(t_uint256)dyn_storage": {
						"base": "t_uint256",
						"encoding": "dynamic_array",
						"label": "uint256[]",
						"numberOfBytes": "32"
					},
					"t_bool": {
						"encoding": "inplace",
						"label": "bool",
						"numberOfBytes": "1"
					},
					"t_mapping(t_address,t_array(t_uint256)dyn_storage)": {
						"encoding": "mapping",
						"key": "t_address",
						"label": "mapping(address => uint256[])",
						"numberOfBytes": "32",
						"value": "t_array(t_uint256)dyn_storage"
					},
					"t_mapping(t_uint256,t_struct(Item)14_storage)": {
						"encoding": "mapping",
						"key": "t_uint256",
						"label": "mapping(uint256 => struct Marketplace.Item)",
						"numberOfBytes": "32",
						"value": "t_struct(Item)14_storage"
					},
					"t_string_storage": {
						"encoding": "bytes",
						"label": "string",
						"numberOfBytes": "32"
					},
					"t_struct(Item)14_storage": {
						"encoding": "inplace",
						"label": "struct Marketplace.Item",
						"members": [
							{
								"astId": 3,
								"contract": "contracts/Marketplace.sol:Marketplace",
								"label": "id",
								"offset": 0,
								"slot": "0",
								"type": "t_uint256"
							},
							{
								"astId": 5,
								"contract": "contracts/Marketplace.sol:Marketplace",
								"label": "name",
								"offset": 0,
								"slot": "1",
								"type": "t_string_storage"
							},
							{
								"astId": 7,
								"contract": "contracts/Marketplace.sol:Marketplace",
								"label": "price",
								"offset": 0,
								"slot": "2",
								"type": "t_uint256"
							},
							{
								"astId": 9,
								"contract": "contracts/Marketplace.sol:Marketplace",
								"label": "seller",
								"offset": 0,
								"slot": "3",
								"type": "t_address_payable"
							},
							{
								"astId": 11,
								"contract": "contracts/Marketplace.sol:Marketplace",
								"label": "owner",
								"offset": 0,
								"slot": "4",
								"type": "t_address"
							},
							{
								"astId": 13,
								"contract": "contracts/Marketplace.sol:Marketplace",
								"label": "isSold",
								"offset": 20,
								"slot": "4",
								"type": "t_bool"
							}
						],
						"numberOfBytes": "160"
					},
					"t_uint256": {
						"encoding": "inplace",
						"label": "uint256",
						"numberOfBytes": "32"
					}
				}
			},
			"userdoc": {
				"kind": "user",
				"methods": {},
				"version": 1
			}
		}
	}
}